:100000000C9495010C94C6010C94C6010C94C60185
:100010000C94C6010C94C6010C94C6010C94C60144
:100020000C94C6010C9415040C9415040C9415043E
:100030000C94C6010C941A070C94C6010C94C601CA
:100040000C94C6010C94BD0A0C94C6010C94C60114
:100050000C94C6010C94C6010C94C6010C941C0CA3
:100060000C94C6010C9489080C945F080C94C6018A
:100070000C94C6010C94C6010C94C6010C94C601E4
:100080000C94C6010C94C6010C94C6010C94C601D4
:100090000C94C6010C94C6010C94C6010C941F0468
:1000A0000C94C6010C94C6010C94C6010C94C601B4
:1000B0000C94C6010C94C6010C94C6010C94B308B0
:1000C0000C94C6010C94C6010C94C6010C9435081E
:1000D0000C940B080C94C6010C94E1070C94B70720
:1000E0000C94C601D209D709DC09E609F009690AAE
:1000F000FA09020A0A0A140A1E0A280A370A410AD9
:10010000690A4B0A550A5F0A800B830B720B760B48
:100110007C0BBA0B870B8B0B910B950B990B9F0BE1
:10012000A30BA70BBA0BAD0BB10BB50B0C9458027C
:100130000C9450060C94D2090C94140A0C94910B54
:100140000C94BA0B0C940A0A0C94760B0C949D0632
:100150000C94D3050C94F5060C94B10B0C94EF069B
:100160000C94E2050C94F0060C94020A0C94690AB3
:100170000C94B50B0C94B1020C94A30B0C94840258
:100180000C945F0A0C94990B0C947C0B0C94F00962
:100190000C94A6110C94A9050C94370A0C94950B99
:1001A0000C94830B0C941E0A0C9404060C94F60514
:1001B0000C94870B0C94410A0C947C020C94BE0F97
:1001C0000C94DC090C948B0B0C944B0A0C949F0B35
:1001D0000C9456020C94D7090C94E6090C94A70BC6
:1001E0000C9468020C94FA090C94280A0C94570297
:1001F0000C9459020C94AD0B0C94550A0C94800B82
:100200000C94720B00002200250028002B002E0009
:100210003100340002010000050108010B0100005B
:1002200020002300260029002C002F0032000001AE
:100230000000030106010901050505050705080879
:100240000808020202020A0A080804040404010160
:100250000101010101010303030303030303040775
:1002600007070C0C0C0C0C0C0C0C0202020206060C
:100270000606060606060B0B0B0B0B0B0B0B0102FF
:1002800010202008081020401020408002010201A8
:100290000804020101020408102040808040201060
:1002A00008040201800402018040201008040201B9
:1002B0000804020101020408102040800102040821
:1002C0001020408000000A0B02090C0D0E080703E5
:1002D0000401000000000000000000000000000019
:1002E000000000000000000000000000000000000E
:1002F00012111000000000000000000000000000CB
:1003000000000000000000000000020000210024A6
:100310000027002A002D00300033000101000004F6
:100320000107010A0100BE0FA61111241FBECFEF65
:10033000D1E2DEBFCDBF00E00CBF13E0A0E0B2E031
:10034000E8E5FAE200E00BBF02C007900D92A83486
:10035000B107D9F728E0A8E4B3E001C01D92AE319F
:10036000B207E1F711E0C4E9D1E000E006C021974F
:100370000109802FFE010E94BC12C339D10780E021
:100380000807A9F70E94660C0C941A150C9400003B
:1003900030915403313208F04BC0809152038111E7
:1003A000FCCF90912F0722E02093520321E020936D
:1003B00051032FEF20930D0710920C0730930B077A
:1003C000EFE0F7E0ABEEB6E020E0321721F041912C
:1003D0004D932F5FFACF1092EA062091EA06990F0B
:1003E000922B9093EA0690915003913061F4109211
:1003F00050039091EA069093BB009091BC0093FD4E
:10040000F8CF95EC01C095EE9093BC00909152030B
:100410009230E1F390910D079F3F79F080910D07A5
:10042000803241F080910D07803331F084E005C0C7
:1004300081E003C082E001C083E010925303109278
:10044000540310920E07089585ED8093BC008091AF
:10045000BC0084FDFCCF1092520308954091C50664
:10046000262F30E0240F311D21323105DCF420919C
:1004700052032430C9F4FC0180E090E0861758F460
:100480003091C5062191DC01AB55B94FA30FB11DC9
:100490002C930196F3CF8091C506680F6093C50633
:1004A00080E0089581E0089582E008950895089518
:1004B0000895E0914B0380914A03E81730F4F0E08F
:1004C000EB57F94F808190E008958FEF9FEF0895EB
:1004D00090914B0380914A03981750F4E92FF0E074
:1004E000EB57F94F208130E09F5F90934B0302C0A0
:1004F0002FEF3FEFC901089580914A0390E02091CA
:100500004B03821B91090895CF92DF92EF92FF92E5
:100510000F931F93CF93DF937C01CB018A0120912E
:100520000E07222389F0EB016B01C40ED51ECC15FA
:10053000DD0569F06991D701ED91FC910190F081A1
:10054000E02DC7011995F3CF642F0E942E02C80138
:10055000DF91CF911F910F91FF90EF90DF90CF909F
:100560000895CF93DF931F92CDB7DEB769832091B3
:100570000E072223D1F020915403203240F021E0D5
:1005800030E0FC013383228380E090E015C080914D
:100590005303E82FF0E0E15FF84F998190838F5F7C
:1005A000809353038093540305C061E0CE0101960C
:1005B0000E942E0281E090E00F90DF91CF9108958C
:1005C000EBE9F4E0A089B18982E08C93A485B5853C
:1005D0001C92A685B7858FEC8C93108EA489B58963
:1005E00086E08C93A289B3898C9180618C93A289D7
:1005F000B3898C9188608C93A289B3898C9180682F
:100600008C930288F389E02D80818F7D808308950B
:10061000009769F0FC0101900020E9F73197AF01E4
:10062000481B590BBC018BE994E00C94A90580E0B0
:1006300090E00895CF93DF930E940803EC018FE3CD
:1006400092E00E9408038C0F9D1FDF91CF910895C7
:100650008F929F92AF92BF92CF92DF92EF92FF92D2
:100660000F931F93CF93DF93CDB7DEB7A1970FB64C
:10067000F894DEBF0FBECDBF6C01990FEE08FF08E6
:10068000F7FE2BC06DE28BE994E00E9450068C01CE
:1006900022273327A9012C193D094E095F0919A208
:1006A000CE0181967C019AE0892E912CA12CB12C4F
:1006B000CA01B901A50194010E948E12605DF70183
:1006C00062937F01211531054105510589F7CF015D
:1006D0000E940803800F911F1DC0A701960119A257
:1006E0008E010F5D1F4F8AE0C82ED12CE12CF12C1A
:1006F000CA01B901A70196010E948E12605DF8013E
:1007000062938F01211531054105510589F7CF010C
:100710000E940803A1960FB6F894DEBF0FBECDBFAE
:10072000DF91CF911F910F91FF90EF90DF90CF90CD
:10073000BF90AF909F908F9008950F931F93CF938A
:10074000DF93162F072FCEE4D6E09C8521E020937F
:100750000E0790932F071092530310925403AA850B
:10076000BB85ED91FC9111970190F081E02D682FF0
:10077000CD0119958A859B85DC01ED91FC91019055
:10078000F081E02D602F19958A859B85DC01ED9124
:10079000FC910190F081E02D612F1995DF91CF91AF
:1007A0001F910F910C94C801FC01248131E030931A
:1007B0000E0720932F071092530310925403848541
:1007C000682B85E593E00E94B1020C94C8010F9359
:1007D0001F93CF938C01C62F64600E94D4036C2FAB
:1007E0006B7FC8010E94D40383EC90E00197F1F77E
:1007F000CF911F910F910895FC01A089B1898C912F
:10080000A689B78982FD0FC09C91818D8F5F8F7300
:10081000228D821749F0218DDF01A20FB11D5D9657
:100820009C93818F08958C9108951F920F920FB61B
:100830000F9211240F900FBE0F901F9018951F92CA
:100840000F920FB60F9211240BB60F922F933F9376
:100850004F935F936F937F938F939F93AF93BF93C8
:10086000EF93FF938091B900887F803609F49CC094
:1008700068F5883209F45BC090F4803109F454C003
:1008800038F4882309F4F6C0883009F44DC0F6C066
:10089000883109F44CC0803209F45DC0EFC0803467
:1008A00009F468C048F4803309F455C0883309F06E
:1008B000E5C080930D07D8C0803509F44FC0883556
:1008C00009F45DC0883409F0D9C0D6C0883909F46C
:1008D000C7C0A8F4883709F467C038F4883609F42B
:1008E00063C0803709F460C0C9C0883809F4B8C053
:1008F000803909F45FC0803809F0C0C05BC0803B1C
:1009000009F486C038F4803A09F466C0883A09F4DC
:100910007FC0B4C0803C09F4A7C0883C09F4A4C0DF
:10092000883B09F48AC0AAC08091EA0610C0909161
:100930000C0780910B07981770F5E0910C0781E088
:100940008E0F80930C07F0E0E551F94F8081809382
:10095000BB0085EC86C080930D078EC0E0910C072C
:1009600081E08E0F80930C078091BB00F0E0E55191
:10097000F94F808390910C0780910B076EC0E09136
:100980000C0781E08E0F80930C078091BB00F0E094
:10099000E551F94F80838091510381116DC081E051
:1009A0008093500384EA61C083E0809352031092E5
:1009B000E706CFCF8091E706803208F051C0E09182
:1009C000E70681E08E0F8093E7068091BB00F0E0A0
:1009D000E953F94F8083BDCF85EC8093BC00109222
:1009E00052038091E706803230F4E091E706F0E0B0
:1009F000E953F94F10826091E70670E0E0914E03F1
:100A0000F0914F0387EC96E019951092E70636C0F7
:100A100084E0809352031092C6061092C506E091BE
:100A20004C03F0914D0319958091C506811105C0C5
:100A300081E08093C5061092A506E091C60681E08C
:100A40008E0F8093C606F0E0EB55F94F80818093BE
:100A5000BB009091C6068091C506981708F479CF1F
:100A600085E88093BC000AC085EC8093BC0010929E
:100A7000520304C010920D070E942402FF91EF91CF
:100A8000BF91AF919F918F917F916F915F914F91A6
:100A90003F912F910F900BBE0F900FBE0F901F90A4
:100AA0001895CF93DF93282F30E0F901EC53FD4FD9
:100AB0008491F901E258FD4FD491F901E85CFD4FB2
:100AC000C491CC2391F081110E94650BEC2FF0E0D2
:100AD000EE0FFF1FE25EFD4FA591B491EC91ED2367
:100AE00081E090E021F480E002C080E090E0DF91BE
:100AF000CF9108951F93CF93DF93282F30E0F90112
:100B0000EC53FD4F8491F901E258FD4FD491F90166
:100B1000E85CFD4FC491CC23C1F0162F81110E94D7
:100B2000650BEC2FF0E0EE0FFF1FEC5FFD4FA59182
:100B3000B4919FB7F894111104C08C91D095D8232B
:100B400002C0EC91DE2BDC939FBFDF91CF911F9110
:100B50000895CF92DF92EF92FF920F931F93CF935E
:100B6000DF936C017A018B01C0E0D0E0CE15DF0588
:100B700081F0D8016D918D01D601ED91FC9101902C
:100B8000F081E02DC6011995892B11F02196EECF49
:100B90007E01C701DF91CF911F910F91FF90EF90E0
:100BA000DF90CF900895FC01538D448D252F30E0C8
:100BB000842F90E0821B930B541710F0CF9608956A
:100BC00001970895FC01918D828D981761F0828DB7
:100BD000DF01A80FB11D5D968C91928D9F5F9F7371
:100BE000928F90E008958FEF9FEF0895FC01918D13
:100BF000828D981731F0828DE80FF11D858D90E080
:100C000008958FEF9FEF0895FC01918D228D892F1C
:100C100090E0805C9F4F821B91098F739927089504
:100C200081E693E00E94040621E0892B09F420E08C
:100C3000822F08958EEF93E00E94040621E0892B15
:100C400009F420E0822F08958BE994E00E940406C5
:100C500021E0892B09F420E0822F0895FC01848D86
:100C6000DF01A80FB11DA35ABF4F2C91848D90E0D6
:100C700001968F739927848FA689B7892C93A089B1
:100C8000B1898C91837080648C93938D848D98133B
:100C900006C00288F389E02D80818F7D80830895CE
:100CA000EF92FF920F931F93CF93DF93EC0181E0BC
:100CB000888F9B8D8C8D981305C0E889F989808178
:100CC00085FD26C0F62E0B8D10E00F5F1F4F0F73B2
:100CD0001127E02E8C8DE8120CC00FB607FCFACF5E
:100CE000E889F989808185FFF5CFCE010E942E0623
:100CF000F1CF8B8DFE01E80FF11DE35AFF4FF0821B
:100D00009FB7F8940B8FEA89FB89808180620AC0C3
:100D10009FB7F894EE89FF896083E889F98980811B
:100D20008370806480839FBF81E090E0DF91CF91EA
:100D30001F910F91FF90EF900895CF93DF93EC01F7
:100D4000888D8823C9F0EA89FB89808185FD05C0EB
:100D5000A889B9898C9186FD0FC00FB607FCF5CF25
:100D6000808185FFF2CFA889B9898C9185FFEDCF6D
:100D7000CE010E942E06E7CFDF91CF910895E0E0EB
:100D8000F0E0199480E090E0892B21F00E94240685
:100D9000811119C080E090E0892B41F080E090E063
:100DA000892B21F00E940000811110C00E941A06B8
:100DB00081110FC080E090E0892B81F00E94100625
:100DC00081110AC008950E940000E4CF0E94000033
:100DD000EDCF0E94BF06EECF0C9400000895089559
:100DE00080E090E008950E9405150F931F93CF9324
:100DF000DF938C01C62FD62FD07FD1606D2F0E943C
:100E0000D4036D2FC8010E94E70380E1C89FB001A1
:100E10001124C62FC1606C2FC8010E94D4036C2F0F
:100E2000C8010E94E70381E090E0DF91CF911F911C
:100E30000F9108951F920F920FB60F9211240BB6C7
:100E40000F922F933F934F935F936F937F938F9363
:100E50009F93AF93BF93EF93FF9380910D08909171
:100E60000E08A0910F08B0911008892B8A2B8B2BAC
:100E700049F190910C08809100008927809300002F
:100E800080910D0890910E08A0910F08B091100864
:100E9000181619061A061B060CF056C080910D088C
:100EA00090910E08A0910F08B09110080197A10928
:100EB000B10980930D0890930E08A0930F08B0938A
:100EC000100842C080910002EAE0F3E0E4919FEF55
:100ED00090930002E230C9F050F4EE2399F0E13033
:100EE00081F590916F009D7F90936F002AC0E43050
:100EF00019F1E0F0E53029F5909173009D7F909312
:100F000073001FC010926E001CC0909170009D7FF6
:100F10009093700091E09093B0009091B100987F11
:100F200094609093B1001092B3000BC09091710047
:100F30009D7F9093710005C0909172009D7F90936A
:100F4000720060E00E947A05FF91EF91BF91AF912E
:100F50009F918F917F916F915F914F913F912F91D1
:100F60000F900BBE0F900FBE0F901F9018951F9201
:100F70000F920FB60F9211240BB60F922F933F933F
:100F80004F935F936F937F938F939F93AF93BF9391
:100F9000EF93FF9381E693E00E942E06FF91EF917D
:100FA000BF91AF919F918F917F916F915F914F9181
:100FB0003F912F910F900BBE0F900FBE0F901F907F
:100FC00018951F920F920FB60F9211240BB60F9225
:100FD0002F933F934F935F936F937F938F939F9341
:100FE000AF93BF93EF93FF9381E693E00E94FC03DE
:100FF000FF91EF91BF91AF919F918F917F916F91F1
:101000005F914F913F912F910F900BBE0F900FBEAC
:101010000F901F9018951F920F920FB60F921124E8
:101020000BB60F922F933F934F935F936F937F93E2
:101030008F939F93AF93BF93EF93FF938EEF93E0C4
:101040000E942E06FF91EF91BF91AF919F918F91DA
:101050007F916F915F914F913F912F910F900BBEB8
:101060000F900FBE0F901F9018951F920F920FB602
:101070000F9211240BB60F922F933F934F935F93D0
:101080006F937F938F939F93AF93BF93EF93FF9350
:101090008EEF93E00E94FC03FF91EF91BF91AF911F
:1010A0009F918F917F916F915F914F913F912F9180
:1010B0000F900BBE0F900FBE0F901F9018951F92B0
:1010C0000F920FB60F9211240BB60F922F933F93EE
:1010D0004F935F936F937F938F939F93AF93BF9340
:1010E000EF93FF938BE994E00E942E06FF91EF911E
:1010F000BF91AF919F918F917F916F915F914F9130
:101100003F912F910F900BBE0F900FBE0F901F902D
:1011100018951F920F920FB60F9211240BB60F92D3
:101120002F933F934F935F936F937F938F939F93EF
:10113000AF93BF93EF93FF938BE994E00E94FC037E
:10114000FF91EF91BF91AF919F918F917F916F919F
:101150005F914F913F912F910F900BBE0F900FBE5B
:101160000F901F9018951F920F920FB60F92112497
:101170000BB60F922F933F934F935F936F937F9391
:101180008F939F93AF93BF93EF93FF938091390514
:101190000E94510520913D0530913E052F5F3F4F44
:1011A00030933E0520933D0590913C05953618F00F
:1011B00096E090933805909138059430C9F128F461
:1011C000923069F09330D1F05EC0953009F451C08F
:1011D000963009F058C091E09093090651C08111F2
:1011E00052C020913D0530913E052436310508F46A
:1011F00042C01092090610923C051CC0813009F0D3
:1012000042C0E0913C0591E09E0F90933C05F0E0D8
:1012100020913D0530913E05EE0FFF1FE85CFA4F2F
:101220003087278310923E0510923D0594E029C037
:10123000811117C0E0913C0591E09E0F90933C0511
:10124000F0E020913D0530913E05EE0FFF1FE85C78
:10125000FA4F3087278310923E0510923D0593E0A8
:1012600010C020913D0530913E052536310558F0DE
:1012700007C0811108C010923E0510923D0503C0C1
:1012800095E09093380590913B059923B9F0811131
:101290000AC080913A05882321F080913A0561E0E7
:1012A00009C02F9A0BC080913A05882331F08091B4
:1012B0003A0560E00E947A0501C02F98FF91EF91F6
:1012C000BF91AF919F918F917F916F915F914F915E
:1012D0003F912F910F900BBE0F900FBE0F901F905C
:1012E00018958F929F92AF92BF92CF92DF92EF921A
:1012F000FF920F931F93CF93DF938C016A017B01C1
:1013000020E030E04FE753E4C701B6010E94D0115E
:101310004B015C0120E030E0A9010E94FA1218168E
:101320001CF4C501B40103C0C501B40190580E946A
:10133000C412EB0120E030E0A901C701B6010E9410
:10134000FA12181614F460E001C061E0F80181811E
:101350000E947A05CF3FD10509F014F4DD2702C0C1
:10136000CFEFD0E0F801108161E0812F0E94BB0B2C
:10137000209709F4B1C0CF3FD10509F4AFC0E12FE8
:10138000F0E0EC53FD4FE4918E2F90E0FC0131979B
:10139000E231F10508F09DC08827EE58FF4F8F4FCE
:1013A0000C94BC1284B5806884BDC7BDA7C084B549
:1013B000806284BDC8BDA2C0809180008068809397
:1013C0008000D0938900C093880098C080918000ED
:1013D000806280938000D0938B00C0938A008EC07F
:1013E00080918000886080938000D0938D00C093AE
:1013F0008C0084C08091B00080688093B000C0935E
:10140000B3007CC08091B00080628093B000C09334
:10141000B40074C080919000806880939000D09355
:101420009900C09398006AC0809190008062809378
:101430009000D0939B00C0939A0060C08091900070
:10144000886080939000D0939D00C0939C0056C00C
:101450008091A00080688093A0008091A0008F7B85
:101460008093A000D093A900C093A80047C08091AA
:10147000A00080628093A000D093AB00C093AA002C
:101480003DC08091A00088608093A000D093AD0003
:10149000C093AC0033C0809120018068809320010C
:1014A000D0932901C093280129C080912001806236
:1014B00080932001D0932B01C0932A011FC08091FB
:1014C0002001886080932001D0932D01C0932C01CE
:1014D00015C0C038D10514F460E001C061E0812F6F
:1014E000DF91CF911F910F91FF90EF90DF90CF9000
:1014F000BF90AF909F908F900C947A05DF91CF9121
:101500001F910F91FF90EF90DF90CF90BF90AF9021
:101510009F908F9008958EBD00000DB407FEFDCF03
:101520008EB50895CF93DF93EC0160E088810E942F
:101530007A0588E90E948B0A80E00E948B0A80E08D
:101540000E948B0A80E00E948B0A80E00E948B0A36
:1015500061E088810E947A058BE891E00197F1F7BC
:1015600060E088810E947A0580EE0E948B0A61E02B
:101570008881DF91CF910C947A051F920F920FB65C
:101580000F9211240BB60F922F933F934F935F93BB
:101590006F937F938F939F93AF93BF93EF93FF933B
:1015A00080910B0887FF05C010928500109284007F
:1015B00016C020910B08022E000C330B80914606BA
:1015C00090E0281739075CF430910B0825E03203CE
:1015D000F0011124E65FF94F808186FD15C08091EE
:1015E0000B088F5F80930B0820910B08022E000CD4
:1015F000330B8091460690E02817390794F48091C8
:101600000B088C302CF10DC030910B083203F00127
:101610001124E65FF94F808160E08F730E947A05A4
:10162000DECF809184009091850084349C4918F429
:1016300080E49CE905C08091840090918500049627
:1016400090938900809388008FEF80930B082AC0C5
:10165000409184005091850030910B0825E03203C1
:10166000F0011124E65FF94F81819281840F951F6B
:10167000909389008093880030910B083203F00129
:101680001124E65FF94F808186FF0CC030910B0872
:101690003203F0011124E65FF94F808161E08F731E
:1016A0000E947A05FF91EF91BF91AF919F918F9129
:1016B0007F916F915F914F913F912F910F900BBE52
:1016C0000F900FBE0F901F90189590E0FC0131977E
:1016D000E231F10508F04EC08827EC57FF4F8F4FDD
:1016E0000C94BC12809180008F7703C080918000A1
:1016F0008F7D80938000089580918000877FF9CF4F
:1017000084B58F7702C084B58F7D84BD08958091A4
:10171000B0008F7703C08091B0008F7D8093B000C0
:101720000895809190008F7707C0809190008F7D01
:1017300003C080919000877F8093900008958091EE
:10174000A0008F7707C08091A0008F7D03C080919B
:10175000A000877F8093A0000895809120018F775B
:1017600007C0809120018F7D03C080912001877F79
:10177000809320010895CF93DF9390E0FC01E2581D
:10178000FD4F2491FC01E85CFD4F8491882361F1B9
:1017900090E0880F991FFC01E55FFC4FC591D49143
:1017A000FC01EC5FFD4FA591B491611109C09FB799
:1017B000F8948881209582238883EC912E230BC096
:1017C000623061F49FB7F8948881322F309583237B
:1017D0008883EC912E2B2C939FBF06C08FB7F89473
:1017E000E8812E2B28838FBFDF91CF9108953FB7DB
:1017F000F8948091160890911708A0911808B0915C
:10180000190826B5A89B05C02F3F19F00196A11D08
:10181000B11D3FBFBA2FA92F982F8827820F911D86
:10182000A11DB11DBC01CD0142E0660F771F881FCD
:10183000991F4A95D1F708951F920F920FB60F92F4
:1018400011242F933F938F939F93AF93BF938091D6
:10185000120890911308A0911408B09115083091C6
:10186000110823E0230F2D3720F40196A11DB11D8F
:1018700005C026E8230F0296A11DB11D2093110873
:101880008093120890931308A0931408B09315083E
:101890008091160890911708A0911808B091190826
:1018A0000196A11DB11D8093160890931708A0936F
:1018B0001808B0931908BF91AF919F918F913F91F4
:1018C0002F910F900FBE0F901F901895789484B5AC
:1018D000826084BD84B5816084BD85B5826085BD2C
:1018E00085B5816085BD80916E00816080936E00BA
:1018F00010928100809181008260809381008091AC
:10190000810081608093810080918000816080935C
:1019100080008091B10084608093B1008091B0001C
:1019200081608093B00080919100826080939100EB
:1019300080919100816080939100809190008160FE
:10194000809390008091A10082608093A10080919B
:10195000A10081608093A1008091A00081608093AC
:10196000A00080912101826080932101809121015A
:10197000816080932101809120018160809320010A
:1019800080917A00846080937A0080917A008260EE
:1019900080937A0080917A00816080937A008091B0
:1019A0007A00806880937A001092C1000E94E00261
:1019B00061E080914F060E94BB0B60E080914F0672
:1019C0000E947A0560E080914E060E94BB0B85E57F
:1019D00093E0909359068093580610924B0310920F
:1019E0004A0310925303109254031092520381E061
:1019F000809351031092500361E084E10E947A05C4
:101A000061E085E10E947A058091B9008E7F809324
:101A1000B9008091B9008D7F8093B90088E48093EC
:101A2000B80085E48093BC0086E592E090934D0376
:101A300080934C0387E592E090934F0380934E038D
:101A400080E090E1A0E0B0E080935B0690935C06BC
:101A5000A0935D06B0935E068AE090E0A0E0B0E05F
:101A600080935F0690936006A0936106B093620630
:101A700080E090E0A0E0B0E4809363069093640679
:101A8000A0936506B093660660E070E185E00E9471
:101A90009D036FE979E380E00E949D03CEE4D6E0E8
:101AA0008E01712C5DE6A52E52E0B52E63EB862EDD
:101AB00062E0962E7BECE72E77E0F72EF80194811A
:101AC0008281898F9A8F61E00E94BB0B61E08A8DD1
:101AD0000E94BB0BF801908586816E01FDE1CF0E5F
:101AE000D11C8D8F9E8F61E00E94BB0B60E08E8DBC
:101AF0000E94BB0B61E08D8D0E947A056FB6F89451
:101B000080914803811126C0F5018491F40124914C
:101B1000E82FF0E0EE0FFF1FE55FFC4FA591B491B9
:101B20009C91822F892321F461E085E30E947A054C
:101B300061E085E30E94BB0B8CB580618CBD8CB5E8
:101B400080648CBD61E084E30E94BB0B61E083E3B1
:101B50000E94BB0B809148038F5F809348036FBE48
:101B6000C7010197F1F760E08D8D0E947A0588E842
:101B70000E948B0A83E00E948B0A61E08D8D0E9497
:101B80007A05C7010197F1F7C6010E94920A739482
:101B90000F5F1F4F2296F2E07F1290CF03E716E00F
:101BA000C7E7D6E060E0F80181918F010E94BB0B8E
:101BB000F6E007371F07B1F70FE616E095E0E92ECC
:101BC0002CE0C22E32E0D32EF9908F818C3008F0B9
:101BD00044C061E08F2D0E94BB0B8F81E89EF00115
:101BE0001124E65FF94F9F2D9F732081207CF22EF8
:101BF000F92AF082138214826C2D0E94B0122CE01C
:101C0000829FA001112420E030E0BA01620F731F0F
:101C1000E69EF001E79EF00D1124E65FF94F9081FA
:101C200096FD12C02F5F3F4F2C30310571F78111A7
:101C30000BC010928000D09281001092850010920B
:101C40008400D6BAD0926F00EF81EE9EF00111248D
:101C5000E65FF94F8081806480839D818B81F801EC
:101C6000828B938B60E00E94BB0B61E0F80183895B
:101C70000E94BB0B60E0F80183890E947A050E5F29
:101C80001F4FF6E0C937DF0709F09ECFF894109296
:101C9000200189E08093210180E293E09093290163
:101CA00080932801109225011092240182E08093F4
:101CB000730078948093380510923C058091390523
:101CC00060E00E94BB0B61E08DE00E94BB0B61E015
:101CD00082E00E94BB0B61E083E00E94BB0B60E0EE
:101CE00086E20E94BB0B60E088E20E94BB0B60E0D2
:101CF0008AE20E94BB0B60E08CE20E94BB0B60E0BA
:101D00008EE20E94BB0B60E080E30E94BB0B60E0B0
:101D100086E10E94BB0B60E081E20E94BB0B0E9447
:101D2000E0028DE696E00E94920A8BE696E00E9421
:101D3000920A332433940E94F70B4B015C0182E337
:101D4000C82ED12CE12CF12C0E94F70BDC01CB0129
:101D500088199909AA09BB09883E9340A105B105D4
:101D600098F321E0C21AD108E108F10888EE880E44
:101D700083E0981EA11CB11CC114D104E104F1043C
:101D800019F781E20E9451055C0186E10E9451052C
:101D90006C0180E30E9451057C018EE20E94510596
:101DA0008C018CE20E945105EC018AE20E945105EF
:101DB0004C0188E20E9451053C0186E20E945105D7
:101DC0002C01C5010E942803C6010E942803C701F7
:101DD0000E942803C8010E942803CE010E94280304
:101DE000C4010E942803C3010E942803C2010E946B
:101DF00028038FE392E00E940803AB28B1F040E093
:101E000050E0BA0187E696E00E94710940E050E098
:101E100060E87EEB89E696E00E94710982E492E038
:101E20000E941A0330924903A6C0CD2899F04AE9CE
:101E300059E969E17EE387E696E00E94710940E096
:101E400050E060E87EEB89E696E00E94710981E649
:101E500092E08FC0EF2859F04AE959E969E17EE341
:101E600087E696E00E94710986E892E082C0012B25
:101E700099F040E050E060E87EE387E696E00E945B
:101E8000710940E050E060E87EEB89E696E00E9450
:101E9000710981EA92E06DC0CD2B59F7892859F07C
:101EA0004AE959E969E17EEB89E696E00E94710909
:101EB0008CEA92E05EC0672899F04AE959E969E145
:101EC0007EEB89E696E00E94710940E050E060E810
:101ED0007EE387E696E00E94710987EC92E049C0B4
:101EE0004528B9F040E050E060E070E889E696E00F
:101EF0000E94710940E050E060E87EE387E696E0EA
:101F00000E9471098CEE92E00E941A03109249031C
:101F100032C0809149038823B1F040E050E0BA011B
:101F200087E696E00E94710940E050E060E87EEBB1
:101F300089E696E00E9471098AE093E00E941A0304
:101F400082E193E016C040E050E060E070E889E68E
:101F500096E00E94710940E050E060E87EE387E689
:101F600096E00E9471098AE093E00E941A038DE2D4
:101F700093E00E941A030E94C206DDCE109258031D
:101F80001092570388EE93E0A0E0B0E080935903ED
:101F900090935A03A0935B03B0935C0323E132E078
:101FA00030935603209355031092640310926303F9
:101FB0008093650390936603A0936703B0936803CF
:101FC00025E232E0309362032093610345E351E060
:101FD00050936E0340936D0344E351E050937003BC
:101FE00040936F0340E351E05093720340937103B9
:101FF00041E351E0509374034093730342E351E093
:10200000509376034093750346E351E05093780371
:102010004093770310927A0310927B0310927C0313
:1020200010927D0310920104109200048093020428
:1020300090930304A0930404B09305043093FF032A
:102040002093FE0345ED50E050930B0440930A04A7
:1020500044ED50E050930D0440930C0440ED50E0EB
:1020600050930F0440930E0441ED50E0509311043F
:102070004093100442ED50E0509313044093120437
:1020800046ED50E050931504409314041092170449
:10209000109218041092190410921A0410929E04BF
:1020A00010929D0480939F049093A004A093A10498
:1020B000B093A20430939C0420939B0485EC90E0A1
:1020C0009093A8048093A70484EC90E09093AA04D2
:1020D0008093A90480EC90E09093AC048093AB04CF
:1020E00081EC90E09093AE048093AD0482EC90E09C
:1020F0009093B0048093AF0486EC90E09093B20488
:102100008093B1041092B4041092B5041092B604F6
:102110001092B7048091070290910802A0910902E1
:10212000B0910A0280936F0690937006A093710697
:10213000B093720680910B0290910C02A0910D0257
:10214000B0910E028093730690937406A093750667
:10215000B093760684E08093770687E080937806D4
:102160001092790684EB80937A0686E180937B0651
:1021700088E180937C0687E180937D0689E18093E6
:102180007E06E0914606EC3020F08FEF80937F06CC
:1021900010C081E08E0F80934606E0937F0685E0B5
:1021A000E89FF0011124E65FF94F88EB9BE09283F2
:1021B0008183E0914606EC3020F08FEF809380061B
:1021C00010C081E08E0F80934606E093800685E084
:1021D000E89FF0011124E65FF94F88EB9BE09283C2
:1021E00081838CE080934E0684E280934F0686E0E4
:1021F0008093500685E0809351068FE180935206CC
:102200008EE18093530683E28093540682E28093AA
:10221000550685E48093560684E48093570680E44F
:1022200080935A0610925F06109260061092610623
:102230001092620610926306109264061092650670
:1022400010926606E4E3F7E022EF37E08FEF9FEFAE
:10225000DC01128213821482158216821782108684
:10226000118683879487A587B6878787908BA18BF4
:10227000B28B12861182108273962E173F0749F790
:102280008DE090E00E94FF12FC011382128287E32E
:1022900092E091838083118687E2848384E1828740
:1022A00084E083871486F0933107E093300710921F
:1022B00032071092330785E28093390510923B056F
:1022C000109248061092470610924A06109249064C
:1022D00010924C0610924B0661E070E080E090E0B6
:1022E0000E942014009789F0909348068093470637
:1022F00010924A061092490620914B0630914C06E6
:10230000232BC1F4FC01108215C0809147069091E7
:102310004806009711F00E949713109248061092F9
:10232000470610924C0610924B0610924A061092E5
:102330004906089510924C0610924B0661E472E033
:1023400080914706909148060C941315809147069A
:10235000909148060C949713990F0008550FAA0BFB
:10236000E0E8FEEF16161706E807F907C0F01216A8
:102370001306E407F50798F0621B730B840B950BAB
:1023800039F40A2661F0232B242B252B21F4089500
:102390000A2609F4A140A6958FEF811D811D08959D
:1023A0000E94E3110C9454120E94461238F00E94CD
:1023B0004D1220F0952311F00C943D120C94431211
:1023C00011240C9488120E94651270F3959FC1F33A
:1023D000950F50E0551F629FF001729FBB27F00DD3
:1023E000B11D639FAA27F00DB11DAA1F649F662728
:1023F000B00DA11D661F829F2227B00DA11D621F77
:10240000739FB00DA11D621F839FA00D611D221F30
:10241000749F3327A00D611D231F849F600D211D14
:10242000822F762F6A2F11249F5750409AF0F1F097
:1024300088234AF0EE0FFF1FBB1F661F771F881F00
:1024400091505040A9F79E3F510580F00C943D12E9
:102450000C9488125F3FE4F3983ED4F38695779509
:102460006795B795F795E7959F5FC1F7FE2B880FA6
:10247000911D9695879597F9089597F99F6780E83C
:1024800070E060E008959FEF80EC089500240A94C6
:102490001616170618060906089500240A9412163F
:1024A0001306140605060895092E0394000C11F472
:1024B000882352F0BB0F40F4BF2B11F460FF04C01F
:1024C0006F5F7F4F8F4F9F4F089557FD9058440F78
:1024D000551F59F05F3F71F04795880F97FB991F83
:1024E00061F09F3F79F08795089512161306140640
:1024F000551FF2CF4695F1DF08C0161617061806CD
:10250000991FF1CF86957105610508940895E894A7
:10251000BB2766277727CB0197F90895A1E21A2EEA
:10252000AA1BBB1BFD010DC0AA1FBB1FEE1FFF1F77
:10253000A217B307E407F50720F0A21BB30BE40BC7
:10254000F50B661F771F881F991F1A9469F760950E
:102550007095809590959B01AC01BD01CF010895C8
:10256000991B79E004C0991F961708F0961B881FE5
:102570007A95C9F780950895EE0FFF1F881F8BBFCE
:102580000790F691E02D19940E94CB126894B11136
:102590000C94881208950E946D1288F09F5798F04D
:1025A000B92F9927B751B0F0E1F0660F771F881F58
:1025B000991F1AF0BA95C9F714C0B13091F00E9472
:1025C0008712B1E008950C948712672F782F88271F
:1025D000B85F39F0B93FCCF3869577956795B39599
:1025E000D9F73EF490958095709561957F4F8F4F08
:1025F0009F4F08950E94AC1108F48FEF08950F9338
:102600001F93CF93DF938230910510F482E090E026
:10261000E0911C08F0911D0820E030E0A0E0B0E05F
:10262000309719F140815181028113814817590770
:10263000C8F08417950769F4109731F012960C933F
:10264000129713961C9327C000931C0810931D0823
:1026500022C02115310519F04217530718F49A01C9
:10266000BD01EF01DF01F801DBCF21153105F9F0E4
:10267000281B390B2430310580F48A819B81611538
:10268000710521F0FB019383828304C090931D08A0
:1026900080931C08FE01329644C0FE01E20FF31F36
:1026A0008193919322503109398328833AC0209134
:1026B0001A0830911B08232B41F42091030230911A
:1026C000040230931B0820931A08209101023091D4
:1026D00002022115310541F42DB73EB740910502A4
:1026E00050910602241B350BE0911A08F0911B084B
:1026F000E217F307A0F42E1B3F0B2817390778F0D9
:10270000AC014E5F5F4F2417350748F04E0F5F1F37
:1027100050931B0840931A088193919302C0E0E004
:10272000F0E0CF01DF91CF911F910F910895CF93EA
:10273000DF93009709F481C0FC0132971382128263
:10274000A0911C08B0911D08109781F4208131815F
:10275000820F931F20911A0830911B082817390700
:1027600051F5F0931B08E0931A0867C0ED0120E0D3
:1027700030E0CE17DF0740F44A815B819E014115AE
:102780005105F1F0EA01F5CFD383C2834081518135
:10279000840F951FC817D90759F488819981840F30
:1027A000951F0296918380838A819B819383828384
:1027B0002115310529F4F0931D08E0931C083DC054
:1027C000E901FB83EA8349915991C40FD51FEC17A6
:1027D000FD0761F480819181840F951F0296E901C4
:1027E00099838883828193819B838A83E0E0F0E0F0
:1027F00012968D919C911397009719F0FD01DC01C1
:10280000F7CF8D919C9111979D012E5F3F4F820FC5
:10281000931F20911A0830911B082817390769F473
:10282000309729F410921D0810921C0802C01382E0
:102830001282B0931B08A0931A08DF91CF910895DC
:102840006F927F928F929F92AF92BF92CF92DF92C0
:10285000EF92FF920F931F93CF93DF93009789F42A
:10286000CB01DF91CF911F910F91FF90EF90DF90FF
:10287000CF90BF90AF909F908F907F906F900C946F
:10288000FF12FC01E60FF71F9C0122503109E217ED
:10289000F30708F4A9C0EC01D9010D911C9111971F
:1028A00006171707B0F00530110508F49BC0C801E2
:1028B00004978617970708F495C002501109061B64
:1028C000170B019311936D937C93CF010E94971383
:1028D00089C05B01A01AB10A4C01800E911EA09123
:1028E0001C08B0911D08612C712CE12CF12C109763
:1028F00009F446C08D919C911197A815B905B1F5C1
:102900006C0142E0C40ED11CCA14DB0478F14C0106
:102910008A189B08640142E0C40ED11C1296BC9038
:1029200012971396AC91B5E0CB16D10440F0B28269
:10293000A38391828082D9016D937C9309C00E5F3D
:102940001F4F800F911FF90191838083EB2DFA2F88
:10295000E114F10431F0D7011396FC93EE93129732
:1029600041C0F0931D08E0931C083CC0681679062E
:1029700008F43C017D0112960D90BC91A02DB7CFBB
:1029800080911A0890911B0888169906E1F4661642
:102990007706C8F48091010290910202009741F4F9
:1029A0008DB79EB74091050250910602841B950B8E
:1029B000E817F907C8F4F0931B08E0931A08F90127
:1029C000718360830FC0CB010E94FF127C010097CE
:1029D00059F0A801BE010E940A15CE010E9497136A
:1029E000C70104C0CE0102C080E090E0DF91CF912A
:1029F0001F910F91FF90EF90DF90CF90BF90AF901D
:102A00009F908F907F906F90089581E090E0F89470
:102A10000C941A15FB01DC0102C001900D9241508B
:102A20005040D8F70895FB01DC0101900D92002081
:102A3000E1F7089511E0C4E9D1E000E006C0802F7D
:102A4000FE010E94BC122196011DC539D10780E00C
:082A50000807A9F7F894FFCF75
:102A5800FF00001E082000363738391B1D1A1C00DD
:102A6800000000B1028402F00658027C0268025994
:102A780002000000005006A905D3059D060406E2E1
:102A880005F60500000000F506A905F006EF060D9D
:102A98000A00544F55524E4E4E4545454520C38079
:102AA8002044524F495445212121212120305F31B2
:102AB80000547520646576726169732070656E7361
:102AC8006572206120746F75726E65722061206472
:102AD800726F697465005475206465766965732042
:102AE800756E2070657520C3A02067617563686581
:102AF80000546F75742064726F6974005475206493
:102B0800657669657320756E2070657520C3A02091
:102B180064726F69746500547520646576726169C2
:102B2800732070656E736572206120746F75726EA4
:102B3800657220612067617563686500544F55525E
:102B48004E4E4E4545454520C38020474155434894
:102B5800452121212121365F37004E6F206C696E97
:102B68006500544F55524E4E4E4545454520C3804D
:102B78002044524F495445212121212100544F55C9
:102B8800524E4E4E4545454520C38020474155434A
:082B9800484521212121210003
:00000001FF
