:100000000C9495010C94C6010C94C6010C94C60185
:100010000C94C6010C94C6010C94C6010C94C60144
:100020000C94C6010C94F6030C94F6030C94F6039E
:100030000C94C6010C9437070C94C6010C94C601AD
:100040000C94C6010C94DA0A0C94C6010C94C601F7
:100050000C94C6010C94C6010C94C6010C94BA0B06
:100060000C94C6010C94A6080C947C080C94C60150
:100070000C94C6010C94C6010C94C6010C94C601E4
:100080000C94C6010C94C6010C94C6010C94C601D4
:100090000C94C6010C94C6010C94C6010C94000487
:1000A0000C94C6010C94C6010C94C6010C94C601B4
:1000B0000C94C6010C94C6010C94C6010C94D00893
:1000C0000C94C6010C94C6010C94C6010C94520801
:1000D0000C9428080C94C6010C94FE070C94D407C9
:1000E0000C94C601FB02FE02ED02F102F702350399
:1000F000020306030C03100314031A031E03220356
:10010000350328032C033003EF09F409F909030A26
:100110000D0A860A170A1F0A270A310A3B0A450AEE
:10012000540A5E0A860A680A720A7C0A0C9458020B
:100130000C94F0050C94720A0C940C030C94560267
:100140000C94F4090C94B1020C94860A0C942803C4
:100150000C94ED020C9414030C945E0A0C941E0390
:100160000C94FF050C941F0A0C9410030C94840249
:100170000C94270A0C94C6050C9412070C94F102F7
:100180000C9421060C940D0A0C94F9090C947C0231
:100190000C94BA060C943B0A0C9422030C940203B0
:1001A0000C941A030C947C0A0C9459020C946D065E
:1001B0000C9413060C94680A0C940D070C94F70227
:1001C0000C94030A0C942C030C94450A0C945702CB
:1001D0000C94170A0C94E40F0C94540A0C94310AF2
:1001E0000C94CC110C9435030C9430030C94FB024A
:1001F0000C9468020C9406030C94EF090C940C0701
:100200000C94FE0200002100240027002A002D008B
:100210003000330001010000040107010A01000061
:100220002200250028002B002E003100340002019E
:100230000000050108010B0100002000230026003A
:1002400029002C002F0032000001000003010601EC
:10025000090105050505070508080808020202024C
:100260000A0A080804040404010101010101010152
:100270000303030303030303040707070C0C0C0C1D
:100280000C0C0C0C02020202060606060606060606
:100290000B0B0B0B0B0B0B0B010210202008081093
:1002A00020401020408002010201080402010102E6
:1002B00004081020408080402010080402018004BF
:1002C000020180402010080402010804020101021A
:1002D0000408102040800102040810204080000023
:1002E0000A0B02090C0D0E080703040100000000B0
:1002F00000000000000000000000000000000000FE
:1003000000000000000000000000121110000000BA
:1003100000000000000000000000000000000000DD
:10032000000000000200E40FCC1111241FBECFEF2B
:10033000D1E2DEBFCDBF00E00CBF12E0A0E0B2E032
:10034000E0EBFAE200E00BBF02C007900D92A2378B
:10035000B107D9F727E0A2E7B2E001C01D92A235AC
:10036000B207E1F711E0C4E9D1E000E006C021974F
:100370000109802FFE010E94D412C339D10780E009
:100380000807A9F70E94040C0C9446150C94000071
:1003900030918802313208F04BC080918602811181
:1003A000FCCF9091630622E02093860221E0209307
:1003B00085022FEF209341061092400630933F06AE
:1003C000E3E4F6E0AFE1B6E020E0321721F041913E
:1003D0004D932F5FFACF10921E0620911E06990FA3
:1003E000922B90931E0690918402913061F41092AA
:1003F000840290911E069093BB009091BC0093FDE7
:10040000F8CF95EC01C095EE9093BC0090918602D8
:100410009230E1F3909141069F3F79F0809141063F
:10042000803241F080914106803331F084E005C094
:1004300081E003C082E001C083E010928702109245
:10044000880210924206089585ED8093BC00809149
:10045000BC0084FDFCCF1092860208954091F905FE
:10046000262F30E0240F311D21323105DCF420919C
:1004700086022430C9F4FC0180E090E0861758F42D
:100480003091F9052191DC01A752BA4FA30FB11D9C
:100490002C930196F3CF8091F905680F6093F905CD
:1004A00080E0089581E0089582E008950895089518
:1004B0000895E0917F0280917E02E81730F4F0E029
:1004C000E754FA4F808190E008958FEF9FEF0895F1
:1004D00090917F0280917E02981750F4E92FF0E00E
:1004E000E754FA4F208130E09F5F90937F0202C073
:1004F0002FEF3FEFC901089580917E0290E0209197
:100500007F02821B91090895CF92DF92EF92FF92B2
:100510000F931F93CF93DF937C01CB018A0120912E
:100520004206222389F0EB016B01C40ED51ECC15C7
:10053000DD0569F06991D701ED91FC910190F081A1
:10054000E02DC7011995F3CF642F0E942E02C80138
:10055000DF91CF911F910F91FF90EF90DF90CF909F
:100560000895CF93DF931F92CDB7DEB769832091B3
:1005700042062223D1F020918802203240F021E06F
:1005800030E0FC013383228380E090E015C080914D
:100590008702E82FF0E0ED5BF94F998190838F5F40
:1005A000809387028093880205C061E0CE010196A6
:1005B0000E942E0281E090E00F90DF91CF9108958C
:1005C00090E0FC013197E231F10508F04EC0882738
:1005D000EE58FF4F8F4F0C94D412809180008F778C
:1005E00003C0809180008F7D80938000089580916A
:1005F0008000877FF9CF84B58F7702C084B58F7D67
:1006000084BD08958091B0008F7703C08091B000C1
:100610008F7D8093B0000895809190008F7707C000
:10062000809190008F7D03C080919000877F8093A0
:10063000900008958091A0008F7707C08091A0005E
:100640008F7D03C08091A000877F8093A0000895D4
:10065000809120018F7707C0809120018F7D03C09A
:1006600080912001877F809320010895EFECF3E0D3
:10067000A089B18982E08C93A485B5851C92A6855A
:10068000B7858FEC8C93108EA489B58986E08C9306
:10069000A289B3898C9180618C93A289B3898C9152
:1006A00088608C93A289B3898C9180688C9302882E
:1006B000F389E02D80818F7D80830895009769F014
:1006C000FC0101900020E9F73197AF01481B590B5D
:1006D000BC018FEC93E00C94C60580E090E0089597
:1006E000CF93DF930E945E03EC018FE592E00E94BE
:1006F0005E038C0F9D1FDF91CF9108950F931F9381
:10070000CF93DF93162F072FC2E8D5E09C8521E019
:1007100020934206909363061092870210928802FB
:10072000AA85BB85ED91FC9111970190F081E02D98
:10073000682FCD0119958A859B85DC01ED91FC918F
:100740000190F081E02D602F19958A859B85DC0151
:10075000ED91FC910190F081E02D612F1995DF91D1
:10076000CF911F910F910C94C801FC01248131E0BD
:1007700030934206209363061092870210928802FB
:100780008485682B89E892E00E94B1020C94C8012C
:100790000F931F93CF938C01C62F64600E94B50303
:1007A0006C2F6B7FC8010E94B50383EC90E001972A
:1007B000F1F7CF911F910F910895FC01A089B189A4
:1007C0008C91A689B78982FD0FC09C91818D8F5F26
:1007D0008F73228D821749F0218DDF01A20FB11D89
:1007E0005D969C93818F08958C9108951F920F922E
:1007F0000FB60F9211240F900FBE0F901F901895F7
:100800001F920F920FB60F9211240BB60F922F93D7
:100810003F934F935F936F937F938F939F93AF9388
:10082000BF93EF93FF938091B900887F803609F4DE
:100830009CC068F5883209F45BC090F4803109F4FB
:1008400054C038F4882309F4F6C0883009F44DC048
:10085000F6C0883109F44CC0803209F45DC0EFC0A5
:10086000803409F468C048F4803309F455C08833F3
:1008700009F0E5C080934106D8C0803509F44FC027
:10088000883509F45DC0883409F0D9C0D6C08839EC
:1008900009F4C7C0A8F4883709F467C038F488366B
:1008A00009F463C0803709F460C0C9C0883809F40E
:1008B000B8C0803909F45FC0803809F0C0C05BC09F
:1008C000803B09F486C038F4803A09F466C0883A5F
:1008D00009F47FC0B4C0803C09F4A7C0883C09F487
:1008E000A4C0883B09F48AC0AAC080911E0610C02B
:1008F0009091400680913F06981770F5E091400670
:1009000081E08E0F80934006F0E0E15EF94F808138
:100910008093BB0085EC86C0809341068EC0E09139
:10092000400681E08E0F809340068091BB00F0E08E
:10093000E15EF94F80839091400680913F066EC042
:10094000E091400681E08E0F809340068091BB00CD
:10095000F0E0E15EF94F80838091850281116DC0E6
:1009600081E08093840284EA61C083E08093860200
:1009700010921B06CFCF80911B06803208F051C029
:10098000E0911B0681E08E0F80931B068091BB00D7
:10099000F0E0E550FA4F8083BDCF85EC8093BC003A
:1009A0001092860280911B06803230F4E0911B0683
:1009B000F0E0E550FA4F108260911B0670E0E09184
:1009C0008202F09183028BEF95E0199510921B063D
:1009D00036C084E0809386021092FA051092F905E1
:1009E000E0918002F091810219958091F9058111C1
:1009F00005C081E08093F9051092D905E091FA05D0
:100A000081E08E0F8093FA05F0E0E752FA4F808183
:100A10008093BB009091FA058091F905981708F42E
:100A200079CF85E88093BC000AC085EC8093BC0038
:100A30001092860204C0109241060E942402FF9187
:100A4000EF91BF91AF919F918F917F916F915F9146
:100A50004F913F912F910F900BBE0F900FBE0F90B3
:100A60001F901895CF93DF93282F30E0F901E252C1
:100A7000FD4F8491F901E856FD4FD491F901EE5AEA
:100A8000FD4FC491CC2391F081110E94E002EC2F24
:100A9000F0E0EE0FFF1FE85CFD4FA591B491EC91E3
:100AA000ED2381E090E021F480E002C080E090E05E
:100AB000DF91CF9108951F93CF93DF93282F30E0DC
:100AC000F901E252FD4F8491F901E856FD4FD491AE
:100AD000F901EE5AFD4FC491CC23C1F0162F8111BC
:100AE0000E94E002EC2FF0E0EE0FFF1FE25EFD4FF0
:100AF000A591B4919FB7F894111104C08C91D09531
:100B0000D82302C0EC91DE2BDC939FBFDF91CF9105
:100B10001F910895CF93DF9390E0FC01E856FD4FBD
:100B20002491FC01EE5AFD4F8491882361F190E0FD
:100B3000880F991FFC01EC5FFD4FC591D491FC011A
:100B4000E25EFD4FA591B491611109C09FB7F89481
:100B50008881209582238883EC912E230BC06230FC
:100B600061F49FB7F8948881322F3095832388836E
:100B7000EC912E2B2C939FBF06C08FB7F894E88181
:100B80002E2B28838FBFDF91CF910895CF92DF92D4
:100B9000EF92FF920F931F93CF93DF936C017A0133
:100BA0008B01C0E0D0E0CE15DF0581F0D8016D915A
:100BB0008D01D601ED91FC910190F081E02DC601EF
:100BC0001995892B11F02196EECF7E01C701DF9197
:100BD000CF911F910F91FF90EF90DF90CF900895EC
:100BE000FC01538D448D252F30E0842F90E0821B33
:100BF000930B541710F0CF96089501970895FC01B8
:100C0000918D828D981761F0828DDF01A80FB11D43
:100C10005D968C91928D9F5F9F73928F90E0089567
:100C20008FEF9FEF0895FC01918D828D981731F021
:100C3000828DE80FF11D858D90E008958FEF9FEF75
:100C40000895FC01918D228D892F90E0805C9F4F4B
:100C5000821B91098F739927089585E992E00E947C
:100C6000210621E0892B09F420E0822F089582E3F8
:100C700093E00E94210621E0892B09F420E0822FD5
:100C800008958FEC93E00E94210621E0892B09F45E
:100C900020E0822F0895FC01848DDF01A80FB11D93
:100CA000A35ABF4F2C91848D90E001968F739927A2
:100CB000848FA689B7892C93A089B1898C91837080
:100CC00080648C93938D848D981306C00288F38979
:100CD000E02D80818F7D80830895EF92FF920F93A6
:100CE0001F93CF93DF93EC0181E0888F9B8D8C8DD8
:100CF000981305C0E889F989808185FD26C0F62E04
:100D00000B8D10E00F5F1F4F0F731127E02E8C8D9E
:100D1000E8120CC00FB607FCFACFE889F989808188
:100D200085FFF5CFCE010E944B06F1CF8B8DFE01E2
:100D3000E80FF11DE35AFF4FF0829FB7F8940B8F35
:100D4000EA89FB89808180620AC09FB7F894EE89A6
:100D5000FF896083E889F98980818370806480835A
:100D60009FBF81E090E0DF91CF911F910F91FF90A5
:100D7000EF900895CF93DF93EC01888D8823C9F01D
:100D8000EA89FB89808185FD05C0A889B9898C9194
:100D900086FD0FC00FB607FCF5CF808185FFF2CF2F
:100DA000A889B9898C9185FFEDCFCE010E944B06B1
:100DB000E7CFDF91CF910895E0E0F0E0199480E073
:100DC00090E0892B21F00E944106811119C080E03A
:100DD00090E0892B41F080E090E0892B21F00E9487
:100DE0000000811110C00E94370681110FC080E001
:100DF00090E0892B81F00E942D0681110AC0089590
:100E00000E940000E4CF0E940000EDCF0E94DC06AB
:100E1000EECF0C9400000895089580E090E00895CE
:100E20000E9431150F931F93CF93DF938C01C62F30
:100E3000D62FD07FD1606D2F0E94B5036D2FC801D2
:100E40000E94C80380E1C89FB0011124C62FC16071
:100E50006C2FC8010E94B5036C2FC8010E94C80303
:100E600081E090E0DF91CF911F910F9108951F9243
:100E70000F920FB60F9211240BB60F922F933F9340
:100E80004F935F936F937F938F939F93AF93BF9392
:100E9000EF93FF938091410790914207A091430700
:100EA000B0914407892B8A2B8B2B49F190914007F5
:100EB00080910000892780930000809141079091E4
:100EC0004207A0914307B0914407181619061A0665
:100ED0001B060CF056C08091410790914207A091EB
:100EE0004307B09144070197A109B10980934107D5
:100EF00090934207A0934307B093440742C0809168
:100F00000002E4E2F3E0E4919FEF90930002E2300C
:100F1000C9F050F4EE2399F0E13081F590916F0023
:100F20009D7F90936F002AC0E43019F1E0F0E53026
:100F300029F5909173009D7F909373001FC01092CC
:100F40006E001CC0909170009D7F9093700091E0A6
:100F50009093B0009091B100987F94609093B1000D
:100F60001092B3000BC0909171009D7F909371001F
:100F700005C0909172009D7F9093720060E00E9486
:100F80005B05FF91EF91BF91AF919F918F917F9101
:100F90006F915F914F913F912F910F900BBE0F90EA
:100FA0000FBE0F901F9018951F920F920FB60F92C1
:100FB00011240BB60F922F933F934F935F936F9330
:100FC0007F938F939F93AF93BF93EF93FF9385E9A5
:100FD00092E00E944B06FF91EF91BF91AF919F91DC
:100FE0008F917F916F915F914F913F912F910F90D2
:100FF0000BBE0F900FBE0F901F9018951F920F926F
:101000000FB60F9211240BB60F922F933F934F936D
:101010005F936F937F938F939F93AF93BF93EF9360
:10102000FF9385E992E00E94DD03FF91EF91BF916C
:10103000AF919F918F917F916F915F914F913F9170
:101040002F910F900BBE0F900FBE0F901F90189511
:101050001F920F920FB60F9211240BB60F922F937F
:101060003F934F935F936F937F938F939F93AF9330
:10107000BF93EF93FF9382E393E00E944B06FF91AF
:10108000EF91BF91AF919F918F917F916F915F9100
:101090004F913F912F910F900BBE0F900FBE0F906D
:1010A0001F9018951F920F920FB60F9211240BB636
:1010B0000F922F933F934F935F936F937F938F93F1
:1010C0009F93AF93BF93EF93FF9382E393E00E94CC
:1010D000DD03FF91EF91BF91AF919F918F917F9130
:1010E0006F915F914F913F912F910F900BBE0F9099
:1010F0000FBE0F901F9018951F920F920FB60F9270
:1011000011240BB60F922F933F934F935F936F93DE
:101110007F938F939F93AF93BF93EF93FF938FEC46
:1011200093E00E944B06FF91EF91BF91AF919F9189
:101130008F917F916F915F914F913F912F910F9080
:101140000BBE0F900FBE0F901F9018951F920F921D
:101150000FB60F9211240BB60F922F933F934F931C
:101160005F936F937F938F939F93AF93BF93EF930F
:10117000FF938FEC93E00E94DD03FF91EF91BF910D
:10118000AF919F918F917F916F915F914F913F911F
:101190002F910F900BBE0F900FBE0F901F901895C0
:1011A0001F920F920FB60F9211240BB60F922F932E
:1011B0003F934F935F936F937F938F939F93AF93DF
:1011C000BF93EF93FF9380916D040E9432052091AD
:1011D0007104309172042F5F3F4F3093720420935B
:1011E000710490917004953618F096E090936C0419
:1011F00090916C049430C9F128F4923069F09330E6
:10120000D1F05EC0953009F451C0963009F058C055
:1012100091E090933D0551C0811152C0209171041D
:10122000309172042436310508F442C010923D0515
:10123000109270041CC0813009F042C0E09170042B
:1012400091E09E0F90937004F0E020917104309132
:101250007204EE0FFF1FE459FB4F30872783109273
:1012600072041092710494E029C0811117C0E091BA
:10127000700491E09E0F90937004F0E0209171044F
:1012800030917204EE0FFF1FE459FB4F3087278324
:10129000109272041092710493E010C020917104B6
:1012A000309172042536310558F007C0811108C00D
:1012B000109272041092710403C095E090936C0434
:1012C00090916F049923B9F081110AC080916E0446
:1012D000882321F080916E0461E009C02F9A0BC031
:1012E00080916E04882331F080916E0460E00E944A
:1012F0005B0501C02F98FF91EF91BF91AF919F9136
:101300008F917F916F915F914F913F912F910F90AE
:101310000BBE0F900FBE0F901F9018958F929F924B
:10132000AF92BF92CF92DF92EF92FF920F931F93F3
:10133000CF93DF938C016A017B0120E030E04FE71F
:1013400053E4C701B6010E94F6114B015C0120E095
:1013500030E0A9010E94261318161CF4C501B4013F
:1013600003C0C501B40190580E94F012EB0120E0C7
:1013700030E0A901C701B6010E942613181614F423
:1013800060E001C061E0F80181810E945B05CF3F10
:10139000D10509F014F4DD2702C0CFEFD0E0F80149
:1013A000108161E0812F0E948A05209709F4B1C065
:1013B000CF3FD10509F4AFC0E12FF0E0E252FD4F7D
:1013C000E4918E2F90E0FC013197E231F10508F0B5
:1013D0009DC08827EC57FF4F8F4F0C94D41284B5D3
:1013E000806884BDC7BDA7C084B5806284BDC8BD08
:1013F000A2C080918000806880938000D093890093
:10140000C093880098C080918000806280938000A3
:10141000D0938B00C0938A008EC08091800088603A
:1014200080938000D0938D00C0938C0084C0809105
:10143000B00080688093B000C093B3007CC08091FE
:10144000B00080628093B000C093B40074C08091FB
:101450009000806880939000D0939900C09398008A
:101460006AC080919000806280939000D0939B002E
:10147000C0939A0060C08091900088608093900033
:10148000D0939D00C0939C0056C08091A0008068BE
:101490008093A0008091A0008F7B8093A000D093C8
:1014A000A900C093A80047C08091A00080628093EB
:1014B000A000D093AB00C093AA003DC08091A000D3
:1014C00088608093A000D093AD00C093AC0033C07F
:1014D00080912001806880932001D0932901C093DE
:1014E000280129C080912001806280932001D0933F
:1014F0002B01C0932A011FC0809120018860809336
:101500002001D0932D01C0932C0115C0C038D10506
:1015100014F460E001C061E0812FDF91CF911F9151
:101520000F91FF90EF90DF90CF90BF90AF909F9082
:101530008F900C945B05DF91CF911F910F91FF90DD
:10154000EF90DF90CF90BF90AF909F908F900895D5
:101550008EBD00000DB407FEFDCF8EB50895CF936C
:10156000DF93EC0160E088810E945B0588E90E94BE
:10157000A80A80E00E94A80A80E00E94A80A80E0F1
:101580000E94A80A80E00E94A80A61E088810E9467
:101590005B058BE891E00197F1F760E088810E949C
:1015A0005B0580EE0E94A80A61E08881DF91CF91FF
:1015B0000C945B051F920F920FB60F9211240BB67D
:1015C0000F922F933F934F935F936F937F938F93DC
:1015D0009F93AF93BF93EF93FF9380913F0787FF54
:1015E00005C0109285001092840016C020913F071C
:1015F000022E000C330B80917A0590E028173907F2
:101600005CF430913F0725E03203F0011124E25CE5
:10161000FA4F808186FD15C080913F078F5F8093D0
:101620003F0720913F07022E000C330B80917A0573
:1016300090E02817390794F480913F078C302CF103
:101640000DC030913F073203F0011124E25CFA4FE4
:10165000808160E08F730E945B05DECF8091840003
:101660009091850084349C4918F480E49CE905C07D
:1016700080918400909185000496909389008093D6
:1016800088008FEF80933F072AC0409184005091DB
:10169000850030913F0725E03203F0011124E25C20
:1016A000FA4F81819281840F951F909389008093D6
:1016B000880030913F073203F0011124E25CFA4FB9
:1016C000808186FF0CC030913F073203F001112466
:1016D000E25CFA4F808161E08F730E945B05FF91AD
:1016E000EF91BF91AF919F918F917F916F915F919A
:1016F0004F913F912F910F900BBE0F900FBE0F9007
:101700001F901895853038F082E692E00E947003B1
:1017100080E090E007C09927FC01ED55FA4F8081E9
:101720000E949B0B60E372E00E94C01281E0672B75
:1017300009F080E00895863308F0865390917B008D
:10174000282F2870977F922B90937B00877080645E
:1017500080937C0080917A00806480937A008091ED
:101760007A0086FDFCCF809178002091790090E08E
:10177000922B08951F920F920FB60F9211242F9360
:101780003F938F939F93AF93BF9380914A0790911C
:101790004B07A0914C07B0914D073091490723E0CA
:1017A000230F2D3720F40196A11DB11D05C026E899
:1017B000230F0296A11DB11D2093490780934A076C
:1017C00090934B07A0934C07B0934D07809145072A
:1017D00090914607A0914707B09148070196A11D37
:1017E000B11D8093450790934607A0934707B09398
:1017F0004807BF91AF919F918F913F912F910F908B
:101800000FBE0F901F901895789484B5826084BDA8
:1018100084B5816084BD85B5826085BD85B58160F4
:1018200085BD80916E00816080936E001092810072
:10183000809181008260809381008091810081602D
:1018400080938100809180008160809380008091EE
:10185000B10084608093B1008091B000816080937A
:10186000B0008091910082608093910080919100FE
:1018700081608093910080919000816080939000BE
:101880008091A10082608093A1008091A10081607D
:101890008093A1008091A00081608093A00080913E
:1018A00021018260809321018091210181608093D8
:1018B00021018091200181608093200180917A0034
:1018C000846080937A0080917A00826080937A00AD
:1018D00080917A00816080937A0080917A0080689C
:1018E00080937A001092C1000E94360361E08091DB
:1018F00083050E948A0560E0809183050E945B0554
:1019000060E0809182050E948A0589E892E09093C8
:101910008D0580938C0510927F0210927E021092AA
:101920008702109288021092860281E080938502DD
:101930001092840261E084E10E945B0561E085E130
:101940000E945B058091B9008E7F8093B9008091E1
:10195000B9008D7F8093B90088E48093B80085E456
:101960008093BC0086E592E0909381028093800290
:1019700087E592E0909383028093820280E090E179
:10198000A0E0B0E080938F0590939005A09391051F
:10199000B09392058AE090E0A0E0B0E080939305D8
:1019A00090939405A0939505B093960580E090E000
:1019B000A0E0B0E48093970590939805A0939905D3
:1019C000B0939A0560E070E185E00E947E036FE9C4
:1019D00079E380E00E947E03C2E8D5E08E0142E018
:1019E000742E57E8A52E52E0B52E6DEC862E62E0DF
:1019F000962E7BECE72E77E0F72EF801948182811A
:101A0000898F9A8F61E00E948A0561E08A8D0E9429
:101A10008A05F801908586816E01FDE1CF0ED11C0B
:101A20008D8F9E8F61E00E948A0560E08E8D0E94FE
:101A30008A0561E08D8D0E945B056FB6F8948091F8
:101A40007202811126C0F5018491F4012491E82FDE
:101A5000F0E0EE0FFF1FEC5FFD4FA591B4919C915C
:101A6000822F892321F461E085E30E945B0561E018
:101A700085E30E948A058CB580618CBD8CB580643D
:101A80008CBD61E084E30E948A0561E083E30E94EB
:101A90008A05809172028F5F809372026FBEC701C8
:101AA0000197F1F760E08D8D0E945B0588E80E9448
:101AB000A80A83E00E94A80A61E08D8D0E945B0560
:101AC000C7010197F1F7C6010E94AF0A7A940F5F30
:101AD0001F4F2296711091CFC7EAD5E060E089913F
:101AE0000E948A05F5E0CB3ADF07C1F703EA15E06B
:101AF000E80185E0E82E9CE0C92E22E0D22E8889FC
:101B00008C3008F045C0F88461E08F2D0E948A0572
:101B10008889E89EF0011124E25CFA4F9F2D9F73A3
:101B20002081207CF22EF92AF082138214826C2DFF
:101B30000E94B4122CE0829FA001112420E030E02A
:101B4000BA01620F731FE69EF001E79EF00D1124AB
:101B5000E25CFA4F908196FD12C02F5F3F4F2C3010
:101B6000310571F781110BC010928000D092810075
:101B70001092850010928400D6BAD0926F00E88946
:101B8000EE9EF0011124E25CFA4F80818064808334
:101B90009E858C85F801828B938B60E00E948A057C
:101BA00061E0F80183890E948A0560E0F801838979
:101BB0000E945B0521960E5F1F4FF5E0C53ADF07D7
:101BC00009F09DCFF8941092200189E080932101C3
:101BD00080E293E0909329018093280110922501DF
:101BE0001092240182E080937300789480936C04B7
:101BF0001092700480916D0460E00E948A0561E09B
:101C000082E00E948A0561E083E00E948A0561E02B
:101C100084E00E948A0560E086E20E948A0560E016
:101C200088E20E948A0560E08AE20E948A0560E0FC
:101C30008CE20E948A0560E08EE20E948A0560E0E4
:101C400080E30E948A0560E086E10E948A0560E0E8
:101C500081E20E948A050E94360381EA95E00E9493
:101C6000AF0A8FE995E00E94AF0A60E084E00E942D
:101C70005B055524539480E090E00E94820BC82FAE
:101C800082E090E00E94820B182F81E090E00E9499
:101C9000820BC11104C0111102C0882359F1509266
:101CA0007D028091780290917902A0917A02B091A0
:101CB0007B020196A11DB11D809378029093790259
:101CC000A0937A02B0937B028C3221E09207A105A7
:101CD000B1050CF4D8C088359240A105B1050CF4CB
:101CE000CCC0109278021092790210927A0210926F
:101CF0007B02C9C010927C0240907D0281E20E946A
:101D000032055C0186E10E9432056C0180E30E948D
:101D100032057C018EE20E9432058C018CE20E9429
:101D20003205EC018AE20E9432054C0188E20E94F1
:101D300032053C0186E20E943205411064C0AB28A6
:101D400099F04AE959E969E17EEB8BE995E00E9457
:101D50008E0940E050E060E87EEB8DE995E00E945E
:101D60008E09509273024FC0CD2829F04AE959E9F3
:101D700069E17EE32DC0EF2829F04AE959E969E1DC
:101D80007EE33DC0012B29F040E050E060E87EE3B7
:101D90001FC0CD2BC9F7892829F04AE959E969E123
:101DA0007EEB1EC0672829F04AE959E969E17EEB1C
:101DB0001EC0892B29F04AE959E969E17EE317C081
:101DC00080917302882379F040E050E060E87EEB78
:101DD0008BE995E00E948E0940E050E060E87EEBE0
:101DE0008DE995E00EC040E050E060E87EE38DE9CB
:101DF00095E00E948E0940E050E060E87EE38BE9C8
:101E000095E00E948E0960E08DE00E945B0560E035
:101E100082E00E945B0560E083E00E945B0560E079
:101E2000809183050E945B058091740290917502F8
:101E3000A0917602B09177020196A11DB11D809309
:101E4000740290937502A0937602B0937702803D5E
:101E5000F7E09F07A105B1050CF40DCF803A9F4034
:101E6000A105B1050CF49BC010927402109275028A
:101E70001092760210927702FECE61E082E00E941C
:101E80005B0560E005C060E082E00E945B0561E008
:101E900083E00E945B058091A6050E949B0BEC01EC
:101EA00080E090E00E94820BF82E81E090E00E949A
:101EB000820B082F82E090E00E94820BFF20D9F075
:101EC00081111CC0011134C040E050E060E070E8B6
:101ED0008DE995E00E948E094AE959E969E17EE3BE
:101EE0008BE995E00E948E0982E090E00E94820BCF
:101EF000882351F303C0882309F454C0CB5FD10970
:101F0000C539D105A8F440E050E060E070E88DE903
:101F100095E00E948E0940E050E0BA018BE995E01F
:101F20000E948E098FE392E00E945E0350927C0231
:101F3000112381F180917C02882361F161E08DE0C1
:101F40000E948A058091740290917502A091760298
:101F5000B09177020196A11DB11D809374029093F8
:101F60007502A0937602B093770280359105A105A2
:101F7000B1050CF480CE803A9105A105B1050CF0B5
:101F800073CF8EE492E00E94700361E08DE00E94C6
:101F90005B05D8CF60E08DE00E945B056CCE1092AF
:101FA0007D0269CE002321F24AE959E969E17EEB1D
:101FB0008DE995E00E948E0940E050E0BA018BE97E
:101FC00095E00E948E09B4CF10928C0210928B0281
:101FD00088EE93E0A0E0B0E080938D0290938E02B3
:101FE000A0938F02B093900223E132E030938A02F3
:101FF000209389021092980210929702809399027E
:1020000090939A02A0939B02B0939C0225E232E047
:10201000309396022093950245E351E05093A2023B
:102020004093A10244E351E05093A4024093A302E1
:1020300040E351E05093A6024093A50241E351E0F2
:102040005093A8024093A70242E351E05093AA02A2
:102050004093A90246E351E05093AC024093AB0297
:102060001092AE021092AF021092B0021092B10222
:102070001092350310923403809336039093370304
:10208000A0933803B0933903309333032093320382
:1020900045ED50E050933F0340933E0344ED50E044
:1020A000509341034093400340ED50E0509343036D
:1020B0004093420341ED50E0509345034093440365
:1020C00042ED50E0509347034093460346ED50E005
:1020D000509349034093480310924B0310924C03D2
:1020E00010924D0310924E031092D2031092D1031E
:1020F0008093D3039093D403A093D503B093D603D6
:102100003093D0032093CF0385EC90E09093DC03D1
:102110008093DB0384EC90E09093DE038093DD03F7
:1021200080EC90E09093E0038093DF0381EC90E0FB
:102130009093E2038093E10382EC90E09093E403B8
:102140008093E30386EC90E09093E6038093E503AD
:102150001092E8031092E9031092EA031092EB0345
:102160008091070290910802A0910902B0910A02A1
:102170008093A3059093A405A093A505B093A6050D
:1021800080910B0290910C02A0910D02B0910E0271
:102190008093A7059093A805A093A905B093AA05DD
:1021A00084E08093AB0587E08093AC051092AD0589
:1021B00084EB8093AE0586E18093AF0588E1809340
:1021C000B00587E18093B10589E18093B205E09184
:1021D0007A05EC3020F08FEF8093B30510C081E0DA
:1021E0008E0F80937A05E093B30585E0E89FF001B8
:1021F0001124E25CFA4F88EB9BE092838183E091AB
:102200007A05EC3020F08FEF8093B40510C081E0A8
:102210008E0F80937A05E093B40585E0E89FF00186
:102220001124E25CFA4F88EB9BE0928381838CE07F
:102230008093820584E28093830586E08093840501
:1022400085E0809385058FE1809386058EE18093FC
:10225000870583E28093880582E28093890585E47F
:1022600080938A0584E480938B0580E480938E05B7
:102270001092930510929405109295051092960570
:1022800010929705109298051092990510929A0550
:10229000E8E6F6E026E237E08FEF9FEFDC011282FE
:1022A0001382148215821682178210861186838704
:1022B0009487A587B6878787908BA18BB28B128670
:1022C0001182108273962E173F0749F78DE090E038
:1022D0000E942B13FC011382128287E392E0918308
:1022E0008083118687E2848384E1828784E0838708
:1022F0001486F0936506E0936406109266061092C9
:10230000670685E280936D0410926F0410927C053D
:1023100010927B0510927E0510927D05109280052B
:1023200010927F0561E070E080E090E00E944C1424
:10233000009789F090937C0580937B0510927E0531
:1023400010927D0520917F0530918005232BC1F4EB
:10235000FC01108215C080917B0590917C0500974F
:1023600011F00E94C31310927C0510927B0510920D
:10237000800510927F0510927E0510927D050895CC
:102380001092800510927F0561E672E080917B05D6
:1023900090917C050C943F1580917B0590917C0574
:1023A0000C94C313990F0008550FAA0BE0E8FEEF39
:1023B00016161706E807F907C0F012161306E40709
:1023C000F50798F0621B730B840B950B39F40A2602
:1023D00061F0232B242B252B21F408950A2609F4E0
:1023E000A140A6958FEF811D811D08950E940912BD
:1023F0000C947A120E946C1238F00E94731220F032
:10240000952311F00C9463120C94691211240C940E
:10241000AE120E948B1270F3959FC1F3950F50E09E
:10242000551F629FF001729FBB27F00DB11D639F86
:10243000AA27F00DB11DAA1F649F6627B00DA11D2C
:10244000661F829F2227B00DA11D621F739FB00DD2
:10245000A11D621F839FA00D611D221F749F332742
:10246000A00D611D231F849F600D211D822F762FDB
:102470006A2F11249F5750409AF0F1F088234AF0B8
:10248000EE0FFF1FBB1F661F771F881F9150504024
:10249000A9F79E3F510580F00C9463120C94AE1284
:1024A0005F3FE4F3983ED4F3869577956795B795AB
:1024B000F795E7959F5FC1F7FE2B880F911D9695C5
:1024C000879597F9089597F99F6780E870E060E035
:1024D00008959FEF80EC089500240A9416161706BD
:1024E00018060906089500240A9412161306140605
:1024F00005060895092E0394000C11F4882352F068
:10250000BB0F40F4BF2B11F460FF04C06F5F7F4F1F
:102510008F4F9F4F089557FD9058440F551F59F006
:102520005F3F71F04795880F97FB991F61F09F3FC0
:1025300079F087950895121613061406551FF2CFE9
:102540004695F1DF08C0161617061806991FF1CF39
:1025500086957105610508940895E894BB27662760
:102560007727CB0197F90895991B79E004C0991F4B
:10257000961708F0961B881F7A95C9F780950895DD
:1025800097FB072E16F4009407D077FD09D00E9420
:10259000DC1207FC05D03EF4909581959F4F08957D
:1025A000709561957F4F0895EE0FFF1F881F8BBFB9
:1025B0000790F691E02D1994AA1BBB1B51E107C0AF
:1025C000AA1FBB1FA617B70710F0A61BB70B881FC3
:1025D000991F5A95A9F780959095BC01CD01089552
:1025E0000E94F7126894B1110C94AE1208950E94E3
:1025F000931288F09F5798F0B92F9927B751B0F0F0
:10260000E1F0660F771F881F991F1AF0BA95C9F776
:1026100014C0B13091F00E94AD12B1E008950C9455
:10262000AD12672F782F8827B85F39F0B93FCCF308
:10263000869577956795B395D9F73EF490958095F3
:10264000709561957F4F8F4F9F4F08950E94D211D3
:1026500008F48FEF08950F931F93CF93DF93823089
:10266000910510F482E090E0E0915007F09151075D
:1026700020E030E0A0E0B0E0309719F140815181D6
:102680000281138148175907C8F08417950769F428
:10269000109731F012960C93129713961C9327C043
:1026A000009350071093510722C02115310519F0EE
:1026B0004217530718F49A01BD01EF01DF01F80139
:1026C000DBCF21153105F9F0281B390B24303105FA
:1026D00080F48A819B816115710521F0FB01938350
:1026E000828304C09093510780935007FE01329675
:1026F00044C0FE01E20FF31F8193919322503109F0
:10270000398328833AC020914E0730914F07232BFD
:1027100041F4209103023091040230934F0720933B
:102720004E0720910102309102022115310541F43A
:102730002DB73EB74091050250910602241B350B80
:10274000E0914E07F0914F07E217F307A0F42E1B1C
:102750003F0B2817390778F0AC014E5F5F4F241705
:10276000350748F04E0F5F1F50934F0740934E07B9
:102770008193919302C0E0E0F0E0CF01DF91CF912F
:102780001F910F910895CF93DF93009709F481C0B3
:10279000FC01329713821282A0915007B091510729
:1027A000109781F420813181820F931F20914E0771
:1027B00030914F072817390751F5F0934F07E093F1
:1027C0004E0767C0ED0120E030E0CE17DF0740F490
:1027D0004A815B819E0141155105F1F0EA01F5CF77
:1027E000D383C28340815181840F951FC817D907B5
:1027F00059F488819981840F951F02969183808373
:102800008A819B81938382832115310529F4F0937A
:102810005107E09350073DC0E901FB83EA834991EA
:102820005991C40FD51FEC17FD0761F48081918188
:10283000840F951F0296E901998388838281938191
:102840009B838A83E0E0F0E012968D919C91139730
:10285000009719F0FD01DC01F7CF8D919C91119744
:102860009D012E5F3F4F820F931F20914E073091A5
:102870004F072817390769F4309729F41092510748
:102880001092500702C013821282B0934F07A09398
:102890004E07DF91CF9108956F927F928F929F9212
:1028A000AF92BF92CF92DF92EF92FF920F931F935E
:1028B000CF93DF93009789F4CB01DF91CF911F91E4
:1028C0000F91FF90EF90DF90CF90BF90AF909F90CF
:1028D0008F907F906F900C942B13FC01E60FF71FE5
:1028E0009C0122503109E217F30708F4A9C0EC015A
:1028F000D9010D911C91119706171707B0F00530FB
:10290000110508F49BC0C80104978617970708F4BF
:1029100095C002501109061B170B019311936D937B
:102920007C93CF010E94C31389C05B01A01AB10A36
:102930004C01800E911EA0915007B0915107612C5F
:10294000712CE12CF12C109709F446C08D919C91CB
:102950001197A815B905B1F56C0142E0C40ED11C60
:10296000CA14DB0478F14C018A189B08640142E028
:10297000C40ED11C1296BC9012971396AC91B5E080
:10298000CB16D10440F0B282A38391828082D90118
:102990006D937C9309C00E5F1F4F800F911FF9014B
:1029A00091838083EB2DFA2FE114F10431F0D701EC
:1029B0001396FC93EE93129741C0F0935107E09366
:1029C00050073CC06816790608F43C017D01129658
:1029D0000D90BC91A02DB7CF80914E0790914F07DD
:1029E00088169906E1F466167706C8F4809101020C
:1029F00090910202009741F48DB79EB74091050275
:102A000050910602841B950BE817F907C8F4F09360
:102A10004F07E0934E07F901718360830FC0CB012C
:102A20000E942B137C01009759F0A801BE010E945F
:102A30003615CE010E94C313C70104C0CE0102C0E7
:102A400080E090E0DF91CF911F910F91FF90EF9088
:102A5000DF90CF90BF90AF909F908F907F906F90BE
:102A6000089581E090E0F8940C944615FB01DC0198
:102A700002C001900D9241505040D8F70895FB01DB
:102A8000DC0101900D920020E1F7089511E0C4E906
:102A9000D1E000E006C0802FFE010E94D4122196F2
:102AA000011DC539D10780E00807A9F7F894FFCFC9
:102AB000FF000052072000363738391B1D1A1C0052
:102AC000000000B10284020D0758027C026802591E
:102AD00002000000006D06C605F005BA062106FFDB
:102AE000051306000000001207C6050D070C07625B
:102AF0006F6E6E652064697374616E6365004C610E
:102B00006E636572206465206C2765617521000D18
:102B10000A00496E76616C6964204952206964211B
:022B20000000B3
:00000001FF
