:100000000C9495010C94C6010C94C6010C94C60185
:100010000C94C6010C94C6010C94C6010C94C60144
:100020000C94C6010C9475070C9475070C94750715
:100030000C94C6010C94EE0A0C94C6010C94C601F3
:100040000C94C6010C94C70F0C94C6010C94C60105
:100050000C94C6010C94C6010C94C6010C94EF01DB
:100060000C94C6010C945D0C0C94330C0C94C601DA
:100070000C94C6010C94C6010C94C6010C94C601E4
:100080000C94C6010C94C6010C94C6010C94C601D4
:100090000C94C6010C94C6010C94C6010C947F0705
:1000A0000C94C6010C94C6010C94C6010C94C601B4
:1000B0000C94C6010C94C6010C94C6010C94870CD8
:1000C0000C94C6010C94C6010C94C6010C94090C46
:1000D0000C94DF0B0C94C6010C94B50B0C948B0B99
:1000E0000C94C6013406370626062A0630066E062C
:1000F0003B063F06450649064D06530657065B0676
:100100006E06610665066906A60DAB0DB00DBA0D4B
:10011000C40D3D0ECE0DD60DDE0DE80DF20DFC0D1D
:100120000B0E150E3D0E1F0E290E330E0C943D0EB8
:100130000C94C50A0C940B0E0C94B8090C94BD05D4
:100140000C943F060C94FC0D0C94290E0C94DA09C7
:100150000C946E060C94C90A0C941F0E0C94BA0DE4
:100160000C9453060C9430060C9449060C94150E0E
:100170000C9469060C94A1050C9465060C94AB0DC7
:100180000C94D60D0C948F050C9492050C94260AB1
:100190000C94DE0D0C942A060C9434060C94741303
:1001A0000C94C40D0C94330E0C941B150C94A60DDA
:1001B0000C943B060C9437060C945B060C94F20DE1
:1001C0000C9490050C9457060C94CE0D0C947F095A
:1001D0000C94B5050C9445060C94730A0C944D06CA
:1001E0000C9426060C94E80D0C94EA050C94C60AAF
:1001F0000C94B00D0C9491050C9461060C94CC09F0
:100200000C94A90900002100240027002A002D00D9
:100210003000330001010000040107010A01000061
:100220002200250028002B002E003100340002019E
:100230000000050108010B0100002000230026003A
:1002400029002C002F0032000001000003010601EC
:10025000090105050505070508080808020202024C
:100260000A0A080804040404010101010101010152
:100270000303030303030303040707070C0C0C0C1D
:100280000C0C0C0C02020202060606060606060606
:100290000B0B0B0B0B0B0B0B010210202008081093
:1002A00020401020408002010201080402010102E6
:1002B00004081020408080402010080402018004BF
:1002C000020180402010080402010804020101021A
:1002D0000408102040800102040810204080000023
:1002E0000A0B02090C0D0E080703040100000000B0
:1002F00000000000000000000000000000000000FE
:1003000000000000000000000000121110000000BA
:1003100000000000000000000000000000000000DD
:1003200000000000020074131B1511241FBECFEF44
:10033000D1E2DEBFCDBF00E00CBF12E0A0E0B2E032
:10034000E8E1F4E300E00BBF02C007900D92A23B8E
:10035000B107D9F727E0A2EBB2E001C01D92A738A0
:10036000B207E1F711E0C4E9D1E000E006C021974F
:100370000109802FFE010E94B416C339D10780E025
:100380000807A9F70E946F100C94FA190C9400004A
:100390000E94DC193FB7F8948091B8029091B9029D
:1003A000A091BA02B091BB0226B5A89B05C02F3F11
:1003B00019F00196A11DB11D3FBFBA2FA92F982F8B
:1003C0008827820F911DA11DB11DBC01CD0142E006
:1003D000660F771F881F991F4A95D1F708951F92BE
:1003E0000F920FB60F9211242F933F938F939F93E9
:1003F000AF93BF938091B4029091B502A091B602E1
:10040000B091B7023091B30223E0230F2D3720F4CF
:100410000196A11DB11D05C026E8230F0296A11D5E
:10042000B11D2093B3028093B4029093B502A093C0
:10043000B602B093B7028091B8029091B902A09130
:10044000BA02B091BB020196A11DB11D8093B80202
:100450009093B902A093BA02B093BB02BF91AF913F
:100460009F918F913F912F910F900FBE0F901F90F2
:100470001895EF92FF920F931F93CF93DF93EC01A8
:10048000198218821B821A821D821C8261157105D5
:10049000B9F17B01FB0101900020E9F731978F0151
:1004A000061B170BB8016F5F7F4F80E090E00E9442
:1004B000F718009759F0998388831B830A832C814E
:1004C0003D81232B81F4FC0110820DC0888199812C
:1004D000009711F00E946E18198218821D821C82EA
:1004E0001B821A820DC01D830C83B70188819981FC
:1004F000DF91CF911F910F91FF90EF900C94F31922
:10050000DF91CF911F910F91FF90EF9008952F925F
:100510003F924F925F926F927F928F929F92AF9293
:10052000BF92CF92DF92EF92FF920F931F93CF93E0
:10053000DF93CDB7DEB762970FB6F894DEBF0FBE7C
:10054000CDBF1C012A013B010D831E832F833887F9
:10055000FA8AE98A82ED95E00E94660E84ED95E0C4
:100560000E94660ED10114968D919C911597892B4E
:1005700041F060E772E08D919C910E94EA19892B0D
:1005800069F027ED33EA40E75FE3C301B2010E945F
:10059000871569837A838B839C8304C049825A823E
:1005A0006B827C8220E030E0A9016D817E818F81A9
:1005B00098850E94D11718162CF48D819E81AF81E9
:1005C000B88505C08D819E81AF81B885B0588D8773
:1005D0009E87AF87B88B812C912C540175016401E3
:1005E00089869A86AB86BC862D853E854F8558893F
:1005F00069857A858B859C850E94211587FFF3C0CC
:10060000D10114968D919C911597892B09F451C0B5
:1006100060E772E08D919C910E94EA19892B09F0A4
:1006200048C0E989FA89F7FD44C0EF2BA1F482EDB7
:1006300095E00E94910E0E9428156B017C0184EDCB
:1006400095E00E94910E0E9428154B015C01B301B8
:10065000A201705866C089899A89019709F06EC015
:1006600082ED95E00E94910E909580957095619530
:100670007F4F8F4F9F4F0E9428156B017C0184EDA7
:1006800095E00E94910E90958095709561957F4FB1
:100690008F4F9F4F0E9428154B015C01B301A201AF
:1006A0008EEC95E00E94450D49815A816B817C81D9
:1006B00041C020E030E0A9016D817E818F81988565
:1006C0000E94D1171816A4F482ED95E00E94910EB5
:1006D00090958095709561957F4F8F4F9F4F0E94A9
:1006E00028156B017C0184ED95E00E94910E13C0EA
:1006F00082ED95E00E94910E0E9428156B017C010D
:1007000084ED95E00E94910E90958095709561958D
:100710007F4F8F4F9F4F0E9428154B015C01B30103
:10072000A2018EEC95E00E94450D49815A816B81B2
:100730007C81705880ED95E00E94450DA5019401E3
:10074000C701B6010E94BC1620E030E040E05FE344
:100750000E9487152CEA35EC47E257E30E94871583
:100760009B01AC0169817A818B819C810E94BD16BD
:1007700069837A838B839C83A7019601C501B401A9
:100780000E94BC1620E030E040E05FE30E94871545
:100790002CEA35EC47E257E30E9487159B01AC0138
:1007A000C301B2010E94BD162B013C01A5019401B9
:1007B000C701B6010E94BD1620E030E048EC55E4C8
:1007C0000E94291720E030E040EC51E40E94871598
:1007D00069877A878B879C8768EC70E080E090E07F
:1007E0000E94450901CF40E050E0BA018EEC95E04F
:1007F0000E94450D40E050E060E070E880ED95E03B
:1008000062960FB6F894DEBF0FBECDBFDF91CF91D9
:100810001F910F91FF90EF90DF90CF90BF90AF901E
:100820009F908F907F906F905F904F903F902F9010
:100830000C94450DE2E0F4E0A089B18982E08C934C
:10084000A485B5851C92A685B7858FEC8C93108EF8
:10085000A489B58986E08C93A289B3898C91806143
:100860008C93A289B3898C9188608C93A289B38977
:100870008C9180688C930288F389E02D80818F7D34
:1008800080830895009769F0FC0101900020E9F74A
:100890003197AF01481B590BBC0182E094E00C94E6
:1008A0007F0980E090E00895CF93DF930E94420497
:1008B000EC0188E792E00E9442048C0F9D1FDF91BB
:1008C000CF9108954F925F926F927F928F929F92F5
:1008D000AF92BF92EF92FF920F931F93CF93DF934C
:1008E00000D000D0CDB7DEB72B013C0149015A0141
:1008F0006BE772E0CE0101960E943902EE24EA9481
:10090000FE2C93018201B501A401CE0101960E9443
:10091000870289819A810E946E1826960FB6F894F4
:10092000DEBF0FBECDBFDF91CF911F910F91FF9022
:10093000EF90BF90AF909F908F907F906F905F905F
:100940004F9008954F925F926F927F928F929F92F5
:10095000AF92BF92EF92FF920F931F93CF93DF93CB
:1009600000D000D0CDB7DEB7E82E2A013B01480108
:10097000590160E772E0CE0101960E943902F12C24
:1009800022E232E242EA5DE3C301B2010E9487152E
:100990008B019C01B501A401CE0101960E94870242
:1009A00089819A810E946E1826960FB6F894DEBF50
:1009B0000FBECDBFDF91CF911F910F91FF90EF90B0
:1009C000BF90AF909F908F907F906F905F904F906F
:1009D000089580917B00877F80937B0080E48093E3
:1009E0007C0080917A00806480937A0080917A0004
:1009F00086FDFCCF809178002091790090E0922BC9
:100A000008953091B806313208F04BC08091B60697
:100A10008111FCCF9091630722E02093B60621E07C
:100A20002093B5062FEF2093410710924007309393
:100A30003F07E3E4F7E0AFE1B7E020E0321721F051
:100A400041914D932F5FFACF10921E0720911E0700
:100A5000990F922B90931E079091B406913061F4F8
:100A60001092B40690911E079093BB009091BC0029
:100A700093FDF8CF95EC01C095EE9093BC0090915A
:100A8000B6069230E1F3909141079F3F79F0809153
:100A90004107803241F080914107803331F084E09A
:100AA00005C081E003C082E001C083E01092B70678
:100AB0001092B80610924207089585ED8093BC000D
:100AC0008091BC0084FDFCCF1092B6060895409141
:100AD000F906262F30E0240F311D21323105DCF4D8
:100AE0002091B6062430C9F4FC0180E090E086171E
:100AF00058F43091F9062191DC01A752B94FA30FA8
:100B0000B11D2C930196F3CF8091F906680F609385
:100B1000F90680E0089581E0089582E0089508953F
:100B200008950895E091AF068091AE06E81730F47D
:100B3000F0E0E754F94F808190E008958FEF9FEF48
:100B400008959091AF068091AE06981750F4E92F62
:100B5000F0E0E754F94F208130E09F5F9093AF06BB
:100B600002C02FEF3FEFC90108958091AE0690E0DB
:100B70002091AF06821B91090895CF92DF92EF92E8
:100B8000FF920F931F93CF93DF937C01CB018A01D8
:100B900020914207222389F0EB016B01C40ED51E80
:100BA000CC15DD0569F06991D701ED91FC910190BB
:100BB000F081E02DC7011995F3CF642F0E946705DE
:100BC000C801DF91CF911F910F91FF90EF90DF90BF
:100BD000CF900895CF93DF931F92CDB7DEB769838F
:100BE000209142072223D1F02091B806203240F014
:100BF00021E030E0FC013383228380E090E015C0E7
:100C00008091B706E82FF0E0ED5BF84F9981908373
:100C10008F5F8093B7068093B80605C061E0CE0170
:100C200001960E94670581E090E00F90DF91CF91DF
:100C3000089590E0FC013197E231F10508F04EC0D3
:100C40008827EE58FF4F8F4F0C94B4168091800088
:100C50008F7703C0809180008F7D809380000895FE
:100C600080918000877FF9CF84B58F7702C084B5EB
:100C70008F7D84BD08958091B0008F7703C08091EF
:100C8000B0008F7D8093B0000895809190008F77A1
:100C900007C0809190008F7D03C080919000877F76
:100CA0008093900008958091A0008F7707C0809175
:100CB000A0008F7D03C08091A000877F8093A0005B
:100CC0000895809120018F7707C0809120018F7D4A
:100CD00003C080912001877F809320010895CF92E7
:100CE000DF92EF92FF920E94E904BC01990F880BFA
:100CF000990B0E9428152AE038E240EA5BE30E9443
:100D000087156B017C012DEC3CEC4CE950E40E9412
:100D1000D11718166CF483E892E00E9454042AE973
:100D200039E949E15EE360E070E080EA90E42BC0DD
:100D300020E030E040E850E4C701B6010E94D1173E
:100D400018165CF48EE892E00E9454044DEC5CECC2
:100D50006CE47EE38EEC95E030C020E030E040E4CF
:100D600050E4C701B6010E94D117181694F485E922
:100D700092E00E9454042AE939E949E15EE360E027
:100D800070E080E290E4FF90EF90DF90CF900C94C1
:100D9000620420E030E040E85FE3C701B6010E9452
:100DA000D117181684F480EA92E00E9454044DECA6
:100DB0005CEC6CE47EEB80ED95E0FF90EF90DF90D3
:100DC000CF900C94450D87EA92E0FF90EF90DF9072
:100DD000CF900C9454049091E005891720F09091E5
:100DE000E105981720F48FE392E00C945404682FE7
:100DF00070E086EE95E00C94F60E0F931F93CF9360
:100E0000DF93162F072FC5EBD5E09C8521E02093BB
:100E10004207909363071092B7061092B806AA850E
:100E2000BB85ED91FC9111970190F081E02D682F29
:100E3000CD0119958A859B85DC01ED91FC9101908E
:100E4000F081E02D602F19958A859B85DC01ED915D
:100E5000FC910190F081E02D612F1995DF91CF91E8
:100E60001F910F910C940105FC01248131E0309316
:100E70004207209363071092B7061092B806848544
:100E8000682B8CEB92E00E94EA050C9401050F930D
:100E90001F93CF938C01C62F64600E9434076C2F80
:100EA0006B7FC8010E94340783EC90E00197F1F753
:100EB000CF911F910F910895FC01A089B1898C9168
:100EC000A689B78982FD0FC09C91818D8F5F8F733A
:100ED000228D821749F0218DDF01A20FB11D5D9691
:100EE0009C93818F08958C9108951F920F920FB655
:100EF0000F9211240F900FBE0F901F9018951F9204
:100F00000F920FB60F9211240BB60F922F933F93AF
:100F10004F935F936F937F938F939F93AF93BF9301
:100F2000EF93FF938091B900887F803609F49CC0CD
:100F300068F5883209F45BC090F4803109F454C03C
:100F400038F4882309F4F6C0883009F44DC0F6C09F
:100F5000883109F44CC0803209F45DC0EFC08034A0
:100F600009F468C048F4803309F455C0883309F0A7
:100F7000E5C080934107D8C0803509F44FC088355B
:100F800009F45DC0883409F0D9C0D6C0883909F4A5
:100F9000C7C0A8F4883709F467C038F4883609F464
:100FA00063C0803709F460C0C9C0883809F4B8C08C
:100FB000803909F45FC0803809F0C0C05BC0803B55
:100FC00009F486C038F4803A09F466C0883A09F416
:100FD0007FC0B4C0803C09F4A7C0883C09F4A4C019
:100FE000883B09F48AC0AAC080911E0710C0909166
:100FF000400780913F07981770F5E091400781E026
:101000008E0F80934007F0E0E15EF84F808180937F
:10101000BB0085EC86C0809341078EC0E0914007FD
:1010200081E08E0F809340078091BB00F0E0E15E8D
:10103000F84F80839091400780913F076EC0E09108
:10104000400781E08E0F809340078091BB00F0E065
:10105000E15EF84F80838091B50681116DC081E01B
:101060008093B40684EA61C083E08093B606109250
:101070001B07CFCF80911B07803208F051C0E09151
:101080001B0781E08E0F80931B078091BB00F0E06F
:10109000E550F94F8083BDCF85EC8093BC00109262
:1010A000B60680911B07803230F4E0911B07F0E018
:1010B000E550F94F108260911B0770E0E091B20695
:1010C000F091B3068BEF96E0199510921B0736C08E
:1010D00084E08093B6061092FA061092F906E09129
:1010E000B006F091B10619958091F906811105C0FD
:1010F00081E08093F9061092D906E091FA0681E02A
:101100008E0F8093FA06F0E0E752F94F80818093CA
:10111000BB009091FA068091F906981708F479CFF0
:1011200085E88093BC000AC085EC8093BC001092D7
:10113000B60604C0109241070E945D05FF91EF9131
:10114000BF91AF919F918F917F916F915F914F91DF
:101150003F912F910F900BBE0F900FBE0F901F90DD
:101160001895CF93DF93282F30E0F901E252FD4F1D
:101170008491F901E856FD4FD491F901EE5AFD4FE3
:10118000C491CC2391F081110E941906EC2FF0E05C
:10119000EE0FFF1FE85CFD4FA591B491EC91ED239C
:1011A00081E090E021F480E002C080E090E0DF91F7
:1011B000CF9108951F93CF93DF93282F30E0F9014B
:1011C000E252FD4F8491F901E856FD4FD491F901A7
:1011D000EE5AFD4FC491CC23C1F0162F81110E940D
:1011E0001906EC2FF0E0EE0FFF1FE25EFD4FA59118
:1011F000B4919FB7F894111104C08C91D095D82365
:1012000002C0EC91DE2BDC939FBFDF91CF911F9149
:101210000895CF93DF9390E0FC01E856FD4F2491B1
:10122000FC01EE5AFD4F8491882361F190E0880F14
:10123000991FFC01EC5FFD4FC591D491FC01E25E6A
:10124000FD4FA591B491611109C09FB7F8948881B1
:10125000209582238883EC912E230BC0623061F4A9
:101260009FB7F8948881322F309583238883EC913F
:101270002E2B2C939FBF06C08FB7F894E8812E2B9E
:1012800028838FBFDF91CF9108958F929F92AF9265
:10129000BF92CF92DF92EF92FF926B017C010E948E
:1012A000CA014B015C01C114D104E104F104F1F065
:1012B0000E94CA01DC01CB0188199909AA09BB095E
:1012C000883E9340A105B10570F321E0C21AD10810
:1012D000E108F10888EE880E83E0981EA11CB11C7D
:1012E000C114D104E104F10419F7DDCFFF90EF90B0
:1012F000DF90CF90BF90AF909F908F900895CF9246
:10130000DF92EF92FF920F931F93CF93DF936C01C5
:101310007A018B01C0E0D0E0CE15DF0581F0D80165
:101320006D918D01D601ED91FC910190F081E02D40
:10133000C6011995892B11F02196EECF7E01C701C8
:10134000DF91CF911F910F91FF90EF90DF90CF90A1
:101350000895FC01538D448D252F30E0842F90E0BB
:10136000821B930B541710F0CF96089501970895A0
:10137000FC01918D828D981761F0828DDF01A80F9D
:10138000B11D5D968C91928D9F5F9F73928F90E0BF
:1013900008958FEF9FEF0895FC01918D828D98172E
:1013A00031F0828DE80FF11D858D90E008958FEF6B
:1013B0009FEF0895FC01918D228D892F90E0805C34
:1013C0009F4F821B91098F739927089588EC92E0B3
:1013D0000E94DA0921E0892B09F420E0822F089588
:1013E00085E693E00E94DA0921E0892B09F420E0E8
:1013F000822F089582E094E00E94DA0921E0892B8F
:1014000009F420E0822F0895FC01848DDF01A80FEC
:10141000B11DA35ABF4F2C91848D90E001968F731C
:101420009927848FA689B7892C93A089B1898C913B
:10143000837080648C93938D848D981306C002888A
:10144000F389E02D80818F7D80830895EF92FF9254
:101450000F931F93CF93DF93EC0181E0888F9B8DD7
:101460008C8D981305C0E889F989808185FD26C097
:10147000F62E0B8D10E00F5F1F4F0F731127E02E1C
:101480008C8DE8120CC00FB607FCFACFE889F989F9
:10149000808185FFF5CFCE010E94040AF1CF8B8DAC
:1014A000FE01E80FF11DE35AFF4FF0829FB7F89459
:1014B0000B8FEA89FB89808180620AC09FB7F8940C
:1014C000EE89FF896083E889F9898081837080646F
:1014D00080839FBF81E090E0DF91CF911F910F91BA
:1014E000FF90EF900895CF93DF93EC01888D8823D0
:1014F000C9F0EA89FB89808185FD05C0A889B98981
:101500008C9186FD0FC00FB607FCF5CF808185FF5B
:10151000F2CFA889B9898C9185FFEDCFCE010E94C9
:10152000040AE7CFDF91CF910895E0E0F0E019944D
:1015300080E090E0892B21F00E94FA09811119C006
:1015400080E090E0892B41F080E090E0892B21F051
:101550000E940000811110C00E94F00981110FC08B
:1015600080E090E0892B81F00E94E60981110AC099
:1015700008950E940000E4CF0E940000EDCF0E9479
:10158000950AEECF0C9400000895089580E090E055
:1015900008950F931F93CF93DF938C01C62FD62FFF
:1015A000D07FD1606D2F0E9434076D2FC8010E943B
:1015B000470780E1C89FB0011124C62FC1606C2F7E
:1015C000C8010E9434076C2FC8010E94470781E0C0
:1015D00090E0DF91CF911F910F9108951F920F928C
:1015E0000FB60F9211240BB60F922F933F934F9388
:1015F0005F936F937F938F939F93AF93BF93EF937B
:10160000FF9380917F0790918007A0918107B0910F
:101610008207892B8A2B8B2B49F190917E07809131
:10162000000089278093000080917F0790918007B8
:10163000A0918107B0918207181619061A061B0699
:101640000CF056C080917F0790918007A091810790
:10165000B09182070197A109B10980937F07909308
:101660008007A0938107B093820742C08091000257
:10167000E4E2F3E0E4919FEF90930002E230C9F0DE
:1016800050F4EE2399F0E13081F590916F009D7F49
:1016900090936F002AC0E43019F1E0F0E53029F5AD
:1016A000909173009D7F909373001FC010926E0005
:1016B0001CC0909170009D7F9093700091E090937A
:1016C000B0009091B100987F94609093B100109217
:1016D000B3000BC0909171009D7F9093710005C085
:1016E000909172009D7F9093720060E00E94DA08F2
:1016F000FF91EF91BF91AF919F918F917F916F91EA
:101700005F914F913F912F910F900BBE0F900FBEA5
:101710000F901F9018951F920F920FB60F921124E1
:101720000BB60F922F933F934F935F936F937F93DB
:101730008F939F93AF93BF93EF93FF9388EC92E0C7
:101740000E94040AFF91EF91BF91AF919F918F91F9
:101750007F916F915F914F913F912F910F900BBEB1
:101760000F900FBE0F901F9018951F920F920FB6FB
:101770000F9211240BB60F922F933F934F935F93C9
:101780006F937F938F939F93AF93BF93EF93FF9349
:1017900088EC92E00E945C07FF91EF91BF91AF91BE
:1017A0009F918F917F916F915F914F913F912F9179
:1017B0000F900BBE0F900FBE0F901F9018951F92A9
:1017C0000F920FB60F9211240BB60F922F933F93E7
:1017D0004F935F936F937F938F939F93AF93BF9339
:1017E000EF93FF9385E693E00E94040AFF91EF9147
:1017F000BF91AF919F918F917F916F915F914F9129
:101800003F912F910F900BBE0F900FBE0F901F9026
:1018100018951F920F920FB60F9211240BB60F92CC
:101820002F933F934F935F936F937F938F939F93E8
:10183000AF93BF93EF93FF9385E693E00E945C071D
:10184000FF91EF91BF91AF919F918F917F916F9198
:101850005F914F913F912F910F900BBE0F900FBE54
:101860000F901F9018951F920F920FB60F92112490
:101870000BB60F922F933F934F935F936F937F938A
:101880008F939F93AF93BF93EF93FF9382E094E086
:101890000E94040AFF91EF91BF91AF919F918F91A8
:1018A0007F916F915F914F913F912F910F900BBE60
:1018B0000F900FBE0F901F9018951F920F920FB6AA
:1018C0000F9211240BB60F922F933F934F935F9378
:1018D0006F937F938F939F93AF93BF93EF93FF93F8
:1018E00082E094E00E945C07FF91EF91BF91AF917D
:1018F0009F918F917F916F915F914F913F912F9128
:101900000F900BBE0F900FBE0F901F9018951F9257
:101910000F920FB60F9211240BB60F922F933F9395
:101920004F935F936F937F938F939F93AF93BF93E7
:10193000EF93FF938091A0040E94B1082091A4042A
:101940003091A5042F5F3F4F3093A5042093A4044A
:101950009091A304953618F096E090939F0490918F
:101960009F049430C9F128F4923069F09330D1F09B
:101970005EC0953009F451C0963009F058C091E02E
:101980009093700551C0811152C02091A4043091F0
:10199000A5042436310508F442C010927005109257
:1019A000A3041CC0813009F042C0E091A30491E07F
:1019B0009E0F9093A304F0E02091A4043091A5041D
:1019C000EE0FFF1FE156FB4F308727831092A504CF
:1019D0001092A40494E029C0811117C0E091A304DF
:1019E00091E09E0F9093A304F0E02091A404309125
:1019F000A504EE0FFF1FE156FB4F3087278310929F
:101A0000A5041092A40493E010C02091A404309186
:101A1000A5042536310558F007C0811108C0109281
:101A2000A5041092A40403C095E090939F049091A4
:101A3000A2049923B9F081110AC08091A1048823DE
:101A400021F08091A10461E009C02F9A0BC0809120
:101A5000A104882331F08091A10460E00E94DA089B
:101A600001C02F98FF91EF91BF91AF919F918F91FE
:101A70007F916F915F914F913F912F910F900BBE8E
:101A80000F900FBE0F901F9018958F929F92AF925C
:101A9000BF92CF92DF92EF92FF920F931F93CF935B
:101AA000DF938C016A017B0120E030E04FE753E4D3
:101AB000C701B6010E9487154B015C0120E030E0B0
:101AC000A9010E94D11718161CF4C501B40103C066
:101AD000C501B40190580E949B17EB0120E030E053
:101AE000A901C701B6010E94D117181614F460E0CD
:101AF00001C061E0F80181810E94DA08CF3FD10581
:101B000009F014F4DD2702C0CFEFD0E0F801108116
:101B100061E0812F0E940909209709F4B1C0CF3FED
:101B2000D10509F4AFC0E12FF0E0E252FD4FE4919E
:101B30008E2F90E0FC013197E231F10508F09DC055
:101B40008827EC57FF4F8F4F0C94B41684B58068EC
:101B500084BDC7BDA7C084B5806284BDC8BDA2C016
:101B600080918000806880938000D0938900C0932A
:101B7000880098C080918000806280938000D0931C
:101B80008B00C0938A008EC0809180008860809313
:101B90008000D0938D00C0938C0084C08091B000F1
:101BA00080688093B000C093B3007CC08091B00087
:101BB00080628093B000C093B40074C080919000A4
:101BC000806880939000D0939900C09398006AC079
:101BD00080919000806280939000D0939B00C0938E
:101BE0009A0060C080919000886080939000D093AC
:101BF0009D00C0939C0056C08091A0008068809397
:101C0000A0008091A0008F7B8093A000D093A900BA
:101C1000C093A80047C08091A00080628093A0007C
:101C2000D093AB00C093AA003DC08091A000886013
:101C30008093A000D093AD00C093AC0033C08091DE
:101C40002001806880932001D0932901C09328014E
:101C500029C080912001806280932001D0932B01C4
:101C6000C0932A011FC080912001886080932001C9
:101C7000D0932D01C0932C0115C0C038D10514F4A8
:101C800060E001C061E0812FDF91CF911F910F9142
:101C9000FF90EF90DF90CF90BF90AF909F908F908C
:101CA0000C94DA08DF91CF911F910F91FF90EF9084
:101CB000DF90CF90BF90AF909F908F9008958EBD92
:101CC00000000DB407FEFDCF8EB50895CF93DF93CE
:101CD000EC0160E088810E94DA0888E90E945F0ECA
:101CE00080E00E945F0E80E00E945F0E80E00E9414
:101CF0005F0E80E00E945F0E61E088810E94DA083A
:101D00008BE891E00197F1F760E088810E94DA08A2
:101D100080EE0E945F0E61E08881DF91CF910C948C
:101D2000DA08AF92BF92CF92DF92EF92FF920F93B9
:101D30001F93CF93DF93CDB7DEB760970FB6F894BC
:101D4000DEBF0FBECDBF5C0160E0FC0180810E9460
:101D5000DA0880E60E945F0E8E010F5F1F4F7E0142
:101D6000F1E1EF0EF11C680180E00E945F0E90E04F
:101D7000A0E0B0E0F60181939193A193B1936F013C
:101D8000EE15FF0589F761E0F50180810E94DA0810
:101D900080E090E0DC01F8014191519161917191F5
:101DA0008F01BA2FA92F982F8827840F951FA61F60
:101DB000B71FEE15FF0579F79C01AD016627772760
:101DC000CB01621B730B840B950B60960FB6F894D6
:101DD000DEBF0FBECDBFDF91CF911F910F91FF905E
:101DE000EF90DF90CF90BF90AF900895CF92DF92A9
:101DF000EF92FF92CF93DF93FC01C081CC3008F0CB
:101E000064C0D0E085E08C9FF0018D9FF00D11241F
:101E1000EF58FA4F838128E830E06901C81AD108E9
:101E200087FDD394CC0CDD1CCC0CDD1C683C71050B
:101E30003CF50D2C000CEE08FF08848128E532E00B
:101E4000281B310987FD3395220F331F220F331FC3
:101E5000C901330FAA0BBB0B9C01AD012C193D0925
:101E60004E095F09DB010E946F1624EB30E040E071
:101E700050E00E944516C20ED31EE41EF51E13C08C
:101E80006C157D0584F0248188E592E0821B910920
:101E900027FD9395880F991F880F991F6B0186174F
:101EA00097070CF46C018FB7F89495E09C9FF001B4
:101EB0009D9FF00D1124EF58FA4F96E0C91AD108F2
:101EC000CC0CDD1CD282C1828FBFDF91CF91FF90FD
:101ED000EF90DF90CF9008951F93CF93DF93EC01A5
:101EE000162F88818C3008F04DC061E0812F0E9450
:101EF0000909E88195E09E9FF0011124EF58FA4FFF
:101F00001F738081807C182B10831382E8819E9F31
:101F1000F0011124EF58FA4F148288816CE00E947E
:101F2000A8169CE0899FA001112420E030E095E0F4
:101F3000BA01620F731F969FF001979FF00D112455
:101F4000EF58FA4F608166FD13C02F5F3F4F2C3072
:101F5000310571F781110CC01092800082E08093EE
:101F60008100109285001092840086BB80936F00E0
:101F7000E88185E0E89FF0011124EF58FA4F808155
:101F8000806480838881DF91CF911F9108951F9293
:101F90000F920FB60F9211240BB60F922F933F930F
:101FA0004F935F936F937F938F939F93AF93BF9361
:101FB000EF93FF9380917D0787FF05C01092850006
:101FC0001092840016C020917D07022E000C330B66
:101FD0008091AD0590E0281739075CF430917D07BA
:101FE00025E03203F0011124EF58FA4F808186FD7D
:101FF00015C080917D078F5F80937D0720917D07BD
:10200000022E000C330B8091AD0590E028173907A4
:1020100094F480917D078C302CF10DC030917D07B8
:102020003203F0011124EF58FA4F808160E08F7382
:102030000E94DA08DECF809184009091850084347C
:102040009C4918F480E49CE905C08091840090913B
:102050008500049690938900809388008FEF809389
:102060007D072AC0409184005091850030917D0702
:1020700025E03203F0011124EF58FA4F818192815B
:10208000840F951F909389008093880030917D077D
:102090003203F0011124EF58FA4F808186FF0CC003
:1020A00030917D073203F0011124EF58FA4F8081FF
:1020B00061E08F730E94DA08FF91EF91BF91AF91B9
:1020C0009F918F917F916F915F914F913F912F9150
:1020D0000F900BBE0F900FBE0F901F901895789425
:1020E00084B5826084BD84B5816084BD85B582601D
:1020F00085BD85B5816085BD80916E0081608093CE
:102100006E00109281008091810082608093810036
:102110008091810081608093810080918000816046
:10212000809380008091B10084608093B1008091A1
:10213000B00081608093B0008091910082608093B4
:102140009100809191008160809391008091900036
:102150008160809390008091A10082608093A100B3
:102160008091A10081608093A1008091A000816096
:102170008093A00080912101826080932101809151
:1021800021018160809321018091200181608093F1
:10219000200180917A00846080937A0080917A0097
:1021A000826080937A0080917A00816080937A00C7
:1021B00080917A00806880937A001092C1000E941A
:1021C0001A0461E08091B6050E94090960E08091DF
:1021D000B6050E94DA0860E08091B5050E94090901
:1021E0008CEB92E09093C0058093BF051092AF06F0
:1021F0001092AE061092B7061092B8061092B6066C
:1022000081E08093B5061092B40661E084E10E94FB
:10221000DA0861E085E10E94DA088091B9008E7FDA
:102220008093B9008091B9008D7F8093B90088E4D4
:102230008093B80085E48093BC008FE895E090938C
:10224000B1068093B00680E995E09093B306809341
:10225000B20680E090E1A0E0B0E08093C2059093E8
:10226000C305A093C405B093C5058AE090E0A0E043
:10227000B0E08093C6059093C705A093C805B093BE
:10228000C90580E090E0A0E0B0E48093CA05909397
:10229000CB05A093CC05B093CD0560E070E185E05F
:1022A0000E94FD066FE979E380E00E94FD06C5EB20
:1022B000D5E08E0192E0792E27E8A22E22E0B22E00
:1022C0003DEC832E32E0932E4BECE42E47E0F42ECF
:1022D000F80194818281898F9A8F61E00E940909B7
:1022E00061E08A8D0E940909F801908586816E015E
:1022F000FDE1CF0ED11C8D8F9E8F61E00E940909F8
:1023000060E08E8D0E94090961E08D8D0E94DA08DF
:102310006FB6F8948091B202811126C0F5018491C4
:10232000F4012491E82FF0E0EE0FFF1FEC5FFD4F6A
:10233000A591B4919C91822F892321F461E085E3DA
:102340000E94DA0861E085E30E9409098CB580618A
:102350008CBD8CB580648CBD61E084E30E9409096A
:1023600061E083E30E9409098091B2028F5F80934C
:10237000B2026FBEC7010197F1F760E08D8D0E9438
:10238000DA0888E80E945F0E83E00E945F0E61E039
:102390008D8D0E94DA08C7010197F1F7C6010E94EE
:1023A000660E7A940F5F1F4F2296711091CF0AED3F
:1023B00015E0CEEDD5E060E0F80181918F010E943B
:1023C0000909C017D107B9F706ED15E07E01FFEF47
:1023D000EF1AFF0A688170E0CE0108960E946C0F28
:1023E000F70195818381F801828B938B60E00E94D5
:1023F000090961E0F80183890E94090960E0F80198
:1024000083890E94DA080E5F1F4FE701F5E0C03EA6
:10241000DF07E1F6F8941092200189E08093210112
:1024200080E293E090932901809328011092250186
:102430001092240182E080937300789480939F042B
:102440001092A3048091A00460E00E9409096091A9
:10245000DE0570E086EE95E00E946C0F8091E0054D
:10246000883320F48091E105873328F48FE392E0EC
:102470000E94540406C067E370E086EE95E00E9477
:10248000F60E0E941A0484ED95E00E94660E82ED1D
:1024900095E00E94660E8091DD050E94B108892BAF
:1024A00009F41FC10AE919E929E13EE340E050E0DF
:1024B00064EB72E480E00E94A20464E670E080E0D5
:1024C00090E00E94450920E030E040E85EE360E0F3
:1024D00070E088EC91E40E94620464E670E080E0C1
:1024E00090E00E9445090DEC1CEC2CE43EE340E03A
:1024F00050E066E972E480E00E94A20464E670E0C5
:1025000080E090E00E9445090E94E904EC010E94ED
:102510006F06BE01DD0F880B990B0E9428152AE07B
:1025200038E240EA5BE30E9487150E949B17672B05
:1025300059F764EF71E080E090E00E9445092DECCE
:102540003CEC4CE45EEB66E676E686EA9FEB0E94A6
:10255000620464EF71E080E090E00E94450984EB42
:102560000E94EB0668EE73E080E090E00E9445096F
:102570000AE919E929E13EE340E050E064E372E44E
:1025800080E00E94A20464E670E080E090E00E9497
:1025900045090BE714E12EE23EE340E050E064E33E
:1025A00072E480E00E94A20464E670E080E090E0C3
:1025B0000E9445090AE919E929E13EE340E050E0BB
:1025C00064E372E480E00E94A20464E670E080E0CC
:1025D00090E00E9445090BE714E12EE23EE340E063
:1025E00050E064E372E480E00E94A20464E670E0DC
:1025F00080E090E00E9445090E94E904EC010E94FD
:102600006F06BE01DD0F880B990B0E9428152AE08A
:1026100038E240EA5BE30E9487150E949B17672B14
:1026200059F78CE592E00E94420468EB7BE080E081
:1026300090E00E9445098AE50E94EB0664EF71E094
:1026400080E090E00E94450920E030E040E85EEB49
:1026500060E070E080E291EC0E94620464E670E069
:1026600080E090E00E9445090AE919E929E13EE38A
:1026700040E050E064E372E480E00E94A20464E67B
:1026800070E080E090E00E9445090AE919E929E13B
:102690003EE340E050E064E372E480E00E94A20484
:1026A00064E670E080E090E00E9445090AE919E9DB
:1026B00029E13EE340E050E064E372E480E00E9400
:1026C000A20464E670E080E090E00E94450920E00A
:1026D00030E040E85EE360E070E080EA92E40E946F
:1026E00062040E94980AD7CE1092BF021092BE02D6
:1026F00088EE93E0A0E0B0E08093C0029093C10226
:10270000A093C202B093C30223E132E03093BD0232
:102710002093BC021092CB021092CA028093CC028A
:102720009093CD02A093CE02B093CF0225E232E087
:102730003093C9022093C80245E351E05093D5027B
:102740004093D40244E351E05093D7024093D60221
:1027500040E351E05093D9024093D80241E351E065
:102760005093DB024093DA0242E351E05093DD02E2
:102770004093DC0246E351E05093DF024093DE02D7
:102780001092E1021092E2021092E3021092E4022F
:1027900010926803109267038093690390936A0311
:1027A000A0936B03B0936C0330936603209365038F
:1027B00045ED50E0509372034093710344ED50E0B7
:1027C000509374034093730340ED50E050937603AD
:1027D0004093750341ED50E05093780340937703A5
:1027E00042ED50E050937A034093790346ED50E078
:1027F00050937C0340937B0310927E0310927F03DF
:102800001092800310928103109205041092040428
:102810008093060490930704A0930804B0930904DE
:10282000309303042093020485EC90E090930F040E
:1028300080930E0484EC90E0909311048093100434
:1028400080EC90E0909313048093120481EC90E06C
:10285000909315048093140482EC90E090931704F5
:102860008093160486EC90E09093190480931804EA
:1028700010921B0410921C0410921D0410921E044E
:102880008091070290910802A0910902B0910A027A
:102890008093D6059093D705A093D805B093D9051A
:1028A00080910B0290910C02A0910D02B0910E024A
:1028B0008093DA059093DB05A093DC05B093DD05EA
:1028C00084E08093DE0587E08093DF051092E005C9
:1028D00084EB8093E10586E18093E20588E18093B3
:1028E000E30587E18093E40589E18093E505E091C4
:1028F000AD05EC3020F08FEF8093E60510C081E04D
:102900008E0F8093AD05E093E60525E0E29FF00190
:102910001124EF58FA4F88EB9BE092838183E0917A
:10292000AD05EC3020F08FEF8093E70510C081E01B
:102930008E0F8093AD05E093E70585E0E89FF001F9
:102940001124EF58FA4F88EB9BE0928381838CE04F
:102950008093B50584E28093B60586E08093B70541
:1029600085E08093B8058FE18093B9058EE180936F
:10297000BA0583E28093BB0582E28093BC0585E4BF
:102980008093BD0584E48093BE0580E48093C105F7
:102990001092C6051092C7051092C8051092C9057D
:1029A0001092CA051092CB051092CC051092CD055D
:1029B000E0EFF5E08FEF9FEFDC01128213821482CB
:1029C0001582168217821086118683879487A587C1
:1029D000B6878787908BA18BB28B1286118210826B
:1029E000739626E0EE3AF20741F78DE090E00E9400
:1029F000D617FC011382128287E392E091838083D1
:102A0000118687E2848384E1828784E08387148649
:102A1000F093ED05E093EC051092EE051092EF05B2
:102A200085E28093A0041092A2046AE772E08EEA25
:102A300095E00C9439028091AE059091AF050C940D
:102A40006E180E94631508F481E00895E89409C0A7
:102A500097FB3EF490958095709561957F4F8F4FD1
:102A60009F4F9923A9F0F92F96E9BB279395F695E7
:102A7000879577956795B795F111F8CFFAF4BB0F65
:102A800011F460FF1BC06F5F7F4F8F4F9F4F16C0C9
:102A9000882311F096E911C0772321F09EE8872F53
:102AA000762F05C0662371F096E8862F70E060E00F
:102AB0002AF09A95660F771F881FDAF7880F969588
:102AC000879597F90895990F0008550FAA0BE0E82C
:102AD000FEEF16161706E807F907C0F012161306E0
:102AE000E407F50798F0621B730B840B950B39F420
:102AF0000A2661F0232B242B252B21F408950A2686
:102B000009F4A140A6958FEF811D811D08950E94B3
:102B10009A150C940B160E94FD1538F00E940416AD
:102B200020F0952311F00C94F4150C94FA1511244F
:102B30000C943F160E941C1670F3959FC1F3950FDD
:102B400050E0551F629FF001729FBB27F00DB11D31
:102B5000639FAA27F00DB11DAA1F649F6627B00DC1
:102B6000A11D661F829F2227B00DA11D621F739FAA
:102B7000B00DA11D621F839FA00D611D221F749FB8
:102B80003327A00D611D231F849F600D211D822FFF
:102B9000762F6A2F11249F5750409AF0F1F0882326
:102BA0004AF0EE0FFF1FBB1F661F771F881F915053
:102BB0005040A9F79E3F510580F00C94F4150C94F9
:102BC0003F165F3FE4F3983ED4F38695779567957B
:102BD000B795F795E7959F5FC1F7FE2B880F911D7D
:102BE0009695879597F9089597F99F6780E870E023
:102BF00060E008959FEF80EC089500240A94161673
:102C0000170618060906089500240A9412161306DA
:102C1000140605060895092E0394000C11F4882368
:102C200052F0BB0F40F4BF2B11F460FF04C06F5F84
:102C30007F4F8F4F9F4F089557FD9058440F551F5A
:102C400059F05F3F71F04795880F97FB991F61F02E
:102C50009F3F79F087950895121613061406551FA5
:102C6000F2CF4695F1DF08C0161617061806991F11
:102C7000F1CF86957105610508940895E894BB2706
:102C800066277727CB0197F90895052E97FB1EF449
:102C900000940E945C1657FD07D00E94771607FC2F
:102CA00003D04EF40C945C165095409530952195C8
:102CB0003F4F4F4F5F4F0895909580957095619568
:102CC0007F4F8F4F9F4F08950E949916A59F900D9B
:102CD000B49F900DA49F800D911D11240895B7FFFE
:102CE0000C9464160E946416821B930B0895A1E253
:102CF0001A2EAA1BBB1BFD010DC0AA1FBB1FEE1F76
:102D0000FF1FA217B307E407F50720F0A21BB30BC0
:102D1000E40BF50B661F771F881F991F1A9469F73C
:102D200060957095809590959B01AC01BD01CF0198
:102D30000895A29FB001B39FC001A39F700D811D94
:102D40001124911DB29F700D811D1124911D0895B4
:102D5000991B79E004C0991F961708F0961B881FED
:102D60007A95C9F780950895EE0FFF1F881F8BBFD6
:102D70000790F691E02D19945058BB27AA270E947E
:102D8000D4160C940B160E94FD1538F00E94041600
:102D900020F039F49F3F19F426F40C94FA150EF440
:102DA000E095E7FB0C94F415E92F0E941C1658F3EC
:102DB000BA17620773078407950720F079F4A6F520
:102DC0000C943E160EF4E0950B2EBA2FA02D0B019D
:102DD000B90190010C01CA01A0011124FF27591B60
:102DE00099F0593F50F4503E68F11A16F040A22F66
:102DF000232F342F4427585FF3CF469537952795D7
:102E0000A795F0405395C9F77EF41F16BA0B620BD5
:102E1000730B840BBAF09150A1F0FF0FBB1F661F1C
:102E2000771F881FC2F70EC0BA0F621F731F841F5F
:102E300048F4879577956795B795F7959E3F08F085
:102E4000B0CF9395880F08F09927EE0F9795879547
:102E500008950E943D170C940B160E94041658F01A
:102E60000E94FD1540F029F45F3F29F00C94F41501
:102E700051110C943F160C94FA150E941C1668F31D
:102E80009923B1F3552391F3951B550BBB27AA2723
:102E900062177307840738F09F5F5F4F220F331F5D
:102EA000441FAA1FA9F335D00E2E3AF0E0E832D025
:102EB00091505040E695001CCAF72BD0FE2F29D028
:102EC000660F771F881FBB1F261737074807AB07FA
:102ED000B0E809F0BB0B802DBF01FF2793585F4F6F
:102EE0003AF09E3F510578F00C94F4150C943F167F
:102EF0005F3FE4F3983ED4F3869577956795B79551
:102F0000F7959F5FC9F7880F911D9695879597F95B
:102F10000895E1E0660F771F881FBB1F62177307D4
:102F20008407BA0720F0621B730B840BBA0BEE1FE9
:102F300088F7E09508950E94A2176894B1110C9447
:102F40003F1608950E94241688F09F5798F0B92FD5
:102F50009927B751B0F0E1F0660F771F881F991FCE
:102F60001AF0BA95C9F714C0B13091F00E943E161C
:102F7000B1E008950C943E16672F782F8827B85F2C
:102F800039F0B93FCCF3869577956795B395D9F726
:102F90003EF490958095709561957F4F8F4F9F4F30
:102FA00008950E94631508F48FEF08950F931F93FF
:102FB000CF93DF938230910510F482E090E0E091AE
:102FC0008507F091860720E030E0A0E0B0E0309780
:102FD00019F1408151810281138148175907C8F0C6
:102FE0008417950769F4109731F012960C93129795
:102FF00013961C9327C0009385071093860722C061
:103000002115310519F04217530718F49A01BD0133
:10301000EF01DF01F801DBCF21153105F9F0281BA5
:10302000390B2430310580F48A819B81611571054B
:1030300021F0FB019383828304C0909386078093E1
:103040008507FE01329644C0FE01E20FF31F819313
:10305000919322503109398328833AC02091830704
:1030600030918407232B41F4209103023091040214
:10307000309384072093830720910102309102024C
:103080002115310541F42DB73EB74091050250910D
:103090000602241B350BE0918307F0918407E217A9
:1030A000F307A0F42E1B3F0B2817390778F0AC016B
:1030B0004E5F5F4F2417350748F04E0F5F1F509348
:1030C0008407409383078193919302C0E0E0F0E08E
:1030D000CF01DF91CF911F910F910895CF93DF938F
:1030E000009709F481C0FC01329713821282A091EB
:1030F0008507B0918607109781F420813181820F76
:10310000931F20918307309184072817390751F5C1
:10311000F0938407E093830767C0ED0120E030E07F
:10312000CE17DF0740F44A815B819E0141155105AE
:10313000F1F0EA01F5CFD383C28340815181840F3E
:10314000951FC817D90759F488819981840F951F55
:103150000296918380838A819B8193838283211548
:10316000310529F4F0938607E09385073DC0E90116
:10317000FB83EA8349915991C40FD51FEC17FD07D2
:1031800061F480819181840F951F0296E9019983F2
:103190008883828193819B838A83E0E0F0E01296AA
:1031A0008D919C911397009719F0FD01DC01F7CFE9
:1031B0008D919C9111979D012E5F3F4F820F931F20
:1031C00020918307309184072817390769F43097D5
:1031D00029F4109286071092850702C0138212828A
:1031E000B0938407A0938307DF91CF9108956F92E6
:1031F0007F928F929F92AF92BF92CF92DF92EF9287
:10320000FF920F931F93CF93DF93009789F4CB0125
:10321000DF91CF911F910F91FF90EF90DF90CF90B2
:10322000BF90AF909F908F907F906F900C94D61727
:10323000FC01E60FF71F9C0122503109E217F3074A
:1032400008F4A9C0EC01D9010D911C911197061742
:103250001707B0F00530110508F49BC0C8010497AA
:103260008617970708F495C002501109061B170B23
:10327000019311936D937C93CF010E946E1889C0C6
:103280005B01A01AB10A4C01800E911EA091850726
:10329000B0918607612C712CE12CF12C109709F468
:1032A00046C08D919C911197A815B905B1F56C0197
:1032B00042E0C40ED11CCA14DB0478F14C018A1818
:1032C0009B08640142E0C40ED11C1296BC90129778
:1032D0001396AC91B5E0CB16D10440F0B282A38333
:1032E00091828082D9016D937C9309C00E5F1F4F3C
:1032F000800F911FF90191838083EB2DFA2FE11448
:10330000F10431F0D7011396FC93EE93129741C06C
:10331000F0938607E09385073CC06816790608F4A9
:103320003C017D0112960D90BC91A02DB7CF8091EC
:1033300083079091840788169906E1F4661677064C
:10334000C8F48091010290910202009741F48DB778
:103350009EB74091050250910602841B950BE81719
:10336000F907C8F4F0938407E0938307F9017183A8
:1033700060830FC0CB010E94D6177C01009759F0E3
:10338000A801BE010E94E119CE010E946E18C7017A
:1033900004C0CE0102C080E090E0DF91CF911F9188
:1033A0000F91FF90EF90DF90CF90BF90AF909F90E4
:1033B0008F907F906F90089581E090E0F8940C9446
:1033C000FA19FB01DC0102C001900D9241505040FE
:1033D000D8F70895FB01DC018D910190801901104F
:1033E000D9F3990B0895FB01DC0101900D920020A7
:1033F000E1F7089511E0C4E9D1E000E006C0802FB4
:10340000FE010E94B4162196011DC539D10780E046
:083410000807A9F7F894FFCFAB
:10341800FF000087072000363738391B1D1A1C00AB
:10342800000000EA05BD05C60A9105B505A105928B
:103438000500000000260A7F09A909730ADA09B8FD
:1034480009CC0900000000C90A7F09C60AC50A5349
:103458006572766F20616E676C65206973206F7581
:1034680074206F662072616E67652100536F7274F5
:103478006973206465206C6120626F75636C6500F8
:10348800746F75726E6572000D0A006176616E6305
:10349800657200544F555420424C414E43004452EB
:1034A8004F49544500544F55542044524F495400F5
:1034B80047415543484500544F5554204E4F4952B3
:0234C800000002
:00000001FF
