:100000000C9495010C94C6010C94C6010C94C60185
:100010000C94C6010C94C6010C94C6010C94C60144
:100020000C94C6010C94EB0B0C94EB0B0C94EB0BA7
:100030000C94C6010C9458040C94C6010C94C6018F
:100040000C94C6010C94CF080C94C6010C94C60104
:100050000C94C6010C94C6010C94C6010C94C00308
:100060000C94C6010C94C7050C949D050C94C60114
:100070000C94C6010C94C6010C94C6010C94C601E4
:100080000C94C6010C94C6010C94C6010C94C601D4
:100090000C94C6010C94C6010C94C6010C94F50B8B
:1000A0000C94C6010C94C6010C94C6010C94C601B4
:1000B0000C94C6010C94C6010C94C6010C94F10575
:1000C0000C94C6010C94C6010C94C6010C947305E3
:1000D0000C9449050C94C6010C941F050C94F5046E
:1000E0000C94C601100715071A0724072E07A70747
:1000F00038074007480752075C07660775077F0700
:10010000A707890793079D07AA0AAD0A9C0AA00AB8
:10011000A60AE40AB10AB50ABB0ABF0AC30AC90A99
:10012000CD0AD10AE40AD70ADB0ADF0A0C949D073C
:100130000C94A7070C9438070C942E070C94C30A50
:100140000C94C8010C94BF0A0C945C070C94BB0A75
:100150000C94DB0A0C9489070C9415030C94C90ABF
:100160000C94330A0C94600A0C941A070C94170A26
:100170000C946F020C9415020C9475070C944007B4
:100180000C942B0A0C94AA0A0C9452070C94150791
:100190000C94B10A0C94F2010C943E140C94A00A35
:1001A0000C9424070C9416030C9448070C94060A2C
:1001B0000C94D70A0C949C0A0C94080A0C94230201
:1001C0000C94AD0A0C94DF0A0C94BC020C94B50A92
:1001D0000C947F070C9401020C94D10A0C94070A2A
:1001E0000C94050A0C94E40A0C9476030C94CD0A42
:1001F0000C9444140C9493070C94A60A0C94660770
:100200000C9410070200002100240027002A002D72
:10021000003000330001010000040107010A010061
:10022000002200250028002B002E0031003400029F
:10023000010000050108010B010000200023002639
:100240000029002C002F00320000010000030106ED
:10025000010901050505050705080808080202024D
:10026000020A0A0808040404040101010101010151
:10027000010303030303030303040707070C0C0C28
:100280000C0C0C0C0C020202020606060606060600
:10029000060B0B0B0B0B0B0B0B010210202008089D
:1002A00010204010204080020102010804020101D8
:1002B00002040810204080804020100804020180C1
:1002C0000402018040201008040201080402010118
:1002D0000204081020408001020408102040800021
:1002E000000A0B02090C0D0E0807030401000000B0
:1002F00000000000000000000000000000000000FE
:1003000000000000000000000000001211100000BA
:1003100000000000000000000000000000000000DD
:1003200000000000000044143E1411241FBECFEF53
:10033000D1E2DEBFCDBF00E00CBF12E0A0E0B2E032
:10034000ECEAF5E300E00BBF02C007900D92A23B80
:10035000B107D9F727E0A2EBB2E001C01D92A738A0
:10036000B207E1F711E0C4E9D1E000E006C021974F
:100370000109802FFE010E947E17C339D10780E05A
:100380000807A9F70E94A0110C94C41A0C9400004D
:10039000CF92DF92EF92FF920F931F93CF93DF9351
:1003A0006C017A018B01C0E0D0E0CE15DF0581F051
:1003B000D8016D918D01D601ED91FC910190F081F4
:1003C000E02DC6011995892B11F02196EECF7E0103
:1003D000C701DF91CF911F910F91FF90EF90DF90B8
:1003E000CF900895FC01538D448D252F30E0842F4C
:1003F00090E0821B930B541710F0CF96089501974D
:100400000895FC01918D828D981761F0828DDF0136
:10041000A80FB11D5D968C91928D9F5F9F73928FF7
:1004200090E008958FEF9FEF0895FC01918D828DEC
:10043000981731F0828DE80FF11D858D90E00895B9
:100440008FEF9FEF0895FC01918D228D892F90E011
:10045000805C9F4F821B91098F73992708958DE9C6
:1004600093E00E94230221E0892B09F420E0822FEF
:1004700008958AE394E00E94230221E0892B09F485
:1004800020E0822F089587ED94E00E94230221E06E
:10049000892B09F420E0822F0895FC01848DDF016F
:1004A000A80FB11DA35ABF4F2C91848D90E00196E7
:1004B0008F739927848FA689B7892C93A089B189D6
:1004C0008C91837080648C93938D848D981306C077
:1004D0000288F389E02D80818F7D80830895EF92DB
:1004E000FF920F931F93CF93DF93EC0181E0888FEE
:1004F0009B8D8C8D981305C0E889F989808185FDD5
:1005000026C0F62E0B8D10E00F5F1F4F0F731127C3
:10051000E02E8C8DE8120CC00FB607FCFACFE889EC
:10052000F989808185FFF5CFCE010E944D02F1CF80
:100530008B8DFE01E80FF11DE35AFF4FF0829FB74C
:10054000F8940B8FEA89FB89808180620AC09FB78B
:10055000F894EE89FF896083E889F9898081837046
:10056000806480839FBF81E090E0DF91CF911F91F5
:100570000F91FF90EF900895CF93DF93EC01888D5A
:100580008823C9F0EA89FB89808185FD05C0A88997
:10059000B9898C9186FD0FC00FB607FCF5CF80811D
:1005A00085FFF2CFA889B9898C9185FFEDCFCE0167
:1005B0000E944D02E7CFDF91CF910895E0E0F0E097
:1005C000199480E090E0892B21F00E944302811170
:1005D00019C080E090E0892B41F080E090E0892B09
:1005E00021F00E940000811110C00E943902811187
:1005F0000FC080E090E0892B81F00E942F028111D2
:100600000AC008950E940000E4CF0E940000EDCFD0
:100610000E94DE02EECF0C94000008958EBD000013
:100620000DB407FEFDCF8EB50895089580E090E0EB
:1006300008951F93CF93DF93EC01162F88818C30A0
:1006400008F04DC061E0812F0E947F0DE88195E0A8
:100650009E9FF0011124EA5BF94F1F738081807C1B
:10066000182B10831382E8819E9FF0011124EA5B0E
:10067000F94F148288816CE00E9472179CE0899F78
:10068000A001112420E030E095E0BA01620F731F51
:10069000969FF001979FF00D1124EA5BF94F60815E
:1006A00066FD13C02F5F3F4F2C30310571F781116C
:1006B0000CC01092800082E080938100109285002F
:1006C0001092840086BB80936F00E88185E0E89FEC
:1006D000F0011124EA5BF94F808180648083888176
:1006E000DF91CF911F9108950E94A61A0F931F9337
:1006F000CF93DF938C01C62FD62FD07FD1606D2F83
:100700000E94AA0B6D2FC8010E94BD0B80E1C89FFB
:10071000B0011124C62FC1606C2FC8010E94AA0B22
:100720006C2FC8010E94BD0B81E090E0DF91CF915A
:100730001F910F9108953FB7F8948091D70290913F
:10074000D802A091D902B091DA0226B5A89B05C0C3
:100750002F3F19F00196A11DB11D3FBFBA2FA92F40
:10076000982F8827820F911DA11DB11DBC01CD01BD
:1007700042E0660F771F881F991F4A95D1F70895A9
:100780001F920F920FB60F9211242F933F938F93C6
:100790009F93AF93BF938091D3029091D402A09185
:1007A000D502B091D6023091D20223E0230F2D372B
:1007B00020F40196A11DB11D05C026E8230F029665
:1007C000A11DB11D2093D2028093D3029093D40235
:1007D000A093D502B093D6028091D7029091D8020F
:1007E000A091D902B091DA020196A11DB11D8093AA
:1007F000D7029093D802A093D902B093DA02BF91A6
:10080000AF919F918F913F912F910F900FBE0F90BD
:100810001F901895EF92FF920F931F93CF93DF9342
:10082000EC01198218821B821A821D821C826115BA
:100830007105B9F17B01FB0101900020E9F73197C7
:100840008F01061B170BB8016F5F7F4F80E090E0B0
:100850000E94C119009759F0998388831B830A83EA
:100860002C813D81232B81F4FC0110820DC08881F5
:100870009981009711F00E943819198218821D82FF
:100880001C821B821A820DC01D830C83B7018881D4
:100890009981DF91CF911F910F91FF90EF900C9470
:1008A000BD1ADF91CF911F910F91FF90EF900895A6
:1008B0001F920F920FB60F9211240BB60F922F9327
:1008C0003F934F935F936F937F938F939F93AF93D8
:1008D000BF93EF93FF938091CD029091CE02A091B0
:1008E000CF02B091D002892B8A2B8B2B49F19091AA
:1008F000CC02809100008927809300008091CD0276
:100900009091CE02A091CF02B091D0021816190694
:100910001A061B060CF056C08091CD029091CE02B3
:10092000A091CF02B091D0020197A109B1098093A3
:10093000CD029093CE02A093CF02B093D00242C0DA
:1009400080910002E4E0F2E0E4919FEF90930002D6
:10095000E230C9F050F4EE2399F0E13081F5909146
:100960006F009D7F90936F002AC0E43019F1E0F092
:10097000E53029F5909173009D7F909373001FC01F
:1009800010926E001CC0909170009D7F909370003B
:1009900091E09093B0009091B100987F9460909313
:1009A000B1001092B3000BC0909171009D7F9093A5
:1009B000710005C0909172009D7F9093720060E07D
:1009C0000E94500DFF91EF91BF91AF919F918F9138
:1009D0007F916F915F914F913F912F910F900BBE3F
:1009E0000F900FBE0F901F9018951F920F920FB689
:1009F0000F9211240BB60F922F933F934F935F9357
:100A00006F937F938F939F93AF93BF93EF93FF93D6
:100A10008DE993E00E944D02FF91EF91BF91AF915C
:100A20009F918F917F916F915F914F913F912F9106
:100A30000F900BBE0F900FBE0F901F9018951F9236
:100A40000F920FB60F9211240BB60F922F933F9374
:100A50004F935F936F937F938F939F93AF93BF93C6
:100A6000EF93FF938DE993E00E94D20BFF91EF91FA
:100A7000BF91AF919F918F917F916F915F914F91B6
:100A80003F912F910F900BBE0F900FBE0F901F90B4
:100A900018951F920F920FB60F9211240BB60F925A
:100AA0002F933F934F935F936F937F938F939F9376
:100AB000AF93BF93EF93FF938AE394E00E944D02BC
:100AC000FF91EF91BF91AF919F918F917F916F9126
:100AD0005F914F913F912F910F900BBE0F900FBEE2
:100AE0000F901F9018951F920F920FB60F9211241E
:100AF0000BB60F922F933F934F935F936F937F9318
:100B00008F939F93AF93BF93EF93FF938AE394E008
:100B10000E94D20BFF91EF91BF91AF919F918F9166
:100B20007F916F915F914F913F912F910F900BBEED
:100B30000F900FBE0F901F9018951F920F920FB637
:100B40000F9211240BB60F922F933F934F935F9305
:100B50006F937F938F939F93AF93BF93EF93FF9385
:100B600087ED94E00E944D02FF91EF91BF91AF910C
:100B70009F918F917F916F915F914F913F912F91B5
:100B80000F900BBE0F900FBE0F901F9018951F92E5
:100B90000F920FB60F9211240BB60F922F933F9323
:100BA0004F935F936F937F938F939F93AF93BF9375
:100BB000EF93FF9387ED94E00E94D20BFF91EF91AA
:100BC000BF91AF919F918F917F916F915F914F9165
:100BD0003F912F910F900BBE0F900FBE0F901F9063
:100BE00018951F920F920FB60F9211240BB60F9209
:100BF0002F933F934F935F936F937F938F939F9325
:100C0000AF93BF93EF93FF93809175050E94270DDB
:100C10002091790530917A052F5F3F4F30937A0507
:100C20002093790590917805953618F096E0909389
:100C30007405909174059430C9F128F4923069F0EC
:100C40009330D1F05EC0953009F451C0963009F070
:100C500058C091E09093450651C0811152C0209137
:100C6000790530917A052436310508F442C0109296
:100C70004506109278051CC0813009F042C0E09111
:100C8000780591E09E0F90937805F0E0209179052A
:100C900030917A05EE0FFF1FEC58FA4F308727830B
:100CA00010927A051092790594E029C0811117C03D
:100CB000E091780591E09E0F90937805F0E0209107
:100CC000790530917A05EE0FFF1FEC58FA4F308707
:100CD000278310927A051092790593E010C0209135
:100CE000790530917A052536310558F007C0811114
:100CF00008C010927A051092790503C095E0909390
:100D00007405909177059923B9F081110AC08091FB
:100D10007605882321F08091760561E009C02F9A3D
:100D20000BC080917605882331F08091760560E0D4
:100D30000E94500D01C02F98FF91EF91BF91AF918C
:100D40009F918F917F916F915F914F913F912F91E3
:100D50000F900BBE0F900FBE0F901F9018958F92A3
:100D60009F92AF92BF92CF92DF92EF92FF920F933A
:100D70001F93CF93DF938C016A017B0120E030E069
:100D80004FE753E4C701B6010E9451164B015C01C5
:100D900020E030E0A9010E949B1818161CF4C50140
:100DA000B40103C0C501B40190580E946518EB015D
:100DB00020E030E0A901C701B6010E949B18181677
:100DC00014F460E001C061E0F80181810E94500DDF
:100DD000CF3FD10509F014F4DD2702C0CFEFD0E0FA
:100DE000F801108161E0812F0E947F0D209709F4A6
:100DF000B1C0CF3FD10509F4AFC0E12FF0E0E1521F
:100E0000FD4FE4918E2F90E0FC013197E231F10526
:100E100008F09DC08827EE58FF4F8F4F0C947E1727
:100E200084B5806884BDC7BDA7C084B5806284BD19
:100E3000C8BDA2C080918000806880938000D0935C
:100E40008900C093880098C0809180008062809360
:100E50008000D0938B00C0938A008EC08091800068
:100E6000886080938000D0938D00C0938C0084C0F4
:100E70008091B00080688093B000C093B3007CC0C4
:100E80008091B00080628093B000C093B40074C0C1
:100E900080919000806880939000D0939900C093D7
:100EA00098006AC080919000806280939000D093F7
:100EB0009B00C0939A0060C08091900088608093EE
:100EC0009000D0939D00C0939C0056C08091A000DC
:100ED00080688093A0008091A0008F7B8093A00009
:100EE000D093A900C093A80047C08091A000806261
:100EF0008093A000D093AB00C093AA003DC0809126
:100F0000A00088608093A000D093AD00C093AC0097
:100F100033C080912001806880932001D093290103
:100F2000C093280129C08091200180628093200114
:100F3000D0932B01C0932A011FC0809120018860AB
:100F400080932001D0932D01C0932C0115C0C0388F
:100F5000D10514F460E001C061E0812FDF91CF91F1
:100F60001F910F91FF90EF90DF90CF90BF90AF90C7
:100F70009F908F900C94500DDF91CF911F910F9106
:100F8000FF90EF90DF90CF90BF90AF909F908F90A9
:100F90000895CF93DF93EC0160E088810E94500DAB
:100FA00088E90E940E0380E00E940E0380E00E9408
:100FB0000E0380E00E940E0380E00E940E0361E0B9
:100FC00088810E94500D8BE891E00197F1F760E075
:100FD00088810E94500D80EE0E940E0361E088819E
:100FE000DF91CF910C94500DAF92BF92CF92DF92D0
:100FF000EF92FF920F931F93CF93DF93CDB7DEB79E
:1010000060970FB6F894DEBF0FBECDBF5C0160E005
:10101000FC0180810E94500D80E60E940E038E012B
:101020000F5F1F4F7E01F1E1EF0EF11C680180E0C0
:101030000E940E0390E0A0E0B0E0F601819391934E
:10104000A193B1936F01EE15FF0589F761E0F501FA
:1010500080810E94500D80E090E0DC01F801419118
:101060005191619171918F01BA2FA92F982F8827E3
:10107000840F951FA61FB71FEE15FF0579F79C017A
:10108000AD0166277727CB01621B730B840B950B91
:1010900060960FB6F894DEBF0FBECDBFDF91CF9143
:1010A0001F910F91FF90EF90DF90CF90BF90AF9086
:1010B0000895CF92DF92EF92FF92CF93DF93FC01DE
:1010C000C081CC3008F064C0D0E085E08C9FF00196
:1010D0008D9FF00D1124EA5BF94F838128E830E001
:1010E0006901C81AD10887FDD394CC0CDD1CCC0C47
:1010F000DD1C683C71053CF50D2C000CEE08FF086A
:10110000848128E532E0281B310987FD3395220FC1
:10111000331F220F331FC901330FAA0BBB0B9C01D6
:10112000AD012C193D094E095F09DB010E943917F9
:1011300024EB30E040E050E00E940F17C20ED31EB7
:10114000E41EF51E13C06C157D0584F0248188E52E
:1011500092E0821B910927FD9395880F991F880FB4
:10116000991F6B01861797070CF46C018FB7F894E1
:1011700095E09C9FF0019D9FF00D1124EA5BF94FD3
:1011800096E0C91AD108CC0CDD1CD282C1828FBF77
:10119000DF91CF91FF90EF90DF90CF9008951F9255
:1011A0000F920FB60F9211240BB60F922F933F930D
:1011B0004F935F936F937F938F939F93AF93BF935F
:1011C000EF93FF938091CB0287FF05C010928500BB
:1011D0001092840016C02091CB02022E000C330B1B
:1011E0008091820690E0281739075CF43091CB0299
:1011F00025E03203F0011124EA5BF94F808186FD7E
:1012000015C08091CB028F5F8093CB022091CB02DF
:10121000022E000C330B8091820690E028173907CC
:1012200094F48091CB028C302CF10DC03091CB0224
:101230003203F0011124EA5BF94F808160E08F7383
:101240000E94500DDECF80918400909185008434FF
:101250009C4918F480E49CE905C080918400909139
:101260008500049690938900809388008FEF809387
:10127000CB022AC040918400509185003091CB026E
:1012800025E03203F0011124EA5BF94F818192815C
:10129000840F951F90938900809388003091CB0232
:1012A0003203F0011124EA5BF94F808186FF0CC004
:1012B0003091CB023203F0011124EA5BF94F8081B7
:1012C00061E08F730E94500DFF91EF91BF91AF913C
:1012D0009F918F917F916F915F914F913F912F914E
:1012E0000F900BBE0F900FBE0F901F90189530916E
:1012F000E502313208F04BC08091E3028111FCCF4E
:101300009091900322E02093E30221E02093E202F7
:101310002FEF20936E0310926D0330936C03E0E780
:10132000F3E0ACE4B3E020E0321721F041914D93BB
:101330002F5FFACF10924B0320914B03990F922B02
:1013400090934B039091E102913061F41092E1028D
:1013500090914B039093BB009091BC0093FDF8CF0C
:1013600095EC01C095EE9093BC009091E302923011
:10137000E1F390916E039F3F79F080916E0380328C
:1013800041F080916E03803331F084E005C081E04C
:1013900003C082E001C083E01092E4021092E502F3
:1013A00010926F03089585ED8093BC008091BC007E
:1013B00084FDFCCF1092E302089540912603262F6E
:1013C00030E0240F311D21323105DCF42091E3029D
:1013D0002430C9F4FC0180E090E0861758F4309185
:1013E00026032191DC01AA5FBC4FA30FB11D2C93F2
:1013F0000196F3CF80912603680F6093260380E067
:10140000089581E0089582E008950895089508956B
:10141000E091DC028091DB02E81730F4F0E0EA5161
:10142000FD4F808190E008958FEF9FEF0895909198
:10143000DC028091DB02981750F4E92FF0E0EA51CA
:10144000FD4F208130E09F5F9093DC0202C02FEFC0
:101450003FEFC90108958091DB0290E02091DC020A
:10146000821B91090895CF92DF92EF92FF920F9322
:101470001F93CF93DF937C01CB018A0120916F03EF
:10148000222389F0EB016B01C40ED51ECC15DD05BE
:1014900069F06991D701ED91FC910190F081E02D07
:1014A000C7011995F3CF642F0E94DD09C801DF91B0
:1014B000CF911F910F91FF90EF90DF90CF90089503
:1014C000CF93DF931F92CDB7DEB7698320916F036F
:1014D0002223D1F02091E502203240F021E030E0DB
:1014E000FC013383228380E090E015C08091E40208
:1014F000E82FF0E0E059FC4F998190838F5F809353
:10150000E4028093E50205C061E0CE0101960E94ED
:10151000DD0981E090E00F90DF91CF91089590E098
:10152000FC013197E231F10508F04EC08827EC57F5
:10153000FF4F8F4F0C947E17809180008F7703C0F0
:10154000809180008F7D809380000895809180003D
:10155000877FF9CF84B58F7702C084B58F7D84BD36
:1015600008958091B0008F7703C08091B0008F7D87
:101570008093B0000895809190008F7707C080918C
:1015800090008F7D03C080919000877F80939000B2
:1015900008958091A0008F7707C08091A0008F7D73
:1015A00003C08091A000877F8093A0000895809160
:1015B00020018F7707C0809120018F7D03C080912B
:1015C0002001877F809320010895CF92DF92EF92D0
:1015D000FF920E948811BC01990F880B990B0E9401
:1015E000F2152AE038E240EA5BE30E9451166B01F3
:1015F0007C012DEC3CEC4CE950E40E949B18181641
:101600006CF48CE592E00E94F3102AE939E949E193
:101610005EE360E070E080EA90E42BC020E030E020
:1016200040E850E4C701B6010E949B1818165CF40C
:1016300087E692E00E94F3104DEC5CEC6CE47EE3F4
:1016400083EA96E030C020E030E040E450E4C70197
:10165000B6010E949B18181694F48EE692E00E9440
:10166000F3102AE939E949E15EE360E070E080E2E5
:1016700090E4FF90EF90DF90CF900C94011120E068
:1016800030E040E85FE3C701B6010E949B181816DE
:1016900084F489E792E00E94F3104DEC5CEC6CE47A
:1016A0007EEB85EA96E0FF90EF90DF90CF900C9470
:1016B000AF0680E892E0FF90EF90DF90CF900C941F
:1016C000F3109091B506891720F09091B6069817FF
:1016D00020F48FE392E00C94F310682F70E08BEB12
:1016E00096E00C9459080F931F93CF93DF93162F16
:1016F000072FCAE8D6E09C8521E020936F039093E2
:1017000090031092E4021092E502AA85BB85ED9148
:10171000FC9111970190F081E02D682FCD01199572
:101720008A859B85DC01ED91FC910190F081E02D93
:10173000602F19958A859B85DC01ED91FC910190C4
:10174000F081E02D612F1995DF91CF911F910F91BD
:101750000C947709FC01248131E030936F032093CE
:1017600090031092E4021092E5028485682B81E9CF
:1017700093E00E94600A0C9477090F931F93CF9314
:101780008C01C62F64600E94AA0B6C2F6B7FC8016E
:101790000E94AA0B83EC90E00197F1F7CF911F9183
:1017A0000F910895FC01A089B1898C91A689B78910
:1017B00082FD0FC09C91818D8F5F8F73228D821768
:1017C00049F0218DDF01A20FB11D5D969C93818FA1
:1017D00008958C9108951F920F920FB60F921124C5
:1017E0000F900FBE0F901F9018951F920F920FB67B
:1017F0000F9211240BB60F922F933F934F935F9349
:101800006F937F938F939F93AF93BF93EF93FF93C8
:101810008091B900887F803609F49CC068F58832D1
:1018200009F45BC090F4803109F454C038F4882383
:1018300009F4F6C0883009F44DC0F6C0883109F4C7
:101840004CC0803209F45DC0EFC0803409F468C038
:1018500048F4803309F455C0883309F0E5C080931B
:101860006E03D8C0803509F44FC0883509F45DC0D7
:10187000883409F0D9C0D6C0883909F4C7C0A8F4A3
:10188000883709F467C038F4883609F463C08037B4
:1018900009F460C0C9C0883809F4B8C0803909F4B7
:1018A0005FC0803809F0C0C05BC0803B09F486C0CF
:1018B00038F4803A09F466C0883A09F47FC0B4C0AD
:1018C000803C09F4A7C0883C09F4A4C0883B09F413
:1018D0008AC0AAC080914B0310C090916D03809183
:1018E0006C03981770F5E0916D0381E08E0F809383
:1018F0006D03F0E0E45BFC4F80818093BB0085ECDE
:1019000086C080936E038EC0E0916D0381E08E0FE0
:1019100080936D038091BB00F0E0E45BFC4F80831B
:1019200090916D0380916C036EC0E0916D0381E036
:101930008E0F80936D038091BB00F0E0E45BFC4F61
:1019400080838091E20281116DC081E08093E10289
:1019500084EA61C083E08093E30210924803CFCF12
:1019600080914803803208F051C0E091480381E043
:101970008E0F809348038091BB00F0E0E85DFC4F40
:101980008083BDCF85EC8093BC001092E3028091F0
:101990004803803230F4E0914803F0E0E85DFC4F0A
:1019A00010826091480370E0E091DF02F091E00264
:1019B00088E293E019951092480336C084E0809342
:1019C000E3021092270310922603E091DD02F091CA
:1019D000DE02199580912603811105C081E0809374
:1019E000260310920603E091270381E08E0F809377
:1019F0002703F0E0EA5FFC4F80818093BB00909169
:101A0000270380912603981708F479CF85E88093FF
:101A1000BC000AC085EC8093BC001092E30204C0B5
:101A200010926E030E94D309FF91EF91BF91AF9185
:101A30009F918F917F916F915F914F913F912F91E6
:101A40000F900BBE0F900FBE0F901F901895CF9365
:101A5000DF93282F30E0F901E152FD4F8491F90125
:101A6000E756FD4FD491F901ED5AFD4FC491CC23B7
:101A700091F081110E948F0AEC2FF0E0EE0FFF1F12
:101A8000E75CFD4FA591B491EC91ED2381E090E0EE
:101A900021F480E002C080E090E0DF91CF910895D2
:101AA0001F93CF93DF93282F30E0F901E152FD4FD0
:101AB0008491F901E756FD4FD491F901ED5AFD4F9C
:101AC000C491CC23C1F0162F81110E948F0AEC2FF4
:101AD000F0E0EE0FFF1FE15EFD4FA591B4919FB7BF
:101AE000F894111104C08C91D095D82302C0EC91C8
:101AF000DE2BDC939FBFDF91CF911F910895CF9391
:101B0000DF9390E0FC01E756FD4F2491FC01ED5A74
:101B1000FD4F8491882361F190E0880F991FFC01AB
:101B2000EB5FFD4FC591D491FC01E15EFD4FA591A6
:101B3000B491611109C09FB7F894888120958223E0
:101B40008883EC912E230BC0623061F49FB7F89428
:101B50008881322F309583238883EC912E2B2C9310
:101B60009FBF06C08FB7F894E8812E2B28838FBFC4
:101B7000DF91CF9108958F929F92AF92BF92CF92B3
:101B8000DF92EF92FF926B017C010E949B034B015D
:101B90005C01C114D104E104F104F1F00E949B0343
:101BA000DC01CB0188199909AA09BB09883E934039
:101BB000A105B10570F321E0C21AD108E108F108CE
:101BC00088EE880E83E0981EA11CB11CC114D104BC
:101BD000E104F10419F7DDCFFF90EF90DF90CF9093
:101BE000BF90AF909F908F900895EF92FF920F93C8
:101BF0001F93CF93DF937C010E948811EC010E9418
:101C0000E50ABE01DD0F880B990B0E94F2152AE050
:101C100038E240EA5BE30E9451160E946518672B88
:101C200059F764EF71E080E090E00E94BB0D2DEC6D
:101C30003CEC4CE45EEB66E676E686EA9FEB0E94BF
:101C4000011164EF71E080E090E00E94BB0D84EB35
:101C50000E94610B68EE73E080E090E00E94BB0D93
:101C60000AE919E929E13EE340E050E064E372E467
:101C700080E00E94411164E670E080E090E00E9404
:101C8000BB0D0BE714E12EE23EE340E050E064E3DD
:101C900072E480E00E94411164E670E080E090E030
:101CA0000E94BB0D0AE919E929E13EE340E050E05A
:101CB00064E372E480E00E94411164E670E080E039
:101CC00090E00E94BB0D0BE714E12EE23EE340E002
:101CD00050E064E372E480E00E94411164E670E049
:101CE00080E090E00E94BB0D82E0E816F10459F418
:101CF0002DEC3CEC4CE45EE360E070E08AEA92E4B8
:101D00000E94011115C00E948811EC010E94E50A91
:101D1000BE01DD0F880B990B0E94F2152AE038E214
:101D200040EA5BE30E9451160E946518672B59F741
:101D30008AE892E00E94E11068EB7BE080E090E0AE
:101D40000E94BB0D8AE50E94610B64EF71E080E0A8
:101D500090E00E94BB0D20E030E040E85EEB60E0E8
:101D600070E080E291EC0E94011164E670E080E096
:101D700090E00E94BB0D0AE919E929E13EE340E049
:101D800050E064E372E482E0E816F10421F581E0BA
:101D90000E94411164E670E080E090E00E94BB0D7B
:101DA0000AE919E929E13EE340E050E064E372E426
:101DB00081E00E94411164E670E080E090E00E94C2
:101DC000BB0D0AE919E929E13EE340E050E064E394
:101DD00072E481E023C080E00E94411164E670E07B
:101DE00080E090E00E94BB0D0AE919E929E13EE399
:101DF00040E050E064E372E480E00E94411164E658
:101E000070E080E090E00E94BB0D0AE919E929E149
:101E10003EE340E050E064E372E480E00E94411160
:101E200064E670E080E090E00E94BB0D20E030E0CE
:101E300040E85EE360E070E080EA92E4DF91CF91F9
:101E40001F910F91FF90EF900C9401112F923F92F0
:101E50004F925F926F927F928F929F92AF92BF92BA
:101E6000CF92DF92EF92FF920F931F93CF93DF9366
:101E7000CDB7DEB762970FB6F894DEBF0FBECDBF09
:101E80001C012A013B010D831E832F833887FA8AA8
:101E9000E98A87EA96E00E94C90789EA96E00E94EB
:101EA000C907D10114968D919C911597892B41F00A
:101EB0006EE972E08D919C910E94B41A892B69F0B1
:101EC00027ED33EA40E75FE3C301B2010E945116F8
:101ED00069837A838B839C8304C049825A826B8294
:101EE0007C8220E030E0A9016D817E818F81988520
:101EF0000E949B1818162CF48D819E81AF81B885A5
:101F000005C08D819E81AF81B885B0588D879E8731
:101F1000AF87B88B812C912C54017501640189869F
:101F20009A86AB86BC862D853E854F855889698506
:101F30007A858B859C850E94EB1587FFF3C0D101C4
:101F400014968D919C911597892B09F451C06EE9D7
:101F500072E08D919C910E94B41A892B09F048C0BF
:101F6000E989FA89F7FD44C0EF2BA1F487EA96E0EE
:101F70000E94F4070E94F2156B017C0189EA96E049
:101F80000E94F4070E94F2154B015C01B301A2010B
:101F9000705866C089899A89019709F06EC087EAEE
:101FA00096E00E94F40790958095709561957F4F1B
:101FB0008F4F9F4F0E94F2156B017C0189EA96E0DA
:101FC0000E94F40790958095709561957F4F8F4F93
:101FD0009F4F0E94F2154B015C01B301A20183EAFD
:101FE00096E00E94AF0649815A816B817C8141C095
:101FF00020E030E0A9016D817E818F8198850E946B
:102000009B181816A4F487EA96E00E94F4079095AE
:102010008095709561957F4F8F4F9F4F0E94F2156D
:102020006B017C0189EA96E00E94F40713C087EAFD
:1020300096E00E94F4070E94F2156B017C0189EA88
:1020400096E00E94F40790958095709561957F4F7A
:102050008F4F9F4F0E94F2154B015C01B301A2010B
:1020600083EA96E00E94AF0649815A816B817C81A8
:10207000705885EA96E00E94AF06A5019401C70159
:10208000B6010E94861720E030E040E05FE30E9446
:1020900051162CEA35EC47E257E30E9451169B019A
:1020A000AC0169817A818B819C810E948717698349
:1020B0007A838B839C83A7019601C501B4010E949A
:1020C000861720E030E040E05FE30E9451162CEAE2
:1020D00035EC47E257E30E9451169B01AC01C30166
:1020E000B2010E9487172B013C01A5019401C70191
:1020F000B6010E94871720E030E048EC55E40E94CA
:10210000F31720E030E040EC51E40E94511669875B
:102110007A878B879C8768EC70E080E090E00E9473
:10212000BB0D01CF40E050E0BA0183EA96E00E9487
:10213000AF0640E050E060E070E885EA96E0629625
:102140000FB6F894DEBF0FBECDBFDF91CF911F91C8
:102150000F91FF90EF90DF90CF90BF90AF909F9046
:102160008F907F906F905F904F903F902F900C9446
:10217000AF06E7EDF4E0A089B18982E08C93A485F5
:10218000B5851C92A685B7858FEC8C93108EA4899B
:10219000B58986E08C93A289B3898C9180618C93F8
:1021A000A289B3898C9188608C93A289B3898C9120
:1021B00080688C930288F389E02D80818F7D8083F5
:1021C0000895009769F0FC0101900020E9F731972C
:1021D000AF01481B590BBC0187ED94E00C94C8017A
:1021E00080E090E00895CF93DF930E94E110EC012E
:1021F00086EA92E00E94E1108C0F9D1FDF91CF9143
:1022000008954F925F926F927F928F929F92AF92BA
:10221000BF92EF92FF920F931F93CF93DF9300D063
:1022200000D0CDB7DEB72B013C0149015A0169EA64
:1022300072E0CE0101960E940A04EE24EA94FE2C7C
:1022400093018201B501A401CE0101960E94260FDF
:1022500089819A810E94381926960FB6F894DEBFBC
:102260000FBECDBFDF91CF911F910F91FF90EF90E7
:10227000BF90AF909F908F907F906F905F904F90A6
:1022800008954F925F926F927F928F929F92AF923A
:10229000BF92EF92FF920F931F93CF93DF9300D0E3
:1022A00000D0CDB7DEB7E82E2A013B014801590125
:1022B0006EE972E0CE0101960E940A04F12C22E23E
:1022C00032E242EA5DE3C301B2010E9451168B0182
:1022D0009C01B501A401CE0101960E94260F8981BF
:1022E0009A810E94381926960FB6F894DEBF0FBE69
:1022F000CDBFDF91CF911F910F91FF90EF90BF90D5
:10230000AF909F908F907F906F905F904F900895C7
:1023100080917B00877F80937B0080E480937C00AA
:1023200080917A00806480937A0080917A0086FDA3
:10233000FCCF809178002091790090E0922B089555
:10234000789484B5826084BD84B5816084BD85B590
:10235000826085BD85B5816085BD80916E0081609C
:1023600080936E0010928100809181008260809342
:102370008100809181008160809381008091800044
:102380008160809380008091B10084608093B1006F
:102390008091B00081608093B00080919100826054
:1023A0008093910080919100816080939100809151
:1023B00090008160809390008091A1008260809362
:1023C000A1008091A10081608093A1008091A00074
:1023D00081608093A000809121018260809321011F
:1023E0008091210181608093210180912001816091
:1023F0008093200180917A00846080937A0080919C
:102400007A00826080937A0080917A008160809364
:102410007A0080917A00806880937A001092C100DF
:102420000E94B91061E080918B060E947F0D60E0F0
:1024300080918B060E94500D60E080918A060E9478
:102440007F0D81E993E09093950680939406109216
:10245000DC021092DB021092E4021092E50210926C
:10246000E30281E08093E2021092E10261E084E104
:102470000E94500D61E085E10E94500D8091B900ED
:102480008E7F8093B9008091B9008D7F8093B900D1
:1024900088E48093B80085E48093BC0085E09AE0EE
:1024A0009093DE028093DD0286E09AE09093E00252
:1024B0008093DF0280E090E1A0E0B0E08093970697
:1024C00090939806A0939906B0939A068AE090E0BC
:1024D000A0E0B0E080939B0690939C06A0939D069D
:1024E000B0939E0680E090E0A0E0B0E480939F0669
:1024F0009093A006A093A106B093A20660E070E1BD
:1025000085E00E94730B6FE979E380E00E94730B12
:10251000CAE8D6E08E0122E0722E38E8A32E32E01F
:10252000B32E4EEC842E42E0942E5BECE52E57E069
:10253000F52EF80194818281898F9A8F61E00E9443
:102540007F0D61E08A8D0E947F0DF8019085868164
:102550006E01FDE1CF0ED11C8D8F9E8F61E00E9438
:102560007F0D60E08E8D0E947F0D61E08D8D0E9459
:10257000500D6FB6F8948091D102811126C0F501FB
:102580008491F4012491E82FF0E0EE0FFF1FEB5F40
:10259000FD4FA591B4919C91822F892321F461E094
:1025A00085E30E94500D61E085E30E947F0D8CB5AC
:1025B00080618CBD8CB580648CBD61E084E30E9439
:1025C0007F0D61E083E30E947F0D8091D1028F5FD8
:1025D0008093D1026FBEC7010197F1F760E08D8D46
:1025E0000E94500D88E80E940E0383E00E940E03B3
:1025F00061E08D8D0E94500DC7010197F1F7C60172
:102600000E94C9077A940F5F1F4F2296711091CFD5
:102610000FEA16E0C3EBD6E060E0F80181918F018C
:102620000E947F0DC017D107B9F70BEA16E085EBC2
:10263000C82E86E0D82E7E01FFEFEF1AFF0A6881D0
:1026400070E0CE0108960E941903F70195818381FD
:10265000F801828B938B60E00E947F0D61E0F801AE
:1026600083890E947F0D60E0F80183890E94500DEC
:102670000E5F1F4FE701CE14DF04E9F6F8941092C5
:10268000200189E08093210180E293E09093290169
:1026900080932801109225011092240182E08093FA
:1026A0007300789480937405109278058091750575
:1026B00060E00E947F0D6091B30670E08BEB96E0C6
:1026C0000E9419038091B506883320F48091B606E4
:1026D000873328F48FE392E00E94F31006C067E38B
:1026E00070E08BEB96E00E9459080E94B91089EACD
:1026F00096E00E94C90787EA96E00E94C907809188
:10270000B1060E94270D892B09F457C00AE919E97F
:1027100029E13EE340E050E064EB72E481E00E9496
:10272000411164E670E080E090E00E94BB0D20E083
:1027300030E040E85EE360E070E080E092E40E9418
:10274000011164E670E080E090E00E94BB0D0AE9B0
:1027500019E929E13EE340E050E064EB72E480E0F7
:102760000E94411164E670E080E090E00E94BB0DA1
:1027700020E030E040E85EE360E070E080E492E476
:102780000E94011164E670E080E090E00E94BB0DC1
:102790000AE919E929E13EE340E050E064E372E42C
:1027A00081E00E94411164E670E080E090E00E94C8
:1027B000BB0D81E090E00E94F50D8091B2060E9471
:1027C000270D892B09F457C00AE919E929E13EE3ED
:1027D00040E050E064EB72E480E00E94411164E666
:1027E00070E080E090E00E94BB0D20E030E040E827
:1027F0005EE360E070E080EF91E40E94011164E626
:1028000070E080E090E00E94BB0D0AE919E929E13F
:102810003EE340E050E064EB72E481E00E9441114D
:1028200064E670E080E090E00E94BB0D20E030E0C4
:1028300040E85EE360E070E088E692E40E94011107
:1028400064E670E080E090E00E94BB0D0AE919E9BF
:1028500029E13EE340E050E064E372E480E00E945E
:10286000411164E670E080E090E00E94BB0D82E0E0
:1028700090E00E94F50D0E94E10241CF8091830615
:10288000909184060C94381910929403109293033B
:1028900088EE93E0A0E0B0E08093950390939603D8
:1028A000A0939703B093980323E132E0309392030F
:1028B000209391031092A00310929F038093A10391
:1028C0009093A203A093A303B093A40325E232E064
:1028D00030939E0320939D0345E351E05093AA0358
:1028E0004093A90344E351E05093AC034093AB03FE
:1028F00040E351E05093AE034093AD0341E351E018
:102900005093B0034093AF0342E351E05093B203BE
:102910004093B10346E351E05093B4034093B303B3
:102920001092B6031092B7031092B8031092B90335
:1029300010923D0410923C0480933E0490933F0417
:10294000A0934004B093410430933B0420933A0495
:1029500045ED50E0509347044093460444ED50E069
:10296000509349044093480440ED50E050934B0489
:1029700040934A0441ED50E050934D0440934C0481
:1029800042ED50E050934F0440934E0446ED50E02A
:1029900050935104409350041092530410925404E5
:1029A00010925504109256041092DA041092D90431
:1029B0008093DB049093DC04A093DD04B093DE04E9
:1029C0003093D8042093D70485EC90E09093E404EE
:1029D0008093E30484EC90E09093E6048093E50414
:1029E00080EC90E09093E8048093E70481EC90E021
:1029F0009093EA048093E90482EC90E09093EC04D5
:102A00008093EB0486EC90E09093EE048093ED04C9
:102A10001092F0041092F1041092F2041092F30458
:102A20008091070290910802A0910902B0910A02D8
:102A30008093AB069093AC06A093AD06B093AE0620
:102A400080910B0290910C02A0910D02B0910E02A8
:102A50008093AF069093B006A093B106B093B206F0
:102A600084E08093B30687E08093B4061092B506A5
:102A700084EB8093B60686E18093B70688E1809365
:102A8000B80687E18093B90689E18093BA06E091A0
:102A90008206EC3020F08FEF8093BB0610C081E0FF
:102AA0008E0F80938206E093BB0625E0E29FF00143
:102AB0001124EA5BF94F88EB9BE092838183E091DC
:102AC0008206EC3020F08FEF8093BC0610C081E0CE
:102AD0008E0F80938206E093BC0685E0E89FF001AC
:102AE0001124EA5BF94F88EB9BE0928381838CE0B1
:102AF00080938A0684E280938B0686E080938C061E
:102B000085E080938D068FE180938E068EE1809321
:102B10008F0683E28093900682E28093910685E49B
:102B20008093920684E48093930680E480939606D3
:102B300010929B0610929C0610929D0610929E0683
:102B400010929F061092A0061092A1061092A20663
:102B5000E5ECF6E08FEF9FEFDC0112821382148226
:102B60001582168217821086118683879487A5871F
:102B7000B6878787908BA18BB28B128611821082C9
:102B8000739627E0E338F20741F78DE090E00E946A
:102B9000A018FC011382128287E392E09183808364
:102BA000118687E2848384E1828784E083871486A8
:102BB000F093C206E093C1061092C3061092C406B9
:102BC00085E2809375051092770568EA72E083E8E4
:102BD00096E00C940A040E942D1608F481E00895F2
:102BE000E89409C097FB3EF49095809570956195A7
:102BF0007F4F8F4F9F4F9923A9F0F92F96E9BB275D
:102C00009395F695879577956795B795F111F8CFD8
:102C1000FAF4BB0F11F460FF1BC06F5F7F4F8F4F43
:102C20009F4F16C0882311F096E911C0772321F039
:102C30009EE8872F762F05C0662371F096E8862FD1
:102C400070E060E02AF09A95660F771F881FDAF728
:102C5000880F9695879597F90895990F0008550F55
:102C6000AA0BE0E8FEEF16161706E807F907C0F012
:102C700012161306E407F50798F0621B730B840B1A
:102C8000950B39F40A2661F0232B242B252B21F4F4
:102C900008950A2609F4A140A6958FEF811D811D94
:102CA00008950E9464160C94D5160E94C71638F039
:102CB0000E94CE1620F0952311F00C94BE160C94B1
:102CC000C41611240C9409170E94E61670F3959F00
:102CD000C1F3950F50E0551F629FF001729FBB2713
:102CE000F00DB11D639FAA27F00DB11DAA1F649FAF
:102CF0006627B00DA11D661F829F2227B00DA11D62
:102D0000621F739FB00DA11D621F839FA00D611DE7
:102D1000221F749F3327A00D611D231F849F600D08
:102D2000211D822F762F6A2F11249F5750409AF031
:102D3000F1F088234AF0EE0FFF1FBB1F661F771FBD
:102D4000881F91505040A9F79E3F510580F00C9488
:102D5000BE160C9409175F3FE4F3983ED4F38695B2
:102D600077956795B795F795E7959F5FC1F7FE2B28
:102D7000880F911D9695879597F9089597F99F6704
:102D800080E870E060E008959FEF80EC08950024F3
:102D90000A941616170618060906089500240A94C0
:102DA00012161306140605060895092E0394000C46
:102DB00011F4882352F0BB0F40F4BF2B11F460FFD5
:102DC00004C06F5F7F4F8F4F9F4F089557FD9058FE
:102DD000440F551F59F05F3F71F04795880F97FBDF
:102DE000991F61F09F3F79F0879508951216130699
:102DF0001406551FF2CF4695F1DF08C016161706C8
:102E00001806991FF1CF86957105610508940895FC
:102E1000E894BB2766277727CB0197F90895052EFD
:102E200097FB1EF400940E94261757FD07D00E94BE
:102E3000411707FC03D04EF40C942617509540958B
:102E4000309521953F4F4F4F5F4F08959095809556
:102E5000709561957F4F8F4F9F4F08950E94631724
:102E6000A59F900DB49F900DA49F800D911D1124DE
:102E70000895B7FF0C942E170E942E17821B930BF8
:102E80000895A1E21A2EAA1BBB1BFD010DC0AA1FAB
:102E9000BB1FEE1FFF1FA217B307E407F50720F0C3
:102EA000A21BB30BE40BF50B661F771F881F991F3E
:102EB0001A9469F760957095809590959B01AC0187
:102EC000BD01CF010895A29FB001B39FC001A39F90
:102ED000700D811D1124911DB29F700D811D112453
:102EE000911D0895991B79E004C0991F961708F069
:102EF000961B881F7A95C9F780950895EE0FFF1FDE
:102F0000881F8BBF0790F691E02D19945058BB276E
:102F1000AA270E949E170C94D5160E94C71638F057
:102F20000E94CE1620F039F49F3F19F426F40C9439
:102F3000C4160EF4E095E7FB0C94BE16E92F0E9430
:102F4000E61658F3BA17620773078407950720F04F
:102F500079F4A6F50C9408170EF4E0950B2EBA2F11
:102F6000A02D0B01B90190010C01CA01A00111248F
:102F7000FF27591B99F0593F50F4503E68F11A163B
:102F8000F040A22F232F342F4427585FF3CF4695CC
:102F900037952795A795F0405395C9F77EF41F16EE
:102FA000BA0B620B730B840BBAF09150A1F0FF0FB8
:102FB000BB1F661F771F881FC2F70EC0BA0F621FA4
:102FC000731F841F48F4879577956795B795F79594
:102FD0009E3F08F0B0CF9395880F08F09927EE0F29
:102FE0009795879508950E9407180C94D5160E940E
:102FF000CE1658F00E94C71640F029F45F3F29F022
:103000000C94BE1651110C9409170C94C4160E940E
:10301000E61668F39923B1F3552391F3951B550BED
:10302000BB27AA2762177307840738F09F5F5F4F9B
:10303000220F331F441FAA1FA9F335D00E2E3AF0DA
:10304000E0E832D091505040E695001CCAF72BD0F2
:10305000FE2F29D0660F771F881FBB1F2617370743
:103060004807AB07B0E809F0BB0B802DBF01FF2775
:1030700093585F4F3AF09E3F510578F00C94BE167E
:103080000C9409175F3FE4F3983ED4F38695779547
:103090006795B795F7959F5FC9F7880F911D96952E
:1030A000879597F90895E1E0660F771F881FBB1F8A
:1030B000621773078407BA0720F0621B730B840B37
:1030C000BA0BEE1F88F7E09508950E946C1868947B
:1030D000B1110C94091708950E94EE1688F09F57BD
:1030E00098F0B92F9927B751B0F0E1F0660F771F2C
:1030F000881F991F1AF0BA95C9F714C0B13091F022
:103100000E940817B1E008950C940817672F782FD4
:103110008827B85F39F0B93FCCF3869577956795E6
:10312000B395D9F73EF490958095709561957F4F52
:103130008F4F9F4F08950E942D1608F48FEF08952A
:103140000F931F93CF93DF938230910510F482E0A9
:1031500090E0E0918507F091860720E030E0A0E064
:10316000B0E0309719F140815181028113814817F5
:103170005907C8F08417950769F4109731F0129633
:103180000C93129713961C9327C0009385071093F6
:10319000860722C02115310519F04217530718F48C
:1031A0009A01BD01EF01DF01F801DBCF21153105E7
:1031B000F9F0281B390B2430310580F48A819B817A
:1031C0006115710521F0FB019383828304C0909304
:1031D000860780938507FE01329644C0FE01E20F08
:1031E000F31F8193919322503109398328833AC088
:1031F0002091830730918407232B41F4209103020F
:1032000030910402309384072093830720910102B8
:10321000309102022115310541F42DB73EB740919E
:10322000050250910602241B350BE0918307F091B3
:103230008407E217F307A0F42E1B3F0B281739076A
:1032400078F0AC014E5F5F4F2417350748F04E0F02
:103250005F1F50938407409383078193919302C02B
:10326000E0E0F0E0CF01DF91CF911F910F91089541
:10327000CF93DF93009709F481C0FC01329713824A
:103280001282A0918507B0918607109781F4208162
:103290003181820F931F2091830730918407281773
:1032A000390751F5F0938407E093830767C0ED0178
:1032B00020E030E0CE17DF0740F44A815B819E01B9
:1032C00041155105F1F0EA01F5CFD383C283408166
:1032D0005181840F951FC817D90759F488819981A6
:1032E000840F951F0296918380838A819B819383AB
:1032F00082832115310529F4F0938607E093850731
:103300003DC0E901FB83EA8349915991C40FD51F60
:10331000EC17FD0761F480819181840F951F02965F
:10332000E90199838883828193819B838A83E0E08A
:10333000F0E012968D919C911397009719F0FD0182
:10334000DC01F7CF8D919C9111979D012E5F3F4F2E
:10335000820F931F20918307309184072817390724
:1033600069F4309729F4109286071092850702C0FD
:1033700013821282B0938407A0938307DF91CF91C9
:1033800008956F927F928F929F92AF92BF92CF9249
:10339000DF92EF92FF920F931F93CF93DF930097EB
:1033A00089F4CB01DF91CF911F910F91FF90EF90A6
:1033B000DF90CF90BF90AF909F908F907F906F9055
:1033C0000C94A018FC01E60FF71F9C012250310954
:1033D000E217F30708F4A9C0EC01D9010D911C9183
:1033E000119706171707B0F00530110508F49BC0B8
:1033F000C80104978617970708F495C00250110971
:10340000061B170B019311936D937C93CF010E94C0
:10341000381989C05B01A01AB10A4C01800E911EB7
:10342000A0918507B0918607612C712CE12CF12CBD
:10343000109709F446C08D919C911197A815B90574
:10344000B1F56C0142E0C40ED11CCA14DB0478F162
:103450004C018A189B08640142E0C40ED11C1296EC
:10346000BC9012971396AC91B5E0CB16D10440F006
:10347000B282A38391828082D9016D937C9309C02B
:103480000E5F1F4F800F911FF90191838083EB2DF9
:10349000FA2FE114F10431F0D7011396FC93EE9367
:1034A000129741C0F0938607E09385073CC06816E9
:1034B000790608F43C017D0112960D90BC91A02D77
:1034C000B7CF809183079091840788169906E1F41D
:1034D00066167706C8F48091010290910202009767
:1034E00041F48DB79EB74091050250910602841BAE
:1034F000950BE817F907C8F4F0938407E093830766
:10350000F901718360830FC0CB010E94A0187C0178
:10351000009759F0A801BE010E94AB1ACE010E948B
:103520003819C70104C0CE0102C080E090E0DF91ED
:10353000CF911F910F91FF90EF90DF90CF90BF90B0
:10354000AF909F908F907F906F90089581E090E072
:10355000F8940C94C41AFB01DC0102C001900D9296
:1035600041505040D8F70895FB01DC018D91019046
:1035700080190110D9F3990B0895FB01DC0101902A
:103580000D920020E1F7089511E0C4E9D1E000E0D8
:1035900006C0802FFE010E947E172196011DC539AD
:0C35A000D10780E00807A9F7F894FFCFDE
:1035AC00FF000087072000363738391B1D1A1C0016
:1035BC00000000600A330A1603070A2B0A170A08D0
:1035CC000A000000006F02C801F201BC02230201D4
:1035DC00021502000000007603C801160315035300
:1035EC006572766F20616E676C65206973206F75EC
:1035FC0074206F662072616E67652100544F5554BC
:10360C0020424C414E430044524F49544500544FC4
:10361C0055542044524F49540047415543484500A6
:10362C00544F5554204E4F495200536F7274697366
:10363C00206465206C6120626F75636C6500746F2B
:10364C0075726E6572000D0A006176616E6365724B
:02365C0000006C
:00000001FF
