:100000000C9495010C94C6010C94C6010C94C60185
:100010000C94C6010C94C6010C94C6010C94C60144
:100020000C94C6010C941B0A0C941B0A0C941B0A1A
:100030000C94C6010C94AF030C94C6010C94C60139
:100040000C94C6010C946B070C94C6010C94C60169
:100050000C94C6010C94C6010C94C6010C94650363
:100060000C94C6010C941E050C94F4040C94C60167
:100070000C94C6010C94C6010C94C6010C94C601E4
:100080000C94C6010C94C6010C94C6010C94C601D4
:100090000C94C6010C94C6010C94C6010C94250A5C
:1000A0000C94C6010C94C6010C94C6010C94C601B4
:1000B0000C94C6010C94C6010C94C6010C9448051E
:1000C0000C94C6010C94C6010C94C6010C94CA048D
:1000D0000C94A0040C94C6010C9476040C944C046B
:1000E0000C94C60188068D0692069C06A6061F077C
:1000F000B006B806C006CA06D406DE06ED06F70648
:100100001F0701070B071507720B750B640B680BB4
:100110006E0BAC0B790B7D0B830B870B8B0B910B51
:10012000950B990BAC0B9F0BA30BA70B0C94720BAD
:100130000C94DE060C940B070C949C060C94910B0B
:100140000C94830B0C94790B0C946F020C94230287
:100150000C9419090C94C0060C9447090C9474096A
:100160000C941F070C94C8010C94ED060C94B8066F
:100170000C94990B0C94B0060C94680B0C941B0314
:100180000C9415030C9492060C94BC020C94A606D5
:100190000C9401070C949C0E0C94CA060C94150741
:1001A0000C9415020C94640B0C94F7060C94D40672
:1001B0000C947D0B0C942B090C9401020C94AC0B49
:1001C0000C948B0B0C941B090C94950B0C94A20EA5
:1001D0000C943F090C94A70B0C9416030C941C0967
:1001E0000C946E0B0C949F0B0C94750B0C94F201F9
:1001F0000C94870B0C948D060C941A090C948806A9
:100200000C94A30B000020002300260029002C00E2
:100210002F00320000010000030106010901020065
:10022000002100240027002A002D003000330001A7
:10023000010000040107010A010000220025002836
:10024000002B002E003100340002010000050108DF
:10025000010B01050505050705080808080202024B
:10026000020A0A0808040404040101010101010151
:10027000010303030303030303040707070C0C0C28
:100280000C0C0C0C0C020202020606060606060600
:10029000060B0B0B0B0B0B0B0B010210202008089D
:1002A00010204010204080020102010804020101D8
:1002B00002040810204080804020100804020180C1
:1002C0000402018040201008040201080402010118
:1002D0000204081020408001020408102040800021
:1002E000000A0B02090C0D0E0807030401000000B0
:1002F00000000000000000000000000000000000FE
:1003000000000000000000000000001211100000BA
:1003100000000000000000000000000000000000DD
:10032000000000000000A20E9C0E11241FBECFEFA3
:10033000D1E2DEBFCDBF00E00CBF12E0A0E0B2E032
:10034000EAE4F8E200E00BBF02C007900D92A0348F
:10035000B107D9F727E0A0E4B2E001C01D92A531B2
:10036000B207E1F711E0C4E9D1E000E006C021974F
:100370000109802FFE010E94B511C339D10780E029
:100380000807A9F70E94520C0C9413140C94000057
:10039000CF92DF92EF92FF920F931F93CF93DF9351
:1003A0006C017A018B01C0E0D0E0CE15DF0581F051
:1003B000D8016D918D01D601ED91FC910190F081F4
:1003C000E02DC6011995892B11F02196EECF7E0103
:1003D000C701DF91CF911F910F91FF90EF90DF90B8
:1003E000CF900895FC01538D448D252F30E0842F4C
:1003F00090E0821B930B541710F0CF96089501974D
:100400000895FC01918D828D981761F0828DDF0136
:10041000A80FB11D5D968C91928D9F5F9F73928FF7
:1004200090E008958FEF9FEF0895FC01918D828DEC
:10043000981731F0828DE80FF11D858D90E00895B9
:100440008FEF9FEF0895FC01918D228D892F90E011
:10045000805C9F4F821B91098F739927089580ECD0
:1004600092E00E94230221E0892B09F420E0822FF0
:1004700008958DE593E00E94230221E0892B09F481
:1004800020E0822F08958AEF93E00E94230221E06A
:10049000892B09F420E0822F0895FC01848DDF016F
:1004A000A80FB11DA35ABF4F2C91848D90E00196E7
:1004B0008F739927848FA689B7892C93A089B189D6
:1004C0008C91837080648C93938D848D981306C077
:1004D0000288F389E02D80818F7D80830895EF92DB
:1004E000FF920F931F93CF93DF93EC0181E0888FEE
:1004F0009B8D8C8D981305C0E889F989808185FDD5
:1005000026C0F62E0B8D10E00F5F1F4F0F731127C3
:10051000E02E8C8DE8120CC00FB607FCFACFE889EC
:10052000F989808185FFF5CFCE010E944D02F1CF80
:100530008B8DFE01E80FF11DE35AFF4FF0829FB74C
:10054000F8940B8FEA89FB89808180620AC09FB78B
:10055000F894EE89FF896083E889F9898081837046
:10056000806480839FBF81E090E0DF91CF911F91F5
:100570000F91FF90EF900895CF93DF93EC01888D5A
:100580008823C9F0EA89FB89808185FD05C0A88997
:10059000B9898C9186FD0FC00FB607FCF5CF80811D
:1005A00085FFF2CFA889B9898C9185FFEDCFCE0167
:1005B0000E944D02E7CFDF91CF910895E0E0F0E097
:1005C000199480E090E0892B21F00E944302811170
:1005D00019C080E090E0892B41F080E090E0892B09
:1005E00021F00E940000811110C00E943902811187
:1005F0000FC080E090E0892B81F00E942F028111D2
:100600000AC008950E940000E4CF0E940000EDCFD0
:100610000E94DE02EECF0C94000008958EBD000013
:100620000DB407FEFDCF8EB50895089580E090E0EB
:1006300008950E94FE130F931F93CF93DF938C01B5
:10064000C62FD62FD07FD1606D2F0E94DA096D2F73
:10065000C8010E94ED0980E1C89FB0011124C62F96
:10066000C1606C2FC8010E94DA096C2FC8010E947A
:10067000ED0981E090E0DF91CF911F910F910895F6
:100680003FB7F8948091650290916602A09167024D
:10069000B091680226B5A89B05C02F3F19F00196BE
:1006A000A11DB11D3FBFBA2FA92F982F8827820FF8
:1006B000911DA11DB11DBC01CD0142E0660F771F48
:1006C000881F991F4A95D1F708951F920F920FB670
:1006D0000F9211242F933F938F939F93AF93BF93C8
:1006E0008091610290916202A0916302B0916402D4
:1006F0003091600223E0230F2D3720F40196A11DD5
:10070000B11D05C026E8230F0296A11DB11D20933F
:1007100060028093610290936202A0936302B0939F
:1007200064028091650290916602A0916702B09187
:1007300068020196A11DB11D809365029093660227
:10074000A0936702B0936802BF91AF919F918F9180
:100750003F912F910F900FBE0F901F9018951F92F1
:100760000F920FB60F9211240BB60F922F933F9357
:100770004F935F936F937F938F939F93AF93BF93A9
:10078000EF93FF9380915B0290915C02A0915D02D8
:10079000B0915E02892B8A2B8B2B49F190915A02E2
:1007A0008091000089278093000080915B029091E6
:1007B0005C02A0915D02B0915E02181619061A063D
:1007C0001B060CF056C080915B0290915C02A091D8
:1007D0005D02B0915E020197A109B10980935B02AD
:1007E00090935C02A0935D02B0935E0242C0809140
:1007F0000002EEE1F2E0E4919FEF90930002E2301C
:10080000C9F050F4EE2399F0E13081F590916F003A
:100810009D7F90936F002AC0E43019F1E0F0E5303D
:1008200029F5909173009D7F909373001FC01092E3
:100830006E001CC0909170009D7F9093700091E0BD
:100840009093B0009091B100987F94609093B10024
:100850001092B3000BC0909171009D7F9093710036
:1008600005C0909172009D7F9093720060E00E949D
:10087000AD0BFF91EF91BF91AF919F918F917F91C0
:100880006F915F914F913F912F910F900BBE0F9001
:100890000FBE0F901F9018951F920F920FB60F92D8
:1008A00011240BB60F922F933F934F935F936F9347
:1008B0007F938F939F93AF93BF93EF93FF9380ECBE
:1008C00092E00E944D02FF91EF91BF91AF919F91F5
:1008D0008F917F916F915F914F913F912F910F90E9
:1008E0000BBE0F900FBE0F901F9018951F920F9286
:1008F0000FB60F9211240BB60F922F933F934F9385
:100900005F936F937F938F939F93AF93BF93EF9377
:10091000FF9380EC92E00E94020AFF91EF91BF9159
:10092000AF919F918F917F916F915F914F913F9187
:100930002F910F900BBE0F900FBE0F901F90189528
:100940001F920F920FB60F9211240BB60F922F9396
:100950003F934F935F936F937F938F939F93AF9347
:10096000BF93EF93FF938DE593E00E944D02FF91BB
:10097000EF91BF91AF919F918F917F916F915F9117
:100980004F913F912F910F900BBE0F900FBE0F9084
:100990001F9018951F920F920FB60F9211240BB64D
:1009A0000F922F933F934F935F936F937F938F9308
:1009B0009F93AF93BF93EF93FF938DE593E00E94D6
:1009C000020AFF91EF91BF91AF919F918F917F911B
:1009D0006F915F914F913F912F910F900BBE0F90B0
:1009E0000FBE0F901F9018951F920F920FB60F9287
:1009F00011240BB60F922F933F934F935F936F93F6
:100A00007F938F939F93AF93BF93EF93FF938AEF5F
:100A100093E00E944D02FF91EF91BF91AF919F91A2
:100A20008F917F916F915F914F913F912F910F9097
:100A30000BBE0F900FBE0F901F9018951F920F9234
:100A40000FB60F9211240BB60F922F933F934F9333
:100A50005F936F937F938F939F93AF93BF93EF9326
:100A6000FF938AEF93E00E94020AFF91EF91BF91FA
:100A7000AF919F918F917F916F915F914F913F9136
:100A80002F910F900BBE0F900FBE0F901F901895D7
:100A90001F920F920FB60F9211240BB60F922F9345
:100AA0003F934F935F936F937F938F939F93AF93F6
:100AB000BF93CF93DF93EF93FF932091980430E09F
:100AC000F901E152FD4F8491F901E756FD4FD491B0
:100AD000F901ED5AFD4FC491CC2379F081110E94A8
:100AE000570BEC2FF0E0EE0FFF1FEC5FFD4FA591D1
:100AF000B491EC91ED2381E009F480E020919C0415
:100B000030919D042F5F3F4F30939D0420939C04B0
:100B100090919B04953618F096E0909397049091ED
:100B200097049430C9F128F4923069F09330D1F0F1
:100B30005EC0953009F451C0963009F058C091E07C
:100B40009093680551C0811152C020919C0430914E
:100B50009D042436310508F442C0109268051092B5
:100B60009B041CC0813009F042C0E0919B0491E0DD
:100B70009E0F90939B04F0E020919C0430919D0483
:100B8000EE0FFF1FE956FB4F3087278310929D041D
:100B900010929C0494E029C0811117C0E0919B043D
:100BA00091E09E0F90939B04F0E020919C04309183
:100BB0009D04EE0FFF1FE956FB4F308727831092ED
:100BC0009D0410929C0493E010C020919C043091ED
:100BD0009D042536310558F007C0811108C01092D8
:100BE0009D0410929C0403C095E09093970490910B
:100BF0009A049923B9F081110AC08091990488233D
:100C000021F08091990461E009C02F9A0BC0809176
:100C10009904882331F08091990460E00E94AD0B23
:100C200001C02F98FF91EF91DF91CF91BF91AF91CC
:100C30009F918F917F916F915F914F913F912F91F4
:100C40000F900BBE0F900FBE0F901F9018958F92B4
:100C50009F92AF92BF92CF92DF92EF92FF920F934B
:100C60001F93CF93DF938C016A017B0120E030E07A
:100C70004FE753E4C701B6010E94EB104B015C0142
:100C800020E030E0A9010E94F31118161CF4C50100
:100C9000B40103C0C501B40190580E94BD11EB011D
:100CA00020E030E0A901C701B6010E94F311181637
:100CB00014F460E001C061E0F80181810E94AD0B95
:100CC000CF3FD10509F014F4DD2702C0CFEFD0E00B
:100CD000F801108161E0812F0E94DC0B209709F45C
:100CE000B1C0CF3FD10509F4AFC0E12FF0E0E15230
:100CF000FD4FE4918E2F90E0FC013197E231F10538
:100D000008F09DC08827EE58FF4F8F4F0C94B51107
:100D100084B5806884BDC7BDA7C084B5806284BD2A
:100D2000C8BDA2C080918000806880938000D0936D
:100D30008900C093880098C0809180008062809371
:100D40008000D0938B00C0938A008EC08091800079
:100D5000886080938000D0938D00C0938C0084C005
:100D60008091B00080688093B000C093B3007CC0D5
:100D70008091B00080628093B000C093B40074C0D2
:100D800080919000806880939000D0939900C093E8
:100D900098006AC080919000806280939000D09308
:100DA0009B00C0939A0060C08091900088608093FF
:100DB0009000D0939D00C0939C0056C08091A000ED
:100DC00080688093A0008091A0008F7B8093A0001A
:100DD000D093A900C093A80047C08091A000806272
:100DE0008093A000D093AB00C093AA003DC0809137
:100DF000A00088608093A000D093AD00C093AC00A9
:100E000033C080912001806880932001D093290114
:100E1000C093280129C08091200180628093200125
:100E2000D0932B01C0932A011FC0809120018860BC
:100E300080932001D0932D01C0932C0115C0C038A0
:100E4000D10514F460E001C061E0812FDF91CF9102
:100E50001F910F91FF90EF90DF90CF90BF90AF90D8
:100E60009F908F900C94AD0BDF91CF911F910F91BC
:100E7000FF90EF90DF90CF90BF90AF909F908F90BA
:100E80000895CF93DF93EC0140E050E060E87EE30B
:100E900086EC95E00E94270640E050E060E87EEB9B
:100EA00088EC95E00E942706BE01DD0F880B990BA8
:100EB0000E94180C40E050E0BA0186EC95E00E94D8
:100EC000270640E050E060E070E888EC95E0DF91B4
:100ED000CF910C9427061F920F920FB60F921124F8
:100EE0000BB60F922F933F934F935F936F937F9324
:100EF0008F939F93AF93BF93EF93FF93809159028A
:100F000087FF05C0109285001092840016C02091C2
:100F10005902022E000C330B8091A50590E0281792
:100F200039075CF43091590225E03203F0011124B5
:100F3000E759FA4F808186FD15C0809159028F5F75
:100F40008093590220915902022E000C330B80919C
:100F5000A50590E02817390794F4809159028C3048
:100F60002CF10DC0309159023203F0011124E759E0
:100F7000FA4F808160E08F730E94AD0BDECF8091CD
:100F800084009091850084349C4918F480E49CE9A5
:100F900005C080918400909185000496909389000B
:100FA000809388008FEF809359022AC0409184007B
:100FB000509185003091590225E03203F00111244F
:100FC000E759FA4F81819281840F951F9093890090
:100FD00080938800309159023203F0011124E759BF
:100FE000FA4F808186FF0CC0309159023203F00124
:100FF0001124E759FA4F808161E08F730E94AD0B95
:10100000FF91EF91BF91AF919F918F917F916F91E0
:101010005F914F913F912F910F900BBE0F900FBE9C
:101020000F901F901895EAEFF3E0A089B18982E054
:101030008C93A485B5851C92A685B7858FEC8C937F
:10104000108EA489B58986E08C93A289B3898C918E
:1010500080618C93A289B3898C9188608C93A289DA
:10106000B3898C9180688C930288F389E02D80810C
:101070008F7D80830895CF92DF92EF92FF926B0174
:10108000770FEE08FF08882379F040E050E060E831
:101090007EEB86EC95E00E94270640E050E060E899
:1010A0007EEB88EC95E00EC040E050E060E87EE327
:1010B00088EC95E00E94270640E050E060E87EE37F
:1010C00086EC95E00E942706C701B6010E948C10AD
:1010D00024E63BE347E050E40E94EB1020E030E0E0
:1010E00040E850E40E94EB100E94C4110E94180CCA
:1010F00040E050E0BA0186EC95E00E94270640E00F
:1011000050E060E070E888EC95E0FF90EF90DF90B1
:10111000CF900C9427063091B302313208F04BC0C7
:1011200080918F028111FCCF9091B20222E0209336
:101130008F0221E020938E022FEF20938D021092D8
:101140008C0230938B02E2E9F2E0ABE6B2E020E001
:10115000321721F041914D932F5FFACF10926A021E
:1011600020916A02990F922B90936A0290916902E2
:10117000913061F41092690290916A029093BB00E1
:101180009091BC0093FDF8CF95EC01C095EE909343
:10119000BC0090918F029230E1F390918D029F3FBD
:1011A00079F080918D02803241F080918D02803300
:1011B00031F084E005C081E003C082E001C083E03B
:1011C000109291021092B30210929002089585ED50
:1011D0008093BC008091BC0084FDFCCF10928F02F4
:1011E00008954091EC06262F30E0240F311D213266
:1011F0003105DCF420918F022430C9F4FC0180E039
:1012000090E0861758F43091EC062191DC01A4534C
:10121000B94FA30FB11D2C930196F3CF8091EC062B
:10122000680F6093EC0680E0089581E0089582E005
:101230000895089508950895E091A7068091A6065F
:10124000E81730F4F0E0E455F94F808190E008951C
:101250008FEF9FEF08959091A7068091A6069817AB
:1012600050F4E92FF0E0E455F94F208130E09F5F22
:101270009093A70602C02FEF3FEFC9010895809118
:10128000A60690E02091A706821B91090895CF92AF
:10129000DF92EF92FF920F931F93CF93DF937C0126
:1012A000CB018A0120919002222389F0EB016B018E
:1012B000C40ED51ECC15DD0569F06991D701ED91FD
:1012C000FC910190F081E02DC7011995F3CF642FB7
:1012D0000E94F108C801DF91CF911F910F91FF90FB
:1012E000EF90DF90CF900895CF93DF931F92CDB70B
:1012F000DEB76983209190022223D1F02091B302BE
:10130000203240F021E030E0FC013383228380E092
:1013100090E015C080919102E82FF0E0EE56FD4F6D
:10132000998190838F5F809391028093B30205C06F
:1013300061E0CE0101960E94F10881E090E00F90FB
:10134000DF91CF9108950F931F93CF93DF93162FC3
:10135000072FCDEAD5E09C8521E020939002909361
:10136000B202109291021092B302AA85BB85ED9150
:10137000FC9111970190F081E02D682FCD01199516
:101380008A859B85DC01ED91FC910190F081E02D37
:10139000602F19958A859B85DC01ED91FC91019068
:1013A000F081E02D612F1995DF91CF911F910F9161
:1013B0000C948B08FC01248131E03093900220933F
:1013C000B202109291021092B3028485682B84EBD2
:1013D00092E00E9474090C948B080F931F93CF9393
:1013E0008C01C62F64600E94DA096C2F6B7FC801E4
:1013F0000E94DA0983EC90E00197F1F7CF911F91F9
:101400000F910895FC01A089B1898C91A689B789B3
:1014100082FD0FC09C91818D8F5F8F73228D82170B
:1014200049F0218DDF01A20FB11D5D969C93818F44
:1014300008958C9108951F920F920FB60F92112468
:101440000F900FBE0F901F9018951F920F920FB61E
:101450000F9211240BB60F922F933F934F935F93EC
:101460006F937F938F939F93AF93BF93EF93FF936C
:101470008091B900887F803609F49CC068F5883275
:1014800009F45BC090F4803109F454C038F4882327
:1014900009F4F6C0883009F44DC0F6C0883109F46B
:1014A0004CC0803209F45DC0EFC0803409F468C0DC
:1014B00048F4803309F455C0883309F0E5C08093BF
:1014C0008D02D8C0803509F44FC0883509F45DC05D
:1014D000883409F0D9C0D6C0883909F4C7C0A8F447
:1014E000883709F467C038F4883609F463C0803758
:1014F00009F460C0C9C0883809F4B8C0803909F45B
:101500005FC0803809F0C0C05BC0803B09F486C072
:1015100038F4803A09F466C0883A09F47FC0B4C050
:10152000803C09F4A7C0883C09F4A4C0883B09F4B6
:101530008AC0AAC080916A0210C090918C028091EA
:101540008B02981770F5E0918C0281E08E0F8093EA
:101550008C02F0E0E559FD4F80818093BB0085EC63
:1015600086C080938D028EC0E0918C0281E08E0F48
:1015700080938C028091BB00F0E0E559FD4F8083A1
:1015800090918C0280918B026EC0E0918C0281E080
:101590008E0F80938C028091BB00F0E0E559FD4FE7
:1015A000808380918E0281116DC081E080936902F9
:1015B00084EA61C083E080938F0210920E07CFCF40
:1015C00080910E07803208F051C0E0910E0781E053
:1015D0008E0F80930E078091BB00F0E0E251F94F2F
:1015E0008083BDCF85EC8093BC0010928F028091E8
:1015F0000E07803230F4E0910E07F0E0E251F94F2F
:10160000108260910E0770E0E091AA06F091AB069F
:101610008EEE96E0199510920E0736C084E0809306
:101620008F021092ED061092EC06E091A806F09160
:10163000A90619958091EC06811105C081E080937F
:10164000EC061092CC06E091ED0681E08E0F8093BF
:10165000ED06F0E0E453F94F80818093BB00909158
:10166000ED068091EC06981708F479CF85E8809311
:10167000BC000AC085EC8093BC0010928F0204C0AD
:1016800010928D020E94E708FF91EF91BF91AF91F8
:101690009F918F917F916F915F914F913F912F918A
:1016A0000F900BBE0F900FBE0F901F90189590E0FB
:1016B000FC013197E231F10508F04EC08827EC5764
:1016C000FF4F8F4F0C94B511809180008F7703C02E
:1016D000809180008F7D80938000089580918000AC
:1016E000877FF9CF84B58F7702C084B58F7D84BDA5
:1016F00008958091B0008F7703C08091B0008F7DF6
:101700008093B0000895809190008F7707C08091FA
:1017100090008F7D03C080919000877F8093900020
:1017200008958091A0008F7707C08091A0008F7DE1
:1017300003C08091A000877F8093A00008958091CE
:1017400020018F7707C0809120018F7D03C0809199
:101750002001877F8093200108951F93CF93DF930B
:10176000282F30E0F901E152FD4F8491F901E7564D
:10177000FD4FD491F901ED5AFD4FC491CC23C1F036
:10178000162F81110E94570BEC2FF0E0EE0FFF1F78
:10179000E75CFD4FA591B4919FB7F894111104C077
:1017A0008C91D095D82302C0EC91DE2BDC939FBFA7
:1017B000DF91CF911F910895CF93DF9390E0FC01CB
:1017C000E756FD4F2491FC01ED5AFD4F849188238B
:1017D00061F190E0880F991FFC01E15EFD4FC5911A
:1017E000D491FC01E75CFD4FA591B491611109C052
:1017F0009FB7F8948881209582238883EC912E23CB
:101800000BC0623061F49FB7F8948881322F309515
:1018100083238883EC912E2B2C939FBF06C08FB718
:10182000F894E8812E2B28838FBFDF91CF91089504
:101830008F929F92AF92BF92CF92DF92EF92FF92E0
:101840006B017C010E9440034B015C01C114D10477
:10185000E104F104F1F00E944003DC01CB0188199E
:101860009909AA09BB09883E9340A105B10570F307
:1018700021E0C21AD108E108F10888EE880E83E061
:10188000981EA11CB11CC114D104E104F10419F784
:10189000DDCFFF90EF90DF90CF90BF90AF909F9003
:1018A0008F900895789484B5826084BD84B58160FA
:1018B00084BD85B5826085BD85B5816085BD80911B
:1018C0006E00816080936E00109281008091810093
:1018D000826080938100809181008160809381008B
:1018E000809180008160809380008091B10084604D
:1018F0008093B1008091B00081608093B0008091AE
:10190000910082608093910080919100816080932A
:101910009100809190008160809390008091A1005F
:1019200082608093A1008091A10081608093A100DA
:101930008091A00081608093A0008091210182604D
:101940008093210180912101816080932101809108
:10195000200181608093200180917A0084608093CF
:101960007A0080917A00826080937A0080917A0078
:10197000816080937A0080917A00806880937A00F9
:101980001092C1000E94130861E08091AE050E9490
:10199000DC0B60E08091AE050E94AD0B60E08091B1
:1019A000AD050E94DC0B84EB92E09093B805809328
:1019B000B7051092A7061092A606109291021092F7
:1019C000B30210928F0281E080938E02109269021E
:1019D00061E084E10E94AD0B61E085E10E94AD0B06
:1019E0008091B9008E7F8093B9008091B9008D7F7E
:1019F0008093B90088E48093B80085E48093BC00AC
:101A000089E199E09093A9068093A8068AE199E07C
:101A10009093AB068093AA0680E090E1A0E0B0E04E
:101A20008093BA059093BB05A093BC05B093BD0508
:101A30008AE090E0A0E0B0E08093BE059093BF05FF
:101A4000A093C005B093C10580E090E0A0E0B0E4B1
:101A50008093C2059093C305A093C405B093C505B8
:101A600060E070E185E00E94A3096FE979E380E01E
:101A70000E94A309CDEAD5E08E0142E0742E58E819
:101A8000A52E52E0B52E6EEC862E62E0962E7BECF3
:101A9000E72E77E0F72EEBE8CE2EDD24D394F80185
:101AA00094818281898F9A8F61E00E94DC0B61E0D2
:101AB0008A8D0E94DC0BF801908586818D8F9E8F28
:101AC00061E00E94DC0B60E08E8D0E94DC0B61E027
:101AD0008D8D0E94AD0B6FB6F89480915F028111DD
:101AE00026C0F5018491F4012491E82FF0E0EE0F77
:101AF000FF1FE15EFD4FA591B4919C91822F892338
:101B000021F461E085E30E94AD0B61E085E30E9472
:101B1000DC0B8CB580618CBD8CB580648CBD61E0C4
:101B200084E30E94DC0B61E083E30E94DC0B809184
:101B30005F028F5F80935F026FBEC7010197F1F76D
:101B400060E08D8D0E94AD0B88E80E940E0383E05B
:101B50000E940E0361E08D8D0E94AD0BC7010197BD
:101B6000F1F760E08D8D0E94AD0B88E90E940E03B5
:101B700080E00E940E0380E00E940E0380E00E943D
:101B80000E0380E00E940E0361E08D8D0E94AD0B7C
:101B9000C6010197F1F760E08D8D0E94AD0B80EEDC
:101BA0000E940E0361E08D8D0E94AD0B7A940F5F51
:101BB0001F4F2296711073CFC2EDD5E060E089917E
:101BC0000E94DC0BF5E0C63DDF07C1F70EEC15E027
:101BD000E80185E0E82E9CE0C92E22E0D22E88891B
:101BE0008C3008F045C0F88461E08F2D0E94DC0B3A
:101BF0008889E89EF0011124E759FA4F9F2D9F73C1
:101C00002081207CF22EF92AF082138214826C2D1E
:101C10000E94A9119CE0899FA001112420E030E0DE
:101C2000BA01620F731FE69EF001E79EF00D1124CA
:101C3000E759FA4F908196FD12C02F5F3F4F2C302D
:101C4000310571F781110BC010928000D092810094
:101C50001092850010928400D6BAD0926F00E88965
:101C6000EE9EF0011124E759FA4F80818064808351
:101C70009E858C85F801828B938B60E00E94DC0B43
:101C800061E0F80183890E94DC0B60E0F801838940
:101C90000E94AD0B21960E5F1F4FF5E0C03DDF07A0
:101CA00009F09DCFF8941092200189E080932101E2
:101CB00080E293E0909329018093280110922501FE
:101CC0001092240182E080937300789480939704AB
:101CD00010929B048091980460E00E94DC0B0E94AB
:101CE000130880ED97E00E94410764EB70E081E00B
:101CF0000E943B0888EE93E00E9441076AE570E08D
:101D000080E00E943B0888EE93E00E94410764EB6C
:101D100070E080E00E943B0888EE93E00E9441075B
:101D20006AE570E080E00E943B0888EE93E00E9444
:101D300041070E94E102FDCF8091A6059091A70581
:101D40000C9490121092B7021092B60288EE93E0B3
:101D5000A0E0B0E08093B8029093B902A093BA02D9
:101D6000B093BB0223E132E03093B5022093B4027A
:101D70001092C3021092C2028093C4029093C502D3
:101D8000A093C602B093C70225E232E03093C102AD
:101D90002093C00245E351E05093CD024093CC0222
:101DA00044E351E05093CF024093CE0240E351E030
:101DB0005093D1024093D00241E351E05093D302BB
:101DC0004093D20242E351E05093D5024093D402B3
:101DD00046E351E05093D7024093D6021092D902C5
:101DE0001092DA021092DB021092DC021092600371
:101DF00010925F038093610390936203A093630347
:101E0000B093640330935E0320935D0345ED50E08F
:101E100050936A034093690344ED50E050936C0380
:101E200040936B0340ED50E050936E0340936D037D
:101E300041ED50E05093700340936F0342ED50E04A
:101E4000509372034093710346ED50E05093740336
:101E500040937303109276031092770310927803E5
:101E6000109279031092FD031092FC038093FE03FD
:101E70009093FF03A0930004B09301043093FB03FD
:101E80002093FA0385EC90E0909307048093060476
:101E900084EC90E0909309048093080480EC90E037
:101EA00090930B0480930A0481EC90E090930D04CE
:101EB00080930C0482EC90E090930F0480930E04C6
:101EC00086EC90E090931104809310041092130418
:101ED00010921404109215041092160480910702B7
:101EE00090910802A0910902B0910A028093CE0558
:101EF0009093CF05A093D005B093D10580910B02AC
:101F000090910C02A0910D02B0910E028093D20527
:101F10009093D305A093D405B093D50584E0809326
:101F2000D60587E08093D7051092D80584EB80937F
:101F3000D90586E18093DA0588E18093DB0587E1A6
:101F40008093DC0589E18093DD05E091A505EC3007
:101F500020F08FEF8093DE0510C081E08E0F80931C
:101F6000A505E093DE0585E0E89FF0011124E7591F
:101F7000FA4F88EB9BE092838183E091A505EC30DA
:101F800020F08FEF8093DF0510C081E08E0F8093EB
:101F9000A505E093DF0585E0E89FF0011124E759EE
:101FA000FA4F88EB9BE0928381838CE08093AD05B0
:101FB00084E28093AE0586E08093AF0585E0809350
:101FC000B0058FE18093B1058EE18093B20583E285
:101FD0008093B30582E28093B40585E48093B505D0
:101FE00084E48093B60580E48093B9051092BE0521
:101FF0001092BF051092C0051092C1051092C20543
:102000001092C3051092C4051092C505E8EEF5E0E4
:1020100026EA36E08FEF9FEFDC01128213821482F2
:102020001582168217821086118683879487A5876A
:10203000B6878787908BA18BB28B12861182108214
:1020400073962E173F0749F78DE090E00E94F81134
:10205000FC011382128287E392E0918380831186D0
:1020600087E2848384E1828784E083871486F09307
:10207000E505E093E4051092E6051092E70585E298
:102080008093980410929A041092A7051092A605C6
:102090001092A9051092A8051092AB051092AA05FE
:1020A00061E070E080E090E00E941913009789F0F1
:1020B0009093A7058093A6051092A9051092A805F4
:1020C0002091AA053091AB05232BC1F4FC011082AD
:1020D00015C08091A6059091A705009711F00E9468
:1020E00090121092A7051092A6051092AB051092BF
:1020F000AA051092A9051092A80508951092AB05A3
:102100001092AA056FE372E08091A6059091A70551
:102110000C940C14E89409C097FB3EF490958095BC
:10212000709561957F4F8F4F9F4F9923A9F0F92F9D
:1021300096E9BB279395F695879577956795B7951B
:10214000F111F8CFFAF4BB0F11F460FF1BC06F5F01
:102150007F4F8F4F9F4F16C0882311F096E911C013
:10216000772321F09EE8872F762F05C0662371F034
:1021700096E8862F70E060E02AF09A95660F771F48
:10218000881FDAF7880F9695879597F90895990F24
:102190000008550FAA0BE0E8FEEF16161706E80731
:1021A000F907C0F012161306E407F50798F0621B52
:1021B000730B840B950B39F40A2661F0232B242B27
:1021C000252B21F408950A2609F4A140A6958FEF46
:1021D000811D811D08950E94FE100C946F110E94B4
:1021E000611138F00E94681120F0952311F00C94D1
:1021F00058110C945E1111240C94A3110E948011AB
:1022000070F3959FC1F3950F50E0551F629FF00149
:10221000729FBB27F00DB11D639FAA27F00DB11D62
:10222000AA1F649F6627B00DA11D661F829F2227EB
:10223000B00DA11D621F739FB00DA11D621F839F72
:10224000A00D611D221F749F3327A00D611D231F48
:10225000849F600D211D822F762F6A2F11249F5796
:1022600050409AF0F1F088234AF0EE0FFF1FBB1F99
:10227000661F771F881F91505040A9F79E3F510558
:1022800080F00C9458110C94A3115F3FE4F3983E36
:10229000D4F3869577956795B795F795E7959F5F02
:1022A000C1F7FE2B880F911D9695879597F9089594
:1022B00097F99F6780E870E060E008959FEF80ECF9
:1022C000089500240A94161617061806090608959C
:1022D00000240A9412161306140605060895092E02
:1022E0000394000C11F4882352F0BB0F40F4BF2B71
:1022F00011F460FF04C06F5F7F4F8F4F9F4F0895B1
:1023000057FD9058440F551F59F05F3F71F04795A6
:10231000880F97FB991F61F09F3F79F0879508958B
:10232000121613061406551FF2CF4695F1DF08C0AA
:10233000161617061806991FF1CF869571056105C7
:1023400008940895E894BB2766277727CB0197F96F
:102350000895991B79E004C0991F961708F0961B01
:10236000881F7A95C9F780950895EE0FFF1F881F83
:102370008BBF0790F691E02D19940E94C4116894C8
:10238000B1110C94A31108950E94881188F09F57F1
:1023900098F0B92F9927B751B0F0E1F0660F771F89
:1023A000881F991F1AF0BA95C9F714C0B13091F07F
:1023B0000E94A211B1E008950C94A211672F782F0A
:1023C0008827B85F39F0B93FCCF386957795679544
:1023D000B395D9F73EF490958095709561957F4FB0
:1023E0008F4F9F4F08950E94C71008F48FEF0895F4
:1023F0000F931F93CF93DF938230910510F482E007
:1024000090E0E0911307F091140720E030E0A0E0A5
:10241000B0E0309719F14081518102811381481752
:102420005907C8F08417950769F4109731F0129690
:102430000C93129713961C9327C0009313071093C5
:10244000140722C02115310519F04217530718F45B
:102450009A01BD01EF01DF01F801DBCF2115310544
:10246000F9F0281B390B2430310580F48A819B81D7
:102470006115710521F0FB019383828304C0909361
:10248000140780931307FE01329644C0FE01E20F49
:10249000F31F8193919322503109398328833AC0E5
:1024A0002091110730911207232B41F42091030250
:1024B00030910402309312072093110720910102FA
:1024C000309102022115310541F42DB73EB74091FC
:1024D000050250910602241B350BE0911107F09183
:1024E0001207E217F307A0F42E1B3F0B281739073A
:1024F00078F0AC014E5F5F4F2417350748F04E0F60
:102500005F1F50931207409311078193919302C06C
:10251000E0E0F0E0CF01DF91CF911F910F9108959E
:10252000CF93DF93009709F481C0FC0132971382A7
:102530001282A0911307B0911407109781F42081A3
:102540003181820F931F20911107309112072817B4
:10255000390751F5F0931207E093110767C0ED01B9
:1025600020E030E0CE17DF0740F44A815B819E0116
:1025700041155105F1F0EA01F5CFD383C2834081C3
:102580005181840F951FC817D90759F48881998103
:10259000840F951F0296918380838A819B81938308
:1025A00082832115310529F4F0931407E093130772
:1025B0003DC0E901FB83EA8349915991C40FD51FBE
:1025C000EC17FD0761F480819181840F951F0296BD
:1025D000E90199838883828193819B838A83E0E0E8
:1025E000F0E012968D919C911397009719F0FD01E0
:1025F000DC01F7CF8D919C9111979D012E5F3F4F8C
:10260000820F931F20911107309112072817390765
:1026100069F4309729F4109214071092130702C03E
:1026200013821282B0931207A0931107DF91CF910A
:1026300008956F927F928F929F92AF92BF92CF92A6
:10264000DF92EF92FF920F931F93CF93DF93009748
:1026500089F4CB01DF91CF911F910F91FF90EF9003
:10266000DF90CF90BF90AF909F908F907F906F90B2
:102670000C94F811FC01E60FF71F9C012250310960
:10268000E217F30708F4A9C0EC01D9010D911C91E0
:10269000119706171707B0F00530110508F49BC015
:1026A000C80104978617970708F495C002501109CE
:1026B000061B170B019311936D937C93CF010E941E
:1026C000901289C05B01A01AB10A4C01800E911EC4
:1026D000A0911307B0911407612C712CE12CF12CFF
:1026E000109709F446C08D919C911197A815B905D2
:1026F000B1F56C0142E0C40ED11CCA14DB0478F1C0
:102700004C018A189B08640142E0C40ED11C129649
:10271000BC9012971396AC91B5E0CB16D10440F063
:10272000B282A38391828082D9016D937C9309C088
:102730000E5F1F4F800F911FF90191838083EB2D56
:10274000FA2FE114F10431F0D7011396FC93EE93C4
:10275000129741C0F0931407E09313073CC068162A
:10276000790608F43C017D0112960D90BC91A02DD4
:10277000B7CF809111079091120788169906E1F45E
:1027800066167706C8F480910102909102020097C4
:1027900041F48DB79EB74091050250910602841B0B
:1027A000950BE817F907C8F4F0931207E0931107A7
:1027B000F901718360830FC0CB010E94F8117C0185
:1027C000009759F0A801BE010E940314CE010E9497
:1027D0009012C70104C0CE0102C080E090E0DF91FA
:1027E000CF911F910F91FF90EF90DF90CF90BF900E
:1027F000AF909F908F907F906F90089581E090E0D0
:10280000F8940C941314FB01DC0102C001900D92AA
:1028100041505040D8F70895FB01DC0101900D9222
:102820000020E1F7089511E0C4E9D1E000E006C01E
:10283000802FFE010E94B5112196011DC539D107D7
:0A28400080E00807A9F7F894FFCF25
:10284A00FF000015072000363738391B1D1A1C00F7
:10285A000000007409470916031B093F092B091CCC
:10286A0009000000006F02C801F201BC0223020144
:10287A00021502000000001B03C80116031503001D
:00000001FF
