:100000000C9495010C94C6010C94C6010C94C60185
:100010000C94C6010C94C6010C94C6010C94C60144
:100020000C94C6010C94620C0C94620C0C94620C3F
:100030000C94C6010C94C9040C94C6010C94C6011E
:100040000C94C6010C94EB080C94C6010C94C601E8
:100050000C94C6010C94C6010C94C6010C94310496
:100060000C94C6010C9438060C940E060C94C60130
:100070000C94C6010C94C6010C94C6010C94C601E4
:100080000C94C6010C94C6010C94C6010C94C601D4
:100090000C94C6010C94C6010C94C6010C946C0C13
:1000A0000C94C6010C94C6010C94C6010C94C601B4
:1000B0000C94C6010C94C6010C94C6010C94620603
:1000C0000C94C6010C94C6010C94C6010C94E40572
:1000D0000C94BA050C94C6010C9490050C9466051A
:1000E0000C94C601BC03BF03AE03B203B803F6030E
:1000F000C303C703CD03D103D503DB03DF03E3034E
:10010000F603E903ED03F103A207A707AC07B6075F
:10011000C0073908CA07D207DA07E407EE07F8076D
:100120000708110839081B0825082F080C94BF037D
:100130000C94ED030C94AC070C941D030C942F0845
:100140000C9411080C9484020C947C030C94F80712
:100150000C9477030C9407080C94230A0C94210A3E
:100160000C9462020C9429020C94DB030C94C303DC
:100170000C9460100C94BC030C94330A0C94E303AD
:100180000C94B6070C947C0A0C9476020C947603BB
:100190000C94C0070C94D5030C94D1030C94CD039C
:1001A0000C94D2070C94F1030C94240A0C94D00202
:1001B0000C94C7030C9425080C94A2070C94CA074E
:1001C0000C944F0A0C94B2030C94DF030C941B089C
:1001D0000C9453020C9439080C94EE070C94DA0733
:1001E0000C94470A0C94220A0C94F6030C94B8035E
:1001F0000C9466100C94AE030C94E9030C94A707BE
:100200000C94E407000020002300260029002C00A5
:100210002F00320000010000030106010901020065
:10022000002100240027002A002D003000330001A7
:10023000010000040107010A010000220025002836
:10024000002B002E003100340002010000050108DF
:10025000010B01050505050705080808080202024B
:10026000020A0A0808040404040101010101010151
:10027000010303030303030303040707070C0C0C28
:100280000C0C0C0C0C020202020606060606060600
:10029000060B0B0B0B0B0B0B0B010210202008089D
:1002A00010204010204080020102010804020101D8
:1002B00002040810204080804020100804020180C1
:1002C0000402018040201008040201080402010118
:1002D0000204081020408001020408102040800021
:1002E000000A0B02090C0D0E0807030401000000B0
:1002F00000000000000000000000000000000000FE
:1003000000000000000000000000001211100000BA
:1003100000000000000000000000000000000000DD
:100320000000000000006610601011241FBECFEF17
:10033000D1E2DEBFCDBF00E00CBF12E0A0E0B2E032
:10034000EAE2FDE200E00BBF02C007900D92A0358B
:10035000B107D9F727E0A0E5B2E001C01D92A532B0
:10036000B207E1F711E0C4E9D1E000E006C021974F
:100370000109802FFE010E943D13C339D10780E09F
:100380000807A9F70E94CD0D0C9483160C94000069
:10039000CF93DF9390E0FC01E756FD4F2491FC01E1
:1003A000ED5AFD4F8491882361F190E0880F991FE9
:1003B000FC01E15EFD4FC591D491FC01E75CFD4F6E
:1003C000A591B491611109C09FB7F89488812095D7
:1003D00082238883EC912E230BC0623061F49FB797
:1003E000F8948881322F309583238883EC912E2BCB
:1003F0002C939FBF06C08FB7F894E8812E2B2883DB
:100400008FBFDF91CF9108953FB7F8948091750227
:1004100090917602A0917702B091780226B5A89BC0
:1004200005C02F3F19F00196A11DB11D3FBFBA2F86
:10043000A92F982F8827820F911DA11DB11DBC01E6
:10044000CD0142E0660F771F881F991F4A95D1F7AB
:100450000895CF92DF92EF92FF920F931F93CF9365
:10046000DF936C017A018B01C0E0D0E0CE15DF058F
:1004700081F0D8016D918D01D601ED91FC91019033
:10048000F081E02DC6011995892B11F02196EECF50
:100490007E01C701DF91CF911F910F91FF90EF90E7
:1004A000DF90CF900895FC01538D448D252F30E0CF
:1004B000842F90E0821B930B541710F0CF96089571
:1004C00001970895FC01918D828D981761F0828DBE
:1004D000DF01A80FB11D5D968C91928D9F5F9F7378
:1004E000928F90E008958FEF9FEF0895FC01918D1A
:1004F000828D981731F0828DE80FF11D858D90E087
:1005000008958FEF9FEF0895FC01918D228D892F23
:1005100090E0805C9F4F821B91098F73992708950B
:100520008BE393E00E94840221E0892B09F420E010
:10053000822F089588ED93E00E94840221E0892BA8
:1005400009F420E0822F089585E794E00E94840258
:1005500021E0892B09F420E0822F0895FC01848D8D
:10056000DF01A80FB11DA35ABF4F2C91848D90E0DD
:1005700001968F739927848FA689B7892C93A089B8
:10058000B1898C91837080648C93938D848D981342
:1005900006C00288F389E02D80818F7D80830895D5
:1005A000EF92FF920F931F93CF93DF93EC0181E0C3
:1005B000888F9B8D8C8D981305C0E889F98980817F
:1005C00085FD26C0F62E0B8D10E00F5F1F4F0F73B9
:1005D0001127E02E8C8DE8120CC00FB607FCFACF65
:1005E000E889F989808185FFF5CFCE010E94AE02AE
:1005F000F1CF8B8DFE01E80FF11DE35AFF4FF08222
:100600009FB7F8940B8FEA89FB89808180620AC0CA
:100610009FB7F894EE89FF896083E889F989808122
:100620008370806480839FBF81E090E0DF91CF91F1
:100630001F910F91FF90EF900895CF93DF93EC01FE
:10064000888D8823C9F0EA89FB89808185FD05C0F2
:10065000A889B9898C9186FD0FC00FB607FCF5CF2C
:10066000808185FFF2CFA889B9898C9185FFEDCF74
:10067000CE010E94AE02E7CFDF91CF910895E0E076
:10068000F0E0199480E090E0892B21F00E94A40210
:10069000811119C080E090E0892B41F080E090E06A
:1006A000892B21F00E940000811110C00E949A0243
:1006B00081110FC080E090E0892B81F00E949002B0
:1006C00081110AC008950E940000E4CF0E9400003A
:1006D000EDCF0E943F03EECF0C94000008958EBD35
:1006E00000000DB407FEFDCF8EB50895089580E09B
:1006F00090E008950E9465160F931F93CF93DF93A8
:100700008C01C62FD62FD07FD1606D2F0E94210C77
:100710006D2FC8010E94340C80E1C89FB0011124E4
:10072000C62FC1606C2FC8010E94210C6C2FC8011C
:100730000E94340C81E090E0DF91CF911F910F91E6
:10074000089590E0FC013197E231F10508F04EC0C8
:100750008827EE58FF4F8F4F0C943D1380918000F7
:100760008F7703C0809180008F7D809380000895F3
:1007700080918000877FF9CF84B58F7702C084B5E0
:100780008F7D84BD08958091B0008F7703C08091E4
:10079000B0008F7D8093B0000895809190008F7796
:1007A00007C0809190008F7D03C080919000877F6B
:1007B0008093900008958091A0008F7707C080916A
:1007C000A0008F7D03C08091A000877F8093A00050
:1007D0000895809120018F7707C0809120018F7D3F
:1007E00003C080912001877F8093200108958F921C
:1007F0009F92AF92BF92CF92DF92EF92FF926B01E6
:100800007C010E9404024B015C01C114D104E1048B
:10081000F104F1F00E940402DC01CB01881999096E
:10082000AA09BB09883E9340A105B10570F321E0F8
:10083000C21AD108E108F10888EE880E83E0981EFC
:10084000A11CB11CC114D104E104F10419F7DDCFDE
:10085000FF90EF90DF90CF90BF90AF909F908F90E0
:1008600008951F920F920FB60F9211242F933F936A
:100870008F939F93AF93BF93809171029091720277
:10088000A0917302B09174023091700223E0230FA3
:100890002D3720F40196A11DB11D05C026E8230FB8
:1008A0000296A11DB11D2093700280937102909356
:1008B0007202A0937302B0937402809175029091BA
:1008C0007602A0917702B09178020196A11DB11D28
:1008D0008093750290937602A0937702B09378028A
:1008E000BF91AF919F918F913F912F910F900FBE2C
:1008F0000F901F901895EF92FF920F931F93CF9335
:10090000DF93EC01198218821B821A821D821C82DD
:1009100061157105B9F17B01FB0101900020E9F738
:1009200031978F01061B170BB8016F5F7F4F80E077
:1009300090E00E948015009759F0998388831B836B
:100940000A832C813D81232B81F4FC0110820DC090
:1009500088819981009711F00E94F71419821882FA
:100960001D821C821B821A820DC01D830C83B7015D
:1009700088819981DF91CF911F910F91FF90EF9026
:100980000C947C16DF91CF911F910F91FF90EF9007
:1009900008951F920F920FB60F9211240BB60F926B
:1009A0002F933F934F935F936F937F938F939F9377
:1009B000AF93BF93EF93FF9380916B0290916C0282
:1009C000A0916D02B0916E02892B8A2B8B2B49F17D
:1009D00090916A02809100008927809300008091A5
:1009E0006B0290916C02A0916D02B0916E0218168C
:1009F00019061A061B060CF056C080916B029091E6
:100A00006C02A0916D02B0916E020197A109B1092B
:100A100080936B0290936C02A0936D02B0936E0270
:100A200042C080910002EEE1F2E0E4919FEF9093EA
:100A30000002E230C9F050F4EE2399F0E13081F584
:100A400090916F009D7F90936F002AC0E43019F160
:100A5000E0F0E53029F5909173009D7F909373004D
:100A60001FC010926E001CC0909170009D7F9093EB
:100A7000700091E09093B0009091B100987F9460E5
:100A80009093B1001092B3000BC0909171009D7FC4
:100A90009093710005C0909172009D7F90937200B9
:100AA00060E00E949E0DFF91EF91BF91AF919F91E9
:100AB0008F917F916F915F914F913F912F910F9007
:100AC0000BBE0F900FBE0F901F9018951F920F92A4
:100AD0000FB60F9211240BB60F922F933F934F93A3
:100AE0005F936F937F938F939F93AF93BF93EF9396
:100AF000FF938BE393E00E94AE02FF91EF91BF91D1
:100B0000AF919F918F917F916F915F914F913F91A5
:100B10002F910F900BBE0F900FBE0F901F90189546
:100B20001F920F920FB60F9211240BB60F922F93B4
:100B30003F934F935F936F937F938F939F93AF9365
:100B4000BF93EF93FF938BE393E00E94490CFF91D7
:100B5000EF91BF91AF919F918F917F916F915F9135
:100B60004F913F912F910F900BBE0F900FBE0F90A2
:100B70001F9018951F920F920FB60F9211240BB66B
:100B80000F922F933F934F935F936F937F938F9326
:100B90009F93AF93BF93EF93FF9388ED93E00E94F1
:100BA000AE02FF91EF91BF91AF919F918F917F9195
:100BB0006F915F914F913F912F910F900BBE0F90CE
:100BC0000FBE0F901F9018951F920F920FB60F92A5
:100BD00011240BB60F922F933F934F935F936F9314
:100BE0007F938F939F93AF93BF93EF93FF9388ED82
:100BF00093E00E94490CFF91EF91BF91AF919F91BB
:100C00008F917F916F915F914F913F912F910F90B5
:100C10000BBE0F900FBE0F901F9018951F920F9252
:100C20000FB60F9211240BB60F922F933F934F9351
:100C30005F936F937F938F939F93AF93BF93EF9344
:100C4000FF9385E794E00E94AE02FF91EF91BF9180
:100C5000AF919F918F917F916F915F914F913F9154
:100C60002F910F900BBE0F900FBE0F901F901895F5
:100C70001F920F920FB60F9211240BB60F922F9363
:100C80003F934F935F936F937F938F939F93AF9314
:100C9000BF93EF93FF9385E794E00E94490CFF9187
:100CA000EF91BF91AF919F918F917F916F915F91E4
:100CB0004F913F912F910F900BBE0F900FBE0F9051
:100CC0001F9018951F920F920FB60F9211240BB61A
:100CD0000F922F933F934F935F936F937F938F93D5
:100CE0009F93AF93BF93CF93DF93EF93FF932091A5
:100CF000130530E0F901E152FD4F8491F901E75607
:100D0000FD4FD491F901ED5AFD4FC491CC2379F0F8
:100D100081110E94A103EC2FF0E0EE0FFF1FEC5FAA
:100D2000FD4FA591B491EC91ED2381E009F480E0B1
:100D300020911705309118052F5F3F4F309318050C
:100D40002093170590911605953618F096E090932C
:100D50001205909112059430C9F128F4923069F08F
:100D60009330D1F05EC0953009F451C0963009F04F
:100D700058C091E09093E30551C0811152C0209179
:100D80001705309118052436310508F442C0109239
:100D9000E305109216051CC0813009F042C0E091B5
:100DA000160591E09E0F90931605F0E0209117052F
:100DB00030911805EE0FFF1FEE5EFA4F3087278344
:100DC000109218051092170594E029C0811117C0E0
:100DD000E091160591E09E0F90931605F0E02091AA
:100DE000170530911805EE0FFF1FEE5EFA4F3087A2
:100DF0002783109218051092170593E010C02091D8
:100E00001705309118052536310558F007C08111B6
:100E100008C0109218051092170503C095E0909332
:100E20001205909115059923B9F081110AC080919E
:100E30001405882321F08091140561E009C02F9AE0
:100E40000BC080911405882331F08091140560E077
:100E50000E949E0D01C02F98FF91EF91DF91CF91DD
:100E6000BF91AF919F918F917F916F915F914F91C2
:100E70003F912F910F900BBE0F900FBE0F901F90C0
:100E800018958F929F92AF92BF92CF92DF92EF927E
:100E9000FF920F931F93CF93DF938C016A017B0125
:100EA00020E030E04FE753E4C701B6010E9473121F
:100EB0004B015C0120E030E0A9010E945A14181691
:100EC0001CF4C501B40103C0C501B40190580E94CF
:100ED0002414EB0120E030E0A901C701B6010E9413
:100EE0005A14181614F460E001C061E0F801818121
:100EF0000E949E0DCF3FD10509F014F4DD2702C0FA
:100F0000CFEFD0E0F801108161E0812F0E94C8018D
:100F1000209709F4B1C0CF3FD10509F4AFC0E12F4C
:100F2000F0E0E152FD4FE4918E2F90E0FC0131970B
:100F3000E231F10508F09DC08827EC57FF4F8F4F35
:100F40000C943D1384B5806884BDC7BDA7C084B52B
:100F5000806284BDC8BDA2C08091800080688093FB
:100F60008000D0938900C093880098C08091800051
:100F7000806280938000D0938B00C0938A008EC0E3
:100F800080918000886080938000D0938D00C09312
:100F90008C0084C08091B00080688093B000C093C2
:100FA000B3007CC08091B00080628093B000C09399
:100FB000B40074C080919000806880939000D093BA
:100FC0009900C09398006AC08091900080628093DD
:100FD0009000D0939B00C0939A0060C080919000D5
:100FE000886080939000D0939D00C0939C0056C071
:100FF0008091A00080688093A0008091A0008F7BEA
:101000008093A000D093A900C093A80047C080910E
:10101000A00080628093A000D093AB00C093AA0090
:101020003DC08091A00088608093A000D093AD0067
:10103000C093AC0033C08091200180688093200170
:10104000D0932901C093280129C08091200180629A
:1010500080932001D0932B01C0932A011FC080915F
:101060002001886080932001D0932D01C0932C0132
:1010700015C0C038D10514F460E001C061E0812FD3
:10108000DF91CF911F910F91FF90EF90DF90CF9064
:10109000BF90AF909F908F900C949E0DDF91CF9159
:1010A0001F910F91FF90EF90DF90CF90BF90AF9086
:1010B0009F908F900895CF93DF93EC0160E088813B
:1010C0000E949E0D88E90E946F0380E00E946F03DA
:1010D00080E00E946F0380E00E946F0380E00E9426
:1010E0006F0361E088810E949E0D8BE891E001977B
:1010F000F1F760E088810E949E0D80EE0E946F03F0
:1011000061E08881DF91CF910C949E0DAF92BF92E8
:10111000CF92DF92EF92FF920F931F93CF93DF93C3
:10112000CDB7DEB760970FB6F894DEBF0FBECDBF68
:101130005C0160E0FC0180810E949E0D80E60E94BF
:101140006F038E010F5F1F4F7E01F1E1EF0EF11C67
:10115000680180E00E946F0390E0A0E0B0E0F6013B
:1011600081939193A193B1936F01EE15FF0589F7D8
:1011700061E0F50180810E949E0D80E090E0DC013D
:10118000F80141915191619171918F01BA2FA92F6D
:10119000982F8827840F951FA61FB71FEE15FF05F0
:1011A00079F79C01AD0166277727CB01621B730B92
:1011B000840B950B60960FB6F894DEBF0FBECDBFC3
:1011C000DF91CF911F910F91FF90EF90DF90CF9023
:1011D000BF90AF9008951F920F920FB60F921124F7
:1011E0000BB60F922F933F934F935F936F937F9321
:1011F0008F939F93AF93BF93EF93FF938091690277
:1012000087FF05C0109285001092840016C02091BF
:101210006902022E000C330B8091200690E0281703
:1012200039075CF43091690225E03203F0011124A2
:10123000EC51FA4F808186FD15C0809169028F5F65
:101240008093690220916902022E000C330B809179
:10125000200690E02817390794F4809169028C30B9
:101260002CF10DC0309169023203F0011124EC51D0
:10127000FA4F808160E08F730E949E0DDECF8091D7
:1012800084009091850084349C4918F480E49CE9A2
:1012900005C0809184009091850004969093890008
:1012A000809388008FEF809369022AC04091840068
:1012B000509185003091690225E03203F00111243C
:1012C000EC51FA4F81819281840F951F9093890090
:1012D00080938800309169023203F0011124EC51AF
:1012E000FA4F808186FF0CC0309169023203F00111
:1012F0001124EC51FA4F808161E08F730E949E0DA2
:10130000FF91EF91BF91AF919F918F917F916F91DD
:101310005F914F913F912F910F900BBE0F900FBE99
:101320000F901F90189530918302313208F04BC016
:10133000809181028111FCCF90912E0322E02093B5
:10134000810221E0209380022FEF20930C03109262
:101350000B0330930A03EEE0F3E0AAEEB2E020E0E4
:10136000321721F041914D932F5FFACF1092E9028D
:101370002091E902990F922B9093E90290917F02BC
:10138000913061F410927F029091E9029093BB003A
:101390009091BC0093FDF8CF95EC01C095EE909331
:1013A000BC00909181029230E1F390910C039F3F39
:1013B00079F080910C03803241F080910C038033EE
:1013C00031F084E005C081E003C082E001C083E029
:1013D000109282021092830210920D03089585EDFF
:1013E0008093BC008091BC0084FDFCCF10928102F0
:1013F00008954091C402262F30E0240F311D213280
:101400003105DCF4209181022430C9F4FC0180E034
:1014100090E0861758F43091C4022191DC01AC555C
:10142000BD4FA30FB11D2C930196F3CF8091C40241
:10143000680F6093C40280E0089581E0089582E01F
:101440000895089508950895E0917A0280917902AF
:10145000E81730F4F0E0EC57FD4F808190E00895FC
:101460008FEF9FEF089590917A02809179029817FB
:1014700050F4E92FF0E0EC57FD4F208130E09F5F02
:1014800090937A0202C02FEF3FEFC9010895809137
:10149000790290E020917A02821B91090895CF92FF
:1014A000DF92EF92FF920F931F93CF93DF937C0114
:1014B000CB018A0120910D03222389F0EB016B01FE
:1014C000C40ED51ECC15DD0569F06991D701ED91EB
:1014D000FC910190F081E02DC7011995F3CF642FA5
:1014E0000E94F909C801DF91CF911F910F91FF90E0
:1014F000EF90DF90CF900895CF93DF931F92CDB7F9
:10150000DEB7698320910D032223D1F0209183025D
:10151000203240F021E030E0FC013383228380E080
:1015200090E015C080918202E82FF0E0E25FFC4F6E
:10153000998190838F5F809382028093830205C09C
:1015400061E0CE0101960E94F90981E090E00F90E0
:10155000DF91CF9108954F925F926F927F928F9219
:101560009F92AF92BF92CF92DF92EF92FF920F9332
:101570001F93CF93DF93CDB7DEB72E970FB6F894B6
:10158000DEBF0FBECDBF8C0149875A876B877C8732
:101590003E872D8785E496E00E945B0887E496E00D
:1015A0000E945B0880E090E0A0E8BEE389839A8314
:1015B000AB83BC832C013D01812C912C540175011E
:1015C00064018D829E82AF82B88629853A854B85DB
:1015D0005C856D817E818F8198850E940D1287FFC9
:1015E000D4C0D80114968D919C911597892B09F43C
:1015F00051C067E472E08D919C910E947316892B13
:1016000009F048C0ED85FE85F7FD44C0EF2BA1F43D
:1016100085E496E00E9486080E9414126B017C010A
:1016200087E496E00E9486080E9414124B015C0138
:10163000B301A201705847C08D859E85019709F0BE
:101640004FC085E496E00E9486089095809570953D
:1016500061957F4F8F4F9F4F0E9414126B017C0149
:1016600087E496E00E948608909580957095619534
:101670007F4F8F4F9F4F0E9414124B015C01B301AB
:10168000A20181E496E00E94410749815A816B8161
:101690007C8122C085E496E00E9486089095809522
:1016A000709561957F4F8F4F9F4F0E9414126B0171
:1016B0007C0187E496E00E9486080E9414124B0188
:1016C0005C01B301A20181E496E00E9441074981D7
:1016D0005A816B817C81705883E496E00E944107B7
:1016E000A5019401C701B6010E94451320E030E036
:1016F00040E05FE30E9473122CEA35EC47E257E3C7
:101700000E9473129B01AC0169817A818B819C815B
:101710000E94461369837A838B839C83A701960179
:10172000C501B4010E94451320E030E040E05FE3D2
:101730000E9473122CEA35EC47E257E30E947312C1
:101740009B01AC01C301B2010E9446132B013C0175
:10175000A5019401C701B6010E94461320E030E0C4
:1017600048EC55E40E94B21320E030E040EC51E434
:101770000E9473126D837E838F83988768EC70E07C
:1017800080E090E00E94F70320CF40E050E0BA01F3
:1017900081E496E00E94410740E050E060E070E89C
:1017A00083E496E02E960FB6F894DEBF0FBECDBF51
:1017B000DF91CF911F910F91FF90EF90DF90CF902D
:1017C000BF90AF909F908F907F906F905F904F9061
:1017D0000C9441070F931F93CF93DF93162F072F7E
:1017E000C8E2D6E09C8521E020930D0390932E0360
:1017F0001092820210928302AA85BB85ED91FC9122
:1018000011970190F081E02D682FCD0119958A85FF
:101810009B85DC01ED91FC910190F081E02D602F22
:1018200019958A859B85DC01ED91FC910190F081F1
:10183000E02D612F1995DF91CF911F910F910C949D
:101840009309FC01248131E030930D0320932E0392
:1018500010928202109283028485682B8FE293E0BB
:101860000E947C0A0C9493090F931F93CF938C01D1
:10187000C62F64600E94210C6C2F6B7FC8010E94F0
:10188000210C83EC90E00197F1F7CF911F910F911C
:101890000895FC01A089B1898C91A689B78982FD40
:1018A0000FC09C91818D8F5F8F73228D821749F0BD
:1018B000218DDF01A20FB11D5D969C93818F08954C
:1018C0008C9108951F920F920FB60F9211240F90D2
:1018D0000FBE0F901F9018951F920F920FB60F9288
:1018E00011240BB60F922F933F934F935F936F93F7
:1018F0007F938F939F93AF93BF93EF93FF938091C9
:10190000B900887F803609F49CC068F5883209F4F4
:101910005BC090F4803109F454C038F4882309F492
:10192000F6C0883009F44DC0F6C0883109F44CC0C7
:10193000803209F45DC0EFC0803409F468C048F417
:10194000803309F455C0883309F0E5C080930C0357
:10195000D8C0803509F44FC0883509F45DC088349B
:1019600009F0D9C0D6C0883909F4C7C0A8F48837AF
:1019700009F467C038F4883609F463C0803709F485
:1019800060C0C9C0883809F4B8C0803909F45FC0A4
:10199000803809F0C0C05BC0803B09F486C038F4D1
:1019A000803A09F466C0883A09F47FC0B4C0803C2C
:1019B00009F4A7C0883C09F4A4C0883B09F48AC094
:1019C000AAC08091E90210C090910B0380910A0394
:1019D000981770F5E0910B0381E08E0F80930B0355
:1019E000F0E0E651FD4F80818093BB0085EC86C01E
:1019F00080930C038EC0E0910B0381E08E0F8093E7
:101A00000B038091BB00F0E0E651FD4F8083909185
:101A10000B0380910A036EC0E0910B0381E08E0FEF
:101A200080930B038091BB00F0E0E651FD4F808373
:101A30008091800281116DC081E080937F0284EAF1
:101A400061C083E0809381021092E602CFCF809143
:101A5000E602803208F051C0E091E60281E08E0F8C
:101A60008093E6028091BB00F0E0EA53FD4F808353
:101A7000BDCF85EC8093BC00109281028091E6027C
:101A8000803230F4E091E602F0E0EA53FD4F10823C
:101A90006091E60270E0E0917D02F0917E0286ECBA
:101AA00092E019951092E60236C084E0809381029C
:101AB0001092C5021092C402E0917B02F0917C0268
:101AC00019958091C402811105C081E08093C40200
:101AD0001092A402E091C50281E08E0F8093C502AE
:101AE000F0E0EC55FD4F80818093BB009091C502E2
:101AF0008091C402981708F479CF85E88093BC00E0
:101B00000AC085EC8093BC001092810204C0109240
:101B10000C030E94EF09FF91EF91BF91AF919F914C
:101B20008F917F916F915F914F913F912F910F9086
:101B30000BBE0F900FBE0F901F9018951F93CF9361
:101B4000DF93282F30E0F901E152FD4F8491F90134
:101B5000E756FD4FD491F901ED5AFD4FC491CC23C6
:101B6000C1F0162F81110E94A103EC2FF0E0EE0FBF
:101B7000FF1FE75CFD4FA591B4919FB7F894111139
:101B800004C08C91D095D82302C0EC91DE2BDC935D
:101B90009FBFDF91CF911F910895CF93DF9300D026
:101BA00000D0CDB7DEB7789484B5826084BD84B5AB
:101BB000816084BD85B5826085BD85B5816085BD48
:101BC00080916E00816080936E0010928100809100
:101BD0008100826080938100809181008160809388
:101BE0008100809180008160809380008091B100AD
:101BF00084608093B1008091B00081608093B000D8
:101C00008091910082608093910080919100816029
:101C100080939100809190008160809390008091EA
:101C2000A10082608093A1008091A10081608093D7
:101C3000A1008091A00081608093A000809121018B
:101C40008260809321018091210181608093210134
:101C50008091200181608093200180917A008460CE
:101C600080937A0080917A00826080937A008091DC
:101C70007A00816080937A0080917A0080688093F6
:101C80007A001092C100E0918504F091860482E010
:101C90008083E0918104F09182041082E0918304BA
:101CA000F09184048FEC808310928D04E09189047C
:101CB000F0918A0486E08083E0918704F0918804A3
:101CC000808180618083E0918704F0918804808125
:101CD00088608083E0918704F09188048081806827
:101CE0008083E0918704F091880480818F7D8083D8
:101CF00061E0809129060E94C80160E08091290678
:101D00000E949E0D60E0809128060E94C8018FE22B
:101D100093E0909333068093320610927A021092E9
:101D2000790210928202109283021092810281E065
:101D30008093800210927F0261E084E10E949E0DF8
:101D400061E085E10E949E0D8091B9008E7F8093B5
:101D5000B9008091B9008D7F8093B90088E48093A9
:101D6000B80085E48093BC0081E29AE090937C0205
:101D700080937B0282E29AE090937E0280937D02C0
:101D800080E090E1A0E0B0E08093350690933606C5
:101D9000A0933706B09338068AE090E0A0E0B0E068
:101DA0008093390690933A06A0933B06B0933C0685
:101DB00080E090E0A0E0B0E480933D0690933E0682
:101DC000A0933F06B093400660E070E185E00E947A
:101DD000EA0B6FE979E380E00E94EA0B08E216E083
:101DE000780172E0572EE8E86E2EE2E07E2EFEECDF
:101DF0008F2EF2E09F2EABECCA2EA7E0DA2ED70191
:101E000014969C91149712968C91F801818F928F61
:101E100061E00E94C80161E0D8015A968C910E944D
:101E2000C801F701908586815801FDE1AF0EB11C14
:101E3000D8015D968C935D975E969C9361E00E94BD
:101E4000C80160E0F801868D0E94C80161E0D801F8
:101E50005D968C910E949E0D4FB6F89480916F0212
:101E6000811126C0F3018491F4012491E82FF0E060
:101E7000EE0FFF1FE15EFD4FA591B4919C91822F63
:101E8000892321F461E085E30E949E0D61E085E3F2
:101E90000E94C8018CB580618CBD8CB580648CBDFE
:101EA00061E084E30E94C80161E083E30E94C8010D
:101EB00080916F028F5F80936F024FBEC6010197C2
:101EC000F1F760E0D8015D968C910E949E0D88E844
:101ED0000E946F0383E00E946F0361E0F801858D2B
:101EE0000E949E0DC6010197F1F7C5010E945B0893
:101EF0005A94FFEFEF1AFF0A0E5F1F4F51107FCF6A
:101F00000DE416E051E5E52E56E0F52E60E0D8012F
:101F10008D918D010E94C801E016F106B9F789E4A0
:101F2000E82E86E0F82E9BE4C92E96E0D92E870194
:101F300025E0B22E3CE0932E42E0A42EF8018089E9
:101F40008C3008F049C0808461E0882D0E94C8016F
:101F5000D80150968C91B89EF0011124EC51FA4FA3
:101F6000982D9F732081207C822E892A8082138263
:101F70001482692D0E943113BCE08B9FA0011124B3
:101F800020E030E0BA01620F731FB69EF001B79EE9
:101F9000F00D1124EC51FA4F908196FD12C02F5F85
:101FA0003F4F2C30310571F781110BC0109280002A
:101FB000A09281001092850010928400A6BAA0928F
:101FC0006F00D8015096EC91BE9EF0011124EC51A7
:101FD000FA4F808180648083F80196858485D701DB
:101FE00052968C93529753969C9360E00E94C8013E
:101FF00061E0F70183890E94C80160E0D701539630
:102000008C910E949E0D0F5F1F4FB2E0EB0EF11CF2
:10201000C016D10609F092CFF8941092200189E001
:102020008093210180E293E090932901809328011D
:10203000109225011092240182E08093730078941D
:1020400080931205109216058091130560E00E949E
:10205000C8016FE372E0CE0101960E947B042FEF6E
:102060003FEF40E050E068E271E4CE0101960E944B
:10207000AB0A89819A810E94F71464EF71E080E0D5
:1020800090E00E94F70367E472E0CE0101960E949F
:102090007B0420E030E040E050E060EF70E4CE01EF
:1020A00001960E94AB0A89819A810E94F7146AE026
:1020B00070E080E090E00E94F7030E944203F7CFB7
:1020C00080912106909122060C94F714109232030D
:1020D0001092310388EE93E0A0E0B0E080933303E8
:1020E00090933403A0933503B093360323E132E099
:1020F0003093300320932F0310923E0310923D0340
:1021000080933F0390934003A0934103B093420315
:1021100025E232E030933C0320933B0345E351E05A
:10212000509348034093470344E351E050934A03DC
:102130004093490340E351E050934C0340934B03D9
:1021400041E351E050934E0340934D0342E351E08D
:102150005093500340934F0346E351E05093520392
:10216000409351031092540310925503109256035A
:10217000109257031092DB031092DA038093DC0372
:102180009093DD03A093DE03B093DF033093D90374
:102190002093D80345ED50E05093E5034093E403CA
:1021A00044ED50E05093E7034093E60340ED50E0E8
:1021B0005093E9034093E80341ED50E05093EB0363
:1021C0004093EA0342ED50E05093ED034093EC035B
:1021D00046ED50E05093EF034093EE031092F1036D
:1021E0001092F2031092F3031092F4031092780409
:1021F000109277048093790490937A04A0937B04DF
:10220000B0937C04309376042093750485EC90E0C1
:10221000909382048093810484EC90E090938404F2
:102220008093830480EC90E09093860480938504EF
:1022300081EC90E0909388048093870482EC90E096
:1022400090938A048093890486EC90E090938C04A8
:1022500080938B0410928E0410928F04109290043D
:10226000109291048091070290910802A0910902B6
:10227000B0910A028093490690934A06A0934B06B8
:10228000B0934C0680910B0290910C02A0910D022C
:10229000B0910E0280934D0690934E06A0934F0688
:1022A000B093500684E08093510687E080935206F5
:1022B0001092530684EB8093540686E18093550672
:1022C00088E18093560687E18093570689E18093E1
:1022D0005806E0912006EC3020F08FEF80935906ED
:1022E00010C081E08E0F80932006E093590625E010
:1022F000E29FF0011124EC51FA4F88EB9BE09283AE
:102300008183E0912006EC3020F08FEF80935A0615
:1023100010C081E08E0F80932006E0935A0685E07E
:10232000E89FF0011124EC51FA4F88EB9BE0928377
:1023300081838CE08093280684E28093290686E0DE
:1023400080932A0685E080932B068FE180932C06EC
:102350008EE180932D0683E280932E0682E28093A5
:102360002F0685E48093300684E48093310680E470
:10237000809334061092390610923A0610923B066A
:1023800010923C0610923D0610923E0610923F06B7
:1023900010924006E3E6F6E08FEF9FEFDC01128239
:1023A0001382148215821682178210861186838703
:1023B0009487A587B6878787908BA18BB28B12866F
:1023C00011821082739627E0E132F20741F78DE027
:1023D00090E00E945F14FC011382128287E392E076
:1023E00091838083118687E2848384E1828784E0FD
:1023F00083871486F0936006E0935F06109261066F
:102400001092620685E2809313051092150566E42A
:1024100072E081E296E00C947B040E944F1208F473
:1024200081E00895E89409C097FB3EF4909580956B
:10243000709561957F4F8F4F9F4F9923A9F0F92F8A
:1024400096E9BB279395F695879577956795B79508
:10245000F111F8CFFAF4BB0F11F460FF1BC06F5FEE
:102460007F4F8F4F9F4F16C0882311F096E911C000
:10247000772321F09EE8872F762F05C0662371F021
:1024800096E8862F70E060E02AF09A95660F771F35
:10249000881FDAF7880F9695879597F90895990F11
:1024A0000008550FAA0BE0E8FEEF16161706E8071E
:1024B000F907C0F012161306E407F50798F0621B3F
:1024C000730B840B950B39F40A2661F0232B242B14
:1024D000252B21F408950A2609F4A140A6958FEF33
:1024E000811D811D08950E9486120C94F7120E948E
:1024F000E91238F00E94F01220F0952311F00C94AC
:10250000E0120C94E61211240C942B130E94081371
:1025100070F3959FC1F3950F50E0551F629FF00136
:10252000729FBB27F00DB11D639FAA27F00DB11D4F
:10253000AA1F649F6627B00DA11D661F829F2227D8
:10254000B00DA11D621F739FB00DA11D621F839F5F
:10255000A00D611D221F749F3327A00D611D231F35
:10256000849F600D211D822F762F6A2F11249F5783
:1025700050409AF0F1F088234AF0EE0FFF1FBB1F86
:10258000661F771F881F91505040A9F79E3F510545
:1025900080F00C94E0120C942B135F3FE4F3983E10
:1025A000D4F3869577956795B795F795E7959F5FEF
:1025B000C1F7FE2B880F911D9695879597F9089581
:1025C00097F99F6780E870E060E008959FEF80ECE6
:1025D000089500240A941616170618060906089589
:1025E00000240A9412161306140605060895092EEF
:1025F0000394000C11F4882352F0BB0F40F4BF2B5E
:1026000011F460FF04C06F5F7F4F8F4F9F4F08959D
:1026100057FD9058440F551F59F05F3F71F0479593
:10262000880F97FB991F61F09F3F79F08795089578
:10263000121613061406551FF2CF4695F1DF08C097
:10264000161617061806991FF1CF869571056105B4
:1026500008940895E894BB2766277727CB0197F95C
:102660000895991B79E004C0991F961708F0961BEE
:10267000881F7A95C9F780950895EE0FFF1F881F70
:102680008BBF0790F691E02D19945058BB27AA27CD
:102690000E945D130C94F7120E94E91238F00E9418
:1026A000F01220F039F49F3F19F426F40C94E6124E
:1026B0000EF4E095E7FB0C94E012E92F0E9408135A
:1026C00058F3BA17620773078407950720F079F467
:1026D000A6F50C942A130EF4E0950B2EBA2FA02D1C
:1026E0000B01B90190010C01CA01A0011124FF27BF
:1026F000591B99F0593F50F4503E68F11A16F040BA
:10270000A22F232F342F4427585FF3CF46953795B8
:102710002795A795F0405395C9F77EF41F16BA0B7D
:10272000620B730B840BBAF09150A1F0FF0FBB1F2B
:10273000661F771F881FC2F70EC0BA0F621F731F74
:10274000841F48F4879577956795B795F7959E3FD1
:1027500008F0B0CF9395880F08F09927EE0F979562
:10276000879508950E94C6130C94F7120E94F012E8
:1027700058F00E94E91240F029F45F3F29F00C94D0
:10278000E01251110C942B130C94E6120E940813C2
:1027900068F39923B1F3552391F3951B550BBB2790
:1027A000AA2762177307840738F09F5F5F4F220FD5
:1027B000331F441FAA1FA9F335D00E2E3AF0E0E8CC
:1027C00032D091505040E695001CCAF72BD0FE2F16
:1027D00029D0660F771F881FBB1F261737074807AA
:1027E000AB07B0E809F0BB0B802DBF01FF27935862
:1027F0005F4F3AF09E3F510578F00C94E0120C9434
:102800002B135F3FE4F3983ED4F386957795679555
:10281000B795F7959F5FC9F7880F911D9695879596
:1028200097F90895E1E0660F771F881FBB1F6217B5
:1028300073078407BA0720F0621B730B840BBA0B73
:10284000EE1F88F7E09508950E942B146894B1114B
:102850000C942B1308950E94101388F09F5798F042
:10286000B92F9927B751B0F0E1F0660F771F881F95
:10287000991F1AF0BA95C9F714C0B13091F00E94AF
:102880002A13B1E008950C942A13672F782F882714
:10289000B85F39F0B93FCCF3869577956795B395D6
:1028A000D9F73EF490958095709561957F4F8F4F45
:1028B0009F4F08950E944F1208F48FEF08950F93D1
:1028C0001F93CF93DF938230910510F482E090E064
:1028D000E0912307F091240720E030E0A0E0B0E091
:1028E000309719F1408151810281138148175907AE
:1028F000C8F08417950769F4109731F012960C937D
:10290000129713961C9327C0009323071093240754
:1029100022C02115310519F04217530718F49A0106
:10292000BD01EF01DF01F801DBCF21153105F9F021
:10293000281B390B2430310580F48A819B81611575
:10294000710521F0FB019383828304C090932407D7
:1029500080932307FE01329644C0FE01E20FF31F6D
:102960008193919322503109398328833AC0209171
:10297000210730912207232B41F42091030230914B
:102980000402309322072093210720910102309105
:1029900002022115310541F42DB73EB740910502E1
:1029A00050910602241B350BE0912107F09122077C
:1029B000E217F307A0F42E1B3F0B2817390778F016
:1029C000AC014E5F5F4F2417350748F04E0F5F1F75
:1029D00050932207409321078193919302C0E0E036
:1029E000F0E0CF01DF91CF911F910F910895CF9328
:1029F000DF93009709F481C0FC01329713821282A1
:102A0000A0912307B0912407109781F42081318190
:102A1000820F931F20912107309122072817390731
:102A200051F5F0932207E093210767C0ED0120E004
:102A300030E0CE17DF0740F44A815B819E014115EB
:102A40005105F1F0EA01F5CFD383C2834081518172
:102A5000840F951FC817D90759F488819981840F6D
:102A6000951F0296918380838A819B8193838283C1
:102A70002115310529F4F0932407E09323073DC085
:102A8000E901FB83EA8349915991C40FD51FEC17E3
:102A9000FD0761F480819181840F951F0296E90101
:102AA00099838883828193819B838A83E0E0F0E02D
:102AB00012968D919C911397009719F0FD01DC01FE
:102AC000F7CF8D919C9111979D012E5F3F4F820F03
:102AD000931F20912107309122072817390769F4A5
:102AE000309729F4109224071092230702C0138212
:102AF0001282B0932207A0932107DF91CF9108950E
:102B00006F927F928F929F92AF92BF92CF92DF92FD
:102B1000EF92FF920F931F93CF93DF93009789F467
:102B2000CB01DF91CF911F910F91FF90EF90DF903C
:102B3000CF90BF90AF909F908F907F906F900C94AC
:102B40005F14FC01E60FF71F9C0122503109E217C8
:102B5000F30708F4A9C0EC01D9010D911C9111975C
:102B600006171707B0F00530110508F49BC0C8011F
:102B700004978617970708F495C002501109061BA1
:102B8000170B019311936D937C93CF010E94F7145F
:102B900089C05B01A01AB10A4C01800E911EA09160
:102BA0002307B0912407612C712CE12CF12C109794
:102BB00009F446C08D919C911197A815B905B1F5FE
:102BC0006C0142E0C40ED11CCA14DB0478F14C0144
:102BD0008A189B08640142E0C40ED11C1296BC9076
:102BE00012971396AC91B5E0CB16D10440F0B282A7
:102BF000A38391828082D9016D937C9309C00E5F7B
:102C00001F4F800F911FF90191838083EB2DFA2FC5
:102C1000E114F10431F0D7011396FC93EE9312976F
:102C200041C0F0932407E09323073CC0681679065F
:102C300008F43C017D0112960D90BC91A02DB7CFF8
:102C4000809121079091220788169906E1F4661673
:102C50007706C8F48091010290910202009741F436
:102C60008DB79EB74091050250910602841B950BCB
:102C7000E817F907C8F4F0932207E0932107F90158
:102C8000718360830FC0CB010E945F147C010097A9
:102C900059F0A801BE010E946A16CE010E94F714E5
:102CA000C70104C0CE0102C080E090E0DF91CF9167
:102CB0001F910F91FF90EF90DF90CF90BF90AF905A
:102CC0009F908F907F906F90089581E090E0F894AE
:102CD0000C948316FB01DC0102C001900D9241505F
:102CE0005040D8F70895FB01DC018D9101908019C7
:102CF0000110D9F3990B0895FB01DC0101900D92AD
:102D00000020E1F7089511E0C4E9D1E000E006C039
:102D1000802FFE010E943D132196011DC539D10768
:0A2D200080E00807A9F7F894FFCF40
:102D2A00FF000025072000363738391B1D1A1C0002
:102D3A000000007C0A4F0A7703230A470A330A2451
:102D4A000A00000000D002290253021D0384026215
:102D5A00027602000000007C0329027703760361F1
:102D6A0076616E63657200746F75726E65720000CB
:00000001FF
