:100000000C9461010C9492010C9492010C94920155
:100010000C9492010C9492010C9492010C94920114
:100020000C9492010C9431090C9431090C9431090F
:100030000C9492010C9401040C9492010C94920182
:100040000C9492010C9479060C9492010C949201F8
:100050000C9492010C9492010C9492010C94B703AD
:100060000C9492010C9470050C9446050C9492012A
:100070000C9492010C9492010C9492010C949201B4
:100080000C9492010C9492010C9492010C949201A4
:100090000C9492010C9492010C9492010C943B09E3
:1000A0000C9492010C9492010C9492010C94920184
:1000B0000C9492010C9492010C9492010C949A0568
:1000C0000C9492010C9492010C9492010C941C05D6
:1000D0000C94F2040C9492010C94C8040C949E04A9
:1000E0000C949201880A8B0A7A0A7E0A840AC20A50
:1000F0008F0A930A990A9D0AA10AA70AAB0AAF0AB6
:10010000C20AB50AB90ABD0A0C94B0070C94A70A32
:100110000C94C1070C94880A0C946D030C94AB0AE0
:100120000C94DD070C948B0A0C94BE010C949D0A70
:100130000C94840A0C94D5070C94EF010C94B90A22
:100140000C94990A0C947A0A0C94A10A0C940A084B
:100150000C94C20A0C94B50A0C94E1010C94E102CF
:100160000C94B2070C94AF070C94BD0A0C94F20DDA
:100170000C9494010C94E2020C947E0A0C94AF0A45
:100180000C94EC0D0C94B1070C9488020C943B0277
:100190000C94930A0C948F0A0C94CD01000020005B
:1001A0002300260029002C002F003200000100004F
:1001B0000301060109010200002100240027002A92
:1001C000002D003000330001010000040107010A86
:1001D0000100002200250028002B002E00310034F1
:1001E0000002010000050108010B010505050507D6
:1001F0000508080808020202020A0A0808040404A2
:1002000004010101010101010103030303030303CD
:1002100003040707070C0C0C0C0C0C0C0C0202025C
:100220000206060606060606060B0B0B0B0B0B0B4F
:100230000B010210202008081020401020408002EE
:10024000010201080402010102040810204080801C
:1002500040201008040201800402018040201008A0
:100260000402010804020101020408102040800178
:100270000204081020408000000A0B02090C0D0E39
:100280000807030401000000000000000000000057
:10029000000000000000000000000000000000005E
:1002A000000000121110000000000000000000001B
:1002B0000000000000000000000000000000F20D3F
:1002C000EC0D11241FBECFEFD1E2DEBFCDBF00E0A9
:1002D0000CBF12E0A0E0B2E0ECEEF4E200E00BBFF5
:1002E00002C007900D92A037B107D9F727E0A0E729
:1002F000B2E001C01D92A534B207E1F711E0C0E6FB
:10030000D1E000E006C021970109802FFE010E9484
:100310004110CF35D10780E00807A9F70E942E0BC6
:100320000C9464120C940000CF92DF92EF92FF9233
:100330000F931F93CF93DF936C017A018B01C0E081
:10034000D0E0CE15DF0581F0D8016D918D01D60189
:10035000ED91FC910190F081E02DC6011995892B5A
:1003600011F02196EECF7E01C701DF91CF911F9151
:100370000F91FF90EF90DF90CF900895FC01538D87
:10038000448D252F30E0842F90E0821B930B54176F
:1003900010F0CF96089501970895FC01918D828DFC
:1003A000981761F0828DDF01A80FB11D5D968C91C9
:1003B000928D9F5F9F73928F90E008958FEF9FEFD4
:1003C0000895FC01918D828D981731F0828DE80F90
:1003D000F11D858D90E008958FEF9FEF0895FC014A
:1003E000918D228D892F90E0805C9F4F821B910917
:1003F0008F739927089580EB92E00E94EF0121E02E
:10040000892B09F420E0822F08958DE493E00E9467
:10041000EF0121E0892B09F420E0822F08958AEE74
:1004200093E00E94EF0121E0892B09F420E0822F64
:100430000895FC01848DDF01A80FB11DA35ABF4FA1
:100440002C91848D90E001968F739927848FA689D3
:10045000B7892C93A089B1898C91837080648C9327
:10046000938D848D981306C00288F389E02D8081D6
:100470008F7D80830895EF92FF920F931F93CF9308
:10048000DF93EC0181E0888F9B8D8C8D981305C0E4
:10049000E889F989808185FD26C0F62E0B8D10E054
:1004A0000F5F1F4F0F731127E02E8C8DE8120CC0C9
:1004B0000FB607FCFACFE889F989808185FFF5CF6F
:1004C000CE010E941902F1CF8B8DFE01E80FF11DC4
:1004D000E35AFF4FF0829FB7F8940B8FEA89FB89AC
:1004E000808180620AC09FB7F894EE89FF8960839B
:1004F000E889F98980818370806480839FBF81E06F
:1005000090E0DF91CF911F910F91FF90EF900895B0
:10051000CF93DF93EC01888D8823C9F0EA89FB89AA
:10052000808185FD05C0A889B9898C9186FD0FC0A1
:100530000FB607FCF5CF808185FFF2CFA889B98976
:100540008C9185FFEDCFCE010E941902E7CFDF919C
:10055000CF910895E0E0F0E0199480E090E0892BDD
:1005600021F00E940F02811119C080E090E0892BD8
:1005700041F080E090E0892B21F00E940000811181
:1005800010C00E94050281110FC080E090E0892B0D
:1005900081F00E94FB0181110AC008950E940000B1
:1005A000E4CF0E940000EDCF0E94AA02EECF0C948F
:1005B000000008958EBD00000DB407FEFDCF8EB57E
:1005C0000895089580E090E00895CF93DF93EC01C3
:1005D00060E088810E94C30A88E90E94DA0280E014
:1005E0000E94DA0280E00E94DA0280E00E94DA02D1
:1005F00080E00E94DA0261E088810E94C30A8BE8F1
:1006000091E00197F1F760E088810E94C30A80EED3
:100610000E94DA0261E08881DF91CF910C94C30AD5
:100620001F93CF93DF93EC01162F88818C3008F055
:100630004DC061E0812F0E94F20AE88195E09E9F03
:10064000F0011124E75AFA4F1F738081807C182B28
:1006500010831382E8819E9FF0011124E75AFA4F1C
:10066000148288816CE00E9435109CE0899FA00173
:10067000112420E030E095E0BA01620F731F969FCD
:10068000F001979FF00D1124E75AFA4F608166FD43
:1006900013C02F5F3F4F2C30310571F781110CC013
:1006A0001092800082E08093810010928500109269
:1006B000840086BB80936F00E88185E0E89FF001AD
:1006C0001124E75AFA4F8081806480838881DF910A
:1006D000CF911F9108950E944F120F931F93CF93B4
:1006E000DF938C01C62FD62FD07FD1606D2F0E9453
:1006F000F0086D2FC8010E94030980E1C89FB00176
:100700001124C62FC1606C2FC8010E94F0086C2F05
:10071000C8010E94030981E090E0DF91CF911F9111
:100720000F9108953FB7F8948091950290919602A9
:10073000A0919702B091980226B5A89B05C02F3FC3
:1007400019F00196A11DB11D3FBFBA2FA92F982FF7
:100750008827820F911DA11DB11DBC01CD0142E072
:10076000660F771F881F991F4A95D1F708951F922A
:100770000F920FB60F9211242F933F938F939F9355
:10078000AF93BF938091910290919202A0919302B6
:10079000B09194023091900223E0230F2D3720F482
:1007A0000196A11DB11D05C026E8230F0296A11DCB
:1007B000B11D209390028093910290939202A09396
:1007C0009302B09394028091950290919602A09129
:1007D0009702B09198020196A11DB11D80939502D8
:1007E00090939602A0939702B0939802BF91AF9115
:1007F0009F918F913F912F910F900FBE0F901F905F
:1008000018951F920F920FB60F9211240BB60F92EC
:100810002F933F934F935F936F937F938F939F9308
:10082000AF93BF93EF93FF9380918B0290918C02D3
:10083000A0918D02B0918E02892B8A2B8B2B49F1CE
:1008400090918A0280910000892780930000809116
:100850008B0290918C02A0918D02B0918E0218169D
:1008600019061A061B060CF056C080918B02909157
:100870008C02A0918D02B0918E020197A109B1095D
:1008800080938B0290938C02A0938D02B0938E0282
:1008900042C080910002E6EBF1E0E4919FEF90937B
:1008A0000002E230C9F050F4EE2399F0E13081F516
:1008B00090916F009D7F90936F002AC0E43019F1F2
:1008C000E0F0E53029F5909173009D7F90937300DF
:1008D0001FC010926E001CC0909170009D7F90937D
:1008E000700091E09093B0009091B100987F946077
:1008F0009093B1001092B3000BC0909171009D7F56
:100900009093710005C0909172009D7F909372004A
:1009100060E00E94C30AFF91EF91BF91AF919F9158
:100920008F917F916F915F914F913F912F910F9098
:100930000BBE0F900FBE0F901F9018951F920F9235
:100940000FB60F9211240BB60F922F933F934F9334
:100950005F936F937F938F939F93AF93BF93EF9327
:10096000FF9380EB92E00E941902FF91EF91BF91FB
:10097000AF919F918F917F916F915F914F913F9137
:100980002F910F900BBE0F900FBE0F901F901895D8
:100990001F920F920FB60F9211240BB60F922F9346
:1009A0003F934F935F936F937F938F939F93AF93F7
:1009B000BF93EF93FF9380EB92E00E941809FF91A1
:1009C000EF91BF91AF919F918F917F916F915F91C7
:1009D0004F913F912F910F900BBE0F900FBE0F9034
:1009E0001F9018951F920F920FB60F9211240BB6FD
:1009F0000F922F933F934F935F936F937F938F93B8
:100A00009F93AF93BF93EF93FF938DE493E00E9486
:100A10001902FF91EF91BF91AF919F918F917F91BB
:100A20006F915F914F913F912F910F900BBE0F905F
:100A30000FBE0F901F9018951F920F920FB60F9236
:100A400011240BB60F922F933F934F935F936F93A5
:100A50007F938F939F93AF93BF93EF93FF938DE417
:100A600093E00E941809FF91EF91BF91AF919F9180
:100A70008F917F916F915F914F913F912F910F9047
:100A80000BBE0F900FBE0F901F9018951F920F92E4
:100A90000FB60F9211240BB60F922F933F934F93E3
:100AA0005F936F937F938F939F93AF93BF93EF93D6
:100AB000FF938AEE93E00E941902FF91EF91BF919C
:100AC000AF919F918F917F916F915F914F913F91E6
:100AD0002F910F900BBE0F900FBE0F901F90189587
:100AE0001F920F920FB60F9211240BB60F922F93F5
:100AF0003F934F935F936F937F938F939F93AF93A6
:100B0000BF93EF93FF938AEE93E00E941809FF9141
:100B1000EF91BF91AF919F918F917F916F915F9175
:100B20004F913F912F910F900BBE0F900FBE0F90E2
:100B30001F9018951F920F920FB60F9211240BB6AB
:100B40000F922F933F934F935F936F937F938F9366
:100B50009F93AF93BF93CF93DF93EF93FF93209136
:100B6000880430E0F901E958FD4F8491F901EF5C08
:100B7000FD4FD491F901E551FE4FC491CC2379F09A
:100B800081110E946D0AEC2FF0E0EE0FFF1FE4567A
:100B9000FE4FA591B491EC91ED2381E009F480E042
:100BA00020918C0430918D042F5F3F4F30938D0442
:100BB00020938C0490918B04953618F096E09093D6
:100BC0008704909187049430C9F128F4923069F039
:100BD0009330D1F05EC0953009F451C0963009F0E1
:100BE00058C091E09093580551C0811152C0209196
:100BF0008C0430918D042436310508F442C01092E3
:100C0000580510928B041CC0813009F042C0E0915D
:100C10008B0491E09E0F90938B04F0E020918C0464
:100C200030918D04EE0FFF1FE957FB4F308727836C
:100C300010928D0410928C0494E029C0811117C089
:100C4000E0918B0491E09E0F90938B04F0E0209153
:100C50008C0430918D04EE0FFF1FE957FB4F308756
:100C6000278310928D0410928C0493E010C0209181
:100C70008C0430918D042536310558F007C0811160
:100C800008C010928D0410928C0403C095E09093DC
:100C9000870490918A049923B9F081110AC0809148
:100CA0008904882321F08091890461E009C02F9A8A
:100CB0000BC080918904882331F08091890460E021
:100CC0000E94C30A01C02F98FF91EF91DF91CF914D
:100CD000BF91AF919F918F917F916F915F914F9154
:100CE0003F912F910F900BBE0F900FBE0F901F9052
:100CF00018951F920F920FB60F9211240BB60F92F8
:100D00002F933F934F935F936F937F938F939F9313
:100D1000AF93BF93EF93FF938091890287FF05C044
:100D2000109285001092840016C020918902022E34
:100D3000000C330B8091950590E0281739075CF47F
:100D40003091890225E03203F0011124E75AFA4F6D
:100D5000808186FD15C0809189028F5F8093890212
:100D600020918902022E000C330B8091950590E0B2
:100D70002817390794F4809189028C302CF10DC02A
:100D8000309189023203F0011124E75AFA4F808131
:100D900060E08F730E94C30ADECF8091840090913F
:100DA000850084349C4918F480E49CE905C0809156
:100DB0008400909185000496909389008093880028
:100DC0008FEF809389022AC0409184005091850062
:100DD0003091890225E03203F0011124E75AFA4FDD
:100DE00081819281840F951F909389008093880060
:100DF000309189023203F0011124E75AFA4F8081C1
:100E000086FF0CC0309189023203F0011124E75AA9
:100E1000FA4F808161E08F730E94C30AFF91EF91C6
:100E2000BF91AF919F918F917F916F915F914F9102
:100E30003F912F910F900BBE0F900FBE0F901F9000
:100E400018953091A302313208F04BC08091A10275
:100E50008111FCCF90917E0622E02093A10221E037
:100E60002093A0022FEF20935C0610925B06309334
:100E70005A06EEE5F6E0AAE3B6E020E0321721F0EC
:100E800041914D932F5FFACF109239062091390688
:100E9000990F922B9093390690919F02913061F4B3
:100EA00010929F02909139069093BB009091BC00E4
:100EB00093FDF8CF95EC01C095EE9093BC00909116
:100EC000A1029230E1F390915C069F3F79F080910E
:100ED0005C06803241F080915C06803331F084E022
:100EE00005C081E003C082E001C083E01092A2024D
:100EF0001092A30210925D06089585ED8093BC00C8
:100F00008091BC0084FDFCCF1092A1020895409115
:100F10001406262F30E0240F311D21323105DCF478
:100F20002091A1022430C9F4FC0180E090E08617F2
:100F300058F4309114062191DC01AC50BA4FA30F44
:100F4000B11D2C930196F3CF80911406680F609326
:100F5000140680E0089581E0089582E008950895E0
:100F600008950895E0919A0280919902E81730F46B
:100F7000F0E0EC52FA4F808190E008958FEF9FEF00
:100F8000089590919A0280919902981750F4E92F50
:100F9000F0E0EC52FA4F208130E09F5F90939A028C
:100FA00002C02FEF3FEFC90108958091990290E0B0
:100FB00020919A02821B91090895CF92DF92EF92BD
:100FC000FF920F931F93CF93DF937C01CB018A0194
:100FD00020915D06222389F0EB016B01C40ED51E22
:100FE000CC15DD0569F06991D701ED91FC91019077
:100FF000F081E02DC7011995F3CF642F0E94870778
:10100000C801DF91CF911F910F91FF90EF90DF907A
:10101000CF900895CF93DF931F92CDB7DEB769834A
:1010200020915D062223D1F02091A302203240F0CE
:1010300021E030E0FC013383228380E090E015C0A2
:101040008091A202E82FF0E0E25AF94F9981908353
:101050008F5F8093A2028093A30205C061E0CE015E
:1010600001960E94870781E090E00F90DF91CF9179
:101070000895EAEEF3E0A089B18982E08C93A4851B
:10108000B5851C92A685B7858FEC8C93108EA489AC
:10109000B58986E08C93A289B3898C9180618C9309
:1010A000A289B3898C9188608C93A289B3898C9131
:1010B00080688C930288F389E02D80818F7D808306
:1010C00008958F929F92AF92BF92CF92DF92EF924C
:1010D000FF920E9492034B015C0188EEC82E83E0D0
:1010E000D82EE12CF12C0E949203DC01CB0188194F
:1010F0009909AA09BB09883E9340A105B10598F357
:1011000021E0C21AD108E108F10888EE880E83E0D8
:10111000981EA11CB11CC114D104E104F10419F7FB
:10112000FF90EF90DF90CF90BF90AF909F908F9007
:101130000895009769F0FC0101900020E9F73197CC
:10114000AF01481B590BBC018AEE93E00C9494014B
:1011500080E090E00895CF93DF930E949908EC011E
:101160008CE592E00E9499088C0F9D1FDF91CF9132
:1011700008950F931F93CF93DF93162F072FCDE979
:10118000D5E09C8521E020935D0690937E06109229
:10119000A2021092A302AA85BB85ED91FC91119742
:1011A0000190F081E02D682FCD0119958A859B85EE
:1011B000DC01ED91FC910190F081E02D602F1995FB
:1011C0008A859B85DC01ED91FC910190F081E02DF9
:1011D000612F1995DF91CF911F910F910C942107E9
:1011E000FC01248131E030935D0620937E0610924D
:1011F000A2021092A3028485682B84EA92E00E94E6
:101200000A080C9421070F931F93CF938C01C62FCC
:1012100064600E94F0086C2F6B7FC8010E94F00888
:1012200083EC90E00197F1F7CF911F910F91089512
:10123000FC01A089B1898C91A689B78982FD0FC074
:101240009C91818D8F5F8F73228D821749F0218D44
:10125000DF01A20FB11D5D969C93818F08958C9143
:1012600008951F920F920FB60F9211240F900FBE88
:101270000F901F9018951F920F920FB60F92112486
:101280000BB60F922F933F934F935F936F937F9380
:101290008F939F93AF93BF93EF93FF938091B90088
:1012A000887F803609F49CC068F5883209F45BC0F9
:1012B00090F4803109F454C038F4882309F4F6C05E
:1012C000883009F44DC0F6C0883109F44CC0803232
:1012D00009F45DC0EFC0803409F468C048F480337D
:1012E00009F455C0883309F0E5C080935C06D8C086
:1012F000803509F44FC0883509F45DC0883409F0A1
:10130000D9C0D6C0883909F4C7C0A8F4883709F411
:1013100067C038F4883609F463C0803709F460C0C8
:10132000C9C0883809F4B8C0803909F45FC0803872
:1013300009F0C0C05BC0803B09F486C038F4803A35
:1013400009F466C0883A09F47FC0B4C0803C09F44F
:10135000A7C0883C09F4A4C0883B09F48AC0AAC08D
:101360008091390610C090915B0680915A069817BB
:1013700070F5E0915B0681E08E0F80935B06F0E0F4
:10138000E65CF94F80818093BB0085EC86C080933A
:101390005C068EC0E0915B0681E08E0F80935B0659
:1013A0008091BB00F0E0E65CF94F808390915B0692
:1013B00080915A066EC0E0915B0681E08E0F8093AB
:1013C0005B068091BB00F0E0E65CF94F8083809182
:1013D000A00281116DC081E080939F0284EA61C008
:1013E00083E08093A10210923606CFCF809136061B
:1013F000803208F051C0E091360681E08E0F809374
:1014000036068091BB00F0E0EA5EF94F8083BDCFE5
:1014100085EC8093BC001092A10280913606803248
:1014200030F4E0913606F0E0EA5EF94F1082609108
:10143000360670E0E0919D02F0919E0286E196E012
:1014400019951092360636C084E08093A10210925E
:10145000150610921406E0919B02F0919C021995DA
:1014600080911406811105C081E0809314061092CA
:10147000F405E091150681E08E0F80931506F0E0EB
:10148000EC50FA4F80818093BB00909115068091BB
:101490001406981708F479CF85E88093BC000AC039
:1014A00085EC8093BC001092A10204C010925C06EF
:1014B0000E947D07FF91EF91BF91AF919F918F9116
:1014C0007F916F915F914F913F912F910F900BBE44
:1014D0000F900FBE0F901F90189590E0FC01319770
:1014E000E231F10508F04EC08827EE58FF4F8F4FCC
:1014F0000C944110809180008F7703C08091800010
:101500008F7D80938000089580918000877FF9CF40
:1015100084B58F7702C084B58F7D84BD0895809196
:10152000B0008F7703C08091B0008F7D8093B000B2
:101530000895809190008F7707C0809190008F7DF3
:1015400003C080919000877F8093900008958091E0
:10155000A0008F7707C08091A0008F7D03C080918D
:10156000A000877F8093A0000895809120018F774D
:1015700007C0809120018F7D03C080912001877F6B
:101580008093200108951F93CF93DF93282F30E09D
:10159000F901E958FD4F8491F901EF5CFD4FD491B9
:1015A000F901E551FE4FC491CC23C1F0162F8111F2
:1015B0000E946D0AEC2FF0E0EE0FFF1FEF52FE4F7E
:1015C000A591B4919FB7F894111104C08C91D09556
:1015D000D82302C0EC91DE2BDC939FBFDF91CF912B
:1015E0001F910895CF93DF9390E0FC01EF5CFD4FD6
:1015F0002491FC01E551FE4F8491882361F190E034
:10160000880F991FFC01E954FE4FC591D491FC014C
:10161000EF52FE4FA591B491611109C09FB7F894A4
:101620008881209582238883EC912E230BC0623021
:1016300061F49FB7F8948881322F30958323888393
:10164000EC912E2B2C939FBF06C08FB7F894E881A6
:101650002E2B28838FBFDF91CF910895CF93DF93F7
:10166000CDB7DEB7A1970FB6F894DEBF0FBECDBFE2
:10167000789484B5826084BD84B5816084BD85B56D
:10168000826085BD85B5816085BD80916E00816079
:1016900080936E001092810080918100826080931F
:1016A0008100809181008160809381008091800021
:1016B0008160809380008091B10084608093B1004C
:1016C0008091B00081608093B00080919100826031
:1016D000809391008091910081608093910080912E
:1016E00090008160809390008091A100826080933F
:1016F000A1008091A10081608093A1008091A00051
:1017000081608093A00080912101826080932101FB
:10171000809121018160809321018091200181606D
:101720008093200180917A00846080937A00809178
:101730007A00826080937A0080917A008160809341
:101740007A0080917A00806880937A001092C100BC
:101750000E94390861E080919E050E94F20A60E0D3
:1017600080919E050E94C30A60E080919D050E94C1
:10177000F20A84EA92E09093A8058093A70510925C
:101780009A02109299021092A2021092A302109251
:10179000A10281E08093A00210929F0261E084E1A7
:1017A0000E94C30A61E085E10E94C30A8091B900EA
:1017B0008E7F8093B9008091B9008D7F8093B900AE
:1017C00088E48093B80085E48093BC008FEA97E0BA
:1017D00090939C0280939B0280EB97E090939E02F3
:1017E00080939D0280E090E1A0E0B0E08093AA05A4
:1017F0009093AB05A093AC05B093AD058AE090E063
:10180000A0E0B0E08093AE059093AF05A093B00543
:10181000B093B10580E090E0A0E0B0E48093B20521
:101820009093B305A093B405B093B50560E070E163
:1018300085E00E94B9086FE979E380E00E94B90869
:101840000DE915E07801512CB0E26B2EB2E07B2E51
:1018500086E6882E82E0982E9BECC92E97E0D92E42
:10186000F70194818281F801818F928F61E00E945B
:10187000F20A61E0F801828D0E94F20AF701908578
:1018800086815801FDE1AF0EB11CF801858F968F5E
:1018900061E00E94F20A60E0F801868D0E94F20A7F
:1018A00061E0F801858D0E94C30A4FB6F8948091DB
:1018B0008F02811126C0F3018491F4012491E82F55
:1018C000F0E0EE0FFF1FE954FE4FA591B4919C91FB
:1018D000822F892321F461E085E30E94C30A61E03D
:1018E00085E30E94F20A8CB580618CBD8CB5806462
:1018F0008CBD61E084E30E94F20A61E083E30E9410
:10190000F20A80918F028F5F80938F024FBEC601D3
:101910000197F1F760E0F801858D0E94C30A88E81D
:101920000E94DA0283E00E94DA0261E0F801858D0C
:101930000E94C30AC6010197F1F7C5010E94E502A2
:101940005394FFEFEF1AFF0A0E5F1F4F22E052126F
:1019500087CFE2ECEE2EE5E0FE2E06EC15E060E02F
:10196000F70181917F010E94F20A0E151F05B9F758
:101970006EEBE62E65E0F62E78ECA72E75E0B72E1E
:101980006801FFEFCF1ADF0AF801608170E0C8013B
:1019900008960E941003F60195818381F701828BDE
:1019A000938B60E00E94F20A61E0F70183890E9454
:1019B000F20A60E0F70183890E94C30AF2E0EF0EA9
:1019C000F11C8601AC14BD04D9F6F89410922001E4
:1019D00089E08093210180E293E090932901809334
:1019E0002801109225011092240182E08093730057
:1019F00078948093870410928B048091880460E02F
:101A00000E94F20A6091C60570E08EEC95E00E949B
:101A100010038091C805883320F48091C90587336D
:101A200028F48FE392E00E94AB084AC00091CE05F3
:101A30000C3008F045C025E0029F80011124075AB0
:101A40001A4FF801838128E830E06901C81AD108EB
:101A500087FDD394CC0CDD1CCC0CDD1C0D2C000CB4
:101A6000EE08FF08848128E532E0281B310987FD54
:101A70003395220F331F220F331FC901330FAA0BD7
:101A8000BB0B9C01AD012C193D094E095F09A7E371
:101A9000B0E00E94F90F24EB30E040E050E00E94FB
:101AA000DA0FC20ED31EE41EF51EF6E0CF1AD108DF
:101AB000CC0CDD1C8FB7F894F801D282C1828FBFA5
:101AC0000E9439088CEB95E00E94E5028AEB95E0D4
:101AD0000E94E50261E08DE00E94F20A8AE0882E11
:101AE000912CA12CB12C8091BE05863308F0865331
:101AF00090917B00282F2870977F922B90937B00EA
:101B00008770806480937C0080917A0080648093E9
:101B10007A0080917A0086FDFCCF00917800809158
:101B2000790010E0182B6801012E000CEE08FF0868
:101B300017FF20C06DE28AEE93E00E943B0222274D
:101B40003327A9012C193D094E095F0919A2CE01BD
:101B500081967C01CA01B901A50194010E9404107B
:101B6000605DF70162937F01211531054105510543
:101B700089F715C0A701960119A2CE0181967C01B3
:101B8000CA01B901A50194010E940410605DF7012A
:101B900062937F01211531054105510589F7C70180
:101BA0000E9499088CE592E00E9499080B5F110948
:101BB000093F110530F48FE592E00E94AB0861E027
:101BC00001C060E08DE00E94C30A0E9461080E948B
:101BD00061080E94AD0287CF80919605909197058C
:101BE0000C94E1101092A7021092A60288EE93E0E6
:101BF000A0E0B0E08093A8029093A902A093AA026B
:101C0000B093AB0223E132E03093A5022093A4020B
:101C10001092B3021092B2028093B4029093B50274
:101C2000A093B602B093B70225E232E03093B1023E
:101C30002093B00245E351E05093BD024093BC02B3
:101C400044E351E05093BF024093BE0240E351E0B1
:101C50005093C1024093C00241E351E05093C3024C
:101C60004093C20242E351E05093C5024093C40244
:101C700046E351E05093C7024093C6021092C90256
:101C80001092CA021092CB021092CC021092500312
:101C900010924F038093510390935203A0935303E8
:101CA000B093540330934E0320934D0345ED50E021
:101CB00050935A034093590344ED50E050935C0312
:101CC00040935B0340ED50E050935E0340935D030F
:101CD00041ED50E05093600340935F0342ED50E0CC
:101CE000509362034093610346ED50E050936403C8
:101CF0004093630310926603109267031092680387
:101D0000109269031092ED031092EC038093EE039E
:101D10009093EF03A093F003B093F1033093EB03A0
:101D20002093EA0385EC90E09093F7038093F60309
:101D300084EC90E09093F9038093F80380EC90E0BA
:101D40009093FB038093FA0381EC90E09093FD0362
:101D50008093FC0382EC90E09093FF038093FE035A
:101D600086EC90E0909301048093000410920304A9
:101D70001092040410920504109206048091070248
:101D800090910802A0910902B0910A028093BE05C9
:101D90009093BF05A093C005B093C10580910B023D
:101DA00090910C02A0910D02B0910E028093C20599
:101DB0009093C305A093C405B093C50584E08093B8
:101DC000C60587E08093C7051092C80584EB809311
:101DD000C90586E18093CA0588E18093CB0587E138
:101DE0008093CC0589E18093CD05E0919505EC3099
:101DF00020F08FEF8093CE0510C081E08E0F80938E
:101E00009505E093CE0585E0E89FF0011124E75A9F
:101E1000FA4F88EB9BE092838183E0919505EC304B
:101E200020F08FEF8093CF0510C081E08E0F80935C
:101E30009505E093CF0585E0E89FF0011124E75A6E
:101E4000FA4F88EB9BE0928381838CE080939D0521
:101E500084E280939E0586E080939F0585E08093D1
:101E6000A0058FE18093A1058EE18093A20583E216
:101E70008093A30582E28093A40585E48093A50561
:101E800084E48093A60580E48093A9051092AE05B2
:101E90001092AF051092B0051092B1051092B205E4
:101EA0001092B3051092B4051092B505E3E8F6E080
:101EB00021E437E08FEF9FEFDC011282138214825E
:101EC0001582168217821086118683879487A587CC
:101ED000B6878787908BA18BB28B12861182108276
:101EE00073962E173F0749F78DE090E00E94491046
:101EF000FC011382128287E392E091838083118632
:101F000087E2848384E1828784E083871486F09368
:101F10008006E0937F06109281061092820685E289
:101F20008093880410928A04109297051092960567
:101F3000109299051092980510929B0510929A059F
:101F400061E070E080E090E00E946A11009789F003
:101F50009093970580939605109299051092980595
:101F600020919A0530919B05232BC1F4FC0110822E
:101F700015C08091960590919705009711F00E94E9
:101F8000E110109297051092960510929B05109201
:101F90009A051092990510929805089510929B0544
:101FA00010929A056EE572E08091960590919705E2
:101FB0000C945D12052E97FB1EF400940E94F10F05
:101FC00057FD07D00E94041007FC03D04EF40C9478
:101FD000F10F50954095309521953F4F4F4F5F4FF2
:101FE000089590958095709561957F4F8F4F9F4F85
:101FF00008950E942610A59F900DB49F900DA49F58
:10200000800D911D11240895A1E21A2EAA1BBB1B5D
:10201000FD010DC0AA1FBB1FEE1FFF1FA217B307B4
:10202000E407F50720F0A21BB30BE40BF50B661FCA
:10203000771F881F991F1A9469F76095709580958E
:1020400090959B01AC01BD01CF010895A29FB00105
:10205000B39FC001A39F700D811D1124911DB29FDC
:10206000700D811D1124911D0895991B79E004C004
:10207000991F961708F0961B881F7A95C9F78095C7
:102080000895EE0FFF1F881F8BBF0790F691E02D7C
:1020900019940F931F93CF93DF938230910510F41F
:1020A00082E090E0E0914307F091440720E030E0C7
:1020B000A0E0B0E0309719F1408151810281138195
:1020C00048175907C8F08417950769F4109731F03D
:1020D00012960C93129713961C9327C000934307F4
:1020E0001093440722C02115310519F042175307F8
:1020F00018F49A01BD01EF01DF01F801DBCF2115D2
:102100003105F9F0281B390B2430310580F48A8120
:102110009B816115710521F0FB019383828304C0CB
:102120009093440780934307FE01329644C0FE011A
:10213000E20FF31F81939193225031093983288351
:102140003AC02091410730914207232B41F420915E
:1021500003023091040230934207209341072091FB
:102160000102309102022115310541F42DB73EB72D
:102170004091050250910602241B350BE091410766
:10218000F0914207E217F307A0F42E1B3F0B28172C
:10219000390778F0AC014E5F5F4F2417350748F0E0
:1021A0004E0F5F1F509342074093410781939193D5
:1021B00002C0E0E0F0E0CF01DF91CF911F910F91DD
:1021C0000895CF93DF93009709F481C0FC01329703
:1021D00013821282A0914307B0914407109781F4B3
:1021E00020813181820F931F209141073091420756
:1021F0002817390751F5F0934207E093410767C06C
:10220000ED0120E030E0CE17DF0740F44A815B812A
:102210009E0141155105F1F0EA01F5CFD383C28348
:1022200040815181840F951FC817D90759F48881BF
:102230009981840F951F0296918380838A819B8167
:10224000938382832115310529F4F0934407E093A9
:1022500043073DC0E901FB83EA8349915991C40FCB
:10226000D51FEC17FD0761F480819181840F951FC4
:102270000296E90199838883828193819B838A8373
:10228000E0E0F0E012968D919C911397009719F081
:10229000FD01DC01F7CF8D919C9111979D012E5F7F
:1022A0003F4F820F931F209141073091420728171B
:1022B000390769F4309729F41092440710924307C4
:1022C00002C013821282B0934207A0934107DF91AC
:1022D000CF9108956F927F928F929F92AF92BF920B
:1022E000CF92DF92EF92FF920F931F93CF93DF93E2
:1022F000009789F4CB01DF91CF911F910F91FF904F
:10230000EF90DF90CF90BF90AF909F908F907F9095
:102310006F900C944910FC01E60FF71F9C012250AE
:102320003109E217F30708F4A9C0EC01D9010D91B6
:102330001C91119706171707B0F00530110508F426
:102340009BC0C80104978617970708F495C00250F0
:102350001109061B170B019311936D937C93CF0109
:102360000E94E11089C05B01A01AB10A4C01800EE5
:10237000911EA0914307B0914407612C712CE12C70
:10238000F12C109709F446C08D919C911197A815D6
:10239000B905B1F56C0142E0C40ED11CCA14DB04CE
:1023A00078F14C018A189B08640142E0C40ED11CEC
:1023B0001296BC9012971396AC91B5E0CB16D1044F
:1023C00040F0B282A38391828082D9016D937C9385
:1023D00009C00E5F1F4F800F911FF9019183808309
:1023E000EB2DFA2FE114F10431F0D7011396FC9391
:1023F000EE93129741C0F0934407E09343073CC02B
:102400006816790608F43C017D0112960D90BC9186
:10241000A02DB7CF80914107909142078816990669
:10242000E1F466167706C8F48091010290910202E9
:10243000009741F48DB79EB7409105025091060276
:10244000841B950BE817F907C8F4F0934207E09353
:102450004107F901718360830FC0CB010E944910CD
:102460007C01009759F0A801BE010E945412CE01D0
:102470000E94E110C70104C0CE0102C080E090E0DC
:10248000DF91CF911F910F91FF90EF90DF90CF9050
:10249000BF90AF909F908F907F906F90089581E054
:1024A00090E0F8940C946412FB01DC0102C00190EE
:1024B0000D9241505040D8F70895FB01DC01019086
:1024C0000D920020E1F7089511E0C0E6D1E000E0B0
:1024D00006C0802FFE010E9441102196011DC136C9
:0C24E000D10780E00807A9F7F894FFCFAF
:1024EC00FF000045072000363738391B1D1A1C0029
:1024FC000000000A08DD07E202B107D507C107B2E8
:10250C0007000000003B029401BE018802EF01CDE0
:10251C0001E101000000006D039401E202E10253AD
:10252C006572766F20616E676C65206973206F75BC
:10253C0074206F662072616E676521000D0A004C75
:10254C00616E636572206465206C2765617521007E
:00000001FF
