:100000000C9495010C94C6010C94C6010C94C60185
:100010000C94C6010C94C6010C94C6010C94C60144
:100020000C94C6010C94BD0D0C94BD0D0C94BD0D2B
:100030000C94C6010C9458040C94C6010C94C6018F
:100040000C94C6010C94CF080C94C6010C94C60104
:100050000C94C6010C94C6010C94C6010C94C00308
:100060000C94C6010C94C7050C949D050C94C60114
:100070000C94C6010C94C6010C94C6010C94C601E4
:100080000C94C6010C94C6010C94C6010C94C601D4
:100090000C94C6010C94C6010C94C6010C94C70DB7
:1000A0000C94C6010C94C6010C94C6010C94C601B4
:1000B0000C94C6010C94C6010C94C6010C94F10575
:1000C0000C94C6010C94C6010C94C6010C947305E3
:1000D0000C9449050C94C6010C941F050C94F5046E
:1000E0000C94C601100715071A0724072E07A70747
:1000F00038074007480752075C07660775077F0700
:10010000A707890793079D070A0D0D0DFC0C000D2D
:10011000060D440D110D150D1B0D1F0D230D290D81
:100120002D0D310D440D370D3B0D3F0D0C94150277
:100130000C941B0D0C941F0D0C940A0D0C94BC0216
:100140000C94000D0C9415030C9424070C94400798
:100150000C94650C0C94930C0C94C00C0C943F0DF7
:100160000C9452070C94FC0C0C94110D0C94A707E2
:100170000C943B0D0C9438070C9415070C94F20169
:100180000C942D0D0C9493070C949D070C940D0D5D
:100190000C9476030C94370D0C941A070C94E3120C
:1001A0000C94290D0C9489070C942E070C94DD12E5
:1001B0000C9401020C945C070C94310D0C94230DEB
:1001C0000C94440D0C9448070C9423020C94C80121
:1001D0000C9466070C94770C0C94670C0C94150D1A
:1001E0000C948B0C0C946F020C9475070C94680C97
:1001F0000C947F070C9416030C9410070C94660C57
:100200000C94060D0200002100240027002A002D76
:10021000003000330001010000040107010A010061
:10022000002200250028002B002E0031003400029F
:10023000010000050108010B010000200023002639
:100240000029002C002F00320000010000030106ED
:10025000010901050505050705080808080202024D
:10026000020A0A0808040404040101010101010151
:10027000010303030303030303040707070C0C0C28
:100280000C0C0C0C0C020202020606060606060600
:10029000060B0B0B0B0B0B0B0B010210202008089D
:1002A00010204010204080020102010804020101D8
:1002B00002040810204080804020100804020180C1
:1002C0000402018040201008040201080402010118
:1002D0000204081020408001020408102040800021
:1002E000000A0B02090C0D0E0807030401000000B0
:1002F00000000000000000000000000000000000FE
:1003000000000000000000000000001211100000BA
:1003100000000000000000000000000000000000DD
:10032000000000000000E312DD1211241FBECFEF19
:10033000D1E2DEBFCDBF00E00CBF12E0A0E0B2E032
:10034000EAEEF2E300E00BBF02C007900D92AE3977
:10035000B107D9F727E0AEE9B2E001C01D92A3379B
:10036000B207E1F711E0C4E9D1E000E006C021974F
:100370000109802FFE010E941D16C339D10780E0BC
:100380000807A9F70E9411100C9463190C9400003F
:10039000CF92DF92EF92FF920F931F93CF93DF9351
:1003A0006C017A018B01C0E0D0E0CE15DF0581F051
:1003B000D8016D918D01D601ED91FC910190F081F4
:1003C000E02DC6011995892B11F02196EECF7E0103
:1003D000C701DF91CF911F910F91FF90EF90DF90B8
:1003E000CF900895FC01538D448D252F30E0842F4C
:1003F00090E0821B930B541710F0CF96089501974D
:100400000895FC01918D828D981761F0828DDF0136
:10041000A80FB11D5D968C91928D9F5F9F73928FF7
:1004200090E008958FEF9FEF0895FC01918D828DEC
:10043000981731F0828DE80FF11D858D90E00895B9
:100440008FEF9FEF0895FC01918D228D892F90E011
:10045000805C9F4F821B91098F739927089589E8CB
:1004600093E00E94230221E0892B09F420E0822FEF
:10047000089586E294E00E94230221E0892B09F48A
:1004800020E0822F089583EC94E00E94230221E073
:10049000892B09F420E0822F0895FC01848DDF016F
:1004A000A80FB11DA35ABF4F2C91848D90E00196E7
:1004B0008F739927848FA689B7892C93A089B189D6
:1004C0008C91837080648C93938D848D981306C077
:1004D0000288F389E02D80818F7D80830895EF92DB
:1004E000FF920F931F93CF93DF93EC0181E0888FEE
:1004F0009B8D8C8D981305C0E889F989808185FDD5
:1005000026C0F62E0B8D10E00F5F1F4F0F731127C3
:10051000E02E8C8DE8120CC00FB607FCFACFE889EC
:10052000F989808185FFF5CFCE010E944D02F1CF80
:100530008B8DFE01E80FF11DE35AFF4FF0829FB74C
:10054000F8940B8FEA89FB89808180620AC09FB78B
:10055000F894EE89FF896083E889F9898081837046
:10056000806480839FBF81E090E0DF91CF911F91F5
:100570000F91FF90EF900895CF93DF93EC01888D5A
:100580008823C9F0EA89FB89808185FD05C0A88997
:10059000B9898C9186FD0FC00FB607FCF5CF80811D
:1005A00085FFF2CFA889B9898C9185FFEDCFCE0167
:1005B0000E944D02E7CFDF91CF910895E0E0F0E097
:1005C000199480E090E0892B21F00E944302811170
:1005D00019C080E090E0892B41F080E090E0892B09
:1005E00021F00E940000811110C00E943902811187
:1005F0000FC080E090E0892B81F00E942F028111D2
:100600000AC008950E940000E4CF0E940000EDCFD0
:100610000E94DE02EECF0C94000008958EBD000013
:100620000DB407FEFDCF8EB50895089580E090E0EB
:1006300008951F93CF93DF93EC01162F88818C30A0
:1006400008F04DC061E0812F0E94510FE88195E0D4
:100650009E9FF0011124EE5CF94F1F738081807C16
:10066000182B10831382E8819E9FF0011124EE5C09
:10067000F94F148288816CE00E9411169CE0899FDA
:10068000A001112420E030E095E0BA01620F731F51
:10069000969FF001979FF00D1124EE5CF94F608159
:1006A00066FD13C02F5F3F4F2C30310571F781116C
:1006B0000CC01092800082E080938100109285002F
:1006C0001092840086BB80936F00E88185E0E89FEC
:1006D000F0011124EE5CF94F808180648083888171
:1006E000DF91CF911F9108950E9445190F931F9399
:1006F000CF93DF938C01C62FD62FD07FD1606D2F83
:100700000E947C0D6D2FC8010E948F0D80E1C89F53
:10071000B0011124C62FC1606C2FC8010E947C0D4E
:100720006C2FC8010E948F0D81E090E0DF91CF9186
:100730001F910F9108953FB7F8948091C302909153
:10074000C402A091C502B091C60226B5A89B05C0FF
:100750002F3F19F00196A11DB11D3FBFBA2FA92F40
:10076000982F8827820F911DA11DB11DBC01CD01BD
:1007700042E0660F771F881F991F4A95D1F70895A9
:100780001F920F920FB60F9211242F933F938F93C6
:100790009F93AF93BF938091BF029091C002A091AD
:1007A000C102B091C2023091BE0223E0230F2D3767
:1007B00020F40196A11DB11D05C026E8230F029665
:1007C000A11DB11D2093BE028093BF029093C00271
:1007D000A093C102B093C2028091C3029091C4025F
:1007E000A091C502B091C6020196A11DB11D8093D2
:1007F000C3029093C402A093C502B093C602BF91F6
:10080000AF919F918F913F912F910F900FBE0F90BD
:100810001F901895EF92FF920F931F93CF93DF9342
:10082000EC01198218821B821A821D821C826115BA
:100830007105B9F17B01FB0101900020E9F73197C7
:100840008F01061B170BB8016F5F7F4F80E090E0B0
:100850000E946018009759F0998388831B830A834C
:100860002C813D81232B81F4FC0110820DC08881F5
:100870009981009711F00E94D717198218821D8262
:100880001C821B821A820DC01D830C83B7018881D4
:100890009981DF91CF911F910F91FF90EF900C9470
:1008A0005C19DF91CF911F910F91FF90EF90089508
:1008B0001F920F920FB60F9211240BB60F922F9327
:1008C0003F934F935F936F937F938F939F93AF93D8
:1008D000BF93EF93FF938091B9029091BA02A091D8
:1008E000BB02B091BC02892B8A2B8B2B49F19091D2
:1008F000B802809100008927809300008091B9029E
:100900009091BA02A091BB02B091BC0218161906D0
:100910001A061B060CF056C08091B9029091BA02DB
:10092000A091BB02B091BC020197A109B1098093CB
:10093000B9029093BA02A093BB02B093BC0242C02A
:1009400080910002E4E0F2E0E4919FEF90930002D6
:10095000E230C9F050F4EE2399F0E13081F5909146
:100960006F009D7F90936F002AC0E43019F1E0F092
:10097000E53029F5909173009D7F909373001FC01F
:1009800010926E001CC0909170009D7F909370003B
:1009900091E09093B0009091B100987F9460909313
:1009A000B1001092B3000BC0909171009D7F9093A5
:1009B000710005C0909172009D7F9093720060E07D
:1009C0000E94220FFF91EF91BF91AF919F918F9164
:1009D0007F916F915F914F913F912F910F900BBE3F
:1009E0000F900FBE0F901F9018951F920F920FB689
:1009F0000F9211240BB60F922F933F934F935F9357
:100A00006F937F938F939F93AF93BF93EF93FF93D6
:100A100089E893E00E944D02FF91EF91BF91AF9161
:100A20009F918F917F916F915F914F913F912F9106
:100A30000F900BBE0F900FBE0F901F9018951F9236
:100A40000F920FB60F9211240BB60F922F933F9374
:100A50004F935F936F937F938F939F93AF93BF93C6
:100A6000EF93FF9389E893E00E94A40DFF91EF912B
:100A7000BF91AF919F918F917F916F915F914F91B6
:100A80003F912F910F900BBE0F900FBE0F901F90B4
:100A900018951F920F920FB60F9211240BB60F925A
:100AA0002F933F934F935F936F937F938F939F9376
:100AB000AF93BF93EF93FF9386E294E00E944D02C1
:100AC000FF91EF91BF91AF919F918F917F916F9126
:100AD0005F914F913F912F910F900BBE0F900FBEE2
:100AE0000F901F9018951F920F920FB60F9211241E
:100AF0000BB60F922F933F934F935F936F937F9318
:100B00008F939F93AF93BF93EF93FF9386E294E00D
:100B10000E94A40DFF91EF91BF91AF919F918F9192
:100B20007F916F915F914F913F912F910F900BBEED
:100B30000F900FBE0F901F9018951F920F920FB637
:100B40000F9211240BB60F922F933F934F935F9305
:100B50006F937F938F939F93AF93BF93EF93FF9385
:100B600083EC94E00E944D02FF91EF91BF91AF9111
:100B70009F918F917F916F915F914F913F912F91B5
:100B80000F900BBE0F900FBE0F901F9018951F92E5
:100B90000F920FB60F9211240BB60F922F933F9323
:100BA0004F935F936F937F938F939F93AF93BF9375
:100BB000EF93FF9383EC94E00E94A40DFF91EF91DB
:100BC000BF91AF919F918F917F916F915F914F9165
:100BD0003F912F910F900BBE0F900FBE0F901F9063
:100BE00018951F920F920FB60F9211240BB60F9209
:100BF0002F933F934F935F936F937F938F939F9325
:100C0000AF93BF93EF93FF93809161050E94F90E1C
:100C100020916505309166052F5F3F4F3093660543
:100C20002093650590916405953618F096E09093B1
:100C30006005909160059430C9F128F4923069F014
:100C40009330D1F05EC0953009F451C0963009F070
:100C500058C091E09093310651C0811152C020914B
:100C60006505309166052436310508F442C01092BE
:100C70003106109264051CC0813009F042C0E09139
:100C8000640591E09E0F90936405F0E02091650566
:100C900030916605EE0FFF1FE05AFA4F3087278329
:100CA000109266051092650594E029C0811117C065
:100CB000E091640591E09E0F90936405F0E020912F
:100CC000650530916605EE0FFF1FE05AFA4F308739
:100CD0002783109266051092650593E010C020915D
:100CE0006505309166052536310558F007C081113C
:100CF00008C0109266051092650503C095E09093B8
:100D00006005909163059923B9F081110AC0809123
:100D10006205882321F08091620561E009C02F9A65
:100D20000BC080916205882331F08091620560E0FC
:100D30000E94220F01C02F98FF91EF91BF91AF91B8
:100D40009F918F917F916F915F914F913F912F91E3
:100D50000F900BBE0F900FBE0F901F9018958F92A3
:100D60009F92AF92BF92CF92DF92EF92FF920F933A
:100D70001F93CF93DF938C016A017B0120E030E069
:100D80004FE753E4C701B6010E94F0144B015C0128
:100D900020E030E0A9010E943A1718161CF4C501A2
:100DA000B40103C0C501B40190580E940417EB01BF
:100DB00020E030E0A901C701B6010E943A171816D9
:100DC00014F460E001C061E0F80181810E94220F0B
:100DD000CF3FD10509F014F4DD2702C0CFEFD0E0FA
:100DE000F801108161E0812F0E94510F209709F4D2
:100DF000B1C0CF3FD10509F4AFC0E12FF0E0E1521F
:100E0000FD4FE4918E2F90E0FC013197E231F10526
:100E100008F09DC08827EE58FF4F8F4F0C941D1689
:100E200084B5806884BDC7BDA7C084B5806284BD19
:100E3000C8BDA2C080918000806880938000D0935C
:100E40008900C093880098C0809180008062809360
:100E50008000D0938B00C0938A008EC08091800068
:100E6000886080938000D0938D00C0938C0084C0F4
:100E70008091B00080688093B000C093B3007CC0C4
:100E80008091B00080628093B000C093B40074C0C1
:100E900080919000806880939000D0939900C093D7
:100EA00098006AC080919000806280939000D093F7
:100EB0009B00C0939A0060C08091900088608093EE
:100EC0009000D0939D00C0939C0056C08091A000DC
:100ED00080688093A0008091A0008F7B8093A00009
:100EE000D093A900C093A80047C08091A000806261
:100EF0008093A000D093AB00C093AA003DC0809126
:100F0000A00088608093A000D093AD00C093AC0097
:100F100033C080912001806880932001D093290103
:100F2000C093280129C08091200180628093200114
:100F3000D0932B01C0932A011FC0809120018860AB
:100F400080932001D0932D01C0932C0115C0C0388F
:100F5000D10514F460E001C061E0812FDF91CF91F1
:100F60001F910F91FF90EF90DF90CF90BF90AF90C7
:100F70009F908F900C94220FDF91CF911F910F9132
:100F8000FF90EF90DF90CF90BF90AF909F908F90A9
:100F90000895CF93DF93EC0160E088810E94220FD7
:100FA00088E90E940E0380E00E940E0380E00E9408
:100FB0000E0380E00E940E0380E00E940E0361E0B9
:100FC00088810E94220F8BE891E00197F1F760E0A1
:100FD00088810E94220F80EE0E940E0361E08881CA
:100FE000DF91CF910C94220FAF92BF92CF92DF92FC
:100FF000EF92FF920F931F93CF93DF93CDB7DEB79E
:1010000060970FB6F894DEBF0FBECDBF5C0160E005
:10101000FC0180810E94220F80E60E940E038E0157
:101020000F5F1F4F7E01F1E1EF0EF11C680180E0C0
:101030000E940E0390E0A0E0B0E0F601819391934E
:10104000A193B1936F01EE15FF0589F761E0F501FA
:1010500080810E94220F80E090E0DC01F801419144
:101060005191619171918F01BA2FA92F982F8827E3
:10107000840F951FA61FB71FEE15FF0579F79C017A
:10108000AD0166277727CB01621B730B840B950B91
:1010900060960FB6F894DEBF0FBECDBFDF91CF9143
:1010A0001F910F91FF90EF90DF90CF90BF90AF9086
:1010B0000895CF92DF92EF92FF92CF93DF93FC01DE
:1010C000C081CC3008F064C0D0E085E08C9FF00196
:1010D0008D9FF00D1124EE5CF94F838128E830E0FC
:1010E0006901C81AD10887FDD394CC0CDD1CCC0C47
:1010F000DD1C683C71053CF50D2C000CEE08FF086A
:10110000848128E532E0281B310987FD3395220FC1
:10111000331F220F331FC901330FAA0BBB0B9C01D6
:10112000AD012C193D094E095F09DB010E94D8155C
:1011300024EB30E040E050E00E94AE15C20ED31E1A
:10114000E41EF51E13C06C157D0584F0248188E52E
:1011500092E0821B910927FD9395880F991F880FB4
:10116000991F6B01861797070CF46C018FB7F894E1
:1011700095E09C9FF0019D9FF00D1124EE5CF94FCE
:1011800096E0C91AD108CC0CDD1CD282C1828FBF77
:10119000DF91CF91FF90EF90DF90CF9008951F9255
:1011A0000F920FB60F9211240BB60F922F933F930D
:1011B0004F935F936F937F938F939F93AF93BF935F
:1011C000EF93FF938091B70287FF05C010928500CF
:1011D0001092840016C02091B702022E000C330B2F
:1011E00080916E0690E0281739075CF43091B702C1
:1011F00025E03203F0011124EE5CF94F808186FD79
:1012000015C08091B7028F5F8093B7022091B7021B
:10121000022E000C330B80916E0690E028173907E0
:1012200094F48091B7028C302CF10DC03091B7024C
:101230003203F0011124EE5CF94F808160E08F737E
:101240000E94220FDECF809184009091850084342B
:101250009C4918F480E49CE905C080918400909139
:101260008500049690938900809388008FEF809387
:10127000B7022AC040918400509185003091B70296
:1012800025E03203F0011124EE5CF94F8181928157
:10129000840F951F90938900809388003091B70246
:1012A0003203F0011124EE5CF94F808186FF0CC0FF
:1012B0003091B7023203F0011124EE5CF94F8081C6
:1012C00061E08F730E94220FFF91EF91BF91AF9168
:1012D0009F918F917F916F915F914F913F912F914E
:1012E0000F900BBE0F900FBE0F901F9018952F926E
:1012F0003F924F925F926F927F928F929F92AF92A6
:10130000BF92CF92DF92EF92FF920F931F93CF93F2
:10131000DF93CDB7DEB72E970FB6F894DEBF0FBEC2
:10132000CDBF1C012A013B0109871A872B873C8707
:10133000FE86ED8683E996E00E94C90785E996E07E
:101340000E94C90727ED33EA40E75FE3C301B2011A
:101350000E94F01469837A838B839C83812C912C67
:101360005401750164018D829E82AF82B886298501
:101370003A854B855C856D817E818F8198850E9441
:101380008A1487FFD2C0F10184819581892B09F4E9
:1013900051C06CE572E0808191810E945319892BC4
:1013A00009F048C08D859E8597FD44C0892BA1F426
:1013B00083E996E00E94F4070E9491146B017C017E
:1013C00085E996E00E94F4070E9491144B015C01AC
:1013D000B301A201705847C0ED85FE85319709F031
:1013E0004FC083E996E00E94F40790958095709530
:1013F00061957F4F8F4F9F4F0E9491146B017C012D
:1014000085E996E00E94F407909580957095619526
:101410007F4F8F4F9F4F0E9491144B015C01B3018E
:10142000A2018FE896E00E94AF0649815A816B8144
:101430007C8122C083E996E00E94F4079095809514
:10144000709561957F4F8F4F9F4F0E9491146B0154
:101450007C0185E996E00E94F4070E9491144B01FB
:101460005C01B301A2018FE896E00E94AF064981BA
:101470005A816B817C81705881E996E00E94AF06A9
:10148000A5019401C701B6010E94251620E030E0B5
:1014900040E05FE30E94F0142CEA35EC47E257E3AA
:1014A0000E94F0149B01AC0169817A818B819C813F
:1014B0000E94261669837A838B839C83A7019601F9
:1014C000C501B4010E94251620E030E040E05FE352
:1014D0000E94F0142CEA35EC47E257E30E94F01426
:1014E0009B01AC01C301B2010E9426162B013C01F5
:1014F000A5019401C701B6010E94261620E030E044
:1015000048EC55E40E94921620E030E040EC51E4B3
:101510000E94F0146D837E838F83988768EC70E05F
:1015200080E090E00E948D0F22CF40E050E0BA01B1
:101530008FE896E00E94AF0640E050E060E070E87F
:1015400081E996E02E960FB6F894DEBF0FBECDBFB0
:10155000DF91CF911F910F91FF90EF90DF90CF908F
:10156000BF90AF909F908F907F906F905F904F90C3
:101570003F902F900C94AF0680917B00877F8093E3
:101580007B0080E480937C0080917A00806480936B
:101590007A0080917A0086FDFCCF809178002091BE
:1015A000790090E0922B08959091A106891720F080
:1015B0009091A206981720F48FE392E00C94EF0F1D
:1015C000682F70E087EA96E00C9459083091110377
:1015D000313208F04BC08091ED028111FCCF909127
:1015E000100322E02093ED0221E02093EC022FEF84
:1015F0002093EB021092EA023093E902E0EFF2E06E
:10160000A9ECB2E020E0321721F041914D932F5F19
:10161000FACF1092C8022091C802990F922B909392
:10162000C8029091C702913061F41092C702909164
:10163000C8029093BB009091BC0093FDF8CF95EC4D
:1016400001C095EE9093BC009091ED029230E1F3D1
:101650009091EB029F3F79F08091EB02803241F054
:101660008091EB02803331F084E005C081E003C05B
:1016700082E001C083E01092EF02109211031092F9
:10168000EE0208954F925F926F927F928F929F9297
:10169000AF92BF92EF92FF920F931F93CF93DF937E
:1016A00000D000D0CDB7DEB72B013C0149015A0173
:1016B00064E672E0CE0101960E940A04EE24EA94E8
:1016C000FE2C93018201B501A401CE0101960E9476
:1016D000770989819A810E94D71726960FB6F894C8
:1016E000DEBF0FBECDBFDF91CF911F910F91FF9055
:1016F000EF90BF90AF909F908F907F906F905F9092
:101700004F900895CF92DF92EF92FF920E94BC0A11
:10171000BC01990F880B990B0E9491142AE038E2C2
:1017200040EA5BE30E94F0146B017C012DEC3CEC81
:101730004CE950E40E943A1718161CF48CE692E02B
:1017400021C020E030E040E850E4C701B6010E942B
:101750003A1718165CF487E792E00E94EF0F4AE907
:1017600059E969E97EE38FE896E030C020E030E097
:1017700040E450E4C701B6010E943A17181694F4E9
:101780008EE792E00E94EF0F2AE939E949E15EE332
:1017900060E070E080EA90E4FF90EF90DF90CF90FF
:1017A0000C94420B20E030E040E85FE3C701B60153
:1017B0000E943A17181684F489E892E00E94EF0F0D
:1017C0004AE959E969E97EEB81E996E0FF90EF90FB
:1017D000DF90CF900C94AF0680E992E0FF90EF90FD
:1017E000DF90CF900C94EF0F8F929F92AF92BF92A9
:1017F000EF92FF920F931F93CF93DF9300D000D00F
:10180000CDB7DEB7E82E4A015B016CE572E0CE0190
:1018100001960E940A04F12C2BEA3AEA4AEA5DE3B7
:10182000C501B4010E94F0148B019C014AE959E9F9
:1018300069E17EE3CE0101960E94770989819A8150
:101840000E94D71726960FB6F894DEBF0FBECDBF05
:10185000DF91CF911F910F91FF90EF90BF90AF90CC
:101860009F908F90089585ED8093BC008091BC007F
:1018700084FDFCCF1092ED02089540915803262F6D
:1018800030E0240F311D21323105DCF42091ED02CE
:101890002430C9F4FC0180E090E0861758F43091C0
:1018A00058032191DC01A85CBC4FA30FB11D2C9300
:1018B0000196F3CF80915803680F6093580380E03E
:1018C000089581E0089582E00895089508950895A7
:1018D000E091130380911203E81730F4F0E0E85E22
:1018E000FC4F808190E008958FEF9FEF08959091D5
:1018F000130380911203981750F4E92FF0E0E85E8B
:10190000FC4F208130E09F5F9093130302C02FEFC4
:101910003FEFC90108958091120390E020911303D5
:10192000821B91090895CF92DF92EF92FF920F935D
:101930001F93CF93DF937C01CB018A012091EE02AC
:10194000222389F0EB016B01C40ED51ECC15DD05F9
:1019500069F06991D701ED91FC910190F081E02D42
:10196000C7011995F3CF642F0E943D0CC801DF9188
:10197000CF911F910F91FF90EF90DF90CF9008953E
:10198000CF93DF931F92CDB7DEB769832091EE022C
:101990002223D1F020911103203240F021E030E0E9
:1019A000FC013383228380E090E015C08091EF0238
:1019B000E82FF0E0E051FD4F998190838F5F809395
:1019C000EF028093110305C061E0CE0101960E94F1
:1019D0003D0C81E090E00F90DF91CF91089590E071
:1019E000FC013197E231F10508F04EC08827EC5731
:1019F000FF4F8F4F0C941D16809180008F7703C08E
:101A0000809180008F7D8093800008958091800078
:101A1000877FF9CF84B58F7702C084B58F7D84BD71
:101A200008958091B0008F7703C08091B0008F7DC2
:101A30008093B0000895809190008F7707C08091C7
:101A400090008F7D03C080919000877F80939000ED
:101A500008958091A0008F7707C08091A0008F7DAE
:101A600003C08091A000877F8093A000089580919B
:101A700020018F7707C0809120018F7D03C0809166
:101A80002001877F8093200108950F931F93CF93A8
:101A9000DF93162F072FC6E7D6E09C8521E0209321
:101AA000EE02909310031092EF0210921103AA8598
:101AB000BB85ED91FC9111970190F081E02D682F8D
:101AC000CD0119958A859B85DC01ED91FC910190F2
:101AD000F081E02D602F19958A859B85DC01ED91C1
:101AE000FC910190F081E02D612F1995DF91CF914C
:101AF0001F910F910C94E60AFC01248131E0309390
:101B0000EE02209310031092EF02109211038485CD
:101B1000682B8DE793E00E94C00C0C94E60A0F93AB
:101B20001F93CF938C01C62F64600E947C0D6C2F95
:101B30006B7FC8010E947C0D83EC90E00197F1F768
:101B4000CF911F910F910895FC01A089B1898C91CB
:101B5000A689B78982FD0FC09C91818D8F5F8F739D
:101B6000228D821749F0218DDF01A20FB11D5D96F4
:101B70009C93818F08958C9108951F920F920FB6B8
:101B80000F9211240F900FBE0F901F9018951F9267
:101B90000F920FB60F9211240BB60F922F933F9313
:101BA0004F935F936F937F938F939F93AF93BF9365
:101BB000EF93FF938091B900887F803609F49CC031
:101BC00068F5883209F45BC090F4803109F454C0A0
:101BD00038F4882309F4F6C0883009F44DC0F6C003
:101BE000883109F44CC0803209F45DC0EFC0803404
:101BF00009F468C048F4803309F455C0883309F00B
:101C0000E5C08093EB02D8C0803509F44FC0883519
:101C100009F45DC0883409F0D9C0D6C0883909F408
:101C2000C7C0A8F4883709F467C038F4883609F4C7
:101C300063C0803709F460C0C9C0883809F4B8C0EF
:101C4000803909F45FC0803809F0C0C05BC0803BB8
:101C500009F486C038F4803A09F466C0883A09F479
:101C60007FC0B4C0803C09F4A7C0883C09F4A4C07C
:101C7000883B09F48AC0AAC08091C80210C0909124
:101C8000EA028091E902981770F5E091EA0281E09A
:101C90008E0F8093EA02F0E0E753FD4F808180933E
:101CA000BB0085EC86C08093EB028EC0E091EA0217
:101CB00081E08E0F8093EA028091BB00F0E0E75351
:101CC000FD4F80839091EA028091E9026EC0E0911D
:101CD000EA0281E08E0F8093EA028091BB00F0E07F
:101CE000E753FD4F80838091EC0281116DC081E04C
:101CF0008093C70284EA61C083E08093ED02109272
:101D00007A03CFCF80917A03803208F051C0E091FE
:101D10007A0381E08E0F80937A038091BB00F0E01C
:101D2000E65AFC4F8083BDCF85EC8093BC001092B7
:101D3000ED0280917A03803230F4E0917A03F0E092
:101D4000E65AFC4F108260917A0370E0E09116032E
:101D5000F09117038AE593E0199510927A0336C043
:101D600084E08093ED021092590310925803E091A1
:101D70001403F0911503199580915803811105C042
:101D800081E08093580310923803E091590381E079
:101D90008E0F80935903F0E0E85CFC4F80818093C4
:101DA000BB009091590380915803981708F479CF9C
:101DB00085E88093BC000AC085EC8093BC0010923B
:101DC000ED0204C01092EB020E94330CFF91EF91E0
:101DD000BF91AF919F918F917F916F915F914F9143
:101DE0003F912F910F900BBE0F900FBE0F901F9041
:101DF0001895CF93DF93282F30E0F901E152FD4F82
:101E00008491F901E756FD4FD491F901ED5AFD4F48
:101E1000C491CC2391F081110E94EF0CEC2FF0E0E3
:101E2000EE0FFF1FE75CFD4FA591B491EC91ED2300
:101E300081E090E021F480E002C080E090E0DF915A
:101E4000CF9108951F93CF93DF93282F30E0F901AE
:101E5000E152FD4F8491F901E756FD4FD491F9010C
:101E6000ED5AFD4FC491CC23C1F0162F81110E9471
:101E7000EF0CEC2FF0E0EE0FFF1FE15EFD4FA591A0
:101E8000B4919FB7F894111104C08C91D095D823C8
:101E900002C0EC91DE2BDC939FBFDF91CF911F91AD
:101EA0000895CF93DF9390E0FC01E756FD4F249116
:101EB000FC01ED5AFD4F8491882361F190E0880F79
:101EC000991FFC01EB5FFD4FC591D491FC01E15ED0
:101ED000FD4FA591B491611109C09FB7F894888115
:101EE000209582238883EC912E230BC0623061F40D
:101EF0009FB7F8948881322F309583238883EC91A3
:101F00002E2B2C939FBF06C08FB7F894E8812E2B01
:101F100028838FBFDF91CF9108958F929F92AF92C8
:101F2000BF92CF92DF92EF92FF926B017C010E94F1
:101F30009B034B015C01C114D104E104F104F1F0F5
:101F40000E949B03DC01CB0188199909AA09BB09EE
:101F5000883E9340A105B10570F321E0C21AD10873
:101F6000E108F10888EE880E83E0981EA11CB11CE0
:101F7000C114D104E104F10419F7DDCFFF90EF9013
:101F8000DF90CF90BF90AF909F908F900895E3EC3B
:101F9000F4E0A089B18982E08C93A485B5851C9278
:101FA000A685B7858FEC8C93108EA489B58986E0C1
:101FB0008C93A289B3898C9180618C93A289B38917
:101FC0008C9188608C93A289B3898C9180688C9362
:101FD0000288F389E02D80818F7D80830895CF93DF
:101FE000DF93009779F0FC0101900020E9F7319729
:101FF000AF01481B590BBC0183EC94E00E94C8015F
:10200000EC0102C0C0E0D0E042E050E06AE972E0DA
:1020100083EC94E00E94C8018C0F9D1FDF91CF914B
:102020000895789484B5826084BD84B5816084BD50
:1020300085B5826085BD85B5816085BD80916E0066
:10204000816080936E001092810080918100826097
:1020500080938100809181008160809381008091D4
:1020600080008160809380008091B10084608093C3
:10207000B1008091B00081608093B00080919100A8
:1020800082608093910080919100816080939100A3
:10209000809190008160809390008091A100826087
:1020A0008093A1008091A10081608093A100809124
:1020B000A00081608093A0008091210182608093C4
:1020C0002101809121018160809321018091200173
:1020D00081608093200180917A00846080937A00EF
:1020E00080917A00826080937A0080917A0081608A
:1020F00080937A0080917A00806880937A001092B1
:10210000C1000E94C70F61E0809177060E94510FC5
:1021100060E0809177060E94220F60E08091760651
:102120000E94510F8DE793E0909381068093800683
:1021300010921303109212031092EF0210921103E7
:102140001092ED0281E08093EC021092C70261E0F0
:1021500084E10E94220F61E085E10E94220F8091BC
:10216000B9008E7F8093B9008091B9008D7F8093F4
:10217000B90088E48093B80085E48093BC0085E6CC
:102180009CE0909315038093140386E69CE0909363
:1021900017038093160380E090E1A0E0B0E0809305
:1021A000830690938406A0938506B09386068AE002
:1021B00090E0A0E0B0E08093870690938806A0931B
:1021C0008906B0938A0680E090E0A0E0B0E48093B6
:1021D0008B0690938C06A0938D06B0938E0660E0DC
:1021E00070E185E00E94450D6FE979E380E00E948F
:1021F000450DC6E7D6E08E0122E0722E38E8A32E08
:1022000032E0B32E4EEC842E42E0942E5BECE52EB1
:1022100057E0F52EF80194818281898F9A8F61E0D1
:102220000E94510F61E08A8D0E94510FF801908544
:1022300086816E01FDE1CF0ED11C8D8F9E8F61E0F6
:102240000E94510F60E08E8D0E94510F61E08D8DD4
:102250000E94220F6FB6F8948091BD02811126C0B2
:10226000F5018491F4012491E82FF0E0EE0FFF1FB7
:10227000EB5FFD4FA591B4919C91822F892321F4AE
:1022800061E085E30E94220F61E085E30E94510F27
:102290008CB580618CBD8CB580648CBD61E084E3BD
:1022A0000E94510F61E083E30E94510F8091BD02B3
:1022B0008F5F8093BD026FBEC7010197F1F760E0A9
:1022C0008D8D0E94220F88E80E940E0383E00E94F9
:1022D0000E0361E08D8D0E94220FC7010197F1F777
:1022E000C6010E94C9077A940F5F1F4F2296711092
:1022F00091CF0BE916E0CFE9D6E060E0F8018191DB
:102300008F010E94510FC017D107B9F707E916E0F6
:1023100081EAC82E86E0D82E7E01FFEFEF1AFF0A71
:10232000688170E0CE0108960E941903F70195813B
:102330008381F801828B938B60E00E94510F61E0F2
:10234000F80183890E94510F60E0F80183890E949F
:10235000220F0E5F1F4FE701CE14DF04E9F6F89459
:102360001092200189E08093210180E293E0909314
:10237000290180932801109225011092240182E006
:102380008093730078948093600510926405809127
:10239000610560E00E94510F60919F0670E087EA3E
:1023A00096E00E9419038091A1068B3520F480915C
:1023B000A2068A3528F48FE392E00E94EF0F06C050
:1023C0006AE570E087EA96E00E9459080E94C70F0C
:1023D00080919E060E94F90E892B09F4D7C040E037
:1023E00050E064EB72E481E00E94F40B64E670E07C
:1023F00080E090E00E948D0F20E030E040E85EE356
:1024000060E070E088EC91E40E94420B64E670E0CA
:1024100080E090E00E948D0F40E050E066E972E4B9
:1024200081E00E94F40B64E670E080E090E00E949E
:102430008D0F0E94BC0AEC010E94820BBE01DD0FD1
:10244000880B990B0E9491142AE038E240EA5BE382
:102450000E94F0140E940417672B59F784EB0E9426
:10246000D40A68EE73E080E090E00E948D0F40E0B7
:1024700050E064E372E480E00E94F40B64E670E0F4
:1024800080E090E00E948D0F40E050E064E372E451
:1024900080E00E94F40B64E670E080E090E00E942F
:1024A0008D0F40E050E064E372E480E00E94F40BA2
:1024B00064E670E080E090E00E948D0F40E050E024
:1024C00064E372E480E00E94F40B64E670E080E074
:1024D00090E00E948D0F85E996E00E94F40785E95F
:1024E00096E00E94C907C1E0D0E085E996E00E942D
:1024F000F407603A7F40810591050CF44AC0CD2B6A
:1025000009F047C08AE50E94D40A20E030E040E8A4
:102510005EEB60E070E080E291EC0E94420B64E6CA
:1025200070E080E090E00E948D0F40E050E064E3B6
:1025300072E480E00E94F40B64E670E080E090E0DA
:102540000E948D0F40E050E064E372E480E00E945E
:10255000F40B64E670E080E090E00E948D0F40E0B4
:1025600050E064E372E480E00E94F40B64E670E003
:1025700080E090E00E948D0F20E030E040E85EE3D4
:1025800060E070E080EA92E40E94420B0E94E10267
:102590001FCF0E94BC0ABC01990F880B990B0E94A7
:1025A00091142AE038E240EA5BE30E94F0140E94B2
:1025B0000417EB010E94820B98CF80916F069091D7
:1025C00070060C94D7171092800310927F0388EE48
:1025D00093E0A0E0B0E08093810390938203A09306
:1025E0008303B093840323E132E030937E0320938E
:1025F0007D0310928C0310928B0380938D03909334
:102600008E03A0938F03B093900325E232E03093C2
:102610008A032093890345E351E050939603409346
:10262000950344E351E0509398034093970340E3AC
:1026300051E050939A034093990341E351E0509342
:102640009C0340939B0342E351E050939E034093CD
:102650009D0346E351E05093A00340939F031092E3
:10266000A2031092A3031092A4031092A503109248
:1026700029041092280480932A0490932B04A09399
:102680002C04B0932D04309327042093260445EDA9
:1026900050E0509333044093320444ED50E05093A3
:1026A00035044093340440ED50E050933704409398
:1026B000360441ED50E0509339044093380442ED24
:1026C00050E050933B0440933A0446ED50E0509361
:1026D0003D0440933C0410923F0410924004109239
:1026E0004104109242041092C6041092C5048093D3
:1026F000C7049093C804A093C904B093CA0430934C
:10270000C4042093C30485EC90E09093D00480939C
:10271000CF0484EC90E09093D2048093D10480ECB9
:1027200090E09093D4048093D30481EC90E0909354
:10273000D6048093D50482EC90E09093D8048093E3
:10274000D70486EC90E09093DA048093D904109239
:10275000DC041092DD041092DE041092DF048091FC
:10276000070290910802A0910902B0910A02809399
:10277000970690939806A0939906B0939A06809135
:102780000B0290910C02A0910D02B0910E02809369
:102790009B0690939C06A0939D06B0939E0684E0B2
:1027A00080939F0687E08093A0061092A10684EB99
:1027B0008093A20686E18093A30688E18093A40615
:1027C00087E18093A50689E18093A606E0916E06D5
:1027D000EC3020F08FEF8093A70610C081E08E0FC1
:1027E00080936E06E093A70625E0E29FF001112496
:1027F000EE5CF94F88EB9BE092838183E0916E065B
:10280000EC3020F08FEF8093A80610C081E08E0F8F
:1028100080936E06E093A80685E0E89FF0011124FE
:10282000EE5CF94F88EB9BE0928381838CE0809390
:10283000760684E28093770686E08093780685E0CA
:10284000809379068FE180937A068EE180937B06F0
:1028500083E280937C0682E280937D0685E4809308
:102860007E0684E480937F0680E480938206109243
:102870008706109288061092890610928A06109296
:102880008B0610928C0610928D0610928E06E1EB4C
:10289000F6E08FEF9FEFDC01128213821482158223
:1028A000168217821086118683879487A587B6873C
:1028B0008787908BA18BB28B1286118210827396C0
:1028C00027E0EF36F20741F78DE090E00E943F17D6
:1028D000FC011382128287E392E091838083118648
:1028E00087E2848384E1828784E083871486F0937F
:1028F000AE06E093AD061092AF061092B00685E2E8
:1029000080936105109263056CE972E08FE696E0B2
:102910000C940A040E94CC1408F481E00895E89411
:1029200009C097FB3EF490958095709561957F4F17
:102930008F4F9F4F9923A9F0F92F96E9BB279395C5
:10294000F695879577956795B795F111F8CFFAF4D5
:10295000BB0F11F460FF1BC06F5F7F4F8F4F9F4F06
:1029600016C0882311F096E911C0772321F09EE864
:10297000872F762F05C0662371F096E8862F70E0CA
:1029800060E02AF09A95660F771F881FDAF7880FA4
:102990009695879597F90895990F0008550FAA0BFA
:1029A000E0E8FEEF16161706E807F907C0F0121662
:1029B0001306E407F50798F0621B730B840B950B65
:1029C00039F40A2661F0232B242B252B21F40895BA
:1029D0000A2609F4A140A6958FEF811D811D089557
:1029E0000E9403150C9474150E94661538F00E941D
:1029F0006D1520F0952311F00C945D150C94631562
:102A000011240C94A8150E94851570F3959FC1F3AD
:102A1000950F50E0551F629FF001729FBB27F00D8C
:102A2000B11D639FAA27F00DB11DAA1F649F6627E1
:102A3000B00DA11D661F829F2227B00DA11D621F30
:102A4000739FB00DA11D621F839FA00D611D221FEA
:102A5000749F3327A00D611D231F849F600D211DCE
:102A6000822F762F6A2F11249F5750409AF0F1F051
:102A700088234AF0EE0FFF1FBB1F661F771F881FBA
:102A800091505040A9F79E3F510580F00C945D1580
:102A90000C94A8155F3FE4F3983ED4F386957795A0
:102AA0006795B795F795E7959F5FC1F7FE2B880F60
:102AB000911D9695879597F9089597F99F6780E8F6
:102AC00070E060E008959FEF80EC089500240A9480
:102AD0001616170618060906089500240A941216F9
:102AE0001306140605060895092E0394000C11F42C
:102AF000882352F0BB0F40F4BF2B11F460FF04C0D9
:102B00006F5F7F4F8F4F9F4F089557FD9058440F31
:102B1000551F59F05F3F71F04795880F97FB991F3C
:102B200061F09F3F79F087950895121613061406F9
:102B3000551FF2CF4695F1DF08C016161706180686
:102B4000991FF1CF86957105610508940895E89461
:102B5000BB2766277727CB0197F90895052E97FBAA
:102B60001EF400940E94C51557FD07D00E94E01581
:102B700007FC03D04EF40C94C51550954095309544
:102B800021953F4F4F4F5F4F0895909580957095D9
:102B900061957F4F8F4F9F4F08950E940216A59F0A
:102BA000900DB49F900DA49F800D911D1124089548
:102BB000B7FF0C94CD150E94CD15821B930B089581
:102BC000A1E21A2EAA1BBB1BFD010DC0AA1FBB1F31
:102BD000EE1FFF1FA217B307E407F50720F0A21BA3
:102BE000B30BE40BF50B661F771F881F991F1A9410
:102BF00069F760957095809590959B01AC01BD013A
:102C0000CF010895A29FB001B39FC001A39F700D93
:102C1000811D1124911DB29F700D811D1124911DE4
:102C20000895991B79E004C0991F961708F0961B28
:102C3000881F7A95C9F780950895EE0FFF1F881FAA
:102C40008BBF0790F691E02D19945058BB27AA2707
:102C50000E943D160C9474150E94661538F00E946F
:102C60006D1520F039F49F3F19F426F40C94631588
:102C70000EF4E095E7FB0C945D15E92F0E94851595
:102C800058F3BA17620773078407950720F079F4A1
:102C9000A6F50C94A7150EF4E0950B2EBA2FA02DD7
:102CA0000B01B90190010C01CA01A0011124FF27F9
:102CB000591B99F0593F50F4503E68F11A16F040F4
:102CC000A22F232F342F4427585FF3CF46953795F3
:102CD0002795A795F0405395C9F77EF41F16BA0BB8
:102CE000620B730B840BBAF09150A1F0FF0FBB1F66
:102CF000661F771F881FC2F70EC0BA0F621F731FAF
:102D0000841F48F4879577956795B795F7959E3F0B
:102D100008F0B0CF9395880F08F09927EE0F97959C
:102D2000879508950E94A6160C9474150E946D153F
:102D300058F00E94661540F029F45F3F29F00C948A
:102D40005D1551110C94A8150C9463150E948515FE
:102D500068F39923B1F3552391F3951B550BBB27CA
:102D6000AA2762177307840738F09F5F5F4F220F0F
:102D7000331F441FAA1FA9F335D00E2E3AF0E0E806
:102D800032D091505040E695001CCAF72BD0FE2F50
:102D900029D0660F771F881FBB1F261737074807E4
:102DA000AB07B0E809F0BB0B802DBF01FF2793589C
:102DB0005F4F3AF09E3F510578F00C945D150C94EE
:102DC000A8155F3FE4F3983ED4F386957795679511
:102DD000B795F7959F5FC9F7880F911D96958795D1
:102DE00097F90895E1E0660F771F881FBB1F6217F0
:102DF00073078407BA0720F0621B730B840BBA0BAE
:102E0000EE1F88F7E09508950E940B176894B111A2
:102E10000C94A81508950E948D1588F09F5798F07E
:102E2000B92F9927B751B0F0E1F0660F771F881FCF
:102E3000991F1AF0BA95C9F714C0B13091F00E94E9
:102E4000A715B1E008950C94A715672F782F882750
:102E5000B85F39F0B93FCCF3869577956795B39510
:102E6000D9F73EF490958095709561957F4F8F4F7F
:102E70009F4F08950E94CC1408F48FEF08950F938C
:102E80001F93CF93DF938230910510F482E090E09E
:102E9000E0917107F091720720E030E0A0E0B0E02F
:102EA000309719F1408151810281138148175907E8
:102EB000C8F08417950769F4109731F012960C93B7
:102EC000129713961C9327C00093710710937207F3
:102ED00022C02115310519F04217530718F49A0141
:102EE000BD01EF01DF01F801DBCF21153105F9F05C
:102EF000281B390B2430310580F48A819B816115B0
:102F0000710521F0FB019383828304C090937207C3
:102F100080937107FE01329644C0FE01E20FF31F59
:102F20008193919322503109398328833AC02091AB
:102F30006F0730917007232B41F4209103023091E9
:102F400004023093700720936F07209101023091A3
:102F500002022115310541F42DB73EB7409105021B
:102F600050910602241B350BE0916F07F09170071A
:102F7000E217F307A0F42E1B3F0B2817390778F050
:102F8000AC014E5F5F4F2417350748F04E0F5F1FAF
:102F90005093700740936F078193919302C0E0E0D4
:102FA000F0E0CF01DF91CF911F910F910895CF9362
:102FB000DF93009709F481C0FC01329713821282DB
:102FC000A0917107B0917207109781F4208131812F
:102FD000820F931F20916F073091700728173907D0
:102FE00051F5F0937007E0936F0767C0ED0120E0A3
:102FF00030E0CE17DF0740F44A815B819E01411526
:103000005105F1F0EA01F5CFD383C28340815181AC
:10301000840F951FC817D90759F488819981840FA7
:10302000951F0296918380838A819B8193838283FB
:103030002115310529F4F0937207E09371073DC023
:10304000E901FB83EA8349915991C40FD51FEC171D
:10305000FD0761F480819181840F951F0296E9013B
:1030600099838883828193819B838A83E0E0F0E067
:1030700012968D919C911397009719F0FD01DC0138
:10308000F7CF8D919C9111979D012E5F3F4F820F3D
:10309000931F20916F07309170072817390769F443
:1030A000309729F4109272071092710702C01382B0
:1030B0001282B0937007A0936F07DF91CF910895AC
:1030C0006F927F928F929F92AF92BF92CF92DF9238
:1030D000EF92FF920F931F93CF93DF93009789F4A2
:1030E000CB01DF91CF911F910F91FF90EF90DF9077
:1030F000CF90BF90AF909F908F907F906F900C94E7
:103100003F17FC01E60FF71F9C0122503109E2171F
:10311000F30708F4A9C0EC01D9010D911C91119796
:1031200006171707B0F00530110508F49BC0C80159
:1031300004978617970708F495C002501109061BDB
:10314000170B019311936D937C93CF010E94D717B6
:1031500089C05B01A01AB10A4C01800E911EA0919A
:103160007107B0917207612C712CE12CF12C109732
:1031700009F446C08D919C911197A815B905B1F538
:103180006C0142E0C40ED11CCA14DB0478F14C017E
:103190008A189B08640142E0C40ED11C1296BC90B0
:1031A00012971396AC91B5E0CB16D10440F0B282E1
:1031B000A38391828082D9016D937C9309C00E5FB5
:1031C0001F4F800F911FF90191838083EB2DFA2F00
:1031D000E114F10431F0D7011396FC93EE931297AA
:1031E00041C0F0937207E09371073CC068167906FE
:1031F00008F43C017D0112960D90BC91A02DB7CF33
:1032000080916F079091700788169906E1F4661611
:103210007706C8F48091010290910202009741F470
:103220008DB79EB74091050250910602841B950B05
:10323000E817F907C8F4F0937007E0936F07F901F6
:10324000718360830FC0CB010E943F177C01009700
:1032500059F0A801BE010E944A19CE010E94D71759
:10326000C70104C0CE0102C080E090E0DF91CF91A1
:103270001F910F91FF90EF90DF90CF90BF90AF9094
:103280009F908F907F906F90089581E090E0F894E8
:103290000C946319FB01DC0102C001900D924150B6
:1032A0005040D8F70895FB01DC018D910190801901
:1032B0000110D9F3990B0895FB01DC0101900D92E7
:1032C0000020E1F7089511E0C4E9D1E000E006C074
:1032D000802FFE010E941D162196011DC539D107C0
:0A32E00080E00807A9F7F894FFCF7B
:1032EA00FF000073072000363738391B1D1A1C00EF
:1032FA00000000C00C930C1603670C8B0C770C684B
:10330A000C000000006F02C801F201BC0223020196
:10331A00021502000000007603C8011603150353C4
:10332A006572766F20616E676C65206973206F75B0
:10333A0074206F662072616E67652100746F757202
:10334A006E6572006176616E63657200544F555402
:10335A0020424C414E430044524F49544500544F79
:10336A0055542044524F495400474155434845005B
:0E337A00544F5554204E4F4952000D0A00008A
:00000001FF
