:100000000C9495010C94C6010C94C6010C94C60185
:100010000C94C6010C94C6010C94C6010C94C60144
:100020000C94C6010C94030D0C94030D0C94030D59
:100030000C94C6010C9482050C94C6010C94C60164
:100040000C94C6010C94A4090C94C6010C94C6012E
:100050000C94C6010C94C6010C94C6010C94EA04DD
:100060000C94C6010C94F1060C94C7060C94C601BE
:100070000C94C6010C94C6010C94C6010C94C601E4
:100080000C94C6010C94C6010C94C6010C94C601D4
:100090000C94C6010C94C6010C94C6010C940D0D71
:1000A0000C94C6010C94C6010C94C6010C94C601B4
:1000B0000C94C6010C94C6010C94C6010C941B0749
:1000C0000C94C6010C94C6010C94C6010C949D06B8
:1000D0000C9473060C94C6010C9449060C941F06EC
:1000E0000C94C60111021402030207020D024B0216
:1000F00018021C02220226022A02300234023802AE
:100100004B023E02420246025B08600865086F0827
:100110007908F20883088B0893089D08A708B1089E
:10012000C008CA08F208D408DE08E8080C941802CF
:100130000C9434020C94A7080C94D4080C9430024C
:100140000C94CB010C94C9010C941C020C948B08E8
:100150000C9426020C9493080C94B1080C9488110A
:100160000C94E8080C9442020C9407020C94D003FF
:100170000C9429040C9479080C942D040C9403021B
:100180000C94DE080C94C8010C9422020C948B048D
:100190000C94C0080C94DC020C942A020C94060304
:1001A0000C945B080C94EE010C9414020C946508FA
:1001B0000C9437030C9460080C9483080C945A0434
:1001C0000C9415030C9446020C943E020C940D0200
:1001D0000C94DA010C9438020C948E110C949D0846
:1001E0000C944B020C9411020C94F2080C94CA0863
:1001F0000C94CA010C9483030C946F080C942A0489
:100200000C942903000020002300260029002C0064
:100210002F00320000010000030106010901020065
:10022000002100240027002A002D003000330001A7
:10023000010000040107010A010000220025002836
:10024000002B002E003100340002010000050108DF
:10025000010B01050505050705080808080202024B
:10026000020A0A0808040404040101010101010151
:10027000010303030303030303040707070C0C0C28
:100280000C0C0C0C0C020202020606060606060600
:10029000060B0B0B0B0B0B0B0B010210202008089D
:1002A00010204010204080020102010804020101D8
:1002B00002040810204080804020100804020180C1
:1002C0000402018040201008040201080402010118
:1002D0000204081020408001020408102040800021
:1002E000000A0B02090C0D0E0807030401000000B0
:1002F00000000000000000000000000000000000FE
:1003000000000000000000000000001211100000BA
:1003100000000000000000000000000000000000DD
:100320000000000000008E11881111241FBECFEFC5
:10033000D1E2DEBFCDBF00E00CBF12E0A0E0B2E032
:10034000EAE7FFE200E00BBF02C007900D92A03584
:10035000B107D9F727E0A0E5B2E001C01D92A532B0
:10036000B207E1F711E0C4E9D1E000E006C021974F
:100370000109802FFE010E946514C339D10780E076
:100380000807A9F70E94CA0E0C94AB170C94000042
:10039000089508950895E0919A0280919902E817CE
:1003A00030F4F0E0E758FD4F808190E008958FEF42
:1003B0009FEF089590919A0280919902981750F4B6
:1003C000E92FF0E0E758FD4F208130E09F5F9093E8
:1003D0009A0202C02FEF3FEFC90108958091990260
:1003E00090E020919A02821B9109089590E0FC010F
:1003F0003197E231F10508F04EC08827EE58FF4FE3
:100400008F4F0C946514809180008F7703C080918A
:1004100080008F7D80938000089580918000877F89
:10042000F9CF84B58F7702C084B58F7D84BD0895E0
:100430008091B0008F7703C08091B0008F7D809352
:10044000B0000895809190008F7707C08091900050
:100450008F7D03C080919000877F809390000895E6
:100460008091A0008F7707C08091A0008F7D03C08E
:100470008091A000877F8093A00008958091200143
:100480008F7707C0809120018F7D03C0809120016C
:10049000877F8093200108951F93CF93DF93282FA8
:1004A00030E0F901E152FD4F8491F901E756FD4F2B
:1004B000D491F901ED5AFD4FC491CC23C1F0162F10
:1004C00081110E94F601EC2FF0E0EE0FFF1FE75CB8
:1004D000FD4FA591B4919FB7F894111104C08C9170
:1004E000D095D82302C0EC91DE2BDC939FBFDF9127
:1004F000CF911F910895CF93DF9390E0FC01E756D1
:10050000FD4F2491FC01ED5AFD4F8491882361F148
:1005100090E0880F991FFC01E15EFD4FC591D491D9
:10052000FC01E75CFD4FA591B491611109C09FB733
:10053000F8948881209582238883EC912E230BC028
:10054000623061F49FB7F8948881322F309583230D
:100550008883EC912E2B2C939FBF06C08FB7F89405
:10056000E8812E2B28838FBFDF91CF9108953FB76D
:10057000F8948091750290917602A0917702B091E3
:10058000780226B5A89B05C02F3F19F00196A11D42
:10059000B11D3FBFBA2FA92F982F8827820F911D19
:1005A000A11DB11DBC01CD0142E0660F771F881F60
:1005B000991F4A95D1F70895CF92DF92EF92FF925B
:1005C0000F931F93CF93DF936C017A018B01C0E0EF
:1005D000D0E0CE15DF0581F0D8016D918D01D601F7
:1005E000ED91FC910190F081E02DC6011995892BC8
:1005F00011F02196EECF7E01C701DF91CF911F91BF
:100600000F91FF90EF90DF90CF900895FC01538DF4
:10061000448D252F30E0842F90E0821B930B5417DC
:1006200010F0CF96089501970895FC01918D828D69
:10063000981761F0828DDF01A80FB11D5D968C9136
:10064000928D9F5F9F73928F90E008958FEF9FEF41
:100650000895FC01918D828D981731F0828DE80FFD
:10066000F11D858D90E008958FEF9FEF0895FC01B7
:10067000918D228D892F90E0805C9F4F821B910984
:100680008F73992708958BE393E00E94370321E04D
:10069000892B09F420E0822F089588ED93E00E94D1
:1006A000370321E0892B09F420E0822F089585E7A4
:1006B00094E00E94370321E0892B09F420E0822F87
:1006C0000895FC01848DDF01A80FB11DA35ABF4F0F
:1006D0002C91848D90E001968F739927848FA68941
:1006E000B7892C93A089B1898C91837080648C9395
:1006F000938D848D981306C00288F389E02D808144
:100700008F7D80830895EF92FF920F931F93CF9375
:10071000DF93EC0181E0888F9B8D8C8D981305C051
:10072000E889F989808185FD26C0F62E0B8D10E0C1
:100730000F5F1F4F0F731127E02E8C8DE8120CC036
:100740000FB607FCFACFE889F989808185FFF5CFDC
:10075000CE010E946103F1CF8B8DFE01E80FF11DE8
:10076000E35AFF4FF0829FB7F8940B8FEA89FB8919
:10077000808180620AC09FB7F894EE89FF89608308
:10078000E889F98980818370806480839FBF81E0DC
:1007900090E0DF91CF911F910F91FF90EF9008951E
:1007A000CF93DF93EC01888D8823C9F0EA89FB8918
:1007B000808185FD05C0A889B9898C9186FD0FC00F
:1007C0000FB607FCF5CF808185FFF2CFA889B989E4
:1007D0008C9185FFEDCFCE010E946103E7CFDF91C1
:1007E000CF910895E0E0F0E0199480E090E0892B4B
:1007F00021F00E945703811119C080E090E0892BFD
:1008000041F080E090E0892B21F00E9400008111EE
:1008100010C00E944D0381110FC080E090E0892B31
:1008200081F00E94430381110AC008950E940000D4
:10083000E4CF0E940000EDCF0E94F203EECF0C94B3
:10084000000008958EBD00000DB407FEFDCF8EB5EB
:100850000895089580E090E00895CF92DF92EF929E
:10086000FF920F931F93CF93DF937C01CB018A01FB
:100870002091A202222389F0EB016B01C40ED51E48
:10088000CC15DD0569F06991D701ED91FC910190DE
:10089000F081E02DC7011995F3CF642F0E943F0E20
:1008A000C801DF91CF911F910F91FF90EF90DF90E2
:1008B000CF900895CF93DF931F92CDB7DEB76983B2
:1008C0002091A2022223D1F02091C402203240F0D4
:1008D00021E030E0FC013383228380E090E015C00A
:1008E0008091A302E82FF0E0EC55FD4F99819083B1
:1008F0008F5F8093A3028093C40205C061E0CE01A4
:1009000001960E943F0E81E090E00F90DF91CF9121
:1009100008950E948D170F931F93CF93DF938C013F
:10092000C62FD62FD07FD1606D2F0E94C20C6D2FA5
:10093000C8010E94D50C80E1C89FB0011124C62FC8
:10094000C1606C2FC8010E94C20C6C2FC8010E94AC
:10095000D50C81E090E0DF91CF911F910F91089528
:100960008F929F92AF92BF92CF92DF92EF92FF92BF
:100970006B017C010E94B7024B015C01C114D104E0
:10098000E104F104F1F00E94B702DC01CB01881907
:100990009909AA09BB09883E9340A105B10570F3E6
:1009A00021E0C21AD108E108F10888EE880E83E040
:1009B000981EA11CB11CC114D104E104F10419F763
:1009C000DDCFFF90EF90DF90CF90BF90AF909F90E2
:1009D0008F9008951F920F920FB60F9211242F93AC
:1009E0003F938F939F93AF93BF93809171029091A8
:1009F0007202A0917302B09174023091700223E0F0
:100A0000230F2D3720F40196A11DB11D05C026E846
:100A1000230F0296A11DB11D2093700280937102D5
:100A200090937202A0937302B09374028091750246
:100A300090917602A0917702B09178020196A11D63
:100A4000B11D8093750290937602A0937702B093C4
:100A50007802BF91AF919F918F913F912F910F900D
:100A60000FBE0F901F901895EF92FF920F931F9358
:100A7000CF93DF93EC01198218821B821A821D82A8
:100A80001C8261157105B9F17B01FB010190002009
:100A9000E9F731978F01061B170BB8016F5F7F4F86
:100AA00080E090E00E94A816009759F0998388830F
:100AB0001B830A832C813D81232B81F4FC0110824E
:100AC0000DC088819981009711F00E941F1619822C
:100AD00018821D821C821B821A820DC01D830C830A
:100AE000B70188819981DF91CF911F910F91FF907C
:100AF000EF900C94A417DF91CF911F910F91FF906D
:100B0000EF9008951F920F920FB60F9211240BB61B
:100B10000F922F933F934F935F936F937F938F9396
:100B20009F93AF93BF93EF93FF9380916B0290914C
:100B30006C02A0916D02B0916E02892B8A2B8B2BD7
:100B400049F190916A02809100008927809300000A
:100B500080916B0290916C02A0916D02B0916E0237
:100B6000181619061A061B060CF056C080916B0267
:100B700090916C02A0916D02B0916E020197A10953
:100B8000B10980936B0290936C02A0936D02B093B5
:100B90006E0242C080910002EEE1F2E0E4919FEF2C
:100BA00090930002E230C9F050F4EE2399F0E13066
:100BB00081F590916F009D7F90936F002AC0E43083
:100BC00019F1E0F0E53029F5909173009D7F909345
:100BD00073001FC010926E001CC0909170009D7F2A
:100BE0009093700091E09093B0009091B100987F45
:100BF00094609093B1001092B3000BC0909171007B
:100C00009D7F9093710005C0909172009D7F90939D
:100C1000720060E00E944C02FF91EF91BF91AF9192
:100C20009F918F917F916F915F914F913F912F9104
:100C30000F900BBE0F900FBE0F901F9018951F9234
:100C40000F920FB60F9211240BB60F922F933F9372
:100C50004F935F936F937F938F939F93AF93BF93C4
:100C6000EF93FF938BE393E00E946103FF91EF9179
:100C7000BF91AF919F918F917F916F915F914F91B4
:100C80003F912F910F900BBE0F900FBE0F901F90B2
:100C900018951F920F920FB60F9211240BB60F9258
:100CA0002F933F934F935F936F937F938F939F9374
:100CB000AF93BF93EF93FF938BE393E00E94EA0C13
:100CC000FF91EF91BF91AF919F918F917F916F9124
:100CD0005F914F913F912F910F900BBE0F900FBEE0
:100CE0000F901F9018951F920F920FB60F9211241C
:100CF0000BB60F922F933F934F935F936F937F9316
:100D00008F939F93AF93BF93EF93FF9388ED93E0FF
:100D10000E946103FF91EF91BF91AF919F918F91DD
:100D20007F916F915F914F913F912F910F900BBEEB
:100D30000F900FBE0F901F9018951F920F920FB635
:100D40000F9211240BB60F922F933F934F935F9303
:100D50006F937F938F939F93AF93BF93EF93FF9383
:100D600088ED93E00E94EA0CFF91EF91BF91AF9163
:100D70009F918F917F916F915F914F913F912F91B3
:100D80000F900BBE0F900FBE0F901F9018951F92E3
:100D90000F920FB60F9211240BB60F922F933F9321
:100DA0004F935F936F937F938F939F93AF93BF9373
:100DB000EF93FF9385E794E00E946103FF91EF9129
:100DC000BF91AF919F918F917F916F915F914F9163
:100DD0003F912F910F900BBE0F900FBE0F901F9061
:100DE00018951F920F920FB60F9211240BB60F9207
:100DF0002F933F934F935F936F937F938F939F9323
:100E0000AF93BF93EF93FF9385E794E00E94EA0CC2
:100E1000FF91EF91BF91AF919F918F917F916F91D2
:100E20005F914F913F912F910F900BBE0F900FBE8E
:100E30000F901F9018951F920F920FB60F921124CA
:100E40000BB60F922F933F934F935F936F937F93C4
:100E50008F939F93AF93BF93CF93DF93EF93FF93C2
:100E60002091130530E0F901E152FD4F8491F90121
:100E7000E756FD4FD491F901ED5AFD4FC491CC23B3
:100E800079F081110E94F601EC2FF0E0EE0FFF1FC8
:100E9000EC5FFD4FA591B491EC91ED2381E009F455
:100EA00080E020911705309118052F5F3F4F309358
:100EB00018052093170590911605953618F096E0C1
:100EC00090931205909112059430C9F128F4923054
:100ED00069F09330D1F05EC0953009F451C096307E
:100EE00009F058C091E09093E30551C0811152C0C0
:100EF00020911705309118052436310508F442C0B9
:100F00001092E305109216051CC0813009F042C012
:100F1000E091160591E09E0F90931605F0E0209168
:100F2000170530911805EE0FFF1FEE5EFA4F308760
:100F30002783109218051092170594E029C081119B
:100F400017C0E091160591E09E0F90931605F0E012
:100F50002091170530911805EE0FFF1FEE5EFA4F36
:100F600030872783109218051092170593E010C060
:100F700020911705309118052536310558F007C026
:100F8000811108C0109218051092170503C095E052
:100F900090931205909115059923B9F081110AC01B
:100FA00080911405882321F08091140561E009C027
:100FB0002F9A0BC080911405882331F0809114057D
:100FC00060E00E944C0201C02F98FF91EF91DF91E9
:100FD000CF91BF91AF919F918F917F916F915F91D1
:100FE0004F913F912F910F900BBE0F900FBE0F901E
:100FF0001F9018958F929F92AF92BF92CF92DF92DF
:10100000EF92FF920F931F93CF93DF938C016A01AE
:101010007B0120E030E04FE753E4C701B6010E94B6
:101020009B134B015C0120E030E0A9010E94821576
:1010300018161CF4C501B40103C0C501B4019058D1
:101040000E944C15EB0120E030E0A901C701B60178
:101050000E948215181614F460E001C061E0F801E6
:1010600081810E944C02CF3FD10509F014F4DD27A5
:1010700002C0CFEFD0E0F801108161E0812F0E9423
:101080007B02209709F4B1C0CF3FD10509F4AFC06E
:10109000E12FF0E0E152FD4FE4918E2F90E0FC0152
:1010A0003197E231F10508F09DC08827EC57FF4FDA
:1010B0008F4F0C94651484B5806884BDC7BDA7C0EC
:1010C00084B5806284BDC8BDA2C080918000806864
:1010D00080938000D0938900C093880098C080914D
:1010E0008000806280938000D0938B00C0938A0040
:1010F0008EC080918000886080938000D0938D00A6
:10110000C0938C0084C08091B00080688093B00050
:10111000C093B3007CC08091B00080628093B00027
:10112000C093B40074C08091900080688093900058
:10113000D0939900C09398006AC08091900080621B
:1011400080939000D0939B00C0939A0060C08091E0
:101150009000886080939000D0939D00C0939C0085
:1011600056C08091A00080688093A0008091A0006C
:101170008F7B8093A000D093A900C093A80047C0A4
:101180008091A00080628093A000D093AB00C093B8
:10119000AA003DC08091A00088608093A000D093F9
:1011A000AD00C093AC0033C0809120018068809373
:1011B0002001D0932901C093280129C080912001EA
:1011C000806280932001D0932B01C0932A011FC01D
:1011D00080912001886080932001D0932D01C093DD
:1011E0002C0115C0C038D10514F460E001C061E0E5
:1011F000812FDF91CF911F910F91FF90EF90DF90A2
:10120000CF90BF90AF909F908F900C944C02DF9145
:10121000CF911F910F91FF90EF90DF90CF90BF90F3
:10122000AF909F908F900895CF93DF93EC0160E093
:1012300088810E944C0288E90E94220480E00E947A
:10124000220480E00E94220480E00E94220480E0C8
:101250000E94220461E088810E944C028BE891E0A8
:101260000197F1F760E088810E944C0280EE0E94B5
:10127000220461E08881DF91CF910C944C02AF92FF
:10128000BF92CF92DF92EF92FF920F931F93CF9373
:10129000DF93CDB7DEB760970FB6F894DEBF0FBE11
:1012A000CDBF5C0160E0FC0180810E944C0280E6C1
:1012B0000E9422048E010F5F1F4F7E01F1E1EF0EAD
:1012C000F11C680180E00E94220490E0A0E0B0E000
:1012D000F60181939193A193B1936F01EE15FF05F0
:1012E00089F761E0F50180810E944C0280E090E086
:1012F000DC01F80141915191619171918F01BA2FF7
:10130000A92F982F8827840F951FA61FB71FEE15AA
:10131000FF0579F79C01AD0166277727CB01621B9A
:10132000730B840B950B60960FB6F894DEBF0FBE5F
:10133000CDBFDF91CF911F910F91FF90EF90DF9084
:10134000CF90BF90AF9008951F920F920FB60F925B
:1013500011240BB60F922F933F934F935F936F938C
:101360007F938F939F93AF93BF93EF93FF9380915E
:10137000690287FF05C0109285001092840016C094
:1013800020916902022E000C330B8091200690E020
:10139000281739075CF43091690225E03203F00127
:1013A0001124EC51FA4F808186FD15C080916902AD
:1013B0008F5F8093690220916902022E000C330B2B
:1013C0008091200690E02817390794F480916902F3
:1013D0008C302CF10DC0309169023203F0011124E0
:1013E000EC51FA4F808160E08F730E944C02DECF97
:1013F000809184009091850084349C4918F480E4A5
:101400009CE905C08091840090918500049690939A
:101410008900809388008FEF809369022AC04091F1
:101420008400509185003091690225E03203F0017B
:101430001124EC51FA4F81819281840F951F909372
:10144000890080938800309169023203F0011124F1
:10145000EC51FA4F808186FF0CC030916902320353
:10146000F0011124EC51FA4F808161E08F730E94EA
:101470004C02FF91EF91BF91AF919F918F917F911E
:101480006F915F914F913F912F910F900BBE0F90F5
:101490000FBE0F901F9018953091C402313208F0A2
:1014A0004BC08091A1028111FCCF90912E0322E0CC
:1014B0002093A10221E02093A0022FEF20932D037F
:1014C00010922C0330932B03E4EAF2E0ABE0B3E09C
:1014D00020E0321721F041914D932F5FFACF109207
:1014E0000A0320910A03990F922B90930A0390917B
:1014F0009F02913061F410929F0290910A039093A1
:10150000BB009091BC0093FDF8CF95EC01C095EE27
:101510009093BC009091A1029230E1F390912D0341
:101520009F3F79F080912D03803241F080912D030F
:10153000803331F084E005C081E003C082E001C067
:1015400083E01092A3021092C4021092A2020895A6
:1015500085ED8093BC008091BC0084FDFCCF10928F
:10156000A10208954F925F926F927F928F929F9205
:10157000AF92BF92CF92DF92EF92FF920F931F93A1
:10158000CF93DF93CDB7DEB766970FB6F894DEBF83
:101590000FBECDBF8C01498B5A8B6B8B7C8B3E8BE6
:1015A0002D8B85E496E00E94140987E496E00E9462
:1015B000140980E090E0A0E8BFE389879A87AB87B1
:1015C000BC878FE195E8ABE6BEE38D839E83AF8356
:1015D000B88780E090E0A0E8BEE389839A83AB837C
:1015E000BC83412C512C3201730162015301420131
:1015F00029893A894B895C89C501B4010E94351358
:1016000087FF64C1D80114968D919C911597892B01
:1016100009F467C06FE372E08D919C910E949B1763
:10162000892B09F05EC0ED89FE89F7FD5AC0EF2BCA
:10163000F9F485E496E00E943F090E943C136B0197
:101640007C0187E496E00E943F090E943C132B0135
:101650003C0149815A816B817C81705881E496E01C
:101660000E94FA074D815E816F81788570582EC087
:101670008D899E89019771F585E496E00E943F0966
:1016800090958095709561957F4F8F4F9F4F0E94E9
:101690003C136B017C0187E496E00E943F09909522
:1016A0008095709561957F4F8F4F9F4F0E943C139F
:1016B0002B013C0149815A816B817C8181E496E058
:1016C0000E94FA074D815E816F81788583E496E000
:1016D0000E94FA0766E970E080E090E00E94B004A2
:1016E0009EC020E030E040E250E469897A898B892D
:1016F0009C890E94DA149B01AC01C501B4010E94CF
:10170000351387FF0BC02DEC3CEC4CE45DE36985A1
:101710007A858B859C850E946E140AC020E030E09B
:1017200040E85DE369857A858B859C850E946D1410
:1017300069877A878B879C8785E496E00E943F09BA
:1017400090958095709561957F4F8F4F9F4F0E9428
:101750003C136B017C0187E496E00E943F090E94E4
:101760003C132B013C0129853A854B855C856981B9
:101770007A818B819C810E949B136D877E878F87E6
:10178000988B20E030E040E85FE30E94351387FF4C
:1017900035C02DEC3CEC4CEC5DE36D857E858F8592
:1017A00098890E94821518164CF529853A854B8533
:1017B0005C856D817E818F8198850E949B134B0192
:1017C0005C0120E030E040E85FE30E94351387FFD2
:1017D00015C02DEC3CEC4CEC5DE3C501B4010E945E
:1017E000821518165CF44D855E856F85788981E4D5
:1017F00096E00E94FA07B501A4010CC049815A8104
:101800006B817C8181E496E00E94FA074D815E81C4
:101810006F817885705883E496E00E94FA07A301EF
:101820009201C701B6010E946D1420E030E040E053
:101830005FE30E949B132CEA35EC47E257E30E94DA
:101840009B139B01AC016D817E818F8198850E94E5
:101850006E146D837E838F839887A7019601C301E1
:10186000B2010E946D1420E030E040E05FE30E948E
:101870009B132CEA35EC47E257E30E949B139B0134
:10188000AC0169817A818B819C810E946E1469838D
:101890007A838B839C83A3019201C701B6010E94C6
:1018A0006E1420E030E048EC55E40E94DA1420E0A9
:1018B00030E040EC51E40E949B134B015C0162E379
:1018C00070E080E090E00E94B00492CE40E050E0F2
:1018D000BA0181E496E00E94FA0740E050E060E03F
:1018E00070E883E496E066960FB6F894DEBF0FBE0C
:1018F000CDBFDF91CF911F910F91FF90EF90DF90BF
:10190000CF90BF90AF909F908F907F906F905F909F
:101910004F900C94FA070F931F93CF93DF93162FDA
:10192000072FC8E2D6E09C8521E02093A202909385
:101930002E031092A3021092C402AA85BB85ED91DA
:10194000FC9111970190F081E02D682FCD01199540
:101950008A859B85DC01ED91FC910190F081E02D61
:10196000602F19958A859B85DC01ED91FC91019092
:10197000F081E02D612F1995DF91CF911F910F918B
:101980000C944C0AFC01248131E03093A202209394
:101990002E031092A3021092C4028485682B8FE25A
:1019A00093E00E945A040C944C0A0F931F93CF9318
:1019B0008C01C62F64600E94C20C6C2F6B7FC80123
:1019C0000E94C20C83EC90E00197F1F7CF911F9138
:1019D0000F910895FC01A089B1898C91A689B789DE
:1019E00082FD0FC09C91818D8F5F8F73228D821736
:1019F00049F0218DDF01A20FB11D5D969C93818F6F
:101A000008958C9108951F920F920FB60F92112492
:101A10000F900FBE0F901F9018951F920F920FB648
:101A20000F9211240BB60F922F933F934F935F9316
:101A30006F937F938F939F93AF93BF93EF93FF9396
:101A40008091B900887F803609F49CC068F588329F
:101A500009F45BC090F4803109F454C038F4882351
:101A600009F4F6C0883009F44DC0F6C0883109F495
:101A70004CC0803209F45DC0EFC0803409F468C006
:101A800048F4803309F455C0883309F0E5C08093E9
:101A90002D03D8C0803509F44FC0883509F45DC0E6
:101AA000883409F0D9C0D6C0883909F4C7C0A8F471
:101AB000883709F467C038F4883609F463C0803782
:101AC00009F460C0C9C0883809F4B8C0803909F485
:101AD0005FC0803809F0C0C05BC0803B09F486C09D
:101AE00038F4803A09F466C0883A09F47FC0B4C07B
:101AF000803C09F4A7C0883C09F4A4C0883B09F4E1
:101B00008AC0AAC080910A0310C090912C038091D2
:101B10002B03981770F5E0912C0381E08E0F8093D2
:101B20002C03F0E0E55FFC4F80818093BB0085ECE7
:101B300086C080932D038EC0E0912C0381E08E0F30
:101B400080932C038091BB00F0E0E55FFC4F808325
:101B500090912C0380912B036EC0E0912C0381E0C7
:101B60008E0F80932C038091BB00F0E0E55FFC4F6B
:101B700080838091A00281116DC081E080939F02DB
:101B800084EA61C083E08093A10210920703CFCF63
:101B900080910703803208F051C0E091070381E093
:101BA0008E0F809307038091BB00F0E0E951FD4F59
:101BB0008083BDCF85EC8093BC001092A102809100
:101BC0000703803230F4E0910703F0E0E951FD4F64
:101BD00010826091070370E0E0919D02F0919E02F7
:101BE00087EE92E019951092070336C084E0809347
:101BF000A1021092E6021092E502E0919B02F091A0
:101C00009C0219958091E502811105C081E08093C5
:101C1000E5021092C502E091E60281E08E0F80930A
:101C2000E602F0E0EB53FD4F80818093BB00909182
:101C3000E6028091E502981708F479CF85E8809351
:101C4000BC000AC085EC8093BC001092A10204C0C5
:101C500010922D030E94A80AFF91EF91BF91AF91BE
:101C60009F918F917F916F915F914F913F912F91B4
:101C70000F900BBE0F900FBE0F901F9018954091C4
:101C8000E502262F30E0240F311D21323105DCF42E
:101C90002091A1022430C9F4FC0180E090E0861775
:101CA00058F43091E5022191DC01AB53BD4FA30FF5
:101CB000B11D2C930196F3CF8091E502680F6093DC
:101CC000E50280E0089581E0089582E00895CF92D2
:101CD000DF92EF92FF92CF93DF9300D000D0CDB789
:101CE000DEB76B017C0167E472E0CE0101960E94D1
:101CF00034052FEF3FEFB701A601CE0101960E94F8
:101D0000B20A89819A810E941F1626960FB6F8940E
:101D1000DEBF0FBECDBFDF91CF91FF90EF90DF9080
:101D2000CF900895CF92DF92EF92FF920F931F937F
:101D3000CF93DF9300D000D0CDB7DEB7082F6A0174
:101D40007B016FE372E0CE0101960E94340510E042
:101D500022EB34EE47E95DE3C701B6010E949B1315
:101D6000AB01BC019801CE0101960E94B20A8981A3
:101D70009A810E941F1626960FB6F894DEBF0FBEFA
:101D8000CDBFDF91CF911F910F91FF90EF90DF902A
:101D9000CF900895789484B5826084BD84B58160C5
:101DA00084BD85B5826085BD85B5816085BD809126
:101DB0006E00816080936E0010928100809181009E
:101DC0008260809381008091810081608093810096
:101DD000809180008160809380008091B100846058
:101DE0008093B1008091B00081608093B0008091B9
:101DF0009100826080939100809191008160809336
:101E00009100809190008160809390008091A1006A
:101E100082608093A1008091A10081608093A100E5
:101E20008091A00081608093A00080912101826058
:101E30008093210180912101816080932101809113
:101E4000200181608093200180917A0084608093DA
:101E50007A0080917A00826080937A0080917A0083
:101E6000816080937A0080917A00806880937A0004
:101E70001092C100E0918504F091860482E0808395
:101E8000E0918104F09182041082E0918304F0914A
:101E900084048FEC808310928D04E0918904F0918A
:101EA0008A0486E08083E0918704F0918804808131
:101EB00080618083E0918704F0918804808188604C
:101EC0008083E0918704F09188048081806880831A
:101ED000E0918704F091880480818F7D808361E0A8
:101EE000809129060E947B0260E0809129060E9471
:101EF0004C0260E0809128060E947B028FE293E012
:101F0000909333068093320610929A0210929902AF
:101F10001092A3021092C4021092A10281E0809359
:101F2000A00210929F0261E084E10E944C0261E0F5
:101F300085E10E944C028091B9008E7F8093B900A8
:101F40008091B9008D7F8093B90088E48093B800B8
:101F500085E48093BC0088EC91E090939C02809390
:101F60009B0289EC91E090939E0280939D0280E019
:101F700090E1A0E0B0E08093350690933606A09300
:101F80003706B09338068AE090E0A0E0B0E0809396
:101F9000390690933A06A0933B06B0933C0680E046
:101FA00090E0A0E0B0E480933D0690933E06A093BD
:101FB0003F06B093400660E070E185E00E948B0C24
:101FC0006FE979E380E00E948B0CC8E2D6E08E01D5
:101FD00052E0752E68E8A62E62E0B62E7EEC872EC3
:101FE00072E0972EEBECEE2EE7E0FE2EF8019481E6
:101FF0008281898F9A8F61E00E947B0261E08A8DE5
:102000000E947B02F801908586816E01FDE1CF0E72
:10201000D11C8D8F9E8F61E00E947B0260E08E8DCF
:102020000E947B0261E08D8D0E944C026FB6F89495
:1020300080916F02811126C0F5018491F4012491F1
:10204000E82FF0E0EE0FFF1FE15EFD4FA591B49188
:102050009C91822F892321F461E085E30E944C0248
:1020600061E085E30E947B028CB580618CBD8CB5FC
:1020700080648CBD61E084E30E947B0261E083E3C5
:102080000E947B0280916F028F5F80936F026FBE10
:10209000C7010197F1F760E08D8D0E944C0288E83E
:1020A0000E94220483E00E94220461E08D8D0E9440
:1020B0004C02C7010197F1F7C6010E9414097A94F6
:1020C0000F5F1F4F2296711091CFCDE4D6E001E54E
:1020D00016E060E089910E947B020C171D07C9F78A
:1020E00009E416E08BE4E82E86E0F82EE80195E09E
:1020F000D92E2CE0B22E32E0C32E88898C3008F025
:1021000045C0A88461E08A2D0E947B028889D89E00
:10211000F0011124EC51FA4F9A2D9F732081207CFD
:10212000A22EA92AA082138214826B2D0E94591418
:10213000FCE08F9FA001112420E030E0BA01620F83
:10214000731FD69EF001D79EF00D1124EC51FA4F6B
:10215000908196FD12C02F5F3F4F2C30310571F7F3
:1021600081110BC010928000C092810010928500F6
:1021700010928400C6BAC0926F00E889DE9EF0011A
:102180001124EC51FA4F8081806480839E858C8578
:10219000F801828B938B60E00E947B0261E0F80182
:1021A00083890E947B0260E0F80183890E944C02CF
:1021B00021960E5F1F4FEC16FD0609F09ECFF89496
:1021C0001092200189E08093210180E293E09093B6
:1021D000290180932801109225011092240182E0A8
:1021E0008093730078948093120510921605809165
:1021F000130560E00E947B0260E070E081EF92E4F2
:102200000E94670E64EF71E080E090E00E94B004ED
:1022100040E050E064EB72E480E00E94920E64EFD4
:1022200071E080E090E00E94B00460E070E080EA3D
:1022300092E40E94670E64EF71E080E090E00E94FB
:10224000B00440E050E064EB72E481E00E94920E42
:1022500064EF71E080E090E00E94B00460E070E024
:102260008FEC92E40E94670E64EF71E080E090E0F2
:102270000E94B00440E050E060EF71E481E00E9411
:10228000920E64EF71E080E090E00E94B00460E0A4
:1022900070E08AE293E40E94670E64EF71E080E0F0
:1022A00090E00E94B00440E050E064EB72E480E013
:1022B0000E94920E64EF71E080E090E00E94B00412
:1022C00060E070E084E392E40E94670E64EF71E0E6
:1022D00080E090E00E94B00440E050E060EF71E4E4
:1022E00081E00E94920E64EF71E080E090E00E9435
:1022F000B00460E070E08AEF92E40E94670E6AE04A
:1023000070E080E090E00E94B0040E94F503F7CFF7
:1023100080912106909122060C941F161092320390
:102320001092310388EE93E0A0E0B0E08093330395
:1023300090933403A0933503B093360323E132E046
:102340003093300320932F0310923E0310923D03ED
:1023500080933F0390934003A0934103B0934203C3
:1023600025E232E030933C0320933B0345E351E008
:10237000509348034093470344E351E050934A038A
:102380004093490340E351E050934C0340934B0387
:1023900041E351E050934E0340934D0342E351E03B
:1023A0005093500340934F0346E351E05093520340
:1023B0004093510310925403109255031092560308
:1023C000109257031092DB031092DA038093DC0320
:1023D0009093DD03A093DE03B093DF033093D90322
:1023E0002093D80345ED50E05093E5034093E40378
:1023F00044ED50E05093E7034093E60340ED50E096
:102400005093E9034093E80341ED50E05093EB0310
:102410004093EA0342ED50E05093ED034093EC0308
:1024200046ED50E05093EF034093EE031092F1031A
:102430001092F2031092F3031092F40310927804B6
:10244000109277048093790490937A04A0937B048C
:10245000B0937C04309376042093750485EC90E06F
:10246000909382048093810484EC90E090938404A0
:102470008093830480EC90E090938604809385049D
:1024800081EC90E0909388048093870482EC90E044
:1024900090938A048093890486EC90E090938C0456
:1024A00080938B0410928E0410928F0410929004EB
:1024B000109291048091070290910802A091090264
:1024C000B0910A028093490690934A06A0934B0666
:1024D000B0934C0680910B0290910C02A0910D02DA
:1024E000B0910E0280934D0690934E06A0934F0636
:1024F000B093500684E08093510687E080935206A3
:102500001092530684EB8093540686E1809355061F
:1025100088E18093560687E18093570689E180938E
:102520005806E0912006EC3020F08FEF809359069A
:1025300010C081E08E0F80932006E093590625E0BD
:10254000E29FF0011124EC51FA4F88EB9BE092835B
:102550008183E0912006EC3020F08FEF80935A06C3
:1025600010C081E08E0F80932006E0935A0685E02C
:10257000E89FF0011124EC51FA4F88EB9BE0928325
:1025800081838CE08093280684E28093290686E08C
:1025900080932A0685E080932B068FE180932C069A
:1025A0008EE180932D0683E280932E0682E2809353
:1025B0002F0685E48093300684E48093310680E41E
:1025C000809334061092390610923A0610923B0618
:1025D00010923C0610923D0610923E0610923F0665
:1025E00010924006E3E6F6E08FEF9FEFDC011282E7
:1025F00013821482158216821782108611868387B1
:102600009487A587B6878787908BA18BB28B12861C
:1026100011821082739627E0E132F20741F78DE0D4
:1026200090E00E948715FC011382128287E392E0FA
:1026300091838083118687E2848384E1828784E0AA
:1026400083871486F0936006E0935F06109261061C
:102650001092620685E280931305109215056EE4D0
:1026600072E081E296E00C9434050E94771308F43E
:1026700081E00895E89409C097FB3EF49095809519
:10268000709561957F4F8F4F9F4F9923A9F0F92F38
:1026900096E9BB279395F695879577956795B795B6
:1026A000F111F8CFFAF4BB0F11F460FF1BC06F5F9C
:1026B0007F4F8F4F9F4F16C0882311F096E911C0AE
:1026C000772321F09EE8872F762F05C0662371F0CF
:1026D00096E8862F70E060E02AF09A95660F771FE3
:1026E000881FDAF7880F9695879597F90895990FBF
:1026F0000008550FAA0BE0E8FEEF16161706E807CC
:10270000F907C0F012161306E407F50798F0621BEC
:10271000730B840B950B39F40A2661F0232B242BC1
:10272000252B21F408950A2609F4A140A6958FEFE0
:10273000811D811D08950E94AE130C941F140E94E8
:10274000111438F00E94181420F0952311F00C9405
:1027500008140C940E1411240C9453140E94301479
:1027600070F3959FC1F3950F50E0551F629FF001E4
:10277000729FBB27F00DB11D639FAA27F00DB11DFD
:10278000AA1F649F6627B00DA11D661F829F222786
:10279000B00DA11D621F739FB00DA11D621F839F0D
:1027A000A00D611D221F749F3327A00D611D231FE3
:1027B000849F600D211D822F762F6A2F11249F5731
:1027C00050409AF0F1F088234AF0EE0FFF1FBB1F34
:1027D000661F771F881F91505040A9F79E3F5105F3
:1027E00080F00C9408140C9453145F3FE4F3983E6B
:1027F000D4F3869577956795B795F795E7959F5F9D
:10280000C1F7FE2B880F911D9695879597F908952E
:1028100097F99F6780E870E060E008959FEF80EC93
:10282000089500240A941616170618060906089536
:1028300000240A9412161306140605060895092E9C
:102840000394000C11F4882352F0BB0F40F4BF2B0B
:1028500011F460FF04C06F5F7F4F8F4F9F4F08954B
:1028600057FD9058440F551F59F05F3F71F0479541
:10287000880F97FB991F61F09F3F79F08795089526
:10288000121613061406551FF2CF4695F1DF08C045
:10289000161617061806991FF1CF86957105610562
:1028A00008940895E894BB2766277727CB0197F90A
:1028B0000895991B79E004C0991F961708F0961B9C
:1028C000881F7A95C9F780950895EE0FFF1F881F1E
:1028D0008BBF0790F691E02D19945058BB27AA277B
:1028E0000E9485140C941F140E94111438F00E9449
:1028F000181420F039F49F3F19F426F40C940E14A8
:102900000EF4E095E7FB0C940814E92F0E943014B4
:1029100058F3BA17620773078407950720F079F414
:10292000A6F50C9452140EF4E0950B2EBA2FA02DA0
:102930000B01B90190010C01CA01A0011124FF276C
:10294000591B99F0593F50F4503E68F11A16F04067
:10295000A22F232F342F4427585FF3CF4695379566
:102960002795A795F0405395C9F77EF41F16BA0B2B
:10297000620B730B840BBAF09150A1F0FF0FBB1FD9
:10298000661F771F881FC2F70EC0BA0F621F731F22
:10299000841F48F4879577956795B795F7959E3F7F
:1029A00008F0B0CF9395880F08F09927EE0F979510
:1029B000879508950E94EE140C941F140E94181419
:1029C00058F00E94111440F029F45F3F29F00C9454
:1029D000081451110C9453140C940E140E943014CA
:1029E00068F39923B1F3552391F3951B550BBB273E
:1029F000AA2762177307840738F09F5F5F4F220F83
:102A0000331F441FAA1FA9F335D00E2E3AF0E0E879
:102A100032D091505040E695001CCAF72BD0FE2FC3
:102A200029D0660F771F881FBB1F26173707480757
:102A3000AB07B0E809F0BB0B802DBF01FF2793580F
:102A40005F4F3AF09E3F510578F00C9408140C94B7
:102A500053145F3FE4F3983ED4F3869577956795DA
:102A6000B795F7959F5FC9F7880F911D9695879544
:102A700097F90895E1E0660F771F881FBB1F621763
:102A800073078407BA0720F0621B730B840BBA0B21
:102A9000EE1F88F7E09508950E9453156894B111D0
:102AA0000C94531408950E94381488F09F5798F09E
:102AB000B92F9927B751B0F0E1F0660F771F881F43
:102AC000991F1AF0BA95C9F714C0B13091F00E945D
:102AD0005214B1E008950C945214672F782F882770
:102AE000B85F39F0B93FCCF3869577956795B39584
:102AF000D9F73EF490958095709561957F4F8F4FF3
:102B00009F4F08950E94771308F48FEF08950F9355
:102B10001F93CF93DF938230910510F482E090E011
:102B2000E0912307F091240720E030E0A0E0B0E03E
:102B3000309719F14081518102811381481759075B
:102B4000C8F08417950769F4109731F012960C932A
:102B5000129713961C9327C0009323071093240702
:102B600022C02115310519F04217530718F49A01B4
:102B7000BD01EF01DF01F801DBCF21153105F9F0CF
:102B8000281B390B2430310580F48A819B81611523
:102B9000710521F0FB019383828304C09093240785
:102BA00080932307FE01329644C0FE01E20FF31F1B
:102BB0008193919322503109398328833AC020911F
:102BC000210730912207232B41F4209103023091F9
:102BD00004023093220720932107209101023091B3
:102BE00002022115310541F42DB73EB7409105028F
:102BF00050910602241B350BE0912107F09122072A
:102C0000E217F307A0F42E1B3F0B2817390778F0C3
:102C1000AC014E5F5F4F2417350748F04E0F5F1F22
:102C200050932207409321078193919302C0E0E0E3
:102C3000F0E0CF01DF91CF911F910F910895CF93D5
:102C4000DF93009709F481C0FC013297138212824E
:102C5000A0912307B0912407109781F4208131813E
:102C6000820F931F209121073091220728173907DF
:102C700051F5F0932207E093210767C0ED0120E0B2
:102C800030E0CE17DF0740F44A815B819E01411599
:102C90005105F1F0EA01F5CFD383C2834081518120
:102CA000840F951FC817D90759F488819981840F1B
:102CB000951F0296918380838A819B81938382836F
:102CC0002115310529F4F0932407E09323073DC033
:102CD000E901FB83EA8349915991C40FD51FEC1791
:102CE000FD0761F480819181840F951F0296E901AF
:102CF00099838883828193819B838A83E0E0F0E0DB
:102D000012968D919C911397009719F0FD01DC01AB
:102D1000F7CF8D919C9111979D012E5F3F4F820FB0
:102D2000931F20912107309122072817390769F452
:102D3000309729F4109224071092230702C01382BF
:102D40001282B0932207A0932107DF91CF910895BB
:102D50006F927F928F929F92AF92BF92CF92DF92AB
:102D6000EF92FF920F931F93CF93DF93009789F415
:102D7000CB01DF91CF911F910F91FF90EF90DF90EA
:102D8000CF90BF90AF909F908F907F906F900C945A
:102D90008715FC01E60FF71F9C0122503109E2174D
:102DA000F30708F4A9C0EC01D9010D911C9111970A
:102DB00006171707B0F00530110508F49BC0C801CD
:102DC00004978617970708F495C002501109061B4F
:102DD000170B019311936D937C93CF010E941F16E3
:102DE00089C05B01A01AB10A4C01800E911EA0910E
:102DF0002307B0912407612C712CE12CF12C109742
:102E000009F446C08D919C911197A815B905B1F5AB
:102E10006C0142E0C40ED11CCA14DB0478F14C01F1
:102E20008A189B08640142E0C40ED11C1296BC9023
:102E300012971396AC91B5E0CB16D10440F0B28254
:102E4000A38391828082D9016D937C9309C00E5F28
:102E50001F4F800F911FF90191838083EB2DFA2F73
:102E6000E114F10431F0D7011396FC93EE9312971D
:102E700041C0F0932407E09323073CC0681679060D
:102E800008F43C017D0112960D90BC91A02DB7CFA6
:102E9000809121079091220788169906E1F4661621
:102EA0007706C8F48091010290910202009741F4E4
:102EB0008DB79EB74091050250910602841B950B79
:102EC000E817F907C8F4F0932207E0932107F90106
:102ED000718360830FC0CB010E9487157C0100972E
:102EE00059F0A801BE010E949217CE010E941F1640
:102EF000C70104C0CE0102C080E090E0DF91CF9115
:102F00001F910F91FF90EF90DF90CF90BF90AF9007
:102F10009F908F907F906F90089581E090E0F8945B
:102F20000C94AB17FB01DC0102C001900D924150E3
:102F30005040D8F70895FB01DC018D910190801974
:102F40000110D9F3990B0895FB01DC0101900D925A
:102F50000020E1F7089511E0C4E9D1E000E006C0E7
:102F6000802FFE010E9465142196011DC539D107ED
:0A2F700080E00807A9F7F894FFCFEE
:102F7A00FF000025072000363738391B1D1A1C00B0
:102F8A000000005A042D042A04CA01EE01DA01CB1A
:102F9A0001000000008303DC020603D00337031597
:102FAA00032903000000008B04DC022A04290474AC
:102FBA006F75726E6572006176616E63657200008C
:00000001FF
