:100000000C9495010C94C6010C94C6010C94C60185
:100010000C94C6010C94C6010C94C6010C94C60144
:100020000C94C6010C945B0E0C945B0E0C945B0E4E
:100030000C94C6010C9458040C94C6010C94C6018F
:100040000C94C6010C94CF080C94C6010C94C60104
:100050000C94C6010C94C6010C94C6010C94C00308
:100060000C94C6010C94C7050C949D050C94C60114
:100070000C94C6010C94C6010C94C6010C94C601E4
:100080000C94C6010C94C6010C94C6010C94C601D4
:100090000C94C6010C94C6010C94C6010C94650E18
:1000A0000C94C6010C94C6010C94C6010C94C601B4
:1000B0000C94C6010C94C6010C94C6010C94F10575
:1000C0000C94C6010C94C6010C94C6010C947305E3
:1000D0000C9449050C94C6010C941F050C94F5046E
:1000E0000C94C601100715071A0724072E07A70747
:1000F00038074007480752075C07660775077F0700
:10010000A707890793079D07240D270D160D1A0DC4
:10011000200D5E0D2B0D2F0D350D390D3D0D430DB1
:10012000470D4B0D5E0D510D550D590D0C94240DC1
:100130000C9401020C94800C0C9466070C94590DDD
:100140000C947F070C94F2010C94390D0C94100759
:100150000C94910C0C9489070C942F0D0C94810C29
:100160000C9423020C94350D0C942E070C94A707C5
:100170000C949D070C94160D0C9416030C943807E0
:100180000C94AD0C0C946A130C943D0D0C94C801A6
:100190000C947F0C0C9440070C94200D0C941502C9
:1001A0000C946F020C9415030C94820C0C94470D64
:1001B0000C94270D0C9476030C944B0D0C94A50C09
:1001C0000C9475070C9452070C9493070C945E0DD5
:1001D0000C9470130C94510D0C9415070C94430D52
:1001E0000C941A0D0C9424070C94DA0C0C942B0D1F
:1001F0000C94550D0C94BC020C941A070C944807EF
:100200000C945C070200002100240027002A002D26
:10021000003000330001010000040107010A010061
:10022000002200250028002B002E0031003400029F
:10023000010000050108010B010000200023002639
:100240000029002C002F00320000010000030106ED
:10025000010901050505050705080808080202024D
:10026000020A0A0808040404040101010101010151
:10027000010303030303030303040707070C0C0C28
:100280000C0C0C0C0C020202020606060606060600
:10029000060B0B0B0B0B0B0B0B010210202008089D
:1002A00010204010204080020102010804020101D8
:1002B00002040810204080804020100804020180C1
:1002C0000402018040201008040201080402010118
:1002D0000204081020408001020408102040800021
:1002E000000A0B02090C0D0E0807030401000000B0
:1002F00000000000000000000000000000000000FE
:1003000000000000000000000000001211100000BA
:1003100000000000000000000000000000000000DD
:1003200000000000000070136A1311241FBECFEFFD
:10033000D1E2DEBFCDBF00E00CBF12E0A0E0B2E032
:10034000E4E0F4E300E00BBF02C007900D92A23B93
:10035000B107D9F727E0A2EBB2E001C01D92A738A0
:10036000B207E1F711E0C4E9D1E000E006C021974F
:100370000109802FFE010E94AA16C339D10780E02F
:100380000807A9F70E9465100C94F0190C9400005E
:10039000CF92DF92EF92FF920F931F93CF93DF9351
:1003A0006C017A018B01C0E0D0E0CE15DF0581F051
:1003B000D8016D918D01D601ED91FC910190F081F4
:1003C000E02DC6011995892B11F02196EECF7E0103
:1003D000C701DF91CF911F910F91FF90EF90DF90B8
:1003E000CF900895FC01538D448D252F30E0842F4C
:1003F00090E0821B930B541710F0CF96089501974D
:100400000895FC01918D828D981761F0828DDF0136
:10041000A80FB11D5D968C91928D9F5F9F73928FF7
:1004200090E008958FEF9FEF0895FC01918D828DEC
:10043000981731F0828DE80FF11D858D90E00895B9
:100440008FEF9FEF0895FC01918D228D892F90E011
:10045000805C9F4F821B91098F739927089587EEC7
:1004600092E00E94230221E0892B09F420E0822FF0
:10047000089584E893E00E94230221E0892B09F487
:1004800020E0822F089581E294E00E94230221E07F
:10049000892B09F420E0822F0895FC01848DDF016F
:1004A000A80FB11DA35ABF4F2C91848D90E00196E7
:1004B0008F739927848FA689B7892C93A089B189D6
:1004C0008C91837080648C93938D848D981306C077
:1004D0000288F389E02D80818F7D80830895EF92DB
:1004E000FF920F931F93CF93DF93EC0181E0888FEE
:1004F0009B8D8C8D981305C0E889F989808185FDD5
:1005000026C0F62E0B8D10E00F5F1F4F0F731127C3
:10051000E02E8C8DE8120CC00FB607FCFACFE889EC
:10052000F989808185FFF5CFCE010E944D02F1CF80
:100530008B8DFE01E80FF11DE35AFF4FF0829FB74C
:10054000F8940B8FEA89FB89808180620AC09FB78B
:10055000F894EE89FF896083E889F9898081837046
:10056000806480839FBF81E090E0DF91CF911F91F5
:100570000F91FF90EF900895CF93DF93EC01888D5A
:100580008823C9F0EA89FB89808185FD05C0A88997
:10059000B9898C9186FD0FC00FB607FCF5CF80811D
:1005A00085FFF2CFA889B9898C9185FFEDCFCE0167
:1005B0000E944D02E7CFDF91CF910895E0E0F0E097
:1005C000199480E090E0892B21F00E944302811170
:1005D00019C080E090E0892B41F080E090E0892B09
:1005E00021F00E940000811110C00E943902811187
:1005F0000FC080E090E0892B81F00E942F028111D2
:100600000AC008950E940000E4CF0E940000EDCFD0
:100610000E94DE02EECF0C94000008958EBD000013
:100620000DB407FEFDCF8EB50895089580E090E0EB
:1006300008951F93CF93DF93EC01162F88818C30A0
:1006400008F04DC061E0812F0E94EF0FE88195E036
:100650009E9FF0011124E057FA4F1F738081807C28
:10066000182B10831382E8819E9FF0011124E0571C
:10067000FA4F148288816CE00E949E169CE0899F4C
:10068000A001112420E030E095E0BA01620F731F51
:10069000969FF001979FF00D1124E057FA4F60816B
:1006A00066FD13C02F5F3F4F2C30310571F781116C
:1006B0000CC01092800082E080938100109285002F
:1006C0001092840086BB80936F00E88185E0E89FEC
:1006D000F0011124E057FA4F808180648083888183
:1006E000DF91CF911F9108950E94D2190F931F930C
:1006F000CF93DF938C01C62FD62FD07FD1606D2F83
:100700000E941A0E6D2FC8010E942D0E80E1C89F15
:10071000B0011124C62FC1606C2FC8010E941A0EAF
:100720006C2FC8010E942D0E81E090E0DF91CF91E7
:100730001F910F9108953FB7F8948091D70290913F
:10074000D802A091D902B091DA0226B5A89B05C0C3
:100750002F3F19F00196A11DB11D3FBFBA2FA92F40
:10076000982F8827820F911DA11DB11DBC01CD01BD
:1007700042E0660F771F881F991F4A95D1F70895A9
:100780001F920F920FB60F9211242F933F938F93C6
:100790009F93AF93BF938091D3029091D402A09185
:1007A000D502B091D6023091D20223E0230F2D372B
:1007B00020F40196A11DB11D05C026E8230F029665
:1007C000A11DB11D2093D2028093D3029093D40235
:1007D000A093D502B093D6028091D7029091D8020F
:1007E000A091D902B091DA020196A11DB11D8093AA
:1007F000D7029093D802A093D902B093DA02BF91A6
:10080000AF919F918F913F912F910F900FBE0F90BD
:100810001F901895EF92FF920F931F93CF93DF9342
:10082000EC01198218821B821A821D821C826115BA
:100830007105B9F17B01FB0101900020E9F73197C7
:100840008F01061B170BB8016F5F7F4F80E090E0B0
:100850000E94ED18009759F0998388831B830A83BF
:100860002C813D81232B81F4FC0110820DC08881F5
:100870009981009711F00E946418198218821D82D4
:100880001C821B821A820DC01D830C83B7018881D4
:100890009981DF91CF911F910F91FF90EF900C9470
:1008A000E919DF91CF911F910F91FF90EF9008957B
:1008B0001F920F920FB60F9211240BB60F922F9327
:1008C0003F934F935F936F937F938F939F93AF93D8
:1008D000BF93EF93FF938091CD029091CE02A091B0
:1008E000CF02B091D002892B8A2B8B2B49F19091AA
:1008F000CC02809100008927809300008091CD0276
:100900009091CE02A091CF02B091D0021816190694
:100910001A061B060CF056C08091CD029091CE02B3
:10092000A091CF02B091D0020197A109B1098093A3
:10093000CD029093CE02A093CF02B093D00242C0DA
:1009400080910002E4E0F2E0E4919FEF90930002D6
:10095000E230C9F050F4EE2399F0E13081F5909146
:100960006F009D7F90936F002AC0E43019F1E0F092
:10097000E53029F5909173009D7F909373001FC01F
:1009800010926E001CC0909170009D7F909370003B
:1009900091E09093B0009091B100987F9460909313
:1009A000B1001092B3000BC0909171009D7F9093A5
:1009B000710005C0909172009D7F9093720060E07D
:1009C0000E94C00FFF91EF91BF91AF919F918F91C6
:1009D0007F916F915F914F913F912F910F900BBE3F
:1009E0000F900FBE0F901F9018951F920F920FB689
:1009F0000F9211240BB60F922F933F934F935F9357
:100A00006F937F938F939F93AF93BF93EF93FF93D6
:100A100087EE92E00E944D02FF91EF91BF91AF915E
:100A20009F918F917F916F915F914F913F912F9106
:100A30000F900BBE0F900FBE0F901F9018951F9236
:100A40000F920FB60F9211240BB60F922F933F9374
:100A50004F935F936F937F938F939F93AF93BF93C6
:100A6000EF93FF9387EE92E00E94420EFF91EF9189
:100A7000BF91AF919F918F917F916F915F914F91B6
:100A80003F912F910F900BBE0F900FBE0F901F90B4
:100A900018951F920F920FB60F9211240BB60F925A
:100AA0002F933F934F935F936F937F938F939F9376
:100AB000AF93BF93EF93FF9384E893E00E944D02BE
:100AC000FF91EF91BF91AF919F918F917F916F9126
:100AD0005F914F913F912F910F900BBE0F900FBEE2
:100AE0000F901F9018951F920F920FB60F9211241E
:100AF0000BB60F922F933F934F935F936F937F9318
:100B00008F939F93AF93BF93EF93FF9384E893E00A
:100B10000E94420EFF91EF91BF91AF919F918F91F3
:100B20007F916F915F914F913F912F910F900BBEED
:100B30000F900FBE0F901F9018951F920F920FB637
:100B40000F9211240BB60F922F933F934F935F9305
:100B50006F937F938F939F93AF93BF93EF93FF9385
:100B600081E294E00E944D02FF91EF91BF91AF911D
:100B70009F918F917F916F915F914F913F912F91B5
:100B80000F900BBE0F900FBE0F901F9018951F92E5
:100B90000F920FB60F9211240BB60F922F933F9323
:100BA0004F935F936F937F938F939F93AF93BF9375
:100BB000EF93FF9381E294E00E94420EFF91EF9148
:100BC000BF91AF919F918F917F916F915F914F9165
:100BD0003F912F910F900BBE0F900FBE0F901F9063
:100BE00018951F920F920FB60F9211240BB60F9209
:100BF0002F933F934F935F936F937F938F939F9325
:100C0000AF93BF93EF93FF938091BF040E94970F20
:100C10002091C3043091C4042F5F3F4F3093C4042C
:100C20002093C3049091C204953618F096E09093F7
:100C3000BE049091BE049430C9F128F4923069F05A
:100C40009330D1F05EC0953009F451C0963009F070
:100C500058C091E090938F0551C0811152C02091EE
:100C6000C3043091C4042436310508F442C0109204
:100C70008F051092C2041CC0813009F042C0E0917F
:100C8000C20491E09E0F9093C204F0E02091C3044F
:100C90003091C404EE0FFF1FE254FB4F30872783CF
:100CA0001092C4041092C30494E029C0811117C0AB
:100CB000E091C20491E09E0F9093C204F0E0209175
:100CC000C3043091C404EE0FFF1FE254FB4F308782
:100CD00027831092C4041092C30493E010C02091A3
:100CE000C3043091C4042536310558F007C0811182
:100CF00008C01092C4041092C30403C095E09093FE
:100D0000BE049091C1049923B9F081110AC0809169
:100D1000C004882321F08091C00461E009C02F9AAB
:100D20000BC08091C004882331F08091C00460E042
:100D30000E94C00F01C02F98FF91EF91BF91AF911A
:100D40009F918F917F916F915F914F913F912F91E3
:100D50000F900BBE0F900FBE0F901F9018958F92A3
:100D60009F92AF92BF92CF92DF92EF92FF920F933A
:100D70001F93CF93DF938C016A017B0120E030E069
:100D80004FE753E4C701B6010E947D154B015C019A
:100D900020E030E0A9010E94C71718161CF4C50115
:100DA000B40103C0C501B40190580E949117EB0132
:100DB00020E030E0A901C701B6010E94C71718164C
:100DC00014F460E001C061E0F80181810E94C00F6D
:100DD000CF3FD10509F014F4DD2702C0CFEFD0E0FA
:100DE000F801108161E0812F0E94EF0F209709F434
:100DF000B1C0CF3FD10509F4AFC0E12FF0E0E1521F
:100E0000FD4FE4918E2F90E0FC013197E231F10526
:100E100008F09DC08827EE58FF4F8F4F0C94AA16FC
:100E200084B5806884BDC7BDA7C084B5806284BD19
:100E3000C8BDA2C080918000806880938000D0935C
:100E40008900C093880098C0809180008062809360
:100E50008000D0938B00C0938A008EC08091800068
:100E6000886080938000D0938D00C0938C0084C0F4
:100E70008091B00080688093B000C093B3007CC0C4
:100E80008091B00080628093B000C093B40074C0C1
:100E900080919000806880939000D0939900C093D7
:100EA00098006AC080919000806280939000D093F7
:100EB0009B00C0939A0060C08091900088608093EE
:100EC0009000D0939D00C0939C0056C08091A000DC
:100ED00080688093A0008091A0008F7B8093A00009
:100EE000D093A900C093A80047C08091A000806261
:100EF0008093A000D093AB00C093AA003DC0809126
:100F0000A00088608093A000D093AD00C093AC0097
:100F100033C080912001806880932001D093290103
:100F2000C093280129C08091200180628093200114
:100F3000D0932B01C0932A011FC0809120018860AB
:100F400080932001D0932D01C0932C0115C0C0388F
:100F5000D10514F460E001C061E0812FDF91CF91F1
:100F60001F910F91FF90EF90DF90CF90BF90AF90C7
:100F70009F908F900C94C00FDF91CF911F910F9194
:100F8000FF90EF90DF90CF90BF90AF909F908F90A9
:100F90000895CF93DF93EC0160E088810E94C00F39
:100FA00088E90E940E0380E00E940E0380E00E9408
:100FB0000E0380E00E940E0380E00E940E0361E0B9
:100FC00088810E94C00F8BE891E00197F1F760E003
:100FD00088810E94C00F80EE0E940E0361E088812C
:100FE000DF91CF910C94C00FAF92BF92CF92DF925E
:100FF000EF92FF920F931F93CF93DF93CDB7DEB79E
:1010000060970FB6F894DEBF0FBECDBF5C0160E005
:10101000FC0180810E94C00F80E60E940E038E01B9
:101020000F5F1F4F7E01F1E1EF0EF11C680180E0C0
:101030000E940E0390E0A0E0B0E0F601819391934E
:10104000A193B1936F01EE15FF0589F761E0F501FA
:1010500080810E94C00F80E090E0DC01F8014191A6
:101060005191619171918F01BA2FA92F982F8827E3
:10107000840F951FA61FB71FEE15FF0579F79C017A
:10108000AD0166277727CB01621B730B840B950B91
:1010900060960FB6F894DEBF0FBECDBFDF91CF9143
:1010A0001F910F91FF90EF90DF90CF90BF90AF9086
:1010B0000895CF92DF92EF92FF92CF93DF93FC01DE
:1010C000C081CC3008F064C0D0E085E08C9FF00196
:1010D0008D9FF00D1124E057FA4F838128E830E00E
:1010E0006901C81AD10887FDD394CC0CDD1CCC0C47
:1010F000DD1C683C71053CF50D2C000CEE08FF086A
:10110000848128E532E0281B310987FD3395220FC1
:10111000331F220F331FC901330FAA0BBB0B9C01D6
:10112000AD012C193D094E095F09DB010E946516CE
:1011300024EB30E040E050E00E943B16C20ED31E8C
:10114000E41EF51E13C06C157D0584F0248188E52E
:1011500092E0821B910927FD9395880F991F880FB4
:10116000991F6B01861797070CF46C018FB7F894E1
:1011700095E09C9FF0019D9FF00D1124E057FA4FE0
:1011800096E0C91AD108CC0CDD1CD282C1828FBF77
:10119000DF91CF91FF90EF90DF90CF9008951F9255
:1011A0000F920FB60F9211240BB60F922F933F930D
:1011B0004F935F936F937F938F939F93AF93BF935F
:1011C000EF93FF938091CB0287FF05C010928500BB
:1011D0001092840016C02091CB02022E000C330B1B
:1011E0008091CC0590E0281739075CF43091CB0250
:1011F00025E03203F0011124E057FA4F808186FD8B
:1012000015C08091CB028F5F8093CB022091CB02DF
:10121000022E000C330B8091CC0590E02817390783
:1012200094F48091CB028C302CF10DC03091CB0224
:101230003203F0011124E057FA4F808160E08F7390
:101240000E94C00FDECF809184009091850084348D
:101250009C4918F480E49CE905C080918400909139
:101260008500049690938900809388008FEF809387
:10127000CB022AC040918400509185003091CB026E
:1012800025E03203F0011124E057FA4F8181928169
:10129000840F951F90938900809388003091CB0232
:1012A0003203F0011124E057FA4F808186FF0CC011
:1012B0003091CB023203F0011124E057FA4F8081C4
:1012C00061E08F730E94C00FFF91EF91BF91AF91CA
:1012D0009F918F917F916F915F914F913F912F914E
:1012E0000F900BBE0F900FBE0F901F9018952F926E
:1012F0003F924F925F926F927F928F929F92AF92A6
:10130000BF92CF92DF92EF92FF920F931F93CF93F2
:10131000DF93CDB7DEB762970FB6F894DEBF0FBE8E
:10132000CDBF1C012A013B010D831E832F8338870B
:10133000FA8AE98A81EF95E00E94C90783EF95E078
:101340000E94C907D10114968D919C911597892B04
:1013500041F060E772E08D919C910E94E019892B29
:1013600069F027ED33EA40E75FE3C301B2010E9471
:101370007D1569837A838B839C8304C049825A825A
:101380006B827C8220E030E0A9016D817E818F81BB
:1013900098850E94C71718162CF48D819E81AF8105
:1013A000B88505C08D819E81AF81B885B0588D8785
:1013B0009E87AF87B88B812C912C540175016401F5
:1013C00089869A86AB86BC862D853E854F85588951
:1013D00069857A858B859C850E94171587FFF3C0E8
:1013E000D10114968D919C911597892B09F451C0C8
:1013F00060E772E08D919C910E94E019892B09F0C1
:1014000048C0E989FA89F7FD44C0EF2BA1F481EFC8
:1014100095E00E94F4070E941E156B017C0183EF8A
:1014200095E00E94F4070E941E154B015C01B30178
:10143000A201705866C089899A89019709F06EC027
:1014400081EF95E00E94F4079095809570956195E5
:101450007F4F8F4F9F4F0E941E156B017C0183EFC2
:1014600095E00E94F40790958095709561957F4F67
:101470008F4F9F4F0E941E154B015C01B301A201CB
:101480008DEE95E00E94AF0649815A816B817C8187
:1014900041C020E030E0A9016D817E818F81988577
:1014A0000E94C7171816A4F481EF95E00E94F40774
:1014B00090958095709561957F4F8F4F9F4F0E94BB
:1014C0001E156B017C0183EF95E00E94F40713C0A9
:1014D00081EF95E00E94F4070E941E156B017C01CC
:1014E00083EF95E00E94F407909580957095619543
:1014F0007F4F8F4F9F4F0E941E154B015C01B30120
:10150000A2018DEE95E00E94AF0649815A816B8160
:101510007C8170588FEE95E00E94AF06A501940182
:10152000C701B6010E94B21620E030E040E05FE360
:101530000E947D152CEA35EC47E257E30E947D15A9
:101540009B01AC0169817A818B819C810E94B316D9
:1015500069837A838B839C83A7019601C501B401BB
:101560000E94B21620E030E040E05FE30E947D156B
:101570002CEA35EC47E257E30E947D159B01AC0154
:10158000C301B2010E94B3162B013C01A5019401D5
:10159000C701B6010E94B31620E030E048EC55E4E4
:1015A0000E941F1720E030E040EC51E40E947D15BE
:1015B00069877A878B879C8768EC70E080E090E091
:1015C0000E942B1001CF40E050E0BA018DEE95E073
:1015D0000E94AF0640E050E060E070E88FEE95E0DA
:1015E00062960FB6F894DEBF0FBECDBFDF91CF91EC
:1015F0001F910F91FF90EF90DF90CF90BF90AF9031
:101600009F908F907F906F905F904F903F902F9022
:101610000C94AF06E1E2F4E0A089B18982E08C93FA
:10162000A485B5851C92A685B7858FEC8C93108E0A
:10163000A489B58986E08C93A289B3898C91806155
:101640008C93A289B3898C9188608C93A289B38989
:101650008C9180688C930288F389E02D80818F7D46
:1016600080830895009769F0FC0101900020E9F75C
:101670003197AF01481B590BBC0181E294E00C94F7
:10168000C80180E090E00895CF93DF930E94320B71
:10169000EC0188E792E00E94320B8C0F9D1FDF91D6
:1016A000CF9108954F925F926F927F928F929F9207
:1016B000AF92BF92EF92FF920F931F93CF93DF935E
:1016C00000D000D0CDB7DEB72B013C0149015A0153
:1016D0006BE772E0CE0101960E940A04EE24EA94C0
:1016E000FE2C93018201B501A401CE0101960E9456
:1016F000770989819A810E94641826960FB6F8941A
:10170000DEBF0FBECDBFDF91CF911F910F91FF9034
:10171000EF90BF90AF909F908F907F906F905F9071
:101720004F9008954F925F926F927F928F929F9207
:10173000AF92BF92EF92FF920F931F93CF93DF93DD
:1017400000D000D0CDB7DEB7E82E2A013B0148011A
:10175000590160E772E0CE0101960E940A04F12C63
:1017600022E232E242EA5DE3C301B2010E947D154A
:101770008B019C01B501A401CE0101960E9477095D
:1017800089819A810E94641826960FB6F894DEBF6C
:101790000FBECDBFDF91CF911F910F91FF90EF90C2
:1017A000BF90AF909F908F907F906F905F904F9081
:1017B000089580917B00877F80937B0080E48093F5
:1017C0007C0080917A00806480937A0080917A0016
:1017D00086FDFCCF809178002091790090E0922BDB
:1017E00008953091D706313208F04BC08091D5066C
:1017F0008111FCCF9091820722E02093D50621E051
:101800002093D4062FEF2093600710925F07309348
:101810005E07E2E6F7E0AEE3B7E020E0321721F042
:1018200041914D932F5FFACF10923D0720913D07D4
:10183000990F922B90933D079091D306913061F4CC
:101840001092D30690913D079093BB009091BC00FD
:1018500093FDF8CF95EC01C095EE9093BC0090916C
:10186000D5069230E1F3909160079F3F79F0809127
:101870006007803241F080916007803331F084E06E
:1018800005C081E003C082E001C083E01092D6066B
:101890001092D70610926107089585ED8093BC00E1
:1018A0008091BC0084FDFCCF1092D5060895409134
:1018B0001807262F30E0240F311D21323105DCF4CA
:1018C0002091D5062430C9F4FC0180E090E0861711
:1018D00058F4309118072191DC01A850B94FA30F9B
:1018E000B11D2C930196F3CF80911807680F609378
:1018F000180780E0089581E0089582E00895089532
:1019000008950895E091CE068091CD06E81730F451
:10191000F0E0E852F94F808190E008958FEF9FEF5B
:1019200008959091CE068091CD06981750F4E92F36
:10193000F0E0E852F94F208130E09F5F9093CE06AF
:1019400002C02FEF3FEFC90108958091CD0690E0CE
:101950002091CE06821B91090895CF92DF92EF92DB
:10196000FF920F931F93CF93DF937C01CB018A01EA
:1019700020916107222389F0EB016B01C40ED51E73
:10198000CC15DD0569F06991D701ED91FC910190CD
:10199000F081E02DC7011995F3CF642F0E94570CF9
:1019A000C801DF91CF911F910F91FF90EF90DF90D1
:1019B000CF900895CF93DF931F92CDB7DEB76983A1
:1019C000209161072223D1F02091D706203240F0E8
:1019D00021E030E0FC013383228380E090E015C0F9
:1019E0008091D606E82FF0E0EE59F84F9981908368
:1019F0008F5F8093D6068093D70605C061E0CE0145
:101A000001960E94570C81E090E00F90DF91CF91FA
:101A1000089590E0FC013197E231F10508F04EC0E5
:101A20008827EC57FF4F8F4F0C94AA1680918000A7
:101A30008F7703C0809180008F7D80938000089510
:101A400080918000877FF9CF84B58F7702C084B5FD
:101A50008F7D84BD08958091B0008F7703C0809101
:101A6000B0008F7D8093B0000895809190008F77B3
:101A700007C0809190008F7D03C080919000877F88
:101A80008093900008958091A0008F7707C0809187
:101A9000A0008F7D03C08091A000877F8093A0006D
:101AA0000895809120018F7707C0809120018F7D5C
:101AB00003C080912001877F809320010895CF92F9
:101AC000DF92EF92FF920E94D90BBC01990F880B15
:101AD000990B0E941E152AE038E240EA5BE30E945F
:101AE0007D156B017C012DEC3CEC4CE950E40E942F
:101AF000C71718161CF483E892E021C020E030E0FC
:101B000040E850E4C701B6010E94C71718165CF4FC
:101B10008EE892E00E94440B4AE959E969E97EE3C4
:101B20008DEE95E030C020E030E040E450E4C701A5
:101B3000B6010E94C717181694F485E992E00E9436
:101B4000440B2AE939E949E15EE360E070E080EAAC
:101B500090E4FF90EF90DF90CF900C94520B20E038
:101B600030E040E85FE3C701B6010E94C7171816CE
:101B700084F480EA92E00E94440B4AE959E969E959
:101B80007EEB8FEE95E0FF90EF90DF90CF900C947E
:101B9000AF0687EA92E0FF90EF90DF90CF900C9431
:101BA000440B9091FF05891720F09091000698173B
:101BB00020F48FE392E00C94440B682F70E085E0F2
:101BC00096E00C9459080F931F93CF93DF93162F31
:101BD000072FC4EDD5E09C8521E020936107909309
:101BE00082071092D6061092D706AA85BB85ED9182
:101BF000FC9111970190F081E02D682FCD0119958E
:101C00008A859B85DC01ED91FC910190F081E02DAE
:101C1000602F19958A859B85DC01ED91FC910190DF
:101C2000F081E02D612F1995DF91CF911F910F91D8
:101C30000C94F10BFC01248131E030936107209377
:101C400082071092D6061092D7068485682B8BEDFA
:101C500092E00E94DA0C0C94F10B0F931F93CF9338
:101C60008C01C62F64600E941A0E6C2F6B7FC80116
:101C70000E941A0E83EC90E00197F1F7CF911F912B
:101C80000F910895FC01A089B1898C91A689B7892B
:101C900082FD0FC09C91818D8F5F8F73228D821783
:101CA00049F0218DDF01A20FB11D5D969C93818FBC
:101CB00008958C9108951F920F920FB60F921124E0
:101CC0000F900FBE0F901F9018951F920F920FB696
:101CD0000F9211240BB60F922F933F934F935F9364
:101CE0006F937F938F939F93AF93BF93EF93FF93E4
:101CF0008091B900887F803609F49CC068F58832ED
:101D000009F45BC090F4803109F454C038F488239E
:101D100009F4F6C0883009F44DC0F6C0883109F4E2
:101D20004CC0803209F45DC0EFC0803409F468C053
:101D300048F4803309F455C0883309F0E5C0809336
:101D40006007D8C0803509F44FC0883509F45DC0FC
:101D5000883409F0D9C0D6C0883909F4C7C0A8F4BE
:101D6000883709F467C038F4883609F463C08037CF
:101D700009F460C0C9C0883809F4B8C0803909F4D2
:101D80005FC0803809F0C0C05BC0803B09F486C0EA
:101D900038F4803A09F466C0883A09F47FC0B4C0C8
:101DA000803C09F4A7C0883C09F4A4C0883B09F42E
:101DB0008AC0AAC080913D0710C090915F078091B2
:101DC0005E07981770F5E0915F0781E08E0F8093B2
:101DD0005F07F0E0E25CF84F80818093BB0085EC08
:101DE00086C0809360078EC0E0915F0781E08E0F10
:101DF00080935F078091BB00F0E0E25CF84F808346
:101E000090915F0780915E076EC0E0915F0781E06F
:101E10008E0F80935F078091BB00F0E0E25CF84F8B
:101E200080838091D40681116DC081E08093D306B8
:101E300084EA61C083E08093D50610923A07CFCF41
:101E400080913A07803208F051C0E0913A0781E072
:101E50008E0F80933A078091BB00F0E0E65EF84F6A
:101E60008083BDCF85EC8093BC001092D506809115
:101E70003A07803230F4E0913A07F0E0E65EF84F3E
:101E8000108260913A0770E0E091D106F091D2069D
:101E90008AE197E0199510923A0736C084E0809362
:101EA000D5061092190710921807E091CF06F0910D
:101EB000D006199580911807811105C081E08093A3
:101EC00018071092F806E091190781E08E0F8093B1
:101ED0001907F0E0E850F94F80818093BB009091A2
:101EE000190780911807981708F479CF85E880932F
:101EF000BC000AC085EC8093BC001092D50604C0DB
:101F0000109260070E944D0CFF91EF91BF91AF912D
:101F10009F918F917F916F915F914F913F912F9101
:101F20000F900BBE0F900FBE0F901F901895CF9380
:101F3000DF93282F30E0F901E152FD4F8491F90140
:101F4000E756FD4FD491F901ED5AFD4FC491CC23D2
:101F500091F081110E94090DEC2FF0E0EE0FFF1FB0
:101F6000E75CFD4FA591B491EC91ED2381E090E009
:101F700021F480E002C080E090E0DF91CF910895ED
:101F80001F93CF93DF93282F30E0F901E152FD4FEB
:101F90008491F901E756FD4FD491F901ED5AFD4FB7
:101FA000C491CC23C1F0162F81110E94090DEC2F92
:101FB000F0E0EE0FFF1FE15EFD4FA591B4919FB7DA
:101FC000F894111104C08C91D095D82302C0EC91E3
:101FD000DE2BDC939FBFDF91CF911F910895CF93AC
:101FE000DF9390E0FC01E756FD4F2491FC01ED5A90
:101FF000FD4F8491882361F190E0880F991FFC01C7
:10200000EB5FFD4FC591D491FC01E15EFD4FA591C1
:10201000B491611109C09FB7F894888120958223FB
:102020008883EC912E230BC0623061F49FB7F89443
:102030008881322F309583238883EC912E2B2C932B
:102040009FBF06C08FB7F894E8812E2B28838FBFDF
:10205000DF91CF9108958F929F92AF92BF92CF92CE
:10206000DF92EF92FF926B017C010E949B034B0178
:102070005C01C114D104E104F104F1F00E949B035E
:10208000DC01CB0188199909AA09BB09883E934054
:10209000A105B10570F321E0C21AD108E108F108E9
:1020A00088EE880E83E0981EA11CB11CC114D104D7
:1020B000E104F10419F7DDCFFF90EF90DF90CF90AE
:1020C000BF90AF909F908F900895789484B5826070
:1020D00084BD84B5816084BD85B5826085BD85B5CC
:1020E000816085BD80916E00816080936E0010924A
:1020F00081008091810082608093810080918100C5
:102100008160809381008091800081608093800055
:102110008091B10084608093B1008091B0008160B3
:102120008093B000809191008260809391008091B3
:1021300091008160809391008091900081608093F4
:1021400090008091A10082608093A1008091A10005
:1021500081608093A1008091A00081608093A000A5
:102160008091210182608093210180912101816011
:1021700080932101809120018160809320018091D2
:102180007A00846080937A0080917A0082608093E4
:102190007A0080917A00816080937A0080917A0041
:1021A000806880937A001092C1000E940A0B61E05F
:1021B0008091D5050E94EF0F60E08091D5050E94C7
:1021C000C00F60E08091D4050E94EF0F8BED92E08C
:1021D0009093DF058093DE051092CE061092CD0617
:1021E0001092D6061092D7061092D50681E0809301
:1021F000D4061092D30661E084E10E94C00F61E032
:1022000085E10E94C00F8091B9008E7F8093B90054
:102210008091B9008D7F8093B90088E48093B800E5
:1022200085E48093BC008FE79CE09093D006809378
:10223000CF0680E89CE09093D2068093D10680E0A0
:1022400090E1A0E0B0E08093E1059093E205A093D7
:10225000E305B093E4058AE090E0A0E0B0E080936D
:10226000E5059093E605A093E705B093E80580E0C7
:1022700090E0A0E0B0E48093E9059093EA05A09394
:10228000EB05B093EC0560E070E185E00E94E30DA2
:102290006FE979E380E00E94E30DC4EDD5E08E01A3
:1022A00092E0792E28E8A22E22E0B22E3EEC832E78
:1022B00032E0932E4BECE42E47E0F42EF8019481AB
:1022C0008281898F9A8F61E00E94EF0F61E08A8D91
:1022D0000E94EF0FF801908586816E01FDE1CF0E1F
:1022E000D11C8D8F9E8F61E00E94EF0F60E08E8D7C
:1022F0000E94EF0F61E08D8D0E94C00F6FB6F894C1
:102300008091D102811126C0F5018491F4012491BC
:10231000E82FF0E0EE0FFF1FEB5FFD4FA591B491AA
:102320009C91822F892321F461E085E30E94C00FF4
:1023300061E085E30E94EF0F8CB580618CBD8CB5A8
:1023400080648CBD61E084E30E94EF0F61E083E371
:102350000E94EF0F8091D1028F5F8093D1026FBEF8
:10236000C7010197F1F760E08D8D0E94C00F88E8EA
:102370000E940E0383E00E940E0361E08D8D0E9497
:10238000C00FC7010197F1F7C6010E94C9077A94EF
:102390000F5F1F4F2296711091CF09EF15E0CDEF1F
:1023A000D5E060E0F80181918F010E94EF0FC01726
:1023B000D107B9F705EF15E07E01FFEFEF1AFF0A2D
:1023C000688170E0CE0108960E941903F70195819B
:1023D0008381F801828B938B60E00E94EF0F61E0B4
:1023E000F80183890E94EF0F60E0F80183890E9461
:1023F000C00F0E5F1F4FE701F5E0CF3FDF07E1F6AB
:10240000F8941092200189E08093210180E293E00A
:1024100090932901809328011092250110922401A4
:1024200082E08093730078948093BE041092C2047B
:102430008091BF0460E00E94EF0F6091FD0570E0A5
:1024400085E096E00E9419038091FF05883320F40F
:1024500080910006873328F48FE392E00E94440BBA
:1024600006C067E370E085E096E00E9459080E948C
:102470000A0B83EF95E00E94C90781EF95E00E9467
:10248000C9078091FC050E94970F892B09F41FC191
:102490000AE919E929E13EE340E050E064EB72E427
:1024A00081E00E94920B64E670E080E090E00E9480
:1024B0002B1020E030E040E85EE360E070E088EC64
:1024C00091E40E94520B64E670E080E090E00E948C
:1024D0002B100AE919E929E13EE340E050E066E902
:1024E00072E481E00E94920B64E670E080E090E08C
:1024F0000E942B100E94D90BEC010E945F0DBE01BF
:10250000DD0F880B990B0E941E152AE038E240EA85
:102510005BE30E947D150E949117672B59F764EFCA
:1025200071E080E090E00E942B1020E030E040E875
:102530005EEB6AE979E989E99FEB0E94520B64EF4F
:1025400071E080E090E00E942B1084EB0E94D10D9E
:1025500068EE73E080E090E00E942B100AE919E930
:1025600029E13EE340E050E064E372E480E00E9451
:10257000920B64E670E080E090E00E942B100BE785
:1025800014E12EE23EE340E050E064E372E480E0D8
:102590000E94920B64E670E080E090E00E942B10B5
:1025A0000AE919E929E13EE340E050E064E372E41E
:1025B00080E00E94920B64E670E080E090E00E9470
:1025C0002B100BE714E12EE23EE340E050E064E321
:1025D00072E480E00E94920B64E670E080E090E09C
:1025E0000E942B100E94D90BEC010E945F0DBE01CE
:1025F000DD0F880B990B0E941E152AE038E240EA95
:102600005BE30E947D150E949117672B59F78CE5BB
:1026100092E00E94320B64E670E080E090E00E945D
:102620002B108AE50E94D10D64EF71E080E090E00C
:102630000E942B1020E030E040E85EEB60E070E0AC
:1026400080E291EC0E94520B64E670E080E090E042
:102650000E942B100AE919E929E13EE340E050E02D
:1026600064E372E480E00E94920B64E670E080E034
:1026700090E00E942B100AE919E929E13EE340E0CD
:1026800050E064E372E480E00E94920B64E670E044
:1026900080E090E00E942B100AE919E929E13EE36D
:1026A00040E050E064E372E480E00E94920B64E654
:1026B00070E080E090E00E942B1020E030E040E8E5
:1026C0005EE360E070E080EA92E40E94520B0E94B8
:1026D000E102D7CE8091CD059091CE050C9464187F
:1026E0001092DE021092DD0288EE93E0A0E0B0E0EE
:1026F0008093DF029093E002A093E102B093E202A4
:1027000023E132E03093DC022093DB021092EA02F4
:102710001092E9028093EB029093EC02A093ED02F9
:10272000B093EE0225E232E03093E8022093E70214
:1027300045E351E05093F4024093F30244E351E047
:102740005093F6024093F50240E351E05093F802B3
:102750004093F70241E351E05093FA024093F902AB
:1027600042E351E05093FC024093FB0246E351E008
:102770005093FE024093FD02109200031092010359
:1027800010920203109203031092870310928603A3
:102790008093880390938903A0938A03B0938B035B
:1027A000309385032093840345ED50E050939103CB
:1027B0004093900344ED50E0509393034093920371
:1027C00040ED50E0509395034093940341ED50E069
:1027D000509397034093960342ED50E05093990332
:1027E0004093980346ED50E050939B0340939A0327
:1027F00010929D0310929E0310929F031092A003CB
:1028000010922404109223048093250490932604AC
:10281000A0932704B093280430932204209321042A
:1028200085EC90E090932E0480932D0484EC90E04E
:102830009093300480932F0480EC90E090933204C6
:102840008093310481EC90E09093340480933304BE
:1028500082EC90E0909336048093350486EC90E00F
:10286000909338048093370410923A0410923B04FA
:1028700010923C0410923D0480910702909108024E
:10288000A0910902B0910A028093F5059093F60594
:10289000A093F705B093F80580910B0290910C027C
:1028A000A0910D02B0910E028093F9059093FA0564
:1028B000A093FB05B093FC0584E08093FD0587E0C1
:1028C0008093FE051092FF0584EB8093000686E15D
:1028D0008093010688E18093020687E180930306D6
:1028E00089E180930406E091CC05EC3020F08FEF75
:1028F0008093050610C081E08E0F8093CC05E09395
:10290000050625E0E29FF0011124E057FA4F88EB1D
:102910009BE092838183E091CC05EC3020F08FEF37
:102920008093060610C081E08E0F8093CC05E09363
:10293000060685E0E89FF0011124E057FA4F88EB86
:102940009BE0928381838CE08093D40584E2809322
:10295000D50586E08093D60585E08093D7058FE185
:102960008093D8058EE18093D90583E28093DA05C0
:1029700082E28093DB0585E48093DC0584E4809328
:10298000DD0580E48093E0051092E5051092E605F0
:102990001092E7051092E8051092E9051092EA05F9
:1029A0001092EB051092EC05EFE0F6E08FEF9FEF51
:1029B000DC0112821382148215821682178210861D
:1029C000118683879487A587B6878787908BA18B8D
:1029D000B28B128611821082739626E0ED3CF207CC
:1029E00041F78DE090E00E94CC17FC011382128227
:1029F00087E392E091838083118687E2848384E178
:102A0000828784E083871486F0930C06E0930B069C
:102A100010920D0610920E0685E28093BF0410926C
:102A2000C1046AE772E08DEC95E00C940A040E9400
:102A3000591508F481E00895E89409C097FB3EF425
:102A400090958095709561957F4F8F4F9F4F9923FB
:102A5000A9F0F92F96E9BB279395F6958795779579
:102A60006795B795F111F8CFFAF4BB0F11F460FF39
:102A70001BC06F5F7F4F8F4F9F4F16C0882311F091
:102A800096E911C0772321F09EE8872F762F05C0A5
:102A9000662371F096E8862F70E060E02AF09A9540
:102AA000660F771F881FDAF7880F9695879597F935
:102AB0000895990F0008550FAA0BE0E8FEEF1616CF
:102AC0001706E807F907C0F012161306E407F50722
:102AD00098F0621B730B840B950B39F40A2661F096
:102AE000232B242B252B21F408950A2609F4A14039
:102AF000A6958FEF811D811D08950E9490150C945D
:102B000001160E94F31538F00E94FA1520F0952363
:102B100011F00C94EA150C94F01511240C94351650
:102B20000E94121670F3959FC1F3950F50E0551F48
:102B3000629FF001729FBB27F00DB11D639FAA2712
:102B4000F00DB11DAA1F649F6627B00DA11D661F61
:102B5000829F2227B00DA11D621F739FB00DA11D82
:102B6000621F839FA00D611D221F749F3327A00D3C
:102B7000611D231F849F600D211D822F762F6A2FD8
:102B800011249F5750409AF0F1F088234AF0EE0F3D
:102B9000FF1FBB1F661F771F881F91505040A9F76A
:102BA0009E3F510580F00C94EA150C9435165F3F5A
:102BB000E4F3983ED4F3869577956795B795F795A6
:102BC000E7959F5FC1F7FE2B880F911D969587951E
:102BD00097F9089597F99F6780E870E060E008959D
:102BE0009FEF80EC089500240A9416161706180625
:102BF0000906089500240A94121613061406050601
:102C00000895092E0394000C11F4882352F0BB0F91
:102C100040F4BF2B11F460FF04C06F5F7F4F8F4FF4
:102C20009F4F089557FD9058440F551F59F05F3F2F
:102C300071F04795880F97FB991F61F09F3F79F0DE
:102C400087950895121613061406551FF2CF469560
:102C5000F1DF08C0161617061806991FF1CF8695E2
:102C60007105610508940895E894BB2766277727C6
:102C7000CB0197F90895052E97FB1EF400940E944E
:102C8000521657FD07D00E946D1607FC03D04EF474
:102C90000C94521650954095309521953F4F4F4FCB
:102CA0005F4F089590958095709561957F4F8F4FF8
:102CB0009F4F08950E948F16A59F900DB49F900D71
:102CC000A49F800D911D11240895B7FF0C945A16EE
:102CD0000E945A16821B930B0895A1E21A2EAA1B7A
:102CE000BB1BFD010DC0AA1FBB1FEE1FFF1FA217BC
:102CF000B307E407F50720F0A21BB30BE40BF50BB9
:102D0000661F771F881F991F1A9469F76095709541
:102D1000809590959B01AC01BD01CF010895A29FC4
:102D2000B001B39FC001A39F700D811D1124911D9F
:102D3000B29F700D811D1124911D0895991B79E09A
:102D400004C0991F961708F0961B881F7A95C9F73B
:102D500080950895EE0FFF1F881F8BBF0790F69197
:102D6000E02D19945058BB27AA270E94CA160C942C
:102D700001160E94F31538F00E94FA1520F039F47C
:102D80009F3F19F426F40C94F0150EF4E095E7FB40
:102D90000C94EA15E92F0E94121658F3BA1762072D
:102DA00073078407950720F079F4A6F50C94341680
:102DB0000EF4E0950B2EBA2FA02D0B01B901900156
:102DC0000C01CA01A0011124FF27591B99F0593F9A
:102DD00050F4503E68F11A16F040A22F232F342FE2
:102DE0004427585FF3CF469537952795A795F04030
:102DF0005395C9F77EF41F16BA0B620B730B840B45
:102E0000BAF09150A1F0FF0FBB1F661F771F881FFC
:102E1000C2F70EC0BA0F621F731F841F48F4879554
:102E200077956795B795F7959E3F08F0B0CF939546
:102E3000880F08F09927EE0F9795879508950E94BF
:102E400033170C9401160E94FA1558F00E94F315DE
:102E500040F029F45F3F29F00C94EA1551110C94CD
:102E600035160C94F0150E94121668F39923B1F3ED
:102E7000552391F3951B550BBB27AA2762177307A0
:102E8000840738F09F5F5F4F220F331F441FAA1F34
:102E9000A9F335D00E2E3AF0E0E832D091505040F0
:102EA000E695001CCAF72BD0FE2F29D0660F771F9E
:102EB000881FBB1F261737074807AB07B0E809F084
:102EC000BB0B802DBF01FF2793585F4F3AF09E3F09
:102ED000510578F00C94EA150C9435165F3FE4F335
:102EE000983ED4F3869577956795B795F7959F5F4C
:102EF000C9F7880F911D9695879597F90895E1E098
:102F0000660F771F881FBB1F621773078407BA07F6
:102F100020F0621B730B840BBA0BEE1F88F7E09551
:102F200008950E9498176894B1110C94351608956D
:102F30000E941A1688F09F5798F0B92F9927B75119
:102F4000B0F0E1F0660F771F881F991F1AF0BA954D
:102F5000C9F714C0B13091F00E943416B1E0089561
:102F60000C943416672F782F8827B85F39F0B93F53
:102F7000CCF3869577956795B395D9F73EF4909500
:102F80008095709561957F4F8F4F9F4F08950E9458
:102F9000591508F48FEF08950F931F93CF93DF9384
:102FA0008230910510F482E090E0E0918507F09185
:102FB000860720E030E0A0E0B0E0309719F14081D2
:102FC00051810281138148175907C8F0841795076A
:102FD00069F4109731F012960C93129713961C9384
:102FE00027C0009385071093860722C0211531055D
:102FF00019F04217530718F49A01BD01EF01DF01E0
:10300000F801DBCF21153105F9F0281B390B2430ED
:10301000310580F48A819B816115710521F0FB01E6
:103020009383828304C09093860780938507FE0173
:10303000329644C0FE01E20FF31F81939193225018
:103040003109398328833AC020918307309184075E
:10305000232B41F420910302309104023093840722
:10306000209383072091010230910202211531053E
:1030700041F42DB73EB74091050250910602241B42
:10308000350BE0918307F0918407E217F307A0F472
:103090002E1B3F0B2817390778F0AC014E5F5F4FAE
:1030A0002417350748F04E0F5F1F50938407409355
:1030B00083078193919302C0E0E0F0E0CF01DF91BC
:1030C000CF911F910F910895CF93DF93009709F44B
:1030D00081C0FC01329713821282A0918507B091C2
:1030E0008607109781F420813181820F931F2091F0
:1030F0008307309184072817390751F5F093840727
:10310000E093830767C0ED0120E030E0CE17DF07D2
:1031100040F44A815B819E0141155105F1F0EA01BD
:10312000F5CFD383C28340815181840F951FC81787
:10313000D90759F488819981840F951F029691834C
:1031400080838A819B81938382832115310529F4B1
:10315000F0938607E09385073DC0E901FB83EA838E
:1031600049915991C40FD51FEC17FD0761F4808177
:103170009181840F951F0296E9019983888382814A
:1031800093819B838A83E0E0F0E012968D919C917D
:103190001397009719F0FD01DC01F7CF8D919C91F9
:1031A00011979D012E5F3F4F820F931F2091830740
:1031B000309184072817390769F4309729F4109261
:1031C00086071092850702C013821282B09384078B
:1031D000A0938307DF91CF9108956F927F928F9292
:1031E0009F92AF92BF92CF92DF92EF92FF920F9396
:1031F0001F93CF93DF93009789F4CB01DF91CF9199
:103200001F910F91FF90EF90DF90CF90BF90AF9004
:103210009F908F907F906F900C94CC17FC01E60FDD
:10322000F71F9C0122503109E217F30708F4A9C0E7
:10323000EC01D9010D911C91119706171707B0F0F9
:103240000530110508F49BC0C8010497861797073D
:1032500008F495C002501109061B170B0193119336
:103260006D937C93CF010E94641889C05B01A01A02
:10327000B10A4C01800E911EA0918507B09186077E
:10328000612C712CE12CF12C109709F446C08D9122
:103290009C911197A815B905B1F56C0142E0C40ED7
:1032A000D11CCA14DB0478F14C018A189B08640114
:1032B00042E0C40ED11C1296BC9012971396AC91AA
:1032C000B5E0CB16D10440F0B282A3839182808214
:1032D000D9016D937C9309C00E5F1F4F800F911F22
:1032E000F90191838083EB2DFA2FE114F10431F081
:1032F000D7011396FC93EE93129741C0F093860783
:10330000E09385073CC06816790608F43C017D010E
:1033100012960D90BC91A02DB7CF8091830790910C
:10332000840788169906E1F466167706C8F480913A
:10333000010290910202009741F48DB79EB740912F
:10334000050250910602841B950BE817F907C8F493
:10335000F0938407E0938307F901718360830FC0C2
:10336000CB010E94CC177C01009759F0A801BE0147
:103370000E94D719CE010E946418C70104C0CE0173
:1033800002C080E090E0DF91CF911F910F91FF90FC
:10339000EF90DF90CF90BF90AF909F908F907F90F5
:1033A0006F90089581E090E0F8940C94F019FB017F
:1033B000DC0102C001900D9241505040D8F70895B1
:1033C000FB01DC018D91019080190110D9F3990B5B
:1033D0000895FB01DC0101900D920020E1F70895B2
:1033E00011E0C4E9D1E000E006C0802FFE010E9498
:1033F000AA162196011DC539D10780E00807A9F753
:04340000F894FFCF6E
:10340400FF000087072000363738391B1D1A1C00BF
:10341400000000DA0CAD0C1603810CA50C910C8293
:103424000C000000006F02C801F201BC022302017B
:10343400021502000000007603C8011603150353A9
:103444006572766F20616E676C65206973206F7595
:1034540074206F662072616E67652100536F727409
:103464006973206465206C6120626F75636C65000C
:10347400746F75726E6572000D0A006176616E6319
:10348400657200544F555420424C414E43004452FF
:103494004F49544500544F55542044524F49540009
:1034A40047415543484500544F5554204E4F4952C7
:0234B400000016
:00000001FF
