:100000000C9461010C9492010C9492010C94920155
:100010000C9492010C9492010C9492010C94920114
:100020000C9492010C94FB080C94FB080C94FB08B4
:100030000C9492010C9401040C9492010C94920182
:100040000C9492010C947B060C9492010C949201F6
:100050000C9492010C9492010C9492010C94B703AD
:100060000C9492010C9472050C9448050C94920126
:100070000C9492010C9492010C9492010C949201B4
:100080000C9492010C9492010C9492010C949201A4
:100090000C9492010C9492010C9492010C94050919
:1000A0000C9492010C9492010C9492010C94920184
:1000B0000C9492010C9492010C9492010C949C0566
:1000C0000C9492010C9492010C9492010C941E05D4
:1000D0000C94F4040C9492010C94CA040C94A004A3
:1000E0000C949201520A550A440A480A4E0A8C0A94
:1000F000590A5D0A630A670A6B0A710A750A790A66
:100100008C0A7F0A830A870A0C945D0A0C94E10129
:100110000C94710A0C94B2070C94830A0C94870A0D
:100120000C94630A0C94440A0C946B0A0C946D03AF
:100130000C94DF070C94E1020C9488020C94D7070E
:100140000C94F10F0C9494010C94B1070C94CD0114
:100150000C94EF010C94BE010C947F0A0C94670A76
:100160000C94590A0C94F70F0C94B3070C94520A90
:100170000C94B4070C948C0A0C94750A0C94480ADD
:100180000C94C3070C94790A0C940C080C944E0A36
:100190000C94550A0C94E2020C943B0200002000DF
:1001A0002300260029002C002F003200000100004F
:1001B0000301060109010200002100240027002A92
:1001C000002D003000330001010000040107010A86
:1001D0000100002200250028002B002E00310034F1
:1001E0000002010000050108010B010505050507D6
:1001F0000508080808020202020A0A0808040404A2
:1002000004010101010101010103030303030303CD
:1002100003040707070C0C0C0C0C0C0C0C0202025C
:100220000206060606060606060B0B0B0B0B0B0B4F
:100230000B010210202008081020401020408002EE
:10024000010201080402010102040810204080801C
:1002500040201008040201800402018040201008A0
:100260000402010804020101020408102040800178
:100270000204081020408000000A0B02090C0D0E39
:100280000807030401000000000000000000000057
:10029000000000000000000000000000000000005E
:1002A000000000121110000000000000000000001B
:1002B0000000000000000000000000000000F70F38
:1002C000F10F11241FBECFEFD1E2DEBFCDBF00E0A2
:1002D0000CBF12E0A0E0B2E0E2E6FBE200E00BBF00
:1002E00002C007900D92A43CB107D9F727E0A4EC17
:1002F000B2E001C01D92AB39B207E1F711E0C0E6F0
:10030000D1E000E006C021970109802FFE010E9484
:10031000D412CF35D10780E00807A9F70E94320B2D
:100320000C949F150C940000CF92DF92EF92FF92F5
:100330000F931F93CF93DF936C017A018B01C0E081
:10034000D0E0CE15DF0581F0D8016D918D01D60189
:10035000ED91FC910190F081E02DC6011995892B5A
:1003600011F02196EECF7E01C701DF91CF911F9151
:100370000F91FF90EF90DF90CF900895FC01538D87
:10038000448D252F30E0842F90E0821B930B54176F
:1003900010F0CF96089501970895FC01918D828DFC
:1003A000981761F0828DDF01A80FB11D5D968C91C9
:1003B000928D9F5F9F73928F90E008958FEF9FEFD4
:1003C0000895FC01918D828D981731F0828DE80F90
:1003D000F11D858D90E008958FEF9FEF0895FC014A
:1003E000918D228D892F90E0805C9F4F821B910917
:1003F0008F739927089586E093E00E94EF0121E032
:10040000892B09F420E0822F089583EA93E00E946B
:10041000EF0121E0892B09F420E0822F089580E488
:1004200094E00E94EF0121E0892B09F420E0822F63
:100430000895FC01848DDF01A80FB11DA35ABF4FA1
:100440002C91848D90E001968F739927848FA689D3
:10045000B7892C93A089B1898C91837080648C9327
:10046000938D848D981306C00288F389E02D8081D6
:100470008F7D80830895EF92FF920F931F93CF9308
:10048000DF93EC0181E0888F9B8D8C8D981305C0E4
:10049000E889F989808185FD26C0F62E0B8D10E054
:1004A0000F5F1F4F0F731127E02E8C8DE8120CC0C9
:1004B0000FB607FCFACFE889F989808185FFF5CF6F
:1004C000CE010E941902F1CF8B8DFE01E80FF11DC4
:1004D000E35AFF4FF0829FB7F8940B8FEA89FB89AC
:1004E000808180620AC09FB7F894EE89FF8960839B
:1004F000E889F98980818370806480839FBF81E06F
:1005000090E0DF91CF911F910F91FF90EF900895B0
:10051000CF93DF93EC01888D8823C9F0EA89FB89AA
:10052000808185FD05C0A889B9898C9186FD0FC0A1
:100530000FB607FCF5CF808185FFF2CFA889B98976
:100540008C9185FFEDCFCE010E941902E7CFDF919C
:10055000CF910895E0E0F0E0199480E090E0892BDD
:1005600021F00E940F02811119C080E090E0892BD8
:1005700041F080E090E0892B21F00E940000811181
:1005800010C00E94050281110FC080E090E0892B0D
:1005900081F00E94FB0181110AC008950E940000B1
:1005A000E4CF0E940000EDCF0E94AA02EECF0C948F
:1005B000000008958EBD00000DB407FEFDCF8EB57E
:1005C0000895089580E090E00895CF93DF93EC01C3
:1005D00060E088810E948D0A88E90E94DA0280E04A
:1005E0000E94DA0280E00E94DA0280E00E94DA02D1
:1005F00080E00E94DA0261E088810E948D0A8BE827
:1006000091E00197F1F760E088810E948D0A80EE09
:100610000E94DA0261E08881DF91CF910C948D0A0B
:100620001F93CF93DF93EC01162F88818C3008F055
:100630004DC061E0812F0E94BC0AE88195E09E9F39
:10064000F0011124E155FA4F1F738081807C182B33
:1006500010831382E8819E9FF0011124E155FA4F27
:10066000148288816CE00E94C8129CE0899FA001DE
:10067000112420E030E095E0BA01620F731F969FCD
:10068000F001979FF00D1124E155FA4F608166FD4E
:1006900013C02F5F3F4F2C30310571F781110CC013
:1006A0001092800082E08093810010928500109269
:1006B000840086BB80936F00E88185E0E89FF001AD
:1006C0001124E155FA4F8081806480838881DF9115
:1006D000CF911F9108950E948A150F931F93CF9376
:1006E000DF938C01C62FD62FD07FD1606D2F0E9453
:1006F000BA086D2FC8010E94CD0880E1C89FB001E3
:100700001124C62FC1606C2FC8010E94BA086C2F3B
:10071000C8010E94CD0881E090E0DF91CF911F9148
:100720000F9108953FB7F8948091EB029091EC02FD
:10073000A091ED02B091EE0226B5A89B05C02F3F17
:1007400019F00196A11DB11D3FBFBA2FA92F982FF7
:100750008827820F911DA11DB11DBC01CD0142E072
:10076000660F771F881F991F4A95D1F708951F922A
:100770000F920FB60F9211242F933F938F939F9355
:10078000AF93BF938091E7029091E802A091E902B4
:10079000B091EA023091E60223E0230F2D3720F4D6
:1007A0000196A11DB11D05C026E8230F0296A11DCB
:1007B000B11D2093E6028093E7029093E802A09394
:1007C000E902B093EA028091EB029091EC02A091D1
:1007D000ED02B091EE020196A11DB11D8093EB02D6
:1007E0009093EC02A093ED02B093EE02BF91AF9113
:1007F0009F918F913F912F910F900FBE0F901F905F
:1008000018951F920F920FB60F9211240BB60F92EC
:100810002F933F934F935F936F937F938F939F9308
:10082000AF93BF93EF93FF938091DA029091DB0235
:10083000A091DC02B091DD02892B8A2B8B2B59F120
:100840009091C902E091CA02F091CB028081892780
:1008500080838091DA029091DB02A091DC02B0915A
:10086000DD02181619061A061B060CF056C08091F8
:10087000DA029091DB02A091DC02B091DD020197D7
:10088000A109B1098093DA029093DB02A093DC0204
:10089000B093DD0242C080910002E6EBF1E0E4910A
:1008A0009FEF90930002E230C9F050F4EE2399F0EC
:1008B000E13081F590916F009D7F90936F002AC089
:1008C000E43019F1E0F0E53029F5909173009D7F57
:1008D000909373001FC010926E001CC09091700026
:1008E0009D7F9093700091E09093B0009091B10043
:1008F000987F94609093B1001092B3000BC09091D8
:1009000071009D7F9093710005C0909172009D7F52
:100910009093720060E00E948D0AFF91EF91BF9169
:10092000AF919F918F917F916F915F914F913F9187
:100930002F910F900BBE0F900FBE0F901F90189528
:100940001F920F920FB60F9211240BB60F922F9396
:100950003F934F935F936F937F938F939F93AF9347
:10096000BF93EF93FF9386E093E00E941902FF91FB
:10097000EF91BF91AF919F918F917F916F915F9117
:100980004F913F912F910F900BBE0F900FBE0F9084
:100990001F9018951F920F920FB60F9211240BB64D
:1009A0000F922F933F934F935F936F937F938F9308
:1009B0009F93AF93BF93EF93FF9386E093E00E94E2
:1009C000E208FF91EF91BF91AF919F918F917F913D
:1009D0006F915F914F913F912F910F900BBE0F90B0
:1009E0000FBE0F901F9018951F920F920FB60F9287
:1009F00011240BB60F922F933F934F935F936F93F6
:100A00007F938F939F93AF93BF93EF93FF9383EA6B
:100A100093E00E941902FF91EF91BF91AF919F91D6
:100A20008F917F916F915F914F913F912F910F9097
:100A30000BBE0F900FBE0F901F9018951F920F9234
:100A40000FB60F9211240BB60F922F933F934F9333
:100A50005F936F937F938F939F93AF93BF93EF9326
:100A6000FF9383EA93E00E94E208FF91EF91BF9128
:100A7000AF919F918F917F916F915F914F913F9136
:100A80002F910F900BBE0F900FBE0F901F901895D7
:100A90001F920F920FB60F9211240BB60F922F9345
:100AA0003F934F935F936F937F938F939F93AF93F6
:100AB000BF93EF93FF9380E494E00E941902FF91AB
:100AC000EF91BF91AF919F918F917F916F915F91C6
:100AD0004F913F912F910F900BBE0F900FBE0F9033
:100AE0001F9018951F920F920FB60F9211240BB6FC
:100AF0000F922F933F934F935F936F937F938F93B7
:100B00009F93AF93BF93EF93FF9380E494E00E9491
:100B1000E208FF91EF91BF91AF919F918F917F91EB
:100B20006F915F914F913F912F910F900BBE0F905E
:100B30000FBE0F901F9018951F920F920FB60F9235
:100B400011240BB60F922F933F934F935F936F93A4
:100B50007F938F939F93AF93BF93CF93DF93EF9345
:100B6000FF932091DE0430E0F901E958FD4F8491B4
:100B7000F901EF5CFD4FD491F901E551FE4FC491AD
:100B8000CC2379F081110E94370AEC2FF0E0EE0FB0
:100B9000FF1FE456FE4FA591B491EC91ED2381E047
:100BA00009F480E02091E2043091E3042F5F3F4F8D
:100BB0003093E3042093E2049091E104953618F019
:100BC00096E09093DD049091DD049430C9F128F40F
:100BD000923069F09330D1F05EC0953009F451C085
:100BE000963009F058C091E09093AE0551C0811144
:100BF00052C02091E2043091E3042436310508F418
:100C000042C01092AE051092E1041CC0813009F080
:100C100042C0E091E10491E09E0F9093E104F0E086
:100C20002091E2043091E304EE0FFF1FE352FB4FEB
:100C3000308727831092E3041092E20494E029C0E5
:100C4000811117C0E091E10491E09E0F9093E104BF
:100C5000F0E02091E2043091E304EE0FFF1FE35235
:100C6000FB4F308727831092E3041092E20493E055
:100C700010C02091E2043091E3042536310558F08C
:100C800007C0811108C01092E3041092E20403C06F
:100C900095E09093DD049091E0049923B9F08111DF
:100CA0000AC08091DF04882321F08091DF0461E095
:100CB00009C02F9A0BC08091DF04882331F0809106
:100CC000DF0460E00E948D0A01C02F98FF91EF9130
:100CD000DF91CF91BF91AF919F918F917F916F9154
:100CE0005F914F913F912F910F900BBE0F900FBED0
:100CF0000F901F9018951F920F920FB60F9211240C
:100D00000BB60F922F933F934F935F936F937F9305
:100D10008F939F93AF93BF93EF93FF938091C40200
:100D200087FF05C0109285001092840016C02091A4
:100D3000C402022E000C330B8091EB0590E02817C3
:100D400039075CF43091C40225E03203F00111242C
:100D5000E155FA4F808186FD15C08091C4028F5FF6
:100D60008093C4022091C402022E000C330B8091A8
:100D7000EB0590E02817390794F48091C4028C3079
:100D80002CF10DC03091C4023203F0011124E15561
:100D9000FA4F808160E08F730E948D0ADECF8091D0
:100DA00084009091850084349C4918F480E49CE987
:100DB00005C08091840090918500049690938900ED
:100DC000809388008FEF8093C4022AC040918400F2
:100DD000509185003091C40225E03203F0011124C6
:100DE000E155FA4F81819281840F951F909389007C
:100DF000809388003091C4023203F0011124E15540
:100E0000FA4F808186FF0CC03091C4023203F0019A
:100E10001124E155FA4F808161E08F730E948D0AA1
:100E2000FF91EF91BF91AF919F918F917F916F91C2
:100E30005F914F913F912F910F900BBE0F900FBE7E
:100E40000F901F9018953091F902313208F04BC085
:100E50008091F7028111FCCF9091D40622E020937B
:100E6000F70221E02093F6022FEF2093B2061092B2
:100E7000B1063093B006E4EBF6E0A0E9B6E020E07E
:100E8000321721F041914D932F5FFACF10928F06C8
:100E900020918F06990F922B90938F069091F502D7
:100EA000913061F41092F50290918F069093BB00FF
:100EB0009091BC0093FDF8CF95EC01C095EE909316
:100EC000BC009091F7029230E1F39091B2069F3FFF
:100ED00079F08091B206803241F08091B206803381
:100EE00031F084E005C081E003C082E001C083E00E
:100EF0001092F8021092F9021092B306089585ED4F
:100F00008093BC008091BC0084FDFCCF1092F7025E
:100F1000089540916A06262F30E0240F311D2132BA
:100F20003105DCF42091F7022430C9F4FC0180E0A3
:100F300090E0861758F430916A062191DC01A65B97
:100F4000B94FA30FB11D2C930196F3CF80916A0680
:100F5000680F60936A0680E0089581E0089582E05A
:100F60000895089508950895E091F0028091EF02A8
:100F7000E81730F4F0E0E65DF94F808190E00895E5
:100F80008FEF9FEF08959091F0028091EF029817F4
:100F900050F4E92FF0E0E65DF94F208130E09F5FEB
:100FA0009093F00202C02FEF3FEFC90108958091A6
:100FB000EF0290E02091F002821B91090895CF92F8
:100FC000DF92EF92FF920F931F93CF93DF937C01F9
:100FD000CB018A012091B306222389F0EB016B013A
:100FE000C40ED51ECC15DD0569F06991D701ED91D0
:100FF000FC910190F081E02DC7011995F3CF642F8A
:101000000E948907C801DF91CF911F910F91FF9036
:10101000EF90DF90CF900895CF93DF931F92CDB7DD
:10102000DEB769832091B3062223D1F02091F90223
:10103000203240F021E030E0FC013383228380E065
:1010400090E015C08091F802E82FF0E0EC54F94FE1
:10105000998190838F5F8093F8028093F90205C095
:1010600061E0CE0101960E94890781E090E00F9037
:10107000DF91CF910895009769F0FC010190002065
:10108000E9F73197AF01481B590BBC0180E494E0AC
:101090000C94940180E090E00895CF93DF930E9438
:1010A0003B08EC018CE592E00E943B088C0F9D1FF1
:1010B000DF91CF910895E0E4F4E0A089B18982E066
:1010C0008C93A485B5851C92A685B7858FEC8C93EF
:1010D000108EA489B58986E08C93A289B3898C91FE
:1010E00080618C93A289B3898C9188608C93A2894A
:1010F000B3898C9180688C930288F389E02D80817C
:101100008F7D808308950F931F93CF93DF93162FC6
:10111000072FC3EFD5E09C8521E02093B306909381
:10112000D4061092F8021092F902AA85BB85ED91BF
:10113000FC9111970190F081E02D682FCD01199558
:101140008A859B85DC01ED91FC910190F081E02D79
:10115000602F19958A859B85DC01ED91FC910190AA
:10116000F081E02D612F1995DF91CF911F910F91A3
:101170000C942307FC01248131E03093B3062093C3
:10118000D4061092F8021092F9028485682B8AEF37
:1011900092E00E940C080C9423070F931F93CF93A7
:1011A0008C01C62F64600E94BA086C2F6B7FC80147
:1011B0000E94BA0883EC90E00197F1F7CF911F915C
:1011C0000F910895FC01A089B1898C91A689B789F6
:1011D00082FD0FC09C91818D8F5F8F73228D82174E
:1011E00049F0218DDF01A20FB11D5D969C93818F87
:1011F00008958C9108951F920F920FB60F921124AB
:101200000F900FBE0F901F9018951F920F920FB660
:101210000F9211240BB60F922F933F934F935F932E
:101220006F937F938F939F93AF93BF93EF93FF93AE
:101230008091B900887F803609F49CC068F58832B7
:1012400009F45BC090F4803109F454C038F4882369
:1012500009F4F6C0883009F44DC0F6C0883109F4AD
:101260004CC0803209F45DC0EFC0803409F468C01E
:1012700048F4803309F455C0883309F0E5C0809301
:10128000B206D8C0803509F44FC0883509F45DC076
:10129000883409F0D9C0D6C0883909F4C7C0A8F489
:1012A000883709F467C038F4883609F463C080379A
:1012B00009F460C0C9C0883809F4B8C0803909F49D
:1012C0005FC0803809F0C0C05BC0803B09F486C0B5
:1012D00038F4803A09F466C0883A09F47FC0B4C093
:1012E000803C09F4A7C0883C09F4A4C0883B09F4F9
:1012F0008AC0AAC080918F0610C09091B1068091DB
:10130000B006981770F5E091B10681E08E0F8093DA
:10131000B106F0E0E057F94F80818093BB0085EC87
:1013200086C08093B2068EC0E091B10681E08E0F38
:101330008093B1068091BB00F0E0E057F94F8083C5
:101340009091B1068091B0066EC0E091B10681E047
:101350008E0F8093B1068091BB00F0E0E057F94F0B
:1013600080838091F60281116DC081E08093F50247
:1013700084EA61C083E08093F70210928C06CFCF9D
:1013800080918C06803208F051C0E0918C0681E09B
:101390008E0F80938C068091BB00F0E0E459F94FEA
:1013A0008083BDCF85EC8093BC001092F7028091C2
:1013B0008C06803230F4E0918C06F0E0E459F94F6D
:1013C000108260918C0670E0E091F302F091F402DB
:1013D0008CE696E0199510928C0636C084E08093D6
:1013E000F70210926B0610926A06E091F102F091FA
:1013F000F202199580916A06811105C081E08093FF
:101400006A0610924A06E0916B0681E08E0F809387
:101410006B06F0E0E65BF94F80818093BB00909112
:101420006B0680916A06981708F479CF85E8809357
:10143000BC000AC085EC8093BC001092F70204C087
:101440001092B2060E947F07FF91EF91BF91AF917A
:101450009F918F917F916F915F914F913F912F91CC
:101460000F900BBE0F900FBE0F901F90189590E03D
:10147000FC013197E231F10508F04EC08827EE58A3
:10148000FF4F8F4F0C94D412809180008F7703C050
:10149000809180008F7D80938000089580918000EE
:1014A000877FF9CF84B58F7702C084B58F7D84BDE7
:1014B00008958091B0008F7703C08091B0008F7D38
:1014C0008093B0000895809190008F7707C080913D
:1014D00090008F7D03C080919000877F8093900063
:1014E00008958091A0008F7707C08091A0008F7D24
:1014F00003C08091A000877F8093A0000895809111
:1015000020018F7707C0809120018F7D03C08091DB
:101510002001877F8093200108951F93CF93DF934D
:10152000282F30E0F901E958FD4F8491F901EF5C73
:10153000FD4FD491F901E551FE4FC491CC23C1F088
:10154000162F81110E94370AEC2FF0E0EE0FFF1FDB
:10155000EF52FE4FA591B4919FB7F894111104C0BA
:101560008C91D095D82302C0EC91DE2BDC939FBFE9
:10157000DF91CF911F910895CF93DF9390E0FC010D
:10158000EF5CFD4F2491FC01E551FE4F84918823CF
:1015900061F190E0880F991FFC01E954FE4FC5915D
:1015A000D491FC01EF52FE4FA591B491611109C095
:1015B0009FB7F8948881209582238883EC912E230D
:1015C0000BC0623061F49FB7F8948881322F309558
:1015D00083238883EC912E2B2C939FBF06C08FB75B
:1015E000F894E8812E2B28838FBFDF91CF91089547
:1015F0008F929F92AF92BF92CF92DF92EF92FF9223
:101600006B017C010E9492034B015C01C114D10467
:10161000E104F104F1F00E949203DC01CB0188198E
:101620009909AA09BB09883E9340A105B10570F349
:1016300021E0C21AD108E108F10888EE880E83E0A3
:10164000981EA11CB11CC114D104E104F10419F7C6
:10165000DDCFFF90EF90DF90CF90BF90AF909F9045
:101660008F900895CF93DF93CDB7DEB7A1970FB6D4
:10167000F894DEBF0FBECDBF789484B5826084BD80
:1016800084B5816084BD85B5826085BD85B5816086
:1016900085BD80916E00816080936E001092810004
:1016A00080918100826080938100809181008160BF
:1016B0008093810080918000816080938000809180
:1016C000B10084608093B1008091B000816080930C
:1016D000B000809191008260809391008091910090
:1016E0008160809391008091900081608093900050
:1016F0008091A10082608093A1008091A10081600F
:101700008093A1008091A00081608093A0008091CF
:101710002101826080932101809121018160809369
:1017200021018091200181608093200180917A00C5
:10173000846080937A0080917A00826080937A003E
:1017400080917A00816080937A0080917A0080682D
:1017500080937A001092C1000E945B0861E0809142
:10176000F4050E94BC0A60E08091F4050E948D0A95
:1017700060E08091F3050E94BC0A8AEF92E09093AA
:10178000FE058093FD051092F0021092EF02109278
:10179000F8021092F9021092F70281E08093F602AB
:1017A0001092F50261E084E10E948D0A61E085E11A
:1017B0000E948D0A8091B9008E7F8093B90080913C
:1017C000B9008D7F8093B90088E48093B80085E4E8
:1017D0008093BC0081EB97E09093F2028093F1023A
:1017E00082EB97E09093F4028093F30280E090E123
:1017F000A0E0B0E08093000690930106A09302065B
:10180000B09303068AE090E0A0E0B0E08093040685
:1018100090930506A0930606B093070680E090E03B
:10182000A0E0B0E48093080690930906A0930A060E
:10183000B0930B0660E070E185E00E9483086FE9D9
:1018400079E380E00E94830803EF15E07801512CD2
:1018500050E2652E52E0752E66E6862E62E0962EE8
:101860007BECC72E77E0D72EF70194818281F801B7
:10187000818F928F61E00E94BC0A61E0F801828D45
:101880000E94BC0AF701908586815801FDE1AF0EE8
:10189000B11CF801858F968F61E00E94BC0A60E060
:1018A000F801868D0E94BC0A61E0F801858D0E94D6
:1018B0008D0A4FB6F8948091C502811126C0F301BC
:1018C0008491F4012491E82FF0E0EE0FFF1FE9541A
:1018D000FE4FA591B4919C91822F892321F461E060
:1018E00085E30E948D0A61E085E30E94BC0A8CB505
:1018F00080618CBD8CB580648CBD61E084E30E9406
:10190000BC0A61E083E30E94BC0A8091C5028F5F3C
:101910008093C5024FBEC6010197F1F760E0F80160
:10192000858D0E948D0A88E80E94DA0283E00E9479
:10193000DA0261E0F801858D0E948D0AC6010197E7
:10194000F1F7C5010E94E5025394FFEFEF1AFF0A79
:101950000E5F1F4F22E0521287CF08E116E03CE1F4
:10196000E32E36E0F32E60E0F80181918F010E94B2
:10197000BC0AF6E00C311F07B1F704E116E067017D
:101980002FEFC21AD20AF701608170E0C7010896F2
:101990000E941003F60195818381F801828B938B5D
:1019A00060E00E94BC0A61E0F80183890E94BC0AE1
:1019B00060E0F80183890E948D0A0E5F1F4F760157
:1019C000FEE1CF16F6E0DF06D1F6F8941092200182
:1019D00089E08093210180E293E090932901809334
:1019E0002801109225011092240182E08093730057
:1019F00078948093DD041092E1048091DE0460E02D
:101A00000E94BC0A60911C0670E084E296E00E948D
:101A1000100380911E06883320F480911F068733BF
:101A200028F48FE392E00E944D084AC000912406FA
:101A30000C3008F045C025E0029F800111240155BB
:101A40001A4FF801838128E830E06901C81AD108EB
:101A500087FDD394CC0CDD1CCC0CDD1C0D2C000CB4
:101A6000EE08FF08848128E532E0281B310987FD54
:101A70003395220F331F220F331FC901330FAA0BD7
:101A8000BB0B9C01AD012C193D094E095F09A7E371
:101A9000B0E00E948C1224EB30E040E050E00E9465
:101AA0006D12C20ED31EE41EF51EF6E0CF1AD10849
:101AB000CC0CDD1C8FB7F894F801D282C1828FBFA5
:101AC0000E945B0882E196E00E94E50280E196E0D8
:101AD0000E94E50261E08DE00E94BC0A61E082E0C4
:101AE0000E94BC0A61E083E00E94BC0ABAE04B2E6F
:101AF000512C612C712C1EE6C12ED12CE12CF12C25
:101B00000AE01EE880917B00886080937B00F0E40F
:101B1000F0937C0080917A00806480937A008091B9
:101B20007A0086FDFCCF609178008091790070E0AA
:101B3000782B072E000C880B990B0E94E11120E0F6
:101B400030EC4FE754E40E94DC120E944E131B015C
:101B50004B01770FAA08BB08B7FE20C06DE280E4F6
:101B600094E00E943B0222273327A9012819390952
:101B70004A095B0919A2CE0181965C01CA01B9012B
:101B8000A30192010E949712605DF50162935F01CB
:101B9000211531054105510589F715C0A5019401AD
:101BA00019A2CE0181965C01CA01B901A30192017B
:101BB0000E949712605DF50162935F012115310566
:101BC0004105510589F7C5010E943B088CE592E06B
:101BD0000E943B08232879F58FE592E00E944D088A
:101BE0008BE892E00E944D0861E08DE00E948D0A32
:101BF00061E082E00E948D0A60E083E00E948D0A2D
:101C000064EF71E080E090E00E94F80A60E082E01A
:101C10000E948D0A61E083E00E948D0A64EF71E00A
:101C200080E090E00E94F80A8091F4059091000213
:101C300098131BC01EC08CE992E00E944D0889EBEE
:101C400092E00E944D0860E08DE00E948D0A60E005
:101C500082E00E948D0A60E083E00E948D0A60E0CD
:101C60008091F4050E948D0AA1C19F3F09F09EC199
:101C700004C0E6EBF1E0B490F7C080930002E6EB1D
:101C8000F1E094919F3F09F491C1923009F478C03A
:101C900058F5992309F455C0913009F0E4C0109229
:101CA0008000109281009091810098609093810053
:101CB00090918100916090938100282F30E0F9018C
:101CC000E551FE4FE491F0E0EE0FFF1FEF52FE4FA3
:101CD00045915491F901EF5CFD4FE491E093CC0202
:101CE00061E00E94BC0ACFC0943009F497C008F4A8
:101CF00070C0953009F0B7C01092200110922101F8
:101D0000909121019860909321019091210191601F
:101D100090932101282F30E0F901E551FE4FE49125
:101D2000F0E0EE0FFF1FEF52FE4F45915491F90185
:101D3000EF5CFD4FE491E093C60261E00E94BC0AB3
:101D4000D1C014BC15BC94B5926094BD95B591609A
:101D500095BD282F30E0F901E551FE4FE491F0E008
:101D6000EE0FFF1FEF52FE4F45915491F901EF5CCA
:101D7000FD4FE491E093CD0261E00E94BC0A1DC1D9
:101D80001092B0001092B1009091B00092609093C8
:101D9000B0009091B10091609093B100282F30E095
:101DA000F901E551FE4FE491F0E0EE0FFF1FEF5215
:101DB000FE4F459154915093CB024093CA02F901D2
:101DC000EF5CFD4FE491E093C90261E00E94BC0A20
:101DD000A1C0109290001092910090919100986093
:101DE0009093910090919100916090939100282F91
:101DF00030E0F901E551FE4FE491F0E0EE0FFF1FF6
:101E0000EF52FE4F45915491F901EF5CFD4FE49183
:101E1000E093C80261E00E94BC0A50C01092A0008A
:101E20001092A1009091A10098609093A1009091D0
:101E3000A10091609093A100282F30E0F901E551B5
:101E4000FE4FE491F0E0EE0FFF1FEF52FE4F459181
:101E50005491F901EF5CFD4FE491E093C70261E01A
:101E60000E94BC0A35C0B92EB7FCA0C061E00E9438
:101E7000BC0ABB2009F4A1C0F2E0BF1609F44AC0B5
:101E800021E0B21218C080918100887F8160809328
:101E900081001093890000938800C092DE02D092E6
:101EA000DF02E092E002F092E10280916F00826036
:101EB00080936F007BC083E0B81207C080919100CF
:101EC000887F8160809391003CC094E0B91207C084
:101ED0008091A100887F81608093A10044C0E5E0EB
:101EE000BE1207C080912101887F8160809321010B
:101EF0004CC0F3E0BF1629F1FB152CF022E0B21222
:101F000055C08AE00EC084E0B81669F195E0B916B4
:101F1000E1F14CC08091B100887F86608093B10070
:101F20008DE88093B300C092DA02D092DB02E09297
:101F3000DC02F092DD02809170008260809370007C
:101F400035C01093990000939800C092D602D092A9
:101F5000D702E092D802F092D9028091710082609B
:101F60008093710023C01093A9000093A800C09231
:101F7000D202D092D302E092D402F092D5028091A4
:101F8000720082608093720011C010932901009347
:101F90002801C092CE02D092CF02E092D002F092FD
:101FA000D1028091730082608093730064E670E0D8
:101FB00080E090E00E94F80AA5CD85B5887F846016
:101FC00085BDEDE8E7BDC092E202D092E302E09267
:101FD000E402F092E50280916E00826080936E00D0
:101FE000E5CF8091EC059091ED050C941C141092B6
:101FF000FD021092FC0288EE93E0A0E0B0E0809336
:10200000FE029093FF02A0930003B093010323E12B
:1020100032E03093FB022093FA02109209031092EF
:10202000080380930A0390930B03A0930C03B093CF
:102030000D0325E232E0309307032093060345E3C6
:1020400051E0509313034093120344E351E0509343
:1020500015034093140340E351E05093170340935A
:10206000160341E351E0509319034093180342E3F0
:1020700051E050931B0340931A0346E351E0509301
:102080001D0340931C0310921F0310922003109213
:102090002103109222031092A6031092A5038093AD
:1020A000A7039093A803A093A903B093AA03309326
:1020B000A4032093A30345ED50E05093B003409355
:1020C000AF0344ED50E05093B2034093B10340EDB1
:1020D00050E05093B4034093B30341ED50E050936C
:1020E000B6034093B50342ED50E05093B8034093DC
:1020F000B70346ED50E05093BA034093B9031092F2
:10210000BC031092BD031092BE031092BF03109245
:102110004304109242048093440490934504A09396
:102120004604B0934704309341042093400485EC67
:1021300090E090934D0480934C0484EC90E0909355
:102140004F0480934E0480EC90E090935104809370
:10215000500481EC90E0909353048093520482ECFD
:1021600090E0909355048093540486EC90E0909313
:102170005704809356041092590410925A041092F6
:102180005B0410925C048091070290910802A09178
:102190000902B0910A028093140690931506A09349
:1021A0001606B093170680910B0290910C02A09135
:1021B0000D02B0910E028093180690931906A09319
:1021C0001A06B0931B0684E080931C0687E0809378
:1021D0001D0610921E0684EB80931F0686E18093F5
:1021E000200688E18093210687E18093220689E119
:1021F00080932306E091EB05EC3020F08FEF809385
:10220000240610C081E08E0F8093EB05E093240636
:1022100085E0E89FF0011124E155FA4F88EB9BE03F
:1022200092838183E091EB05EC3020F08FEF809377
:10223000250610C081E08E0F8093EB05E093250604
:1022400085E0E89FF0011124E155FA4F88EB9BE00F
:10225000928381838CE08093F30584E28093F4057C
:1022600086E08093F50585E08093F6058FE1809305
:10227000F7058EE18093F80583E28093F90582E209
:102280008093FA0585E48093FB0584E48093FC0544
:1022900080E48093FF0510920406109205061092C8
:1022A0000606109207061092080610920906109270
:1022B0000A0610920B06E9EDF6E027E937E08FEF0A
:1022C0009FEFDC011282138214821582168217821C
:1022D0001086118683879487A587B6878787908B1A
:1022E000A18BB28B12861182108273962E173F0734
:1022F00049F78DE090E00E948413FC011382128262
:1023000087E392E091838083118687E2848384E16E
:10231000828784E083871486F093D606E093D506FF
:102320001092D7061092D80685E28093DE041092B0
:10233000E0041092ED051092EC051092EF0510925A
:10234000EE051092F1051092F00561E070E080E07A
:1023500090E00E94A514009789F09093ED0580937A
:10236000EC051092EF051092EE052091F0053091EA
:10237000F105232BC1F4FC01108215C08091EC05FE
:102380009091ED05009711F00E941C141092ED053C
:102390001092EC051092F1051092F0051092EF05E5
:1023A0001092EE0508951092F1051092F0056EE579
:1023B00072E08091EC059091ED050C949815E894ED
:1023C00009C097FB3EF490958095709561957F4F7D
:1023D0008F4F9F4F9923A9F0F92F96E9BB2793952B
:1023E000F695879577956795B795F111F8CFFAF43B
:1023F000BB0F11F460FF1BC06F5F7F4F8F4F9F4F6C
:1024000016C0882311F096E911C0772321F09EE8C9
:10241000872F762F05C0662371F096E8862F70E02F
:1024200060E02AF09A95660F771F881FDAF7880F09
:102430009695879597F9089597F99F6780E870E0DA
:1024400060E008959FEF80EC089500240A9416162A
:10245000170618060906089500240A941216130692
:10246000140605060895092E0394000C11F4882320
:1024700052F0BB0F40F4BF2B11F460FF04C06F5F3C
:102480007F4F8F4F9F4F089557FD9058440F551F12
:1024900059F05F3F71F04795880F97FB991F61F0E6
:1024A0009F3F79F087950895121613061406551F5D
:1024B000F2CF4695F1DF08C0161617061806991FC9
:1024C000F1CF86957105610508940895E894BB27BE
:1024D00066277727CB0197F90895052E97FB1EF401
:1024E00000940E94841257FD07D00E94971207FCA7
:1024F00003D04EF40C94841250954095309521955C
:102500003F4F4F4F5F4F089590958095709561951F
:102510007F4F8F4F9F4F08950E94B912A59F900D36
:10252000B49F900DA49F800D911D11240895A1E2E8
:102530001A2EAA1BBB1BFD010DC0AA1FBB1FEE1F3D
:10254000FF1FA217B307E407F50720F0A21BB30B88
:10255000E40BF50B661F771F881F991F1A9469F704
:1025600060957095809590959B01AC01BD01CF0160
:102570000895A29FB001B39FC001A39F700D811D5C
:102580001124911DB29F700D811D1124911D08957C
:10259000991B79E004C0991F961708F0961B881FB5
:1025A0007A95C9F780950895EE0FFF1F881F8BBF9E
:1025B0000790F691E02D19940E94F0120C943312BA
:1025C0000E942C1258F00E94251240F029F45F3F1F
:1025D00029F00C941C1251110C9467120C942212C5
:1025E0000E94441268F39923B1F3552391F3951B8C
:1025F000550BBB27AA2762177307840738F09F5F24
:102600005F4F220F331F441FAA1FA9F335D00E2E90
:102610003AF0E0E832D091505040E695001CCAF7FD
:102620002BD0FE2F29D0660F771F881FBB1F2617C0
:1026300037074807AB07B0E809F0BB0B802DBF0197
:10264000FF2793585F4F3AF09E3F510578F00C9466
:102650001C120C9467125F3FE4F3983ED4F3869506
:1026600077956795B795F7959F5FC9F7880F911D87
:102670009695879597F90895E1E0660F771F881F73
:10268000BB1F621773078407BA0720F0621B730B26
:10269000840BBA0BEE1F88F7E09508950E9455133E
:1026A0006894B1110C94671208950E944C1288F03E
:1026B0009F5798F0B92F9927B751B0F0E1F0660F06
:1026C000771F881F991F1AF0BA95C9F714C0B13047
:1026D00091F00E946612B1E008950C946612672F83
:1026E000782F8827B85F39F0B93FCCF38695779576
:1026F0006795B395D9F73EF490958095709561955F
:102700007F4F8F4F9F4F08950F931F93CF93DF936A
:102710008230910510F482E090E0E0919907F09109
:102720009A0720E030E0A0E0B0E0309719F1408156
:1027300051810281138148175907C8F08417950702
:1027400069F4109731F012960C93129713961C931C
:1027500027C00093990710939A0722C021153105CD
:1027600019F04217530718F49A01BD01EF01DF0178
:10277000F801DBCF21153105F9F0281B390B243086
:10278000310580F48A819B816115710521F0FB017F
:102790009383828304C090939A0780939907FE01E4
:1027A000329644C0FE01E20FF31F819391932250B1
:1027B0003109398328833AC02091970730919807CF
:1027C000232B41F4209103023091040230939807A7
:1027D00020939707209101023091020221153105C3
:1027E00041F42DB73EB74091050250910602241BDB
:1027F000350BE0919707F0919807E217F307A0F4E3
:102800002E1B3F0B2817390778F0AC014E5F5F4F46
:102810002417350748F04E0F5F1F509398074093D9
:1028200097078193919302C0E0E0F0E0CF01DF9140
:10283000CF911F910F910895CF93DF93009709F4E3
:1028400081C0FC01329713821282A0919907B09146
:102850009A07109781F420813181820F931F209174
:102860009707309198072817390751F5F093980783
:10287000E093970767C0ED0120E030E0CE17DF0757
:1028800040F44A815B819E0141155105F1F0EA0156
:10289000F5CFD383C28340815181840F951FC81720
:1028A000D90759F488819981840F951F02969183E5
:1028B00080838A819B81938382832115310529F44A
:1028C000F0939A07E09399073DC0E901FB83EA83FF
:1028D00049915991C40FD51FEC17FD0761F4808110
:1028E0009181840F951F0296E901998388838281E3
:1028F00093819B838A83E0E0F0E012968D919C9116
:102900001397009719F0FD01DC01F7CF8D919C9191
:1029100011979D012E5F3F4F820F931F20919707C4
:10292000309198072817390769F4309729F41092E5
:102930009A071092990702C013821282B0939807E7
:10294000A0939707DF91CF9108956F927F928F9216
:102950009F92AF92BF92CF92DF92EF92FF920F932E
:102960001F93CF93DF93009789F4CB01DF91CF9131
:102970001F910F91FF90EF90DF90CF90BF90AF909D
:102980009F908F907F906F900C948413FC01E60FC2
:10299000F71F9C0122503109E217F30708F4A9C080
:1029A000EC01D9010D911C91119706171707B0F092
:1029B0000530110508F49BC0C801049786179707D6
:1029C00008F495C002501109061B170B01931193CF
:1029D0006D937C93CF010E941C1489C05B01A01AE7
:1029E000B10A4C01800E911EA0919907B0919A07EF
:1029F000612C712CE12CF12C109709F446C08D91BB
:102A00009C911197A815B905B1F56C0142E0C40E6F
:102A1000D11CCA14DB0478F14C018A189B086401AC
:102A200042E0C40ED11C1296BC9012971396AC9142
:102A3000B5E0CB16D10440F0B282A38391828082AC
:102A4000D9016D937C9309C00E5F1F4F800F911FBA
:102A5000F90191838083EB2DFA2FE114F10431F019
:102A6000D7011396FC93EE93129741C0F0939A0707
:102A7000E09399073CC06816790608F43C017D0193
:102A800012960D90BC91A02DB7CF80919707909191
:102A9000980788169906E1F466167706C8F48091BF
:102AA000010290910202009741F48DB79EB74091C8
:102AB000050250910602841B950BE817F907C8F42C
:102AC000F0939807E0939707F901718360830FC033
:102AD000CB010E9484137C01009759F0A801BE012C
:102AE0000E948F15CE010E941C14C70104C0CE01A4
:102AF00002C080E090E0DF91CF911F910F91FF9095
:102B0000EF90DF90CF90BF90AF909F908F907F908D
:102B10006F90089581E090E0F8940C949F15FB016C
:102B2000DC0102C001900D9241505040D8F7089549
:102B3000FB01DC0101900D920020E1F7089511E006
:102B4000C0E6D1E000E006C0802FFE010E94D41252
:102B50002196011DC136D10780E00807A9F7F89436
:022B6000FFCFA5
:102B6200FF00009B072000363738391B1D1A1C0056
:102B72000000000C08DF07E202B307D707C307B45F
:102B820007000000003B029401BE018802EF01CD64
:102B920001E101000000006D039401E202E1025331
:102BA2006572766F20616E676C65206973206F7540
:102BB20074206F662072616E676521000D0A0046FF
:102BC2006C616D652064657465637465642E2E2E78
:102BD200212074616B6520616374696F6E20696D79
:102BE2006D6564696174656C792E004C616E636514
:102BF20072206465206C2765617521004E6F206626
:102C02006C616D652064657465637465642E207300
:102C120074617920636F6F6C007061732064276543
:042C220061752100B7
:00000001FF
