:100000000C9495010C94C6010C94C6010C94C60185
:100010000C94C6010C94C6010C94C6010C94C60144
:100020000C94C6010C94DB030C94DB030C94DB03EF
:100030000C94C6010C94A8070C94C6010C94C6013C
:100040000C94C6010C94D10B0C94C6010C94C601FF
:100050000C94C6010C94C6010C94C6010C94EF01DB
:100060000C94C6010C9417090C94ED080C94C6016D
:100070000C94C6010C94C6010C94C6010C94C601E4
:100080000C94C6010C94C6010C94C6010C94C601D4
:100090000C94C6010C94C6010C94C6010C94E503A3
:1000A0000C94C6010C94C6010C94C6010C94C601B4
:1000B0000C94C6010C94C6010C94C6010C94410921
:1000C0000C94C6010C94C6010C94C6010C94C30890
:1000D0000C9499080C94C6010C946F080C94450874
:1000E0000C94C60132053505240528052E056C053E
:1000F00039053D05430547054B055105550559058E
:100100006C055F0563056705810A860A8B0A950AF7
:100110009F0A180BA90AB10AB90AC30ACD0AD70A5D
:10012000E60AF00A180BFA0A040B0E0B0C94F502FF
:100130000C9428050C94F00A0C94B10A0C94040B4E
:100140000C94D9020C94950A0C94C7020C941206D4
:100150000C948B0A0C94B9060C94E60A0C9467056F
:100160000C94810A0C94B90A0C946C050C94320519
:100170000C94CA020C94C30A0C9460100C942203D1
:100180000C944B050C943D050C949F0A0C944B0663
:100190000C9458070C945F060C9451050C94C802FB
:1001A0000C94CD0A0C94D70A0C9459070C9455055D
:1001B0000C945F050C94860A0C945C070C9459050A
:1001C0000C9436120C9406070C940E0B0C94350507
:1001D0000C94C9020C9447050C94A90A0C9443058D
:1001E0000C94FA0A0C9424050C9439050C942E05F1
:1001F0000C943C060C94180B0C94ED020C946D06B8
:100200000C94630500002100240027002A002D0023
:100210003000330001010000040107010A01000061
:100220002200250028002B002E003100340002019E
:100230000000050108010B01050505050705080873
:100240000808020202020A0A080804040404010160
:100250000101010101010303030303030303040775
:1002600007070C0C0C0C0C0C0C0C0202020206060C
:100270000606060606060B0B0B0B0B0B0B0B0102FF
:1002800010202008081020401020408002010201A8
:100290000804020101020408102040808040201060
:1002A00008040201800402018040201008040201B9
:1002B0000804020101020408102040800102040821
:1002C0001020408000000A0B02090C0D0E080703E5
:1002D0000401000000000000000000000000000019
:1002E000000000000000000000000000000000000E
:1002F00012111000000000000000000000000000CB
:1003000000000000000000000000000020002300AA
:10031000260029002C002F003200000100000301FC
:100320000601090102006010361211241FBECFEF32
:10033000D1E2DEBFCDBF00E00CBF12E0A0E0B2E032
:10034000E6E5F3E300E00BBF02C007900D92A23593
:10035000B107D9F727E0A2E5B2E001C01D92AD32A6
:10036000B207E1F711E0C4E9D1E000E006C021974F
:100370000109802FFE010E948E13C339D10780E04E
:100380000807A9F70E94790C0C9499190C940000A5
:100390000E94B6163FB7F894809158029091590286
:1003A000A0915A02B0915B0226B5A89B05C02F3FD1
:1003B00019F00196A11DB11D3FBFBA2FA92F982F8B
:1003C0008827820F911DA11DB11DBC01CD0142E006
:1003D000660F771F881F991F4A95D1F708951F92BE
:1003E0000F920FB60F9211242F933F938F939F93E9
:1003F000AF93BF938091540290915502A091560201
:10040000B09157023091530223E0230F2D3720F48F
:100410000196A11DB11D05C026E8230F0296A11D5E
:10042000B11D209353028093540290935502A093E0
:100430005602B09357028091580290915902A091B0
:100440005A02B0915B020196A11DB11D8093580222
:1004500090935902A0935A02B0935B02BF91AF915F
:100460009F918F913F912F910F900FBE0F901F90F2
:10047000189530916602313208F04BC080916402C9
:100480008111FCCF9091410622E02093640221E08B
:10049000209363022FEF20931F0610921E063093C5
:1004A0001D06E1E2F6E0ADEFB5E020E0321721F005
:1004B00041914D932F5FFACF1092FC052091FC05DE
:1004C000990F922B9093FC0590916202913061F408
:1004D000109262029091FC059093BB009091BC0039
:1004E00093FDF8CF95EC01C095EE9093BC009091F0
:1004F00064029230E1F390911F069F3F79F0809162
:100500001F06803241F080911F06803331F084E075
:1005100005C081E003C082E001C083E01092650263
:100520001092660210922006089585ED8093BC001B
:100530008091BC0084FDFCCF10926402089540912C
:10054000D705262F30E0240F311D21323105DCF490
:10055000209164022430C9F4FC0180E090E0861709
:1005600058F43091D7052191DC01A954BA4FA30F5B
:10057000B11D2C930196F3CF8091D705680F60933E
:10058000D70580E0089581E0089582E008950895F8
:1005900008950895E0915D0280915C02E81730F4BF
:1005A000F0E0E956FA4F808190E008958FEF9FEFD9
:1005B000089590915D0280915C02981750F4E92FA4
:1005C000F0E0E956FA4F208130E09F5F90935D02A2
:1005D00002C02FEF3FEFC901089580915C0290E0C7
:1005E00020915D02821B91090895CF92DF92EF92D4
:1005F000FF920F931F93CF93DF937C01CB018A016E
:1006000020912006222389F0EB016B01C40ED51E38
:10061000CC15DD0569F06991D701ED91FC91019050
:10062000F081E02DC7011995F3CF642F0E949F023E
:10063000C801DF91CF911F910F91FF90EF90DF9054
:10064000CF900895CF93DF931F92CDB7DEB7698324
:10065000209120062223D1F020916602203240F022
:1006600021E030E0FC013383228380E090E015C07C
:1006700080916502E82FF0E0EF5DF94F998190835A
:100680008F5F809365028093660205C061E0CE01B2
:1006900001960E949F0281E090E00F90DF91CF9140
:1006A0000895009769F0FC0101900020E9F7319767
:1006B000AF01481B590BBC018DEA93E00C94120664
:1006C00080E090E008950F931F93CF93DF93162F50
:1006D000072FC0E6D5E09C8521E02093200690936B
:1006E00041061092650210926602AA85BB85ED91C3
:1006F000FC9111970190F081E02D682FCD011995A3
:100700008A859B85DC01ED91FC910190F081E02DC3
:10071000602F19958A859B85DC01ED91FC910190F4
:10072000F081E02D612F1995DF91CF911F910F91ED
:100730000C943902FC01248131E03093200620938F
:10074000410610926502109266028485682B87E646
:1007500092E00E9422030C9439020F931F93CF93CF
:100760008C01C62F64600E949A036C2F6B7FC801B6
:100770000E949A0383EC90E00197F1F7CF911F91CB
:100780000F910895FC01A089B1898C91A689B78940
:1007900082FD0FC09C91818D8F5F8F73228D821798
:1007A00049F0218DDF01A20FB11D5D969C93818FD1
:1007B00008958C9108951F920F920FB60F921124F5
:1007C0000F900FBE0F901F9018951F920F920FB6AB
:1007D0000F9211240BB60F922F933F934F935F9379
:1007E0006F937F938F939F93AF93BF93EF93FF93F9
:1007F0008091B900887F803609F49CC068F5883202
:1008000009F45BC090F4803109F454C038F48823B3
:1008100009F4F6C0883009F44DC0F6C0883109F4F7
:100820004CC0803209F45DC0EFC0803409F468C068
:1008300048F4803309F455C0883309F0E5C080934B
:100840001F06D8C0803509F44FC0883509F45DC053
:10085000883409F0D9C0D6C0883909F4C7C0A8F4D3
:10086000883709F467C038F4883609F463C08037E4
:1008700009F460C0C9C0883809F4B8C0803909F4E7
:100880005FC0803809F0C0C05BC0803B09F486C0FF
:1008900038F4803A09F466C0883A09F47FC0B4C0DD
:1008A000803C09F4A7C0883C09F4A4C0883B09F443
:1008B0008AC0AAC08091FC0510C090911E0680914C
:1008C0001D06981770F5E0911E0681E08E0F80934B
:1008D0001E06F0E0E350FA4F80818093BB0085EC68
:1008E00086C080931F068EC0E0911E0681E08E0FA9
:1008F00080931E068091BB00F0E0E350FA4F8083A6
:1009000090911E0680911D066EC0E0911E0681E04A
:100910008E0F80931E068091BB00F0E0E350FA4FEB
:1009200080838091630281116DC081E080936202B7
:1009300084EA61C083E0809364021092F905CFCF0E
:100940008091F905803208F051C0E091F90581E00D
:100950008E0F8093F9058091BB00F0E0E752FA4FCB
:100960008083BDCF85EC8093BC001092640280919F
:10097000F905803230F4E091F905F0E0E752FA4FE2
:1009800010826091F90570E0E0916002F0916102DF
:1009900089ED95E019951092F90536C084E08093B1
:1009A00064021092D8051092D705E0915E02F09192
:1009B0005F0219958091D705811105C081E0809370
:1009C000D7051092B705E091D80581E08E0F80938E
:1009D000D805F0E0E954FA4F80818093BB009091F4
:1009E000D8058091D705981708F479CF85E88093CA
:1009F000BC000AC085EC8093BC001092640204C065
:100A000010921F060E949502FF91EF91BF91AF9146
:100A10009F918F917F916F915F914F913F912F9116
:100A20000F900BBE0F900FBE0F901F90189590E087
:100A3000FC013197E231F10508F04EC08827EE58ED
:100A4000FF4F8F4F0C948E13809180008F7703C0DF
:100A5000809180008F7D8093800008958091800038
:100A6000877FF9CF84B58F7702C084B58F7D84BD31
:100A700008958091B0008F7703C08091B0008F7D82
:100A80008093B0000895809190008F7707C0809187
:100A900090008F7D03C080919000877F80939000AD
:100AA00008958091A0008F7707C08091A0008F7D6E
:100AB00003C08091A000877F8093A000089580915B
:100AC00020018F7707C0809120018F7D03C0809126
:100AD0002001877F8093200108951F93CF93DF9398
:100AE000282F30E0F901EC53FD4F8491F901E258D1
:100AF000FD4FD491F901E85CFD4FC491CC23C1F0C6
:100B0000162F81110E941705EC2FF0E0EE0FFF1F4A
:100B1000E25EFD4FA591B4919FB7F894111104C006
:100B20008C91D095D82302C0EC91DE2BDC939FBF33
:100B3000DF91CF911F910895CF93DF9390E0FC0157
:100B4000E258FD4F2491FC01E85CFD4F849188231D
:100B500061F190E0880F991FFC01EC5FFD4FC5919A
:100B6000D491FC01E25EFD4FA591B491611109C0E1
:100B70009FB7F8948881209582238883EC912E2357
:100B80000BC0623061F49FB7F8948881322F3095A2
:100B900083238883EC912E2B2C939FBF06C08FB7A5
:100BA000F894E8812E2B28838FBFDF91CF91089591
:100BB0008F929F92AF92BF92CF92DF92EF92FF926D
:100BC0006B017C010E94CA014B015C01C114D1047C
:100BD000E104F104F1F00E94CA01DC01CB018819A3
:100BE0009909AA09BB09883E9340A105B10570F394
:100BF00021E0C21AD108E108F10888EE880E83E0EE
:100C0000981EA11CB11CC114D104E104F10419F710
:100C1000DDCFFF90EF90DF90CF90BF90AF909F908F
:100C20008F900895CF92DF92EF92FF920F931F93D0
:100C3000CF93DF936C017A018B01C0E0D0E0CE1539
:100C4000DF0581F0D8016D918D01D601ED91FC9108
:100C50000190F081E02DC6011995892B11F02196A4
:100C6000EECF7E01C701DF91CF911F910F91FF90D1
:100C7000EF90DF90CF900895FC01538D448D252F88
:100C800030E0842F90E0821B930B541710F0CF9626
:100C9000089501970895FC01918D828D981761F058
:100CA000828DDF01A80FB11D5D968C91928D9F5FA3
:100CB0009F73928F90E008958FEF9FEF0895FC014E
:100CC000918D828D981731F0828DE80FF11D858D01
:100CD00090E008958FEF9FEF0895FC01918D228D94
:100CE000892F90E0805C9F4F821B91098F73992719
:100CF000089583E792E00E946D0621E0892B09F4B4
:100D000020E0822F089580E193E00E946D0621E0AB
:100D1000892B09F420E0822F08958DEA93E00E9448
:100D20006D0621E0892B09F420E0822F0895FC0153
:100D3000848DDF01A80FB11DA35ABF4F2C91848D64
:100D400090E001968F739927848FA689B7892C9399
:100D5000A089B1898C91837080648C93938D848DEC
:100D6000981306C00288F389E02D80818F7D8083EF
:100D70000895EF92FF920F931F93CF93DF93EC01AF
:100D800081E0888F9B8D8C8D981305C0E889F98947
:100D9000808185FD26C0F62E0B8D10E00F5F1F4F62
:100DA0000F731127E02E8C8DE8120CC00FB607FCD4
:100DB000FACFE889F989808185FFF5CFCE010E94BD
:100DC0009706F1CF8B8DFE01E80FF11DE35AFF4F1F
:100DD000F0829FB7F8940B8FEA89FB89808180624B
:100DE0000AC09FB7F894EE89FF896083E889F98982
:100DF00080818370806480839FBF81E090E0DF9179
:100E0000CF911F910F91FF90EF900895CF93DF93B3
:100E1000EC01888D8823C9F0EA89FB89808185FDF2
:100E200005C0A889B9898C9186FD0FC00FB607FC53
:100E3000F5CF808185FFF2CFA889B9898C9185FF94
:100E4000EDCFCE010E949706E7CFDF91CF910895B5
:100E5000E0E0F0E0199480E090E0892B21F00E941E
:100E60008D06811119C080E090E0892B41F080E06F
:100E700090E0892B21F00E940000811110C00E9497
:100E8000830681110FC080E090E0892B81F00E94E1
:100E9000790681110AC008950E940000E4CF0E94E3
:100EA0000000EDCF0E942807EECF0C9400000895BB
:100EB000089580E090E008950F931F93CF93DF9300
:100EC0008C01C62FD62FD07FD1606D2F0E949A0340
:100ED0006D2FC8010E94AD0380E1C89FB0011124AD
:100EE000C62FC1606C2FC8010E949A036C2FC801E5
:100EF0000E94AD0381E090E0DF91CF911F910F91AF
:100F000008950F931F93CF93DF93EC01888199810C
:100F1000009729F02A813B812617370788F48B0137
:100F20006F5F7F4F0E94D115009761F0998388838E
:100F30001B830A832C813D81232B11F4FC01108239
:100F400081E001C080E0DF91CF911F910F91089562
:100F50001F920F920FB60F9211240BB60F922F9380
:100F60003F934F935F936F937F938F939F93AF9331
:100F7000BF93EF93FF9380911F0790912007A0915B
:100F80002107B0912207892B8A2B8B2B49F1909155
:100F90001E078091000089278093000080911F0721
:100FA00090912007A0912107B091220718161906E9
:100FB0001A061B060CF056C080911F07909120075F
:100FC000A0912107B09122070197A109B10980934F
:100FD0001F0790932007A0932107B093220742C0D8
:100FE00080910002E4E2F3E0E4919FEF909300022D
:100FF000E230C9F050F4EE2399F0E13081F59091A0
:101000006F009D7F90936F002AC0E43019F1E0F0EB
:10101000E53029F5909173009D7F909373001FC078
:1010200010926E001CC0909170009D7F9093700094
:1010300091E09093B0009091B100987F946090936C
:10104000B1001092B3000BC0909171009D7F9093FE
:10105000710005C0909172009D7F9093720060E0D6
:101060000E946D05FF91EF91BF91AF919F918F917C
:101070007F916F915F914F913F912F910F900BBE98
:101080000F900FBE0F901F9018951F920F920FB6E2
:101090000F9211240BB60F922F933F934F935F93B0
:1010A0006F937F938F939F93AF93BF93EF93FF9330
:1010B00083E792E00E949706FF91EF91BF91AF9175
:1010C0009F918F917F916F915F914F913F912F9160
:1010D0000F900BBE0F900FBE0F901F9018951F9290
:1010E0000F920FB60F9211240BB60F922F933F93CE
:1010F0004F935F936F937F938F939F93AF93BF9320
:10110000EF93FF9383E792E00E94C203FF91EF9178
:10111000BF91AF919F918F917F916F915F914F910F
:101120003F912F910F900BBE0F900FBE0F901F900D
:1011300018951F920F920FB60F9211240BB60F92B3
:101140002F933F934F935F936F937F938F939F93CF
:10115000AF93BF93EF93FF9380E193E00E949706D4
:10116000FF91EF91BF91AF919F918F917F916F917F
:101170005F914F913F912F910F900BBE0F900FBE3B
:101180000F901F9018951F920F920FB60F92112477
:101190000BB60F922F933F934F935F936F937F9371
:1011A0008F939F93AF93BF93EF93FF9380E193E06F
:1011B0000E94C203FF91EF91BF91AF919F918F91D8
:1011C0007F916F915F914F913F912F910F900BBE47
:1011D0000F900FBE0F901F9018951F920F920FB691
:1011E0000F9211240BB60F922F933F934F935F935F
:1011F0006F937F938F939F93AF93BF93EF93FF93DF
:101200008DEA93E00E949706FF91EF91BF91AF9115
:101210009F918F917F916F915F914F913F912F910E
:101220000F900BBE0F900FBE0F901F9018951F923E
:101230000F920FB60F9211240BB60F922F933F937C
:101240004F935F936F937F938F939F93AF93BF93CE
:10125000EF93FF938DEA93E00E94C203FF91EF9119
:10126000BF91AF919F918F917F916F915F914F91BE
:101270003F912F910F900BBE0F900FBE0F901F90BC
:1012800018951F920F920FB60F9211240BB60F9262
:101290002F933F934F935F936F937F938F939F937E
:1012A000AF93BF93CF93DF93EF93FF9320914B04C2
:1012B00030E0F901EC53FD4F8491F901E258FD4F04
:1012C000D491F901E85CFD4FC491CC2379F08111F0
:1012D0000E941705EC2FF0E0EE0FFF1FE65FFC4FBA
:1012E000A591B491EC91ED2381E009F480E0209187
:1012F0004F04309150042F5F3F4F309350042093A0
:101300004F0490914E04953618F096E090934A045D
:1013100090914A049430C9F128F4923069F09330E6
:10132000D1F05EC0953009F451C0963009F058C034
:1013300091E090931B0551C0811152C020914F0440
:10134000309150042436310508F442C010921B0538
:1013500010924E041CC0813009F042C0E0914E044E
:1013600091E09E0F90934E04F0E020914F04309155
:101370005004EE0FFF1FE65BFB4F30872783109270
:10138000500410924F0494E029C0811117C0E091DD
:101390004E0491E09E0F90934E04F0E020914F0494
:1013A00030915004EE0FFF1FE65BFB4F3087278321
:1013B0001092500410924F0493E010C020914F04FB
:1013C000309150042536310558F007C0811108C00E
:1013D0001092500410924F0403C095E090934A0479
:1013E00090914D049923B9F081110AC080914C0469
:1013F000882321F080914C0461E009C02F9A0BC032
:1014000080914C04882331F080914C0460E00E946C
:101410006D0501C02F98FF91EF91DF91CF91BF91A2
:10142000AF919F918F917F916F915F914F913F917C
:101430002F910F900BBE0F900FBE0F901F9018951D
:101440008F929F92AF92BF92CF92DF92EF92FF92D4
:101450000F931F93CF93DF938C016A017B0120E0F0
:1014600030E04FE753E4C701B6010E94A2124B01DE
:101470005C0120E030E0A9010E94AB1418161CF4B6
:10148000C501B40103C0C501B40190580E94751490
:10149000EB0120E030E0A901C701B6010E94AB14C6
:1014A000181614F460E001C061E0F80181810E9427
:1014B0006D05CF3FD10509F014F4DD2702C0CFEF51
:1014C000D0E0F801108161E0812F0E949C052097F7
:1014D00009F4B1C0CF3FD10509F4AFC0E12FF0E06E
:1014E000EC53FD4FE4918E2F90E0FC013197E231F7
:1014F000F10508F09DC08827EC57FF4F8F4F0C94E3
:101500008E1384B5806884BDC7BDA7C084B58062D2
:1015100084BDC8BDA2C08091800080688093800097
:10152000D0938900C093880098C080918000806229
:1015300080938000D0938B00C0938A008EC08091EE
:101540008000886080938000D0938D00C0938C00D1
:1015500084C08091B00080688093B000C093B300D5
:101560007CC08091B00080628093B000C093B400D2
:1015700074C080919000806880939000D09399000F
:10158000C09398006AC08091900080628093900020
:10159000D0939B00C0939A0060C0809190008860B7
:1015A00080939000D0939D00C0939C0056C0809182
:1015B000A00080688093A0008091A0008F7B809322
:1015C000A000D093A900C093A80047C08091A000BC
:1015D00080628093A000D093AB00C093AA003DC06E
:1015E0008091A00088608093A000D093AD00C0934C
:1015F000AC0033C080912001806880932001D0939B
:101600002901C093280129C0809120018062809324
:101610002001D0932B01C0932A011FC0809120018B
:10162000886080932001D0932D01C0932C0115C0B8
:10163000C038D10514F460E001C061E0812FDF9172
:10164000CF911F910F91FF90EF90DF90CF90BF90BF
:10165000AF909F908F900C946D05DF91CF911F916B
:101660000F91FF90EF90DF90CF90BF90AF909F9041
:101670008F9008958EBD00000DB407FEFDCF8EB58E
:101680000895CF93DF93EC0160E088810E946D059F
:1016900088E90E943A0B80E00E943A0B80E00E94A9
:1016A0003A0B80E00E943A0B80E00E943A0B61E026
:1016B00088810E946D058BE891E00197F1F760E069
:1016C00088810E946D0580EE0E943A0B61E088815E
:1016D000DF91CF910C946D05AF92BF92CF92DF92C4
:1016E000EF92FF920F931F93CF93DF93CDB7DEB7A7
:1016F00060970FB6F894DEBF0FBECDBF5C0160E00F
:10170000FC0180810E946D0580E60E943A0B8E01EB
:101710000F5F1F4F7E01F1E1EF0EF11C680180E0C9
:101720000E943A0B90E0A0E0B0E0F6018193919323
:10173000A193B1936F01EE15FF0589F761E0F50103
:1017400080810E946D0580E090E0DC01F80141910C
:101750005191619171918F01BA2FA92F982F8827EC
:10176000840F951FA61FB71FEE15FF0579F79C0183
:10177000AD0166277727CB01621B730B840B950B9A
:1017800060960FB6F894DEBF0FBECDBFDF91CF914C
:101790001F910F91FF90EF90DF90CF90BF90AF908F
:1017A00008951F920F920FB60F9211240BB60F924D
:1017B0002F933F934F935F936F937F938F939F9359
:1017C000AF93BF93EF93FF9380911D0787FF05C0F1
:1017D000109285001092840016C020911D07022EE1
:1017E000000C330B8091580590E0281739075CF402
:1017F00030911D0725E03203F0011124E45EFA4F19
:10180000808186FD15C080911D078F5F80931D0725
:1018100020911D07022E000C330B8091580590E09B
:101820002817390794F480911D078C302CF10DC0D6
:1018300030911D073203F0011124E45EFA4F8081DC
:1018400060E08F730E946D05DECF809184009091DF
:10185000850084349C4918F480E49CE905C080919B
:10186000840090918500049690938900809388006D
:101870008FEF80931D072AC040918400509185000E
:1018800030911D0725E03203F0011124E45EFA4F88
:1018900081819281840F951F9093890080938800A5
:1018A00030911D073203F0011124E45EFA4F80816C
:1018B00086FF0CC030911D073203F0011124E45E55
:1018C000FA4F808161E08F730E946D05FF91EF9167
:1018D000BF91AF919F918F917F916F915F914F9148
:1018E0003F912F910F900BBE0F900FBE0F901F9046
:1018F0001895CF93DF93CDB7DEB7A5970FB6F894C1
:10190000DEBF0FBECDBF789484B5826084BD84B540
:10191000816084BD85B5826085BD85B5816085BDEA
:1019200080916E00816080936E00109281008091A2
:10193000810082608093810080918100816080932A
:101940008100809180008160809380008091B1004F
:1019500084608093B1008091B00081608093B0007A
:1019600080919100826080939100809191008160CC
:10197000809391008091900081608093900080918D
:10198000A10082608093A1008091A100816080937A
:10199000A1008091A00081608093A000809121012E
:1019A00082608093210180912101816080932101D7
:1019B0008091200181608093200180917A00846071
:1019C00080937A0080917A00826080937A0080917F
:1019D0007A00816080937A0080917A008068809399
:1019E0007A001092C100E091BD03F091BE0382E045
:1019F0008083E091B903F091BA031082E091BB03B8
:101A0000F091BC038FEC80831092C503E091C10379
:101A1000F091C20386E08083E091BF03F091C003A0
:101A2000808180618083E091BF03F091C003808159
:101A300088608083E091BF03F091C003808180685B
:101A40008083E091BF03F091C00380818F7D80830C
:101A500061E0809161050E949C0560E080916105D4
:101A60000E946D0560E0809160050E949C0587E6FC
:101A700092E090936B0580936A0510925D0210923C
:101A80005C0210926502109266021092640281E07C
:101A9000809363021092620261E084E10E946D050E
:101AA00061E085E10E946D058091B9008E7F809391
:101AB000B9008091B9008D7F8093B90088E480934C
:101AC000B80085E48093BC0087EC92E090935F02BD
:101AD00080935E0288EC92E09093610280936002B2
:101AE00080E090E1A0E0B0E080936D0590936E05FA
:101AF000A0936F05B09370058AE090E0A0E0B0E09D
:101B00008093710590937205A0937305B09374054B
:101B100080E090E0A0E0B0E48093750590937605B6
:101B2000A0937705B093780560E070E185E00E94AE
:101B300063036FE979E380E00E94630300E615E048
:101B40007801512CBDE66B2EB2E07B2E83EB882E04
:101B500082E0982E9BECC92E97E0D92ED7011496DF
:101B60009C91149712968C91F801818F928F61E06D
:101B70000E949C0561E0D8015A968C910E949C05B8
:101B8000F701908586815801FDE1AF0EB11CD801A7
:101B90005D968C935D975E969C9361E00E949C0598
:101BA00060E0F801868D0E949C0561E0D8015D9699
:101BB0008C910E946D054FB6F8948091520281116C
:101BC00026C0F3018491F4012491E82FF0E0EE0F98
:101BD000FF1FEC5FFD4FA591B4919C91822F89234B
:101BE00021F461E085E30E946D0561E085E30E94D8
:101BF0009C058CB580618CBD8CB580648CBD61E02A
:101C000084E30E949C0561E083E30E949C0580912F
:101C100052028F5F809352024FBEC6010197F1F7C7
:101C200060E0D8015D968C910E946D0588E80E9465
:101C30003A0B83E00E943A0B61E0F801858D0E9427
:101C40006D05C6010197F1F7C5010E94410B539440
:101C5000FFEFEF1AFF0A0E5F1F4F22E052127ECFF6
:101C600075E8E72E75E0F72E09E815E060E0D7018A
:101C70008D917D010E949C050E151F05B9F721E885
:101C8000E22E25E0F22E3BE8C32E35E0D32E45E0D0
:101C9000B42E5CE0952E62E0A62EF80181908F01B3
:101CA00087818C3008F048C061E0882D0E949C0537
:101CB000D80117968C91B89EF0011124E45EFA4F7A
:101CC000982D9F732081207C822E892A8082138206
:101CD0001482692D0E948213BCE08B9FA001112405
:101CE00020E030E0BA01620F731FB69EF001B79E8C
:101CF000F00D1124E45EFA4F908196FD12C02F5F23
:101D00003F4F2C30310571F781110BC010928000CC
:101D1000A09281001092850010928400A6BAA09231
:101D20006F00D8011796EC91BE9EF0011124E45E7D
:101D3000FA4F808180648083F80195818381D70187
:101D400052968C93529753969C9360E00E949C0508
:101D500061E0F70183890E949C0560E0D7015396FA
:101D60008C910E946D05B2E0EB0EF11CC016D106FD
:101D700009F093CFF8941092200189E0809321011B
:101D800080E293E09093290180932801109225012D
:101D90001092240112E010937300789410934A0477
:101DA00010924E0480914B0460E00E949C05E091EB
:101DB000BD03F091BE031083E091BD03F091BE031B
:101DC0001082E091B903F091BA0383E18083E0913E
:101DD000BB03F091BC0387E880831092C503E091B8
:101DE000C103F091C20386E08083E091BF03F091CC
:101DF000C003808180618083E091BF03F091C003C4
:101E0000808188608083E091BF03F091C00380816E
:101E100080688083E091BF03F091C00380818F7D53
:101E200080830FE312E080918105863308F08653AA
:101E300090917B00282F2870977F922B90937B00A6
:101E40008770806480937C0080917A0080648093A6
:101E50007A0080917A0086FDFCCFE0907800809136
:101E60007900F12CF82AFF92EF921F930F930E94B2
:101E7000CB160F900F900F900F9047010F2C000C76
:101E8000AA08BB08F7FE25C06DE28DEA93E00E9428
:101E9000B90622273327A901281939094A095B09FC
:101EA00019A2FE01B1967F01CA01B9012AE030E012
:101EB00040E050E00E946013605DD7016E937D01A9
:101EC000211531054105510579F7CD010E945103D6
:101ED0001FC0A501940119A2FE01B1966F01CA01AC
:101EE000B9012AE030E040E050E00E946013605DFC
:101EF000D6016E936D01211531054105510579F724
:101F0000CD010E945103B8ECEB16F1040CF0CFC0E8
:101F10001A8219821C821B821E821D8267E070E079
:101F2000CE0101960E94810729813A8181110DC05D
:101F30002115310519F0C9010E9448151A8219822C
:101F40001E821D821C821B8209C087E090E09E8356
:101F50008D836AE472E0C9010E94C4168DE795E0A2
:101F60000E94410B8FE795E00E94410B88E4482EC8
:101F700081EE582E8AE7682E8EE3782E812C912CE4
:101F800090E8A92E9EE3B92E8DE795E00E946C0B98
:101F900090958095709561957F4F8F4F9F4F0E94D0
:101FA00043126B017C018FE795E00E946C0B0E944D
:101FB00043126AA37BA38CA39DA3B501A40189E767
:101FC00095E00E94200AB301A20170588BE795E0CA
:101FD0000E94200A2AA13BA14CA15DA1C701B60124
:101FE0000E94961320E030E040E05FE30E94A212DE
:101FF0002CEA35EC47E257E30E94A2129B01AC01A8
:10200000C301B2010E9497132B013C01A701960165
:102010006AA17BA18CA19DA10E94961320E030E0D3
:1020200040E05FE30E94A2122CEA35EC47E257E35E
:102030000E94A2129B01AC01C501B4010E9497133A
:102040004B015C0168EC70E080E090E00E94D805F4
:102050002AA13BA14CA15DA1C701B6010E94971323
:1020600020E030E048EC55E40E94031420E030E02A
:1020700040EC51E40E94A21220E030E040E251E442
:102080000E943C1287FD80CF40E050E0BA0189E712
:1020900095E00E94200A40E050E060E070E88BE7A5
:1020A00095E00E94200A89819A810E9448156AE081
:1020B00070E080E090E00E94D8050E942B07B3CE2C
:1020C00010926A021092690288EE93E0A0E0B0E0FC
:1020D00080936B0290936C02A0936D02B0936E029A
:1020E00023E132E030936802209367021092760277
:1020F000109275028093770290937802A0937902F0
:10210000B0937A0225E232E0309374022093730296
:1021100045E351E05093800240937F0244E351E055
:10212000509382024093810240E351E05093840235
:102130004093830241E351E050938602409385022D
:1021400042E351E0509388024093870246E351E016
:1021500050938A024093890210928C0210928D0251
:1021600010928E0210928F0210921303109212039B
:102170008093140390931503A0931603B093170351
:10218000309311032093100345ED50E050931D034D
:1021900040931C0344ED50E050931F0340931E03F3
:1021A00040ED50E0509321034093200341ED50E077
:1021B000509323034093220342ED50E050932503B4
:1021C0004093240346ED50E05093270340932603A9
:1021D0001092290310922A0310922B0310922C03C1
:1021E0001092B0031092AF038093B1039093B203A7
:1021F000A093B303B093B4033093AE032093AD0325
:1022000085EC90E09093BA038093B90384EC90E05E
:102210009093BC038093BB0380EC90E09093BE034B
:102220008093BD0381EC90E09093C0038093BF0343
:1022300082EC90E09093C2038093C10386EC90E01F
:102240009093C4038093C3031092C6031092C703F4
:102250001092C8031092C90380910702909108025E
:10226000A0910902B0910A028093810590938205A2
:10227000A0938305B093840580910B0290910C028A
:10228000A0910D02B0910E02809385059093860572
:10229000A0938705B093880584E08093890587E043
:1022A00080938A0510928B0584EB80938C0586E1E0
:1022B00080938D0588E180938E0587E180938F055B
:1022C00089E180939005E0915805EC3020F08FEF84
:1022D0008093910510C081E08E0F80935805E093A4
:1022E000910585E0E89FF0011124E45EFA4F88EB48
:1022F0009BE092838183E0915805EC3020F08FEFD2
:102300008093920510C081E08E0F80935805E09372
:10231000920585E0E89FF0011124E45EFA4F88EB16
:102320009BE0928381838CE08093600584E28093BC
:10233000610586E08093620585E0809363058FE107
:10234000809364058EE18093650583E28093660542
:1023500082E28093670585E48093680584E4809336
:10236000690580E480936C051092710510927205E6
:1023700010927305109274051092750510927605EF
:102380001092770510927805E6E4F6E024E037E055
:102390008FEF9FEFDC011282138214821582168266
:1023A00017821086118683879487A587B6878787CB
:1023B000908BA18BB28B12861182108273962E178E
:1023C0003F0749F78DE090E00E94B014FC011382B2
:1023D000128287E392E091838083118687E284836F
:1023E00084E1828784E083871486F0934306E09338
:1023F0004206109244061092450685E280934B04F3
:1024000010924D0410925A051092590510925C05D5
:1024100010925B0510925E0510925D0560E070E021
:1024200089E595E00E9481072091590530915A0570
:10243000811113C02115310519F0C9010E944815F9
:1024400010925A051092590510925E0510925D0582
:1024500010925C0510925B05089510925E05109233
:102460005D0569E472E0C9010C94C41680915905B8
:1024700090915A050C9448150E947E1208F481E050
:102480000895E89409C097FB3EF490958095709567
:1024900061957F4F8F4F9F4F9923A9F0F92F96E9B0
:1024A000BB279395F695879577956795B795F11125
:1024B000F8CFFAF4BB0F11F460FF1BC06F5F7F4FC2
:1024C0008F4F9F4F16C0882311F096E911C07723D4
:1024D00021F09EE8872F762F05C0662371F096E8DD
:1024E000862F70E060E02AF09A95660F771F881FAC
:1024F000DAF7880F9695879597F90895990F000850
:10250000550FAA0BE0E8FEEF16161706E807F907C5
:10251000C0F012161306E407F50798F0621B730B60
:10252000840B950B39F40A2661F0232B242B252BE1
:1025300021F408950A2609F4A140A6958FEF811D84
:10254000811D08950E94B5120C9426130E94181341
:1025500038F00E941F1320F0952311F00C940F13F4
:102560000C94151311240C945A130E94371370F312
:10257000959FC1F3950F50E0551F629FF001729F28
:10258000BB27F00DB11D639FAA27F00DB11DAA1F37
:10259000649F6627B00DA11D661F829F2227B00D84
:1025A000A11D621F739FB00DA11D621F839FA00D0F
:1025B000611D221F749F3327A00D611D231F849F5F
:1025C000600D211D822F762F6A2F11249F575040B6
:1025D0009AF0F1F088234AF0EE0FFF1FBB1F661F31
:1025E000771F881F91505040A9F79E3F510580F0FA
:1025F0000C940F130C945A135F3FE4F3983ED4F3FA
:10260000869577956795B795F795E7959F5FC1F79D
:10261000FE2B880F911D9695879597F9089597F948
:102620009F6780E870E060E008959FEF80EC089578
:1026300000240A94161617061806090608950024A1
:102640000A9412161306140605060895092E03941B
:10265000000C11F4882352F0BB0F40F4BF2B11F48F
:1026600060FF04C06F5F7F4F8F4F9F4F089557FDEE
:102670009058440F551F59F05F3F71F04795880FF0
:1026800097FB991F61F09F3F79F087950895121687
:1026900013061406551FF2CF4695F1DF08C0161633
:1026A00017061806991FF1CF8695710561050894E4
:1026B0000895E894BB2766277727CB0197F90895FB
:1026C000A1E21A2EAA1BBB1BFD010DC0AA1FBB1F36
:1026D000EE1FFF1FA217B307E407F50720F0A21BA8
:1026E000B30BE40BF50B661F771F881F991F1A9415
:1026F00069F760957095809590959B01AC01BD013F
:10270000CF010895991B79E004C0991F961708F02E
:10271000961B881F7A95C9F780950895EE0FFF1FC5
:10272000881F8BBF0790F691E02D19945058BB2756
:10273000AA270E94AE130C9426130E94181338F097
:102740000E941F1320F039F49F3F19F426F40C94D3
:1027500015130EF4E095E7FB0C940F13E92F0E947C
:10276000371358F3BA17620773078407950720F0E9
:1027700079F4A6F50C9459130EF4E0950B2EBA2FAC
:10278000A02D0B01B90190010C01CA01A001112477
:10279000FF27591B99F0593F50F4503E68F11A1623
:1027A000F040A22F232F342F4427585FF3CF4695B4
:1027B00037952795A795F0405395C9F77EF41F16D6
:1027C000BA0B620B730B840BBAF09150A1F0FF0FA0
:1027D000BB1F661F771F881FC2F70EC0BA0F621F8C
:1027E000731F841F48F4879577956795B795F7957C
:1027F0009E3F08F0B0CF9395880F08F09927EE0F11
:102800009795879508950E9417140C9426130E949B
:102810001F1358F00E94181340F029F45F3F29F06D
:102820000C940F1351110C945A130C9415130E940D
:10283000371368F39923B1F3552391F3951B550B87
:10284000BB27AA2762177307840738F09F5F5F4F83
:10285000220F331F441FAA1FA9F335D00E2E3AF0C2
:10286000E0E832D091505040E695001CCAF72BD0DA
:10287000FE2F29D0660F771F881FBB1F261737072B
:102880004807AB07B0E809F0BB0B802DBF01FF275D
:1028900093585F4F3AF09E3F510578F00C940F1318
:1028A0000C945A135F3FE4F3983ED4F386957795E2
:1028B0006795B795F7959F5FC9F7880F911D969516
:1028C000879597F90895E1E0660F771F881FBB1F72
:1028D000621773078407BA0720F0621B730B840B1F
:1028E000BA0BEE1F88F7E09508950E947C14689457
:1028F000B1110C945A1308950E943F1388F09F570A
:1029000098F0B92F9927B751B0F0E1F0660F771F13
:10291000881F991F1AF0BA95C9F714C0B13091F009
:102920000E945913B1E008950C945913672F782F22
:102930008827B85F39F0B93FCCF3869577956795CE
:10294000B395D9F73EF490958095709561957F4F3A
:102950008F4F9F4F08950E947E1208F48FEF0895C5
:102960000F931F93CF93DF938230910510F482E091
:1029700090E0E0912507F091260720E030E0A0E00C
:10298000B0E0309719F140815181028113814817DD
:102990005907C8F08417950769F4109731F012961B
:1029A0000C93129713961C9327C00093250710933E
:1029B000260722C02115310519F04217530718F4D4
:1029C0009A01BD01EF01DF01F801DBCF21153105CF
:1029D000F9F0281B390B2430310580F48A819B8162
:1029E0006115710521F0FB019383828304C09093EC
:1029F000260780932507FE01329644C0FE01E20FB0
:102A0000F31F8193919322503109398328833AC06F
:102A10002091230730912407232B41F420910302B6
:102A20003091040230932407209323072091010260
:102A3000309102022115310541F42DB73EB7409186
:102A4000050250910602241B350BE0912307F091FB
:102A50002407E217F307A0F42E1B3F0B28173907B2
:102A600078F0AC014E5F5F4F2417350748F04E0FEA
:102A70005F1F50932407409323078193919302C0D3
:102A8000E0E0F0E0CF01DF91CF911F910F91089529
:102A9000CF93DF93009709F481C0FC013297138232
:102AA0001282A0912507B0912607109781F420810A
:102AB0003181820F931F209123073091240728171B
:102AC000390751F5F0932407E093230767C0ED0120
:102AD00020E030E0CE17DF0740F44A815B819E01A1
:102AE00041155105F1F0EA01F5CFD383C28340814E
:102AF0005181840F951FC817D90759F4888199818E
:102B0000840F951F0296918380838A819B81938392
:102B100082832115310529F4F0932607E0932507D8
:102B20003DC0E901FB83EA8349915991C40FD51F48
:102B3000EC17FD0761F480819181840F951F029647
:102B4000E90199838883828193819B838A83E0E072
:102B5000F0E012968D919C911397009719F0FD016A
:102B6000DC01F7CF8D919C9111979D012E5F3F4F16
:102B7000820F931F209123073091240728173907CC
:102B800069F4309729F4109226071092250702C0A5
:102B900013821282B0932407A0932307DF91CF9171
:102BA00008956F927F928F929F92AF92BF92CF9231
:102BB000DF92EF92FF920F931F93CF93DF930097D3
:102BC00089F4CB01DF91CF911F910F91FF90EF908E
:102BD000DF90CF90BF90AF909F908F907F906F903D
:102BE0000C94B014FC01E60FF71F9C012250310930
:102BF000E217F30708F4A9C0EC01D9010D911C916B
:102C0000119706171707B0F00530110508F49BC09F
:102C1000C80104978617970708F495C00250110958
:102C2000061B170B019311936D937C93CF010E94A8
:102C3000481589C05B01A01AB10A4C01800E911E93
:102C4000A0912507B0912607612C712CE12CF12C65
:102C5000109709F446C08D919C911197A815B9055C
:102C6000B1F56C0142E0C40ED11CCA14DB0478F14A
:102C70004C018A189B08640142E0C40ED11C1296D4
:102C8000BC9012971396AC91B5E0CB16D10440F0EE
:102C9000B282A38391828082D9016D937C9309C013
:102CA0000E5F1F4F800F911FF90191838083EB2DE1
:102CB000FA2FE114F10431F0D7011396FC93EE934F
:102CC000129741C0F0932607E09325073CC0681691
:102CD000790608F43C017D0112960D90BC91A02D5F
:102CE000B7CF809123079091240788169906E1F4C5
:102CF00066167706C8F4809101029091020200974F
:102D000041F48DB79EB74091050250910602841B95
:102D1000950BE817F907C8F4F0932407E09323070D
:102D2000F901718360830FC0CB010E94B0147C0154
:102D3000009759F0A801BE010E94BB16CE010E9467
:102D40004815C70104C0CE0102C080E090E0DF91C9
:102D5000CF911F910F91FF90EF90DF90CF90BF9098
:102D6000AF909F908F907F906F90089581E090E05A
:102D7000F8940C949919FB01DC0102C001900D92AA
:102D800041505040D8F70895FB01DC0101900D92AD
:102D90000020E1F70895CF93DF93CDB7DEB7AE0102
:102DA0004A5F5F4FFA0161917191AF0180912907EC
:102DB00090912A070E94DF16DF91CF9108952F92FC
:102DC0003F924F925F926F927F928F929F92AF92BB
:102DD000BF92CF92DF92EF92FF920F931F93CF9308
:102DE000DF93CDB7DEB72B970FB6F894DEBF0FBEDB
:102DF000CDBF6C017B018A01FC01178216828381A1
:102E000081FFCCC1CE0101963C01F6019381F7010F
:102E100093FD859193FF81917F01882309F4BAC1C5
:102E2000853239F493FD859193FF81917F0185323D
:102E300029F4B60190E00E94FF18E7CF912C212CD5
:102E4000312CFFE1F315D8F08B3279F038F4803271
:102E500079F08332A1F4232D20611DC08D3261F001
:102E6000803369F4232D216016C0832D8260382EB3
:102E7000E32DE4603E2E2AC0F32DF8601DC037FC20
:102E80002DC020ED280F2A3040F08E32B9F436FCE8
:102E900081C1232D2064322E19C036FE06C08AE07F
:102EA000989E200D1124922E11C0EAE02E9E200D36
:102EB0001124222EF32DF0623F2E08C08C3621F40F
:102EC000832D8068382E02C0883641F4F70193FDC7
:102ED000859193FF81917F018111B3CF982F9F7DC1
:102EE0009554933028F40C5F1F4F9FE399830DC0D6
:102EF000833631F0833771F0833509F059C021C032
:102F0000F801808189830E5F1F4F88248394912C60
:102F1000530113C02801F2E04F0E511CF801A080AC
:102F2000B18036FE03C0692D70E002C06FEF7FEF05
:102F3000C5010E94F4184C018201F32DFF773F2E4A
:102F400016C0280122E0420E511CF801A080B18079
:102F500036FE03C0692D70E002C06FEF7FEFC50140
:102F60000E94E9184C01F32DF0683F2E820133FCDA
:102F70001BC0822D90E088169906B0F4B60180E25D
:102F800090E00E94FF182A94F4CFF50137FC859158
:102F900037FE81915F01B60190E00E94FF18211079
:102FA0002A9421E0821A91088114910471F7E8C0F3
:102FB000843611F0893641F5F80137FE07C060818B
:102FC0007181828193810C5F1F4F08C06081718184
:102FD000072E000C880B990B0E5F1F4FF32DFF7609
:102FE0003F2E97FF09C090958095709561957F4F12
:102FF0008F4F9F4FF0683F2E2AE030E0A3010E94E0
:103000003B19882E861845C0853731F4232D2F7E35
:10301000B22E2AE030E025C0932D997FB92E8F364D
:10302000C1F018F4883579F0B5C0803719F08837C9
:1030300021F0B0C0E92FE061BE2EB4FE0DC0FB2D23
:10304000F460BF2E09C034FE0AC0292F2660B22EBC
:1030500006C028E030E005C020E130E002C020E1F9
:1030600032E0F801B7FE07C06081718182819381EF
:103070000C5F1F4F06C06081718180E090E00E5FA1
:103080001F4FA3010E943B19882E8618FB2DFF7746
:103090003F2E36FE0DC0232D2E7FA22E891458F40C
:1030A00034FE0BC032FC09C0832D8E7EA82E05C0D5
:1030B000B82CA32C03C0B82C01C0B92CA4FE0FC09F
:1030C000FE01E80DF11D8081803321F49A2D997E57
:1030D000A92E09C0A2FE06C0B394B39404C08A2DE1
:1030E000867809F0B394A3FC11C0A0FE06C0B21408
:1030F00088F4280C922C9B180EC0B21460F4B60110
:1031000080E290E00E94FF18B394F7CFB21418F455
:103110002B1802C0982C212CA4FE10C0B60180E30D
:1031200090E00E94FF18A2FE17C0A1FC03C088E730
:1031300090E002C088E590E0B6010CC08A2D867848
:1031400059F0A1FE02C08BE201C080E2A7FC8DE233
:10315000B60190E00E94FF18891438F4B60180E3AC
:1031600090E00E94FF189A94F7CF8A94F301E80D3B
:10317000F11D8081B60190E00E94FF188110F5CF0B
:10318000222009F442CEB60180E290E00E94FF18AE
:103190002A94F6CFF6018681978102C08FEF9FEFC8
:1031A0002B960FB6F894DEBF0FBECDBFDF91CF9147
:1031B0001F910F91FF90EF90DF90CF90BF90AF9055
:1031C0009F908F907F906F905F904F903F902F9047
:1031D0000895FC010590615070400110D8F780956A
:1031E00090958E0F9F1F0895FC01615070400190D3
:1031F0000110D8F7809590958E0F9F1F08950F931B
:103200001F93CF93DF93FB01238121FD03C08FEF39
:103210009FEF2CC022FF16C0468157812481358143
:103220004217530744F4A081B1819D012F5F3F4FA6
:10323000318320838C93268137812F5F3F4F3783E3
:10324000268314C08B01EC01FB010084F185E02D85
:103250001995892BE1F6D80116968D919C911797B7
:10326000019617969C938E931697CE01DF91CF917E
:103270001F910F910895FA01AA27283051F12031AA
:1032800081F1E8946F936E7F6E5F7F4F8F4F9F4FFA
:10329000AF4FB1E03ED0B4E03CD0670F781F891F3C
:1032A0009A1FA11D680F791F8A1F911DA11D6A0F0A
:1032B000711D811D911DA11D20D009F468943F91BD
:1032C0002AE0269F11243019305D3193DEF6CF01BC
:1032D0000895462F4770405D4193B3E00FD0C9F782
:1032E000F6CF462F4F70405D4A3318F0495D31FDEF
:1032F0004052419302D0A9F7EACFB4E0A695979542
:10330000879577956795BA95C9F700976105710517
:1033100008959B01AC010A2E069457954795379561
:103320002795BA95C9F7620F731F841F951FA01DBB
:10333000089511E0C4E9D1E000E006C0802FFE014D
:103340000E948E132196011DC539D10780E0080720
:06335000A9F7F894FFCF7D
:10335600FF00002D072000363738391B1D1A1C00C8
:103366000000002203F5025907C902ED02D902CA7C
:103376000200000000B90612063C0606076D064B61
:10338600065F06000000005C07120659075807761C
:10339600616C6575723A202564006176616E6365BD
:0233A6007200B3
:00000001FF
