:100000000C9461010C9492010C9492010C94920155
:100010000C9492010C9492010C9492010C94920114
:100020000C9492010C94D4080C94D4080C94D40829
:100030000C9492010C94DC030C9492010C949201A8
:100040000C9492010C9454060C9492010C9492011D
:100050000C9492010C9492010C9492010C949203D2
:100060000C9492010C944B050C9421050C94920174
:100070000C9492010C9492010C9492010C949201B4
:100080000C9492010C9492010C9492010C949201A4
:100090000C9492010C9492010C9492010C94DE0841
:1000A0000C9492010C9492010C9492010C94920184
:1000B0000C9492010C9492010C9492010C9475058D
:1000C0000C9492010C9492010C9492010C94F704FC
:1000D0000C94CD040C9492010C94A3040C94790418
:1000E0000C9492012B0A2E0A1D0A210A270A650A7E
:1000F000320A360A3C0A400A440A4A0A4E0A520A9E
:10010000650A580A5C0A600A0C946D030C94CD01D0
:100110000C94650A0C94440A0C941D0A0C948802F1
:100120000C94270A0C942E0A0C94210A0C94B00704
:100130000C94EF010C944E0A0C94E1010C94400ACB
:100140000C948D070C948A070C942B0A0C949C0732
:100150000C94360A0C94B8070C948A0D0C94600A1F
:100160000C94840D0C94580A0C94320A0C944A0A8C
:100170000C94E2020C943B020C94E1020C94520A9F
:100180000C943C0A0C945C0A0C9494010C948B071C
:100190000C94E5070C94BE010C948C070000200021
:1001A0002300260029002C002F003200000100004F
:1001B0000301060109010200002100240027002A92
:1001C000002D003000330001010000040107010A86
:1001D0000100002200250028002B002E00310034F1
:1001E0000002010000050108010B010505050507D6
:1001F0000508080808020202020A0A0808040404A2
:1002000004010101010101010103030303030303CD
:1002100003040707070C0C0C0C0C0C0C0C0202025C
:100220000206060606060606060B0B0B0B0B0B0B4F
:100230000B010210202008081020401020408002EE
:10024000010201080402010102040810204080801C
:1002500040201008040201800402018040201008A0
:100260000402010804020101020408102040800178
:100270000204081020408000000A0B02090C0D0E39
:100280000807030401000000000000000000000057
:10029000000000000000000000000000000000005E
:1002A000000000121110000000000000000000001B
:1002B00000000000000000000000000000008A0DA7
:1002C000840D11241FBECFEFD1E2DEBFCDBF00E011
:1002D0000CBF12E0A0E0B2E0E8E8F6E200E00BBFFD
:1002E00002C007900D92A83AB107D9F727E0A8EA13
:1002F000B2E001C01D92AD37B207E1F711E0C0E6F0
:10030000D1E000E006C021970109802FFE010E9484
:100310006710CF35D10780E00807A9F70E94D10AFE
:100320000C9432130C940000CF92DF92EF92FF9264
:100330000F931F93CF93DF936C017A018B01C0E081
:10034000D0E0CE15DF0581F0D8016D918D01D60189
:10035000ED91FC910190F081E02DC6011995892B5A
:1003600011F02196EECF7E01C701DF91CF911F9151
:100370000F91FF90EF90DF90CF900895FC01538D87
:10038000448D252F30E0842F90E0821B930B54176F
:1003900010F0CF96089501970895FC01918D828DFC
:1003A000981761F0828DDF01A80FB11D5D968C91C9
:1003B000928D9F5F9F73928F90E008958FEF9FEFD4
:1003C0000895FC01918D828D981731F0828DE80F90
:1003D000F11D858D90E008958FEF9FEF0895FC014A
:1003E000918D228D892F90E0805C9F4F821B910917
:1003F0008F739927089588EE92E00E94EF0121E023
:10040000892B09F420E0822F089585E893E00E946B
:10041000EF0121E0892B09F420E0822F089582E288
:1004200094E00E94EF0121E0892B09F420E0822F63
:100430000895FC01848DDF01A80FB11DA35ABF4FA1
:100440002C91848D90E001968F739927848FA689D3
:10045000B7892C93A089B1898C91837080648C9327
:10046000938D848D981306C00288F389E02D8081D6
:100470008F7D80830895EF92FF920F931F93CF9308
:10048000DF93EC0181E0888F9B8D8C8D981305C0E4
:10049000E889F989808185FD26C0F62E0B8D10E054
:1004A0000F5F1F4F0F731127E02E8C8DE8120CC0C9
:1004B0000FB607FCFACFE889F989808185FFF5CF6F
:1004C000CE010E941902F1CF8B8DFE01E80FF11DC4
:1004D000E35AFF4FF0829FB7F8940B8FEA89FB89AC
:1004E000808180620AC09FB7F894EE89FF8960839B
:1004F000E889F98980818370806480839FBF81E06F
:1005000090E0DF91CF911F910F91FF90EF900895B0
:10051000CF93DF93EC01888D8823C9F0EA89FB89AA
:10052000808185FD05C0A889B9898C9186FD0FC0A1
:100530000FB607FCF5CF808185FFF2CFA889B98976
:100540008C9185FFEDCFCE010E941902E7CFDF919C
:10055000CF910895E0E0F0E0199480E090E0892BDD
:1005600021F00E940F02811119C080E090E0892BD8
:1005700041F080E090E0892B21F00E940000811181
:1005800010C00E94050281110FC080E090E0892B0D
:1005900081F00E94FB0181110AC008950E940000B1
:1005A000E4CF0E940000EDCF0E94AA02EECF0C948F
:1005B000000008958EBD00000DB407FEFDCF8EB57E
:1005C0000895089580E090E008951F93CF93DF93FE
:1005D000EC01162F88818C3008F04DC061E0812F2E
:1005E0000E94950AE88195E09E9FF0011124EF5644
:1005F000FA4F1F738081807C182B10831382E8814F
:100600009E9FF0011124EF56FA4F148288816CE00E
:100610000E945B109CE0899FA001112420E030E043
:1006200095E0BA01620F731F969FF001979FF00D3E
:100630001124EF56FA4F608166FD13C02F5F3F4FC4
:100640002C30310571F781110CC01092800082E0CE
:1006500080938100109285001092840086BB809365
:100660006F00E88185E0E89FF0011124EF56FA4F12
:100670008081806480838881DF91CF911F9108956C
:10068000CF93DF93EC0160E088810E94660A88E9DD
:100690000E94DA0280E00E94DA0280E00E94DA0220
:1006A00080E00E94DA0280E00E94DA0261E0888144
:1006B0000E94660A8BE891E00197F1F760E088817B
:1006C0000E94660A80EE0E94DA0261E08881DF9172
:1006D000CF910C94660A0E941D130F931F93CF9322
:1006E000DF938C01C62FD62FD07FD1606D2F0E9453
:1006F00093086D2FC8010E94A60880E1C89FB00131
:100700001124C62FC1606C2FC8010E9493086C2F62
:10071000C8010E94A60881E090E0DF91CF911F916F
:100720000F9108951F920F920FB60F9211242F93DD
:100730003F938F939F93AF93BF938091CD029091FE
:10074000CE02A091CF02B091D0023091CC0223E032
:10075000230F2D3720F40196A11DB11D05C026E8F9
:10076000230F0296A11DB11D2093CC028093CD02D0
:100770009093CE02A093CF02B093D0028091C80292
:100780009091C902A091CA02B091CB020196A11D1D
:10079000B11D8093C8029093C902A093CA02B0937E
:1007A000CB02BF91AF919F918F913F912F910F906D
:1007B0000FBE0F901F9018951F920F920FB60F92B9
:1007C00011240BB60F922F933F934F935F936F9328
:1007D0007F938F939F93AF93BF93EF93FF938091FA
:1007E000C3029091C402A091C502B091C602892BA8
:1007F0008A2B8B2B49F19091C202809100008927AE
:10080000809300008091C3029091C402A091C50220
:10081000B091C602181619061A061B060CF056C02F
:100820008091C3029091C402A091C502B091C6020A
:100830000197A109B1098093C3029093C402A093C8
:10084000C502B093C60242C080910002E6EBF1E01F
:10085000E4919FEF90930002E230C9F050F4EE2350
:1008600099F0E13081F590916F009D7F90936F003A
:100870002AC0E43019F1E0F0E53029F590917300D9
:100880009D7F909373001FC010926E001CC09091CA
:1008900070009D7F9093700091E09093B0009091D4
:1008A000B100987F94609093B1001092B3000BC098
:1008B000909171009D7F9093710005C0909172009E
:1008C0009D7F9093720060E00E94660AFF91EF9115
:1008D000BF91AF919F918F917F916F915F914F9158
:1008E0003F912F910F900BBE0F900FBE0F901F9056
:1008F00018951F920F920FB60F9211240BB60F92FC
:100900002F933F934F935F936F937F938F939F9317
:10091000AF93BF93EF93FF9388EE92E00E9419028A
:10092000FF91EF91BF91AF919F918F917F916F91C7
:100930005F914F913F912F910F900BBE0F900FBE83
:100940000F901F9018951F920F920FB60F921124BF
:100950000BB60F922F933F934F935F936F937F93B9
:100960008F939F93AF93BF93EF93FF9388EE92E0A3
:100970000E94BB08FF91EF91BF91AF919F918F9122
:100980007F916F915F914F913F912F910F900BBE8F
:100990000F900FBE0F901F9018951F920F920FB6D9
:1009A0000F9211240BB60F922F933F934F935F93A7
:1009B0006F937F938F939F93AF93BF93EF93FF9327
:1009C00085E893E00E941902FF91EF91BF91AF91EA
:1009D0009F918F917F916F915F914F913F912F9157
:1009E0000F900BBE0F900FBE0F901F9018951F9287
:1009F0000F920FB60F9211240BB60F922F933F93C5
:100A00004F935F936F937F938F939F93AF93BF9316
:100A1000EF93FF9385E893E00E94BB08FF91EF916D
:100A2000BF91AF919F918F917F916F915F914F9106
:100A30003F912F910F900BBE0F900FBE0F901F9004
:100A400018951F920F920FB60F9211240BB60F92AA
:100A50002F933F934F935F936F937F938F939F93C6
:100A6000AF93BF93EF93FF9382E294E00E94190249
:100A7000FF91EF91BF91AF919F918F917F916F9176
:100A80005F914F913F912F910F900BBE0F900FBE32
:100A90000F901F9018951F920F920FB60F9211246E
:100AA0000BB60F922F933F934F935F936F937F9368
:100AB0008F939F93AF93BF93EF93FF9382E294E062
:100AC0000E94BB08FF91EF91BF91AF919F918F91D1
:100AD0007F916F915F914F913F912F910F900BBE3E
:100AE0000F900FBE0F901F9018951F920F920FB688
:100AF0000F9211240BB60F922F933F934F935F9356
:100B00006F937F938F939F93AF93BF93CF93DF9315
:100B1000EF93FF932091C00430E0F901E958FD4FB5
:100B20008491F901EF5CFD4FD491F901E551FE4F3D
:100B3000C491CC2379F081110E94100AEC2FF0E0CF
:100B4000EE0FFF1FE456FE4FA591B491EC91ED23FB
:100B500081E009F480E02091C4043091C5042F5F46
:100B60003F4F3093C5042093C4049091C30495363D
:100B700018F096E09093BF049091BF049430C9F1AF
:100B800028F4923069F09330D1F05EC0953009F4CA
:100B900051C0963009F058C091E09093900551C033
:100BA000811152C02091C4043091C504243631050E
:100BB00008F442C0109290051092C3041CC081300A
:100BC00009F042C0E091C30491E09E0F9093C304EA
:100BD000F0E02091C4043091C504EE0FFF1FE154F2
:100BE000FB4F308727831092C5041092C40494E011
:100BF00029C0811117C0E091C30491E09E0F90932A
:100C0000C304F0E02091C4043091C504EE0FFF1F2F
:100C1000E154FB4F308727831092C5041092C4041F
:100C200093E010C02091C4043091C50425363105ED
:100C300058F007C0811108C01092C5041092C40476
:100C400003C095E09093BF049091C2049923B9F03A
:100C500081110AC08091C104882321F08091C104D0
:100C600061E009C02F9A0BC08091C104882331F044
:100C70008091C10460E00E94660A01C02F98FF9134
:100C8000EF91DF91CF91BF91AF919F918F917F9124
:100C90006F915F914F913F912F910F900BBE0F90ED
:100CA0000FBE0F901F9018951F920F920FB60F92C4
:100CB00011240BB60F922F933F934F935F936F9333
:100CC0007F938F939F93AF93BF93EF93FF93809105
:100CD000C10287FF05C0109285001092840016C0E3
:100CE0002091C102022E000C330B8091CD0590E0C3
:100CF000281739075CF43091C10225E03203F00176
:100D00001124EF56FA4F808186FD15C08091C102F3
:100D10008F5F8093C1022091C102022E000C330B21
:100D20008091CD0590E02817390794F48091C10295
:100D30008C302CF10DC03091C1023203F00111242E
:100D4000EF56FA4F808160E08F730E94660ADECF13
:100D5000809184009091850084349C4918F480E44B
:100D60009CE905C080918400909185000496909341
:100D70008900809388008FEF8093C1022AC0409140
:100D80008400509185003091C10225E03203F001CA
:100D90001124EF56FA4F81819281840F951F909311
:100DA0008900809388003091C1023203F001112440
:100DB000EF56FA4F808186FF0CC03091C10232039A
:100DC000F0011124EF56FA4F808161E08F730E9489
:100DD000660AFF91EF91BF91AF919F918F917F91A3
:100DE0006F915F914F913F912F910F900BBE0F909C
:100DF0000FBE0F901F9018953091DB02313208F032
:100E00004BC08091D9028111FCCF9091B60622E0AF
:100E10002093D90221E02093D8022FEF209394064B
:100E20001092930630939206E6E9F6E0A2E7B6E068
:100E300020E0321721F041914D932F5FFACF1092AD
:100E4000710620917106990F922B909371069091E3
:100E5000D702913061F41092D7029091710690936D
:100E6000BB009091BC0093FDF8CF95EC01C095EECE
:100E70009093BC009091D9029230E1F39091940646
:100E80009F3F79F080919406803241F080919406E2
:100E9000803331F084E005C081E003C082E001C00E
:100EA00083E01092DA021092DB0210929506089508
:100EB00085ED8093BC008091BC0084FDFCCF109236
:100EC000D902089540914C06262F30E0240F311DA1
:100ED00021323105DCF42091D9022430C9F4FC011F
:100EE00080E090E0861758F430914C062191DC01A7
:100EF000A45DB94FA30FB11D2C930196F3CF809140
:100F00004C06680F60934C0680E0089581E00895D8
:100F100082E00895089508950895E091D2028091A5
:100F2000D102E81730F4F0E0E45FF94F808190E0FF
:100F300008958FEF9FEF08959091D2028091D10292
:100F4000981750F4E92FF0E0E45FF94F208130E08A
:100F50009F5F9093D20202C02FEF3FEFC901089527
:100F60008091D10290E02091D202821B91090895D4
:100F7000CF92DF92EF92FF920F931F93CF93DF9365
:100F80007C01CB018A0120919506222389F0EB0197
:100F90006B01C40ED51ECC15DD0569F06991D70132
:100FA000ED91FC910190F081E02DC7011995F3CFEF
:100FB000642F0E946207C801DF91CF911F910F91AA
:100FC000FF90EF90DF90CF900895CF93DF931F9223
:100FD000CDB7DEB76983209195062223D1F0209109
:100FE000DB02203240F021E030E0FC013383228339
:100FF00080E090E015C08091DA02E82FF0E0EA5638
:10100000F94F998190838F5F8093DA028093DB029E
:1010100005C061E0CE0101960E94620781E090E088
:101020000F90DF91CF910895009769F0FC01019036
:101030000020E9F73197AF01481B590BBC0182E250
:1010400094E00C94940180E090E00895CF93DF93B6
:101050000E941408EC018CE592E00E9414088C0FA9
:101060009D1FDF91CF910895E2E2F4E0A089B1895C
:1010700082E08C93A485B5851C92A685B7858FECFC
:101080008C93108EA489B58986E08C93A289B3894C
:101090008C9180618C93A289B3898C9188608C93A8
:1010A000A289B3898C9180688C930288F389E02DA2
:1010B00080818F7D808308950F931F93CF93DF935B
:1010C000162F072FC5EDD5E09C8521E020939506CE
:1010D0009093B6061092DA021092DB02AA85BB85C5
:1010E000ED91FC9111970190F081E02D682FCD01D9
:1010F00019958A859B85DC01ED91FC910190F08129
:10110000E02D602F19958A859B85DC01ED91FC917E
:101110000190F081E02D612F1995DF91CF911F9102
:101120000F910C94FC06FC01248131E0309395066C
:101130002093B6061092DA021092DB028485682BA7
:101140008CED92E00E94E5070C94FC060F931F9330
:10115000CF938C01C62F64600E9493086C2F6B7F25
:10116000C8010E94930883EC90E00197F1F7CF91BA
:101170001F910F910895FC01A089B1898C91A689D6
:10118000B78982FD0FC09C91818D8F5F8F73228DF7
:10119000821749F0218DDF01A20FB11D5D969C934E
:1011A000818F08958C9108951F920F920FB60F9220
:1011B00011240F900FBE0F901F9018951F920F9241
:1011C0000FB60F9211240BB60F922F933F934F93AC
:1011D0005F936F937F938F939F93AF93BF93EF939F
:1011E000FF938091B900887F803609F49CC068F530
:1011F000883209F45BC090F4803109F454C038F4AB
:10120000882309F4F6C0883009F44DC0F6C088314F
:1012100009F44CC0803209F45DC0EFC0803409F499
:1012200068C048F4803309F455C0883309F0E5C03C
:1012300080939406D8C0803509F44FC0883509F4EE
:101240005DC0883409F0D9C0D6C0883909F4C7C058
:10125000A8F4883709F467C038F4883609F463C005
:10126000803709F460C0C9C0883809F4B8C0803933
:1012700009F45FC0803809F0C0C05BC0803B09F44E
:1012800086C038F4803A09F466C0883A09F47FC011
:10129000B4C0803C09F4A7C0883C09F4A4C0883BD2
:1012A00009F48AC0AAC08091710610C0909193067B
:1012B00080919206981770F5E091930681E08E0F69
:1012C00080939306F0E0EE58F94F80818093BB0045
:1012D00085EC86C0809394068EC0E091930681E0F1
:1012E0008E0F809393068091BB00F0E0EE58F94F8B
:1012F000808390919306809192066EC0E091930650
:1013000081E08E0F809393068091BB00F0E0EE5851
:10131000F94F80838091D80281116DC081E0809364
:10132000D70284EA61C083E08093D90210926E06EE
:10133000CFCF80916E06803208F051C0E0916E06EA
:1013400081E08E0F80936E068091BB00F0E0E25B3F
:10135000F94F8083BDCF85EC8093BC001092D902F9
:1013600080916E06803230F4E0916E06F0E0E25B30
:10137000F94F108260916E0670E0E091D502F09115
:10138000D6028EE496E0199510926E0636C084E07F
:101390008093D90210924D0610924C06E091D30230
:1013A000F091D402199580914C06811105C081E01D
:1013B00080934C0610922C06E0914D0681E08E0F32
:1013C00080934D06F0E0E45DF94F80818093BB008F
:1013D00090914D0680914C06981708F479CF85E8D6
:1013E0008093BC000AC085EC8093BC001092D902A7
:1013F00004C0109294060E945807FF91EF91BF918C
:10140000AF919F918F917F916F915F914F913F919C
:101410002F910F900BBE0F900FBE0F901F9018953D
:1014200090E0FC013197E231F10508F04EC08827C9
:10143000EE58FF4F8F4F0C946710809180008F778C
:1014400003C0809180008F7D8093800008958091FB
:101450008000877FF9CF84B58F7702C084B58F7DF8
:1014600084BD08958091B0008F7703C08091B00053
:101470008F7D8093B0000895809190008F7707C092
:10148000809190008F7D03C080919000877F809332
:10149000900008958091A0008F7707C08091A000F0
:1014A0008F7D03C08091A000877F8093A000089566
:1014B000809120018F7707C0809120018F7D03C02C
:1014C00080912001877F8093200108951F93CF93FF
:1014D000DF93282F30E0F901E958FD4F8491F9019D
:1014E000EF5CFD4FD491F901E551FE4FC491CC233F
:1014F000C1F0162F81110E94100AEC2FF0E0EE0FC0
:10150000FF1FEF52FE4FA591B4919FB7F8941111B0
:1015100004C08C91D095D82302C0EC91DE2BDC93D3
:101520009FBFDF91CF911F910895CF93DF9390E0FC
:10153000FC01EF5CFD4F2491FC01E551FE4F8491CD
:10154000882361F190E0880F991FFC01E954FE4F58
:10155000C591D491FC01EF52FE4FA591B491611158
:1015600009C09FB7F8948881209582238883EC91E5
:101570002E230BC0623061F49FB7F8948881322F1C
:10158000309583238883EC912E2B2C939FBF06C02C
:101590008FB7F894E8812E2B28838FBFDF91CF91EE
:1015A0000895CF93DF93CDB7DEB7A1970FB6F89428
:1015B000DEBF0FBECDBF789484B5826084BD84B594
:1015C000816084BD85B5826085BD85B5816085BD3E
:1015D00080916E00816080936E00109281008091F6
:1015E000810082608093810080918100816080937E
:1015F0008100809180008160809380008091B100A3
:1016000084608093B1008091B00081608093B000CD
:10161000809191008260809391008091910081601F
:1016200080939100809190008160809390008091E0
:10163000A10082608093A1008091A10081608093CD
:10164000A1008091A00081608093A0008091210181
:10165000826080932101809121018160809321012A
:101660008091200181608093200180917A008460C4
:1016700080937A0080917A00826080937A008091D2
:101680007A00816080937A0080917A0080688093EC
:101690007A001092C1000E94340861E08091D60562
:1016A0000E94950A60E08091D6050E94660A60E07B
:1016B0008091D5050E94950A8CED92E09093E0050B
:1016C0008093DF051092D2021092D1021092DA02BA
:1016D0001092DB021092D90281E08093D80210921E
:1016E000D70261E084E10E94660A61E085E10E9420
:1016F000660A8091B9008E7F8093B9008091B9000D
:101700008D7F8093B90088E48093B80085E480934E
:10171000BC008AE897E09093D4028093D3028BE8D0
:1017200097E09093D6028093D50280E090E1A0E00C
:10173000B0E08093E2059093E305A093E405B093B5
:10174000E5058AE090E0A0E0B0E08093E6059093A4
:10175000E705A093E805B093E90580E090E0A0E0FC
:10176000B0E48093EA059093EB05A093EC05B09369
:10177000ED0560E070E185E00E945C086FE979E3C7
:1017800080E00E945C0805ED15E07801B2E05B2E78
:1017900080E2682E82E0782E96E6892E92E0992EDD
:1017A0002BECC22E27E0D22EF70194818281F80122
:1017B000818F928F61E00E94950A61E0F801828D2D
:1017C0000E94950AF701908586815801FDE1AF0ED0
:1017D000B11CF801858F968F61E00E94950A60E048
:1017E000F801868D0E94950A61E0F801858D0E94BE
:1017F000660A4FB6F8948091C702811126C0F301A2
:101800008491F4012491E82FF0E0EE0FFF1FE954DA
:10181000FE4FA591B4919C91822F892321F461E020
:1018200085E30E94660A61E085E30E94950A8CB513
:1018300080618CBD8CB580648CBD61E084E30E94C6
:10184000950A61E083E30E94950A8091C7028F5F49
:101850008093C7024FBEC6010197F1F760E0F8011F
:10186000858D0E94660A88E80E94DA0283E00E9461
:10187000DA0261E0F801858D0E94660AC6010197CF
:10188000F1F7C5010E9440035A94FFEFEF1AFF0AD7
:101890000E5F1F4F511088CF7AEFE72E75E0F72EBD
:1018A0000EEF15E060E0F70181917F010E94950A3B
:1018B0000E151F05B9F766EFE62E65E0F62E6801F6
:1018C000FFEFCF1ADF0AF801608170E0C8010896C7
:1018D0000E94E502F60195818381F701828B938B4B
:1018E00060E00E94950A61E0F70183890E94950AF1
:1018F00060E0F70183890E94660AF2E0EF0EF11CB6
:10190000860126E000301207D1F6F89410922001EB
:1019100089E08093210180E293E0909329018093F4
:101920002801109225011092240182E08093730017
:1019300078948093BF041092C3048091C00460E047
:101940000E94950A6091FE0570E086E096E00E9494
:10195000E50280910006883320F4809101068733E8
:1019600028F48FE392E00E9426084AC00091060600
:101970000C3008F045C085E0089F800111240F5607
:101980001A4FF801838128E830E06901C81AD108AC
:1019900087FDD394CC0CDD1CCC0CDD1C0D2C000C75
:1019A000EE08FF08848128E532E0281B310987FD15
:1019B0003395220F331F220F331FC901330FAA0B98
:1019C000BB0B9C01AD012C193D094E095F09A7E332
:1019D000B0E00E941F1024EB30E040E050E00E9495
:1019E0000010C20ED31EE41EF51EF6E0CF1AD10879
:1019F000CC0CDD1C8FB7F894F801D282C1828FBF66
:101A00000E94340884EF95E00E94400382EF95E045
:101A10000E94400381E4982E9AE0492E512C612CBB
:101A2000712C80917B00877F80937B0090927C005B
:101A300080917A00806480937A0080917A0086FD9C
:101A4000FCCF609178008091790070E0782B072EB0
:101A5000000C880B990B0E94740F20E030EC4FE7CC
:101A600054E40E946F100E94E1105B016B01770F3C
:101A7000EE08FF08F7FE20C06DE282E294E00E94CB
:101A80003B0222273327A9012C193D094E095F0982
:101A900019A28E010F5D1F4FCA01B901A301920166
:101AA0000E942A10605DF80162938F0121153105B3
:101AB0004105510589F715C0A701960119A28E01AC
:101AC0000F5D1F4FCA01B901A30192010E942A10A4
:101AD000605DF80162938F012115310541055105C3
:101AE00089F7C8010E9414088CE592E00E9414084E
:101AF000AB2819F48FE592E002C08BE892E00E94D7
:101B000026080E94AD028DCF8091CE059091CF0521
:101B10000C94AF111092DF021092DE0288EE93E077
:101B2000A0E0B0E08093E0029093E102A093E20293
:101B3000B093E30223E132E03093DD022093DC0234
:101B40001092EB021092EA028093EC029093ED0265
:101B5000A093EE02B093EF0225E232E03093E90267
:101B60002093E80245E351E05093F5024093F402DC
:101B700044E351E05093F7024093F60240E351E012
:101B80005093F9024093F80241E351E05093FB0275
:101B90004093FA0242E351E05093FD024093FC026D
:101BA00046E351E05093FF024093FE02109201037E
:101BB0001092020310920303109204031092880300
:101BC000109287038093890390938A03A0938B03D9
:101BD000B0938C03309386032093850345ED50E04A
:101BE000509392034093910344ED50E0509394033B
:101BF0004093930340ED50E0509396034093950338
:101C000041ED50E0509398034093970342ED50E02C
:101C100050939A034093990346ED50E050939C03F0
:101C200040939B0310929E0310929F031092A00377
:101C30001092A1031092250410922404809326048C
:101C400090932704A0932804B0932904309323048D
:101C50002093220485EC90E090932F0480932E042F
:101C600084EC90E0909331048093300480EC90E019
:101C7000909333048093320481EC90E09093350488
:101C80008093340482EC90E0909337048093360480
:101C900086EC90E0909339048093380410923B04D2
:101CA00010923C0410923D0410923E048091070271
:101CB00090910802A0910902B0910A028093F60562
:101CC0009093F705A093F805B093F90580910B0266
:101CD00090910C02A0910D02B0910E028093FA0532
:101CE0009093FB05A093FC05B093FD0584E08093E1
:101CF000FE0587E08093FF051092000684EB809339
:101D0000010686E18093020688E18093030687E15D
:101D10008093040689E180930506E091CD05EC30BF
:101D200020F08FEF8093060610C081E08E0F809325
:101D3000CD05E093060685E0E89FF0011124EF56FB
:101D4000FA4F88EB9BE092838183E091CD05EC30E4
:101D500020F08FEF8093070610C081E08E0F8093F4
:101D6000CD05E093070685E0E89FF0011124EF56CA
:101D7000FA4F88EB9BE0928381838CE08093D505BA
:101D800084E28093D60586E08093D70585E0809332
:101D9000D8058FE18093D9058EE18093DA0583E23F
:101DA0008093DB0582E28093DC0585E48093DD058A
:101DB00084E48093DE0580E48093E1051092E605DB
:101DC0001092E7051092E8051092E9051092EA05D5
:101DD0001092EB051092EC051092ED05EBEBF6E09E
:101DE00029E737E08FEF9FEFDC0112821382148224
:101DF0001582168217821086118683879487A5879D
:101E0000B6878787908BA18BB28B12861182108246
:101E100073962E173F0749F78DE090E00E94171147
:101E2000FC011382128287E392E091838083118602
:101E300087E2848384E1828784E083871486F09339
:101E4000B806E093B7061092B9061092BA0685E27A
:101E50008093C0041092C2041092CF051092CE0558
:101E60001092D1051092D0051092D3051092D20590
:101E700061E070E080E090E00E943812009789F005
:101E80009093CF058093CE051092D1051092D00586
:101E90002091D2053091D305232BC1F4FC0110828F
:101EA00015C08091CE059091CF05009711F00E944A
:101EB000AF111092CF051092CE051092D30510925B
:101EC000D2051092D1051092D00508951092D30535
:101ED0001092D2056EE572E08091CE059091CF050B
:101EE0000C942B13E89409C097FB3EF490958095D1
:101EF000709561957F4F8F4F9F4F9923A9F0F92FD0
:101F000096E9BB279395F695879577956795B7954D
:101F1000F111F8CFFAF4BB0F11F460FF1BC06F5F33
:101F20007F4F8F4F9F4F16C0882311F096E911C045
:101F3000772321F09EE8872F762F05C0662371F066
:101F400096E8862F70E060E02AF09A95660F771F7A
:101F5000881FDAF7880F9695879597F9089597F96E
:101F60009F6780E870E060E008959FEF80EC08953F
:101F700000240A9416161706180609060895002468
:101F80000A9412161306140605060895092E0394E2
:101F9000000C11F4882352F0BB0F40F4BF2B11F456
:101FA00060FF04C06F5F7F4F8F4F9F4F089557FDB5
:101FB0009058440F551F59F05F3F71F04795880FB7
:101FC00097FB991F61F09F3F79F08795089512164E
:101FD00013061406551FF2CF4695F1DF08C01616FA
:101FE00017061806991FF1CF8695710561050894AB
:101FF0000895E894BB2766277727CB0197F90895C2
:10200000052E97FB1EF400940E94171057FD07D071
:102010000E942A1007FC03D04EF40C941710509520
:102020004095309521953F4F4F4F5F4F08959095C4
:102030008095709561957F4F8F4F9F4F08950E94B7
:102040004C10A59F900DB49F900DA49F800D911DE5
:1020500011240895A1E21A2EAA1BBB1BFD010DC07D
:10206000AA1FBB1FEE1FFF1FA217B307E407F50748
:1020700020F0A21BB30BE40BF50B661F771F881F24
:10208000991F1A9469F760957095809590959B01BA
:10209000AC01BD01CF010895A29FB001B39FC00163
:1020A000A39F700D811D1124911DB29F700D811D84
:1020B0001124911D0895991B79E004C0991F96176A
:1020C00008F0961B881F7A95C9F780950895EE0F42
:1020D000FF1F881F8BBF0790F691E02D19940E9477
:1020E00083100C94C60F0E94BF0F58F00E94B80FC7
:1020F00040F029F45F3F29F00C94AF0F51110C947C
:10210000FA0F0C94B50F0E94D70F68F39923B1F31F
:10211000552391F3951B550BBB27AA27621773070D
:10212000840738F09F5F5F4F220F331F441FAA1FA1
:10213000A9F335D00E2E3AF0E0E832D0915050405D
:10214000E695001CCAF72BD0FE2F29D0660F771F0B
:10215000881FBB1F261737074807AB07B0E809F0F1
:10216000BB0B802DBF01FF2793585F4F3AF09E3F76
:10217000510578F00C94AF0F0C94FA0F5F3FE4F325
:10218000983ED4F3869577956795B795F7959F5FB9
:10219000C9F7880F911D9695879597F90895E1E005
:1021A000660F771F881FBB1F621773078407BA0764
:1021B00020F0621B730B840BBA0BEE1F88F7E095BF
:1021C00008950E94E8106894B1110C94FA0F0895D4
:1021D0000E94DF0F88F09F5798F0B92F9927B751C9
:1021E000B0F0E1F0660F771F881F991F1AF0BA95BB
:1021F000C9F714C0B13091F00E94F90FB1E0089511
:102200000C94F90F672F782F8827B85F39F0B93F02
:10221000CCF3869577956795B395D9F73EF490956D
:102220008095709561957F4F8F4F9F4F08950F93C5
:102230001F93CF93DF938230910510F482E090E0FA
:10224000E0917B07F0917C0720E030E0A0E0B0E077
:10225000309719F140815181028113814817590744
:10226000C8F08417950769F4109731F012960C9313
:10227000129713961C9327C000937B0710937C073B
:1022800022C02115310519F04217530718F49A019D
:10229000BD01EF01DF01F801DBCF21153105F9F0B8
:1022A000281B390B2430310580F48A819B8161150C
:1022B000710521F0FB019383828304C090937C0716
:1022C00080937B07FE01329644C0FE01E20FF31FAC
:1022D0008193919322503109398328833AC0209108
:1022E000790730917A07232B41F420910302309132
:1022F000040230937A0720937907209101023091EC
:1023000002022115310541F42DB73EB74091050277
:1023100050910602241B350BE0917907F0917A0762
:10232000E217F307A0F42E1B3F0B2817390778F0AC
:10233000AC014E5F5F4F2417350748F04E0F5F1F0B
:1023400050937A07409379078193919302C0E0E01C
:10235000F0E0CF01DF91CF911F910F910895CF93BE
:10236000DF93009709F481C0FC0132971382128237
:10237000A0917B07B0917C07109781F42081318177
:10238000820F931F2091790730917A072817390718
:1023900051F5F0937A07E093790767C0ED0120E0EB
:1023A00030E0CE17DF0740F44A815B819E01411582
:1023B0005105F1F0EA01F5CFD383C2834081518109
:1023C000840F951FC817D90759F488819981840F04
:1023D000951F0296918380838A819B819383828358
:1023E0002115310529F4F0937C07E0937B073DC06C
:1023F000E901FB83EA8349915991C40FD51FEC177A
:10240000FD0761F480819181840F951F0296E90197
:1024100099838883828193819B838A83E0E0F0E0C3
:1024200012968D919C911397009719F0FD01DC0194
:10243000F7CF8D919C9111979D012E5F3F4F820F99
:10244000931F2091790730917A072817390769F48B
:10245000309729F410927C0710927B0702C01382F8
:102460001282B0937A07A0937907DF91CF910895F4
:102470006F927F928F929F92AF92BF92CF92DF9294
:10248000EF92FF920F931F93CF93DF93009789F4FE
:10249000CB01DF91CF911F910F91FF90EF90DF90D3
:1024A000CF90BF90AF909F908F907F906F900C9443
:1024B0001711FC01E60FF71F9C0122503109E217AA
:1024C000F30708F4A9C0EC01D9010D911C911197F3
:1024D00006171707B0F00530110508F49BC0C801B6
:1024E00004978617970708F495C002501109061B38
:1024F000170B019311936D937C93CF010E94AF1141
:1025000089C05B01A01AB10A4C01800E911EA091F6
:102510007B07B0917C07612C712CE12CF12C10977A
:1025200009F446C08D919C911197A815B905B1F594
:102530006C0142E0C40ED11CCA14DB0478F14C01DA
:102540008A189B08640142E0C40ED11C1296BC900C
:1025500012971396AC91B5E0CB16D10440F0B2823D
:10256000A38391828082D9016D937C9309C00E5F11
:102570001F4F800F911FF90191838083EB2DFA2F5C
:10258000E114F10431F0D7011396FC93EE93129706
:1025900041C0F0937C07E0937B073CC06816790646
:1025A00008F43C017D0112960D90BC91A02DB7CF8F
:1025B0008091790790917A0788169906E1F466165A
:1025C0007706C8F48091010290910202009741F4CD
:1025D0008DB79EB74091050250910602841B950B62
:1025E000E817F907C8F4F0937A07E0937907F9013F
:1025F000718360830FC0CB010E9417117C0100978B
:1026000059F0A801BE010E942213CE010E94AF1111
:10261000C70104C0CE0102C080E090E0DF91CF91FD
:102620001F910F91FF90EF90DF90CF90BF90AF90F0
:102630009F908F907F906F90089581E090E0F89444
:102640000C943213FB01DC0102C001900D92415049
:102650005040D8F70895FB01DC0101900D92002055
:10266000E1F7089511E0C0E6D1E000E006C0802F58
:10267000FE010E9467102196011DC136D10780E03E
:082680000807A9F7F894FFCF49
:10268800FF00007D072000363738391B1D1A1C0053
:10269800000000E507B807E2028C07B0079C078D29
:1026A80007000000003B029401BE018802EF01CD43
:1026B80001E101000000006D039401E202E1025310
:1026C8006572766F20616E676C65206973206F751F
:1026D80074206F662072616E676521000D0A0046DE
:1026E8006C616D652064657465637465642E2E2E57
:1026F800212074616B6520616374696F6E20696D58
:102708006D6564696174656C792E004E6F20666C26
:10271800616D652064657465637465642E207374E7
:08272800617920636F6F6C0002
:00000001FF
