:100000000C9495010C94C6010C94C6010C94C60185
:100010000C94C6010C94C6010C94C6010C94C60144
:100020000C94C6010C94E8030C94E8030C94E803C8
:100030000C94C6010C9429070C94C6010C94C601BB
:100040000C94C6010C94CC0A0C94C6010C94C60105
:100050000C94C6010C94C6010C94C6010C94F30BCD
:100060000C94C6010C9498080C946E080C94C6016C
:100070000C94C6010C94C6010C94C6010C94C601E4
:100080000C94C6010C94C6010C94C6010C94C601D4
:100090000C94C6010C94C6010C94C6010C94F20396
:1000A0000C94C6010C94C6010C94C6010C94C601B4
:1000B0000C94C6010C94C6010C94C6010C94C208A1
:1000C0000C94C6010C94C6010C94C6010C9444080F
:1000D0000C941A080C94C6010C94F0070C94C607F3
:1000E0000C94C601FB02FE02ED02F102F702350399
:1000F000020306030C03100314031A031E03220356
:10010000350328032C033003E109E609EB09F5095F
:10011000FF09780A090A110A190A230A2D0A370A5F
:10012000460A500A780A5A0A640A6E0A0C94370A78
:100130000C94ED020C9435030C940C030C945802AF
:100140000C94190A0C94460A0C94E2050C947C0257
:100150000C94FE020C946E0A0C941E030C9414036F
:100160000C9428030C94EB090C94780A0C94F10578
:100170000C9457020C941A030C9410030C94F50978
:100180000C94F7020C94110A0C94500A0C94590226
:100190000C94FF090C94EA0F0C9404070C94FE06CF
:1001A0000C94E6090C94E1090C94B1020C94050638
:1001B0000C9430030C9456020C94FF060C94230A02
:1001C0000C94AC060C94090A0C94640A0C94680212
:1001D0000C94D2110C942C030C945A0A0C94130610
:1001E0000C945F060C94FB020C9402030C94B8056B
:1001F0000C9484020C94F1020C942D0A0C942203AA
:100200000C94060300002100240027002A002D0082
:100210003000330001010000040107010A01000061
:100220002200250028002B002E003100340002019E
:100230000000050108010B0100002000230026003A
:1002400029002C002F0032000001000003010601EC
:10025000090105050505070508080808020202024C
:100260000A0A080804040404010101010101010152
:100270000303030303030303040707070C0C0C0C1D
:100280000C0C0C0C02020202060606060606060606
:100290000B0B0B0B0B0B0B0B010210202008081093
:1002A00020401020408002010201080402010102E6
:1002B00004081020408080402010080402018004BF
:1002C000020180402010080402010804020101021A
:1002D0000408102040800102040810204080000023
:1002E0000A0B02090C0D0E080703040100000000B0
:1002F00000000000000000000000000000000000FE
:1003000000000000000000000000121110000000BA
:1003100000000000000000000000000000000000DD
:10032000000000000200EA0FD21111241FBECFEF1F
:10033000D1E2DEBFCDBF00E00CBF12E0A0E0B2E032
:10034000ECEBFAE200E00BBF02C007900D92A23680
:10035000B107D9F727E0A2E6B2E001C01D92A334AD
:10036000B207E1F711E0C4E9D1E000E006C021974F
:100370000109802FFE010E94DA12C339D10780E003
:100380000807A9F70E943D0C0C944C150C94000032
:1003900030917502313208F04BC0809173028111A7
:1003A000FCCF9091500622E02093730221E020932D
:1003B00072022FEF20932E0610922D0630932C06FA
:1003C000E0E3F6E0ACE0B6E020E0321721F0419146
:1003D0004D932F5FFACF10920B0620910B06990FC9
:1003E000922B90930B0690917102913061F41092D0
:1003F000710290910B069093BB009091BC0093FD0D
:10040000F8CF95EC01C095EE9093BC0090917302EB
:100410009230E1F390912E069F3F79F080912E0665
:10042000803241F080912E06803331F084E005C0A7
:1004300081E003C082E001C083E010927402109258
:10044000750210922F06089585ED8093BC0080916F
:10045000BC0084FDFCCF1092730208954091E60524
:10046000262F30E0240F311D21323105DCF420919C
:1004700073022430C9F4FC0180E090E0861758F440
:100480003091E6052191DC01AA53BA4FA30FB11DAB
:100490002C930196F3CF8091E605680F6093E605F3
:1004A00080E0089581E0089582E008950895089518
:1004B0000895E0916C0280916B02E81730F4F0E04F
:1004C000EA55FA4F808190E008958FEF9FEF0895ED
:1004D00090916C0280916B02981750F4E92FF0E034
:1004E000EA55FA4F208130E09F5F90936C0202C082
:1004F0002FEF3FEFC901089580916B0290E02091AA
:100500006C02821B91090895CF92DF92EF92FF92C5
:100510000F931F93CF93DF937C01CB018A0120912E
:100520002F06222389F0EB016B01C40ED51ECC15DA
:10053000DD0569F06991D701ED91FC910190F081A1
:10054000E02DC7011995F3CF642F0E942E02C80138
:10055000DF91CF911F910F91FF90EF90DF90CF909F
:100560000895CF93DF931F92CDB7DEB769832091B3
:100570002F062223D1F020917502203240F021E095
:1005800030E0FC013383228380E090E015C080914D
:100590007402E82FF0E0E05DF94F998190838F5F5E
:1005A000809374028093750205C061E0CE010196CC
:1005B0000E942E0281E090E00F90DF91CF9108958C
:1005C00090E0FC013197E231F10508F04EC0882738
:1005D000EE58FF4F8F4F0C94DA12809180008F7786
:1005E00003C0809180008F7D80938000089580916A
:1005F0008000877FF9CF84B58F7702C084B58F7D67
:1006000084BD08958091B0008F7703C08091B000C1
:100610008F7D8093B0000895809190008F7707C000
:10062000809190008F7D03C080919000877F8093A0
:10063000900008958091A0008F7707C08091A0005E
:100640008F7D03C08091A000877F8093A0000895D4
:10065000809120018F7707C0809120018F7D03C09A
:1006600080912001877F809320010895ECEBF3E0D7
:10067000A089B18982E08C93A485B5851C92A6855A
:10068000B7858FEC8C93108EA489B58986E08C9306
:10069000A289B3898C9180618C93A289B3898C9152
:1006A00088608C93A289B3898C9180688C9302882E
:1006B000F389E02D80818F7D80830895009769F014
:1006C000FC0101900020E9F73197AF01481B590B5D
:1006D000BC018CEB93E00C94B80580E090E00895A9
:1006E0000F931F93CF93DF93162F072FCFE6D5E0FD
:1006F0009C8521E020932F0690935006109274025F
:1007000010927502AA85BB85ED91FC91119701901D
:10071000F081E02D682FCD0119958A859B85DC013C
:10072000ED91FC910190F081E02D602F19958A8563
:100730009B85DC01ED91FC910190F081E02D612F12
:100740001995DF91CF911F910F910C94C801FC0175
:10075000248131E030932F062093500610927402CA
:10076000109275028485682B86E792E00E94B102A0
:100770000C94C8010F931F93CF938C01C62F646014
:100780000E94A7036C2F6B7FC8010E94A70383EC14
:1007900090E00197F1F7CF911F910F910895FC011F
:1007A000A089B1898C91A689B78982FD0FC09C91DF
:1007B000818D8F5F8F73228D821749F0218DDF012C
:1007C000A20FB11D5D969C93818F08958C91089521
:1007D0001F920F920FB60F9211240F900FBE0F9021
:1007E0001F9018951F920F920FB60F9211240BB6FF
:1007F0000F922F933F934F935F936F937F938F93BA
:100800009F93AF93BF93EF93FF938091B900887F3D
:10081000803609F49CC068F5883209F45BC090F416
:10082000803109F454C038F4882309F4F6C08830C4
:1008300009F44DC0F6C0883109F44CC0803209F487
:100840005DC0EFC0803409F468C048F4803309F417
:1008500055C0883309F0E5C080932E06D8C0803596
:1008600009F44FC0883509F45DC0883409F0D9C057
:10087000D6C0883909F4C7C0A8F4883709F467C01E
:1008800038F4883609F463C0803709F460C0C9C001
:10089000883809F4B8C0803909F45FC0803809F09D
:1008A000C0C05BC0803B09F486C038F4803A09F4CC
:1008B00066C0883A09F47FC0B4C0803C09F4A7C080
:1008C000883C09F4A4C0883B09F48AC0AAC080917E
:1008D0000B0610C090912D0680912C06981770F58C
:1008E000E0912D0681E08E0F80932D06F0E0E45F0D
:1008F000F94F80818093BB0085EC86C080932E06E3
:100900008EC0E0912D0681E08E0F80932D068091A0
:10091000BB00F0E0E45FF94F808390912D06809159
:100920002C066EC0E0912D0681E08E0F80932D067F
:100930008091BB00F0E0E45FF94F80838091720208
:1009400081116DC081E08093710284EA61C083E00F
:100950008093730210920806CFCF809108068032F0
:1009600008F051C0E091080681E08E0F80930806E0
:100970008091BB00F0E0E851FA4F8083BDCF85EC59
:100980008093BC001092730280910806803230F48C
:10099000E0910806F0E0E851FA4F108260910806F5
:1009A00070E0E0916F02F091700288EE95E0199589
:1009B0001092080636C084E0809373021092E70517
:1009C0001092E605E0916D02F0916E02199580910A
:1009D000E605811105C081E08093E6051092C60509
:1009E000E091E70581E08E0F8093E705F0E0EA53A0
:1009F000FA4F80818093BB009091E7058091E605D6
:100A0000981708F479CF85E88093BC000AC085EC7C
:100A10008093BC001092730204C010922E060E94B4
:100A20002402FF91EF91BF91AF919F918F917F91A0
:100A30006F915F914F913F912F910F900BBE0F904F
:100A40000FBE0F901F901895CF93DF93282F30E0A3
:100A5000F901E252FD4F8491F901E856FD4FD4911E
:100A6000F901EE5AFD4FC491CC2391F081110E94FF
:100A7000E002EC2FF0E0EE0FFF1FE85CFD4FA591C8
:100A8000B491EC91ED2381E090E021F480E002C08C
:100A900080E090E0DF91CF9108951F93CF93DF9393
:100AA000282F30E0F901E252FD4F8491F901E85618
:100AB000FD4FD491F901EE5AFD4FC491CC23C1F002
:100AC000162F81110E94E002EC2FF0E0EE0FFF1FC5
:100AD000E25EFD4FA591B4919FB7F894111104C047
:100AE0008C91D095D82302C0EC91DE2BDC939FBF74
:100AF000DF91CF911F910895CF93DF9390E0FC0198
:100B0000E856FD4F2491FC01EE5AFD4F8491882355
:100B100061F190E0880F991FFC01EC5FFD4FC591DA
:100B2000D491FC01E25EFD4FA591B491611109C021
:100B30009FB7F8948881209582238883EC912E2397
:100B40000BC0623061F49FB7F8948881322F3095E2
:100B500083238883EC912E2B2C939FBF06C08FB7E5
:100B6000F894E8812E2B28838FBFDF91CF910895D1
:100B7000CF92DF92EF92FF920F931F93CF93DF9369
:100B80006C017A018B01C0E0D0E0CE15DF0581F069
:100B9000D8016D918D01D601ED91FC910190F0810C
:100BA000E02DC6011995892B11F02196EECF7E011B
:100BB000C701DF91CF911F910F91FF90EF90DF90D0
:100BC000CF900895FC01538D448D252F30E0842F64
:100BD00090E0821B930B541710F0CF960895019765
:100BE0000895FC01918D828D981761F0828DDF014F
:100BF000A80FB11D5D968C91928D9F5F9F73928F10
:100C000090E008958FEF9FEF0895FC01918D828D04
:100C1000981731F0828DE80FF11D858D90E00895D1
:100C20008FEF9FEF0895FC01918D228D892F90E029
:100C3000805C9F4F821B91098F739927089582E8EA
:100C400092E00E94130621E0892B09F420E0822F14
:100C500008958FE193E00E94130621E0892B09F4A7
:100C600020E0822F08958CEB93E00E94130621E090
:100C7000892B09F420E0822F0895FC01848DDF0187
:100C8000A80FB11DA35ABF4F2C91848D90E00196FF
:100C90008F739927848FA689B7892C93A089B189EE
:100CA0008C91837080648C93938D848D981306C08F
:100CB0000288F389E02D80818F7D80830895EF92F3
:100CC000FF920F931F93CF93DF93EC0181E0888F06
:100CD0009B8D8C8D981305C0E889F989808185FDED
:100CE00026C0F62E0B8D10E00F5F1F4F0F731127DC
:100CF000E02E8C8DE8120CC00FB607FCFACFE88905
:100D0000F989808185FFF5CFCE010E943D06F1CFA4
:100D10008B8DFE01E80FF11DE35AFF4FF0829FB764
:100D2000F8940B8FEA89FB89808180620AC09FB7A3
:100D3000F894EE89FF896083E889F989808183705E
:100D4000806480839FBF81E090E0DF91CF911F910D
:100D50000F91FF90EF900895CF93DF93EC01888D72
:100D60008823C9F0EA89FB89808185FD05C0A889AF
:100D7000B9898C9186FD0FC00FB607FCF5CF808135
:100D800085FFF2CFA889B9898C9185FFEDCFCE017F
:100D90000E943D06E7CFDF91CF910895E0E0F0E0BB
:100DA000199480E090E0892B21F00E943306811194
:100DB00019C080E090E0892B41F080E090E0892B21
:100DC00021F00E940000811110C00E9429068111AB
:100DD0000FC080E090E0892B81F00E941F068111F6
:100DE0000AC008950E940000E4CF0E940000EDCFE9
:100DF0000E94CE06EECF0C9400000895089580E086
:100E000090E008950E9437150F931F93CF93DF93BF
:100E10008C01C62FD62FD07FD1606D2F0E94A703E3
:100E20006D2FC8010E94BA0380E1C89FB001112450
:100E3000C62FC1606C2FC8010E94A7036C2FC80188
:100E40000E94BA0381E090E0DF91CF911F910F9152
:100E500008951F920F920FB60F9211240BB60F92A6
:100E60002F933F934F935F936F937F938F939F93B2
:100E7000AF93BF93EF93FF93809132079091330725
:100E8000A0913407B0913507892B8A2B8B2B49F120
:100E90009091310780910000892780930000809114
:100EA000320790913307A0913407B0913507181697
:100EB00019061A061B060CF056C080913207909155
:100EC0003307A0913407B09135070197A109B10903
:100ED0008093320790933307A0933407B09335077C
:100EE00042C080910102E4E2F3E0E4919FEF90932D
:100EF0000102E230C9F050F4EE2399F0E13081F5BF
:100F000090916F009D7F90936F002AC0E43019F19B
:100F1000E0F0E53029F5909173009D7F9093730088
:100F20001FC010926E001CC0909170009D7F909326
:100F3000700091E09093B0009091B100987F946020
:100F40009093B1001092B3000BC0909171009D7FFF
:100F50009093710005C0909172009D7F90937200F4
:100F600060E00E944D05FF91EF91BF91AF919F917D
:100F70008F917F916F915F914F913F912F910F9042
:100F80000BBE0F900FBE0F901F9018951F920F92DF
:100F90000FB60F9211240BB60F922F933F934F93DE
:100FA0005F936F937F938F939F93AF93BF93EF93D1
:100FB000FF9382E892E00E943D06FF91EF91BF917E
:100FC000AF919F918F917F916F915F914F913F91E1
:100FD0002F910F900BBE0F900FBE0F901F90189582
:100FE0001F920F920FB60F9211240BB60F922F93F0
:100FF0003F934F935F936F937F938F939F93AF93A1
:10100000BF93EF93FF9382E892E00E94CF03FF919A
:10101000EF91BF91AF919F918F917F916F915F9170
:101020004F913F912F910F900BBE0F900FBE0F90DD
:101030001F9018951F920F920FB60F9211240BB6A6
:101040000F922F933F934F935F936F937F938F9361
:101050009F93AF93BF93EF93FF938FE193E00E9431
:101060003D06FF91EF91BF91AF919F918F917F913D
:101070006F915F914F913F912F910F900BBE0F9009
:101080000FBE0F901F9018951F920F920FB60F92E0
:1010900011240BB60F922F933F934F935F936F934F
:1010A0007F938F939F93AF93BF93EF93FF938FE1C2
:1010B00093E00E94CF03FF91EF91BF91AF919F9179
:1010C0008F917F916F915F914F913F912F910F90F1
:1010D0000BBE0F900FBE0F901F9018951F920F928E
:1010E0000FB60F9211240BB60F922F933F934F938D
:1010F0005F936F937F938F939F93AF93BF93EF9380
:10110000FF938CEB93E00E943D06FF91EF91BF911E
:10111000AF919F918F917F916F915F914F913F918F
:101120002F910F900BBE0F900FBE0F901F90189530
:101130001F920F920FB60F9211240BB60F922F939E
:101140003F934F935F936F937F938F939F93AF934F
:10115000BF93EF93FF938CEB93E00E94CF03FF913B
:10116000EF91BF91AF919F918F917F916F915F911F
:101170004F913F912F910F900BBE0F900FBE0F908C
:101180001F9018951F920F920FB60F9211240BB655
:101190000F922F933F934F935F936F937F938F9310
:1011A0009F93AF93BF93EF93FF9380915A040E9454
:1011B000240520915E0430915F042F5F3F4F3093F0
:1011C0005F0420935E0490915D04953618F096E0DC
:1011D00090935904909159049430C9F128F49230B5
:1011E00069F09330D1F05EC0953009F451C096306B
:1011F00009F058C091E090932A0551C0811152C066
:1012000020915E0430915F042436310508F442C019
:1012100010922A0510925D041CC0813009F042C072
:10122000E0915D0491E09E0F90935D04F0E02091C9
:101230005E0430915F04EE0FFF1FE75AFB4F3087CB
:10124000278310925F0410925E0494E029C08111FC
:1012500017C0E0915D0491E09E0F90935D04F0E073
:1012600020915E0430915F04EE0FFF1FE75AFB4FA1
:101270003087278310925F0410925E0493E010C0C1
:1012800020915E0430915F042536310558F007C087
:10129000811108C010925F0410925E0403C095E0B3
:1012A0009093590490915C049923B9F081110AC07C
:1012B00080915B04882321F080915B0461E009C088
:1012C0002F9A0BC080915B04882331F080915B04DE
:1012D00060E00E944D0501C02F98FF91EF91BF91F2
:1012E000AF919F918F917F916F915F914F913F91BE
:1012F0002F910F900BBE0F900FBE0F901F9018955F
:101300008F929F92AF92BF92CF92DF92EF92FF9215
:101310000F931F93CF93DF938C016A017B0120E031
:1013200030E04FE753E4C701B6010E94FC114B01C6
:101330005C0120E030E0A9010E942C1318161CF477
:10134000C501B40103C0C501B40190580E94F61252
:10135000EB0120E030E0A901C701B6010E942C1387
:10136000181614F460E001C061E0F80181810E9468
:101370004D05CF3FD10509F014F4DD2702C0CFEFB2
:10138000D0E0F801108161E0812F0E947C05209758
:1013900009F4B1C0CF3FD10509F4AFC0E12FF0E0AF
:1013A000E252FD4FE4918E2F90E0FC013197E23143
:1013B000F10508F09DC08827EC57FF4F8F4F0C9424
:1013C000DA1284B5806884BDC7BDA7C084B58062C9
:1013D00084BDC8BDA2C080918000806880938000D9
:1013E000D0938900C093880098C08091800080626B
:1013F00080938000D0938B00C0938A008EC0809130
:101400008000886080938000D0938D00C0938C0012
:1014100084C08091B00080688093B000C093B30016
:101420007CC08091B00080628093B000C093B40013
:1014300074C080919000806880939000D093990050
:10144000C09398006AC08091900080628093900061
:10145000D0939B00C0939A0060C0809190008860F8
:1014600080939000D0939D00C0939C0056C08091C3
:10147000A00080688093A0008091A0008F7B809363
:10148000A000D093A900C093A80047C08091A000FD
:1014900080628093A000D093AB00C093AA003DC0AF
:1014A0008091A00088608093A000D093AD00C0938D
:1014B000AC0033C080912001806880932001D093DC
:1014C0002901C093280129C0809120018062809366
:1014D0002001D0932B01C0932A011FC080912001CD
:1014E000886080932001D0932D01C0932C0115C0FA
:1014F000C038D10514F460E001C061E0812FDF91B4
:10150000CF911F910F91FF90EF90DF90CF90BF9000
:10151000AF909F908F900C944D05DF91CF911F91CC
:101520000F91FF90EF90DF90CF90BF90AF909F9082
:101530008F9008958EBD00000DB407FEFDCF8EB5CF
:101540000895CF93DF93EC0160E088810E944D0500
:1015500088E90E949A0A80E00E949A0A80E00E942C
:101560009A0A80E00E949A0A80E00E949A0A61E04A
:1015700088810E944D058BE891E00197F1F760E0CA
:1015800088810E944D0580EE0E949A0A61E0888160
:10159000DF91CF910C944D051F920F920FB60F92D1
:1015A00011240BB60F922F933F934F935F936F933A
:1015B0007F938F939F93AF93BF93EF93FF9380910C
:1015C000300787FF05C0109285001092840016C076
:1015D00020913007022E000C330B8091670590E0BC
:1015E000281739075CF43091300725E03203F00109
:1015F0001124E55DFA4F808186FD15C0809130078A
:101600008F5F8093300720913007022E000C330B40
:101610008091670590E02817390794F4809130078E
:101620008C302CF10DC0309130073203F0011124C1
:10163000E55DFA4F808160E08F730E944D05DECF3B
:10164000809184009091850084349C4918F480E452
:101650009CE905C080918400909185000496909348
:101660008900809388008FEF809330072AC04091D3
:101670008400509185003091300725E03203F0015D
:101680001124E55DFA4F81819281840F951F90931B
:10169000890080938800309130073203F0011124D3
:1016A000E55DFA4F808186FF0CC030913007320330
:1016B000F0011124E55DFA4F808161E08F730E9493
:1016C0004D05FF91EF91BF91AF919F918F917F91C8
:1016D0006F915F914F913F912F910F900BBE0F90A3
:1016E0000FBE0F901F90189540E050E060E070E84A
:1016F0008AE895E00E94800940E050E0BA0188E85D
:1017000095E00C94800980912C0790912D07A09171
:101710002E07B0912F070196A11DB11D80932C07B4
:1017200090932D07A0932E07B0932F078C3221E0C2
:101730009207A105B1056CF088359240A105B1056D
:1017400074F010922C0710922D0710922E07109211
:101750002F0760E082E00E944D0561E005C061E076
:1017600082E00E944D0560E083E00C944D058530D9
:1017700058F08FE492E00E945E038EE592E00E94B2
:101780005E0380E090E007C09927FC01E057FA4F24
:1017900080810E94D40B60E372E00E94C61281E057
:1017A000672B09F080E00895863308F08653909106
:1017B0007B00282F2870977F922B90937B00877057
:1017C000806480937C0080917A00806480937A00AA
:1017D00080917A0086FDFCCF80917800209179007D
:1017E00090E0922B08951F920F920FB60F92112442
:1017F0002F933F938F939F93AF93BF9380913B071A
:1018000090913C07A0913D07B0913E0730913A0777
:1018100023E0230F2D3720F40196A11DB11D05C033
:1018200026E8230F0296A11DB11D20933A0780934D
:101830003B0790933C07A0933D07B0933E078091F0
:10184000360790913707A0913807B0913907019674
:10185000A11DB11D8093360790933707A0933807D9
:10186000B0933907BF91AF919F918F913F912F9185
:101870000F900FBE0F901F901895789484B58260DA
:1018800084BD84B5816084BD85B5826085BD85B524
:10189000816085BD80916E00816080936E001092A2
:1018A000810080918100826080938100809181001D
:1018B00081608093810080918000816080938000AE
:1018C0008091B10084608093B1008091B00081600C
:1018D0008093B0008091910082608093910080910C
:1018E000910081608093910080919000816080934D
:1018F00090008091A10082608093A1008091A1005E
:1019000081608093A1008091A00081608093A000FD
:101910008091210182608093210180912101816069
:10192000809321018091200181608093200180912A
:101930007A00846080937A0080917A00826080933C
:101940007A0080917A00816080937A0080917A0099
:10195000806880937A001092C1000E94360361E093
:10196000809170050E947C0560E0809170050E9466
:101970004D0560E080916F050E947C0586E792E04E
:1019800090937A058093790510926C0210926B0205
:1019900010927402109275021092730281E080938B
:1019A00072021092710261E084E10E944D0561E0D3
:1019B00085E10E944D058091B9008E7F8093B9002A
:1019C0008091B9008D7F8093B90088E48093B8003E
:1019D00085E48093BC0086E592E090936E0280934C
:1019E0006D0287E592E09093700280936F0280E031
:1019F00090E1A0E0B0E080937C0590937D05A093FA
:101A00007E05B0937F058AE090E0A0E0B0E080938F
:101A1000800590938105A0938205B093830580E0B3
:101A200090E0A0E0B0E48093840590938505A093B6
:101A30008605B093870560E070E185E00E94700341
:101A40006FE979E380E00E947003CFE6D5E08E0174
:101A500052E0752E67E8A62E62E0B62E7DEC872E4A
:101A600072E0972EEBECEE2EE7E0FE2EF80194816B
:101A70008281898F9A8F61E00E947C0561E08A8D66
:101A80000E947C05F801908586816E01FDE1CF0EF4
:101A9000D11C8D8F9E8F61E00E947C0560E08E8D51
:101AA0000E947C0561E08D8D0E944D056FB6F89413
:101AB00080916202811126C0F5018491F401249184
:101AC000E82FF0E0EE0FFF1FEC5FFD4FA591B49102
:101AD0009C91822F892321F461E085E30E944D05CA
:101AE00061E085E30E947C058CB580618CBD8CB57E
:101AF00080648CBD61E084E30E947C0561E083E347
:101B00000E947C05809162028F5F809362026FBEAB
:101B1000C7010197F1F760E08D8D0E944D0588E8BF
:101B20000E949A0A83E00E949A0A61E08D8D0E94C9
:101B30004D05C7010197F1F7C6010E94A10A7A94E9
:101B40000F5F1F4F2296711091CF04E915E0C8E98D
:101B5000D5E060E0F80181918F010E947C05F5E0FD
:101B600008391F07B1F700E915E08AE9E82E85E09A
:101B7000F82E95E0D92E2CE0B22E32E0C32EA9909B
:101B80008F818C3008F044C061E08A2D0E947C0572
:101B90008F81D89EF0011124E55DFA4F9A2D9F7335
:101BA0002081207CA22EA92AA082138214826B2D70
:101BB0000E94BA122CE0829FA001112420E030E0A4
:101BC000BA01620F731FD69EF001D79EF00D11244B
:101BD000E55DFA4F908196FD12C02F5F3F4F2C308C
:101BE000310571F781110BC010928000C092810005
:101BF0001092850010928400C6BAC0926F00EF81E7
:101C0000DE9EF0011124E55DFA4F808180648083BF
:101C10009D818B81F801828B938B60E00E947C0513
:101C200061E0F80183890E947C0560E0F801838906
:101C30000E944D050E5F1F4FEC16FD0609F09FCF69
:101C4000F8941092200189E08093210180E293E0D2
:101C5000909329018093280110922501109224016C
:101C600082E08093730078948093590410925D040D
:101C700080915A0460E00E947C0561E082E00E944D
:101C80007C0561E083E00E947C0560E082E30E94C5
:101C90007C0560E086E20E947C0560E088E20E94AC
:101CA0007C0560E08AE20E947C0560E08CE20E9494
:101CB0007C0560E08EE20E947C0560E080E30E948B
:101CC0007C0560E086E10E947C0560E081E20E9484
:101CD0007C050E9436038EE895E00E94A10A8CE8FC
:101CE00095E00E94A10A5524539480916902909135
:101CF0006A02892B09F44BC180E090E00E94B70B87
:101D0000D82F82E090E00E94B70BC82F81E090E0CE
:101D10000E94B70BD11105C0C11103C0882309F47B
:101D200063C0509268020E94830B809193050E94C9
:101D3000D40BEC0180E090E00E94B70B082F81E00B
:101D400090E00E94B70B182F82E090E00E94B70B42
:101D5000002361F1882379F00E94830BCB5FD109C6
:101D6000E197E8F50E94740B80E492E00E945E0324
:101D70005092670234C0111132C00E94830B40E0C0
:101D800050E060E070E88AE895E00E9480094DEC40
:101D90005CEC6CEC7DE388E895E00E94800982E0D1
:101DA00090E00E94B70B8823D1F0D6CF8111D4CF19
:101DB0001123A9F00E94830B4DEC5CEC6CEC7DEBE5
:101DC0008AE895E00E94800940E050E0BA0188E886
:101DD00095E00E94800982E090E00E94B70B60E0ED
:101DE0008DE00E944D05E9C01092670240906802A4
:101DF00081E20E9424055C0186E10E9424056C01B9
:101E000080E30E9424057C018EE20E9424058C015F
:101E10008CE20E942405EC018AE20E9424054C0118
:101E200088E20E9424053C0186E20E9424054110BC
:101E300076C0AB2829F04AE959E969E17EEB06C092
:101E4000CD2879F04AE959E969E17EE388E895E02F
:101E50000E94800940E050E060E87EEB8AE895E06F
:101E600008C0EF2859F04AE959E969E17EE388E8BA
:101E700095E00E9480095092000251C0012B29F088
:101E800040E050E060E87EE33EC0CD2BC9F78928F2
:101E900039F04AE959E969E17EEB8AE895E017C033
:101EA000672829F04AE959E969E17EEB06C0892BE8
:101EB00099F04AE959E969E17EE38AE895E00E94F0
:101EC000800940E050E060E87EE388E895E00E9409
:101ED00080091092000223C08091000281110FC07E
:101EE00040E050E060E87EE38AE895E00E948009E7
:101EF00040E050E060E87EE388E895E00EC040E016
:101F000050E060E87EEB88E895E00E94800940E0C0
:101F100050E060E87EEB8AE895E00E94800960E08E
:101F20008DE00E944D0560E082E00E944D0560E07A
:101F300083E00E944D0560E0809170050E944D0590
:101F40008091630290916402A0916502B091660253
:101F50000196A11DB11D8093630290936402A0932A
:101F60006502B0936602803DF7E09F07A105B105C9
:101F700024F1803A9F40A105B1054CF11092630213
:101F800010926402109265021092660216C00E94BE
:101F9000740B60E082E00E944D0560E083E00E94E7
:101FA0004D0560E08DE00E944D058EE895E00E94B1
:101FB000A10A8CE895E00E94A10A82E30E94240510
:101FC00090936A02809369020E94D1068ECE10928D
:101FD0006802F3CF109279021092780288EE93E0B3
:101FE000A0E0B0E080937A0290937B02A0937C0201
:101FF000B0937D0224E132E03093770220937602A1
:102000001092850210928402809386029093870238
:10201000A0938802B093890226E232E030938302D3
:102020002093820245E351E050938F0240938E0249
:1020300044E351E0509391024093900240E351E019
:10204000509393024093920241E351E050939502E2
:102050004093940242E351E05093970240939602DA
:1020600046E351E0509399024093980210929B02EC
:1020700010929C0210929D0210929E0210922203D6
:10208000109221038093230390932403A0932503AC
:10209000B09326033093200320931F0345ED50E0B7
:1020A00050932C0340932B0344ED50E050932E03A8
:1020B00040932D0340ED50E05093300340932F03A5
:1020C00041ED50E0509332034093310342ED50E034
:1020D000509334034093330346ED50E0509336035E
:1020E00040933503109238031092390310923A034B
:1020F00010923B031092BF031092BE038093C00363
:102100009093C103A093C203B093C3033093BD0364
:102110002093BC0385EC90E09093C9038093C8039F
:1021200084EC90E09093CB038093CA0380EC90E022
:102130009093CD038093CC0381EC90E09093CF03F8
:102140008093CE0382EC90E09093D1038093D003F0
:1021500086EC90E09093D3038093D2031092D50342
:102160001092D6031092D7031092D80380910802E0
:1021700090910902A0910A02B0910B028093900500
:1021800090939105A0939205B093930580910C02D2
:1021900090910D02A0910E02B0910F0280939405D0
:1021A00090939505A0939605B093970584E080934E
:1021B000980587E08093990510929A0584EB8093A7
:1021C0009B0586E180939C0588E180939D0587E1CE
:1021D00080939E0589E180939F05E0916705EC302F
:1021E00020F08FEF8093A00510C081E08E0F8093C8
:1021F0006705E093A00585E0E89FF0011124E55D07
:10220000FA4F88EB9BE092838183E0916705EC3085
:1022100020F08FEF8093A10510C081E08E0F809396
:102220006705E093A10585E0E89FF0011124E55DD5
:10223000FA4F88EB9BE0928381838CE080936F055B
:1022400084E28093700586E08093710585E0809339
:1022500072058FE1809373058EE18093740583E2AC
:102260008093750582E28093760585E480937705F7
:1022700084E48093780580E480937B051092800548
:1022800010928105109282051092830510928405A8
:10229000109285051092860510928705E5E5F6E017
:1022A00023E137E08FEF9FEFDC011282138214826B
:1022B0001582168217821086118683879487A587D8
:1022C000B6878787908BA18BB28B12861182108282
:1022D00073962E173F0749F78DE090E00E94311367
:1022E000FC011382128288E392E09183808311863D
:1022F00087E2848384E1828784E083871486F09375
:102300005206E0935106109253061092540685E24D
:1023100080935A0410925C0410926905109268052B
:1023200010926B0510926A0510926D0510926C0563
:1023300061E070E080E090E00E945214009789F024
:10234000909369058093680510926B0510926A0559
:1023500020916C0530916D05232BC1F4FC01108296
:1023600015C08091680590916905009711F00E9451
:10237000C913109269051092680510926D051092AC
:102380006C0510926B0510926A05089510926D0508
:1023900010926C0560E672E0809168059091690585
:1023A0000C94451580916805909169050C94C913AA
:1023B000990F0008550FAA0BE0E8FEEF1616170656
:1023C000E807F907C0F012161306E407F50798F0BE
:1023D000621B730B840B950B39F40A2661F0232BD7
:1023E000242B252B21F408950A2609F4A140A69553
:1023F0008FEF811D811D08950E940F120C94801291
:102400000E94721238F00E94791220F0952311F088
:102410000C9469120C946F1211240C94B4120E9443
:10242000911270F3959FC1F3950F50E0551F629F75
:10243000F001729FBB27F00DB11D639FAA27F00D1D
:10244000B11DAA1F649F6627B00DA11D661F829F44
:102450002227B00DA11D621F739FB00DA11D621F29
:10246000839FA00D611D221F749F3327A00D611D46
:10247000231F849F600D211D822F762F6A2F112428
:102480009F5750409AF0F1F088234AF0EE0FFF1F5B
:10249000BB1F661F771F881F91505040A9F79E3FB2
:1024A000510580F00C9469120C94B4125F3FE4F370
:1024B000983ED4F3869577956795B795F795E79508
:1024C0009F5FC1F7FE2B880F911D9695879597F911
:1024D000089597F99F6780E870E060E008959FEFA6
:1024E00080EC089500240A941616170618060906AB
:1024F000089500240A94121613061406050608957A
:10250000092E0394000C11F4882352F0BB0F40F401
:10251000BF2B11F460FF04C06F5F7F4F8F4F9F4F41
:10252000089557FD9058440F551F59F05F3F71F0C3
:102530004795880F97FB991F61F09F3F79F087952A
:102540000895121613061406551FF2CF4695F1DFB3
:1025500008C0161617061806991FF1CF8695710543
:10256000610508940895E894BB2766277727CB0177
:1025700097F90895991B79E004C0991F961708F000
:10258000961B881F7A95C9F78095089597FB072EAB
:1025900016F4009407D077FD09D00E94E21207FCE0
:1025A00005D03EF4909581959F4F08957095619563
:1025B0007F4F0895EE0FFF1F881F8BBF0790F69186
:1025C000E02D1994AA1BBB1B51E107C0AA1FBB1F1A
:1025D000A617B70710F0A61BB70B881F991F5A95AF
:1025E000A9F780959095BC01CD0108950E94FD1238
:1025F0006894B1110C94B41208950E94991288F055
:102600009F5798F0B92F9927B751B0F0E1F0660FB6
:10261000771F881F991F1AF0BA95C9F714C0B130F7
:1026200091F00E94B312B1E008950C94B312672F99
:10263000782F8827B85F39F0B93FCCF38695779526
:102640006795B395D9F73EF490958095709561950F
:102650007F4F8F4F9F4F08950E94D81108F48FEF3E
:1026600008950F931F93CF93DF938230910510F459
:1026700082E090E0E0914107F091420720E030E0F5
:10268000A0E0B0E0309719F14081518102811381BF
:1026900048175907C8F08417950769F4109731F067
:1026A00012960C93129713961C9327C00093410720
:1026B0001093420722C02115310519F04217530724
:1026C00018F49A01BD01EF01DF01F801DBCF2115FC
:1026D0003105F9F0281B390B2430310580F48A814B
:1026E0009B816115710521F0FB019383828304C0F6
:1026F0009093420780934107FE01329644C0FE0149
:10270000E20FF31F8193919322503109398328837B
:102710003AC020913F0730914007232B41F420918C
:102720000402309105023093400720933F07209127
:102730000202309103022115310541F42DB73EB755
:102740004091060250910702241B350BE0913F0790
:10275000F0914007E217F307A0F42E1B3F0B281758
:10276000390778F0AC014E5F5F4F2417350748F00A
:102770004E0F5F1F5093400740933F078193919303
:1027800002C0E0E0F0E0CF01DF91CF911F910F9107
:102790000895CF93DF93009709F481C0FC0132972D
:1027A00013821282A0914107B0914207109781F4E1
:1027B00020813181820F931F20913F073091400784
:1027C0002817390751F5F0934007E0933F0767C09A
:1027D000ED0120E030E0CE17DF0740F44A815B8155
:1027E0009E0141155105F1F0EA01F5CFD383C28373
:1027F00040815181840F951FC817D90759F48881EA
:102800009981840F951F0296918380838A819B8191
:10281000938382832115310529F4F0934207E093D5
:1028200041073DC0E901FB83EA8349915991C40FF7
:10283000D51FEC17FD0761F480819181840F951FEE
:102840000296E90199838883828193819B838A839D
:10285000E0E0F0E012968D919C911397009719F0AB
:10286000FD01DC01F7CF8D919C9111979D012E5FA9
:102870003F4F820F931F20913F0730914007281749
:10288000390769F4309729F41092420710924107F2
:1028900002C013821282B0934007A0933F07DF91DA
:1028A000CF9108956F927F928F929F92AF92BF9235
:1028B000CF92DF92EF92FF920F931F93CF93DF930C
:1028C000009789F4CB01DF91CF911F910F91FF9079
:1028D000EF90DF90CF90BF90AF909F908F907F90C0
:1028E0006F900C943113FC01E60FF71F9C012250EE
:1028F0003109E217F30708F4A9C0EC01D9010D91E1
:102900001C91119706171707B0F00530110508F450
:102910009BC0C80104978617970708F495C002501A
:102920001109061B170B019311936D937C93CF0133
:102930000E94C91389C05B01A01AB10A4C01800E24
:10294000911EA0914107B0914207612C712CE12C9E
:10295000F12C109709F446C08D919C911197A81500
:10296000B905B1F56C0142E0C40ED11CCA14DB04F8
:1029700078F14C018A189B08640142E0C40ED11C16
:102980001296BC9012971396AC91B5E0CB16D10479
:1029900040F0B282A38391828082D9016D937C93AF
:1029A00009C00E5F1F4F800F911FF9019183808333
:1029B000EB2DFA2FE114F10431F0D7011396FC93BB
:1029C000EE93129741C0F0934207E09341073CC059
:1029D0006816790608F43C017D0112960D90BC91B1
:1029E000A02DB7CF80913F07909140078816990698
:1029F000E1F466167706C8F4809102029091030212
:102A0000009741F48DB79EB740910602509107029E
:102A1000841B950BE817F907C8F4F0934007E0937F
:102A20003F07F901718360830FC0CB010E9431130E
:102A30007C01009759F0A801BE010E943C15CE010F
:102A40000E94C913C70104C0CE0102C080E090E01B
:102A5000DF91CF911F910F91FF90EF90DF90CF907A
:102A6000BF90AF909F908F907F906F90089581E07E
:102A700090E0F8940C944C15FB01DC0102C001902D
:102A80000D9241505040D8F70895FB01DC010190B0
:102A90000D920020E1F7089511E0C4E9D1E000E0D3
:102AA00006C0802FFE010E94DA122196011DC53951
:0C2AB000D10780E00807A9F7F894FFCFD9
:102ABC0001FF000043072000363738391B1D1A1C54
:102ACC0000000000B1028402FF0658027C0268027A
:102ADC005902000000005F06B805E205AC061306BB
:102AEC00F1050506000000000407B805FF06FE0608
:102AFC00626F6E6E652064697374616E6365004904
:102B0C006E76616C696420495220696421000D0A5B
:022B1C000000B7
:00000001FF
